{
  "_format": "hh-sol-artifact-1",
  "contractName": "Liquidator",
  "sourceName": "contracts/plugins/Liquidator.sol",
  "abi": [
    {
      "inputs": [
        {
          "internalType": "contract Governable",
          "name": "_govImpl",
          "type": "address"
        },
        {
          "internalType": "contract MarketManagerUpgradeable",
          "name": "_marketManager",
          "type": "address"
        }
      ],
      "stateMutability": "nonpayable",
      "type": "constructor"
    },
    {
      "inputs": [],
      "name": "Forbidden",
      "type": "error"
    },
    {
      "anonymous": false,
      "inputs": [
        {
          "indexed": false,
          "internalType": "address",
          "name": "account",
          "type": "address"
        },
        {
          "indexed": false,
          "internalType": "bool",
          "name": "active",
          "type": "bool"
        }
      ],
      "name": "ExecutorUpdated",
      "type": "event"
    },
    {
      "inputs": [
        {
          "internalType": "contract Governable",
          "name": "_newGov",
          "type": "address"
        }
      ],
      "name": "_changeImpl",
      "outputs": [],
      "stateMutability": "nonpayable",
      "type": "function"
    },
    {
      "inputs": [],
      "name": "executionGasLimit",
      "outputs": [
        {
          "internalType": "uint256",
          "name": "",
          "type": "uint256"
        }
      ],
      "stateMutability": "view",
      "type": "function"
    },
    {
      "inputs": [
        {
          "internalType": "address",
          "name": "",
          "type": "address"
        }
      ],
      "name": "executors",
      "outputs": [
        {
          "internalType": "bool",
          "name": "",
          "type": "bool"
        }
      ],
      "stateMutability": "view",
      "type": "function"
    },
    {
      "inputs": [],
      "name": "gov",
      "outputs": [
        {
          "internalType": "address",
          "name": "",
          "type": "address"
        }
      ],
      "stateMutability": "view",
      "type": "function"
    },
    {
      "inputs": [
        {
          "internalType": "contract IERC20",
          "name": "_market",
          "type": "address"
        },
        {
          "internalType": "address payable",
          "name": "_account",
          "type": "address"
        },
        {
          "internalType": "address payable",
          "name": "_feeReceiver",
          "type": "address"
        }
      ],
      "name": "liquidatePosition",
      "outputs": [],
      "stateMutability": "nonpayable",
      "type": "function"
    },
    {
      "inputs": [],
      "name": "marketManager",
      "outputs": [
        {
          "internalType": "contract MarketManagerUpgradeable",
          "name": "",
          "type": "address"
        }
      ],
      "stateMutability": "view",
      "type": "function"
    },
    {
      "inputs": [
        {
          "internalType": "uint256",
          "name": "_executionGasLimit",
          "type": "uint256"
        }
      ],
      "name": "updateExecutionGasLimit",
      "outputs": [],
      "stateMutability": "nonpayable",
      "type": "function"
    },
    {
      "inputs": [
        {
          "internalType": "address",
          "name": "_account",
          "type": "address"
        },
        {
          "internalType": "bool",
          "name": "_active",
          "type": "bool"
        }
      ],
      "name": "updateExecutor",
      "outputs": [],
      "stateMutability": "nonpayable",
      "type": "function"
    }
  ],
  "bytecode": "0x60a034609e57601f61077838819003918201601f19168301916001600160401b0383118484101760a2578084926040948552833981010312609e5780516001600160a01b0381169190829003609e5760200151906001600160a01b0382168203609e575f80546001600160a01b031916919091179055620f42406001556080526040516106c190816100b7823960805181818161017a015261036b0152f35b5f80fd5b634e487b7160e01b5f52604160045260245ffdfe6080806040526004361015610012575f80fd5b5f905f3560e01c90816312d43a51146104965750806334b85e74146103ca57806339cb1f3e1461038f57806341ed2c121461032157806349f6e1de1461029e5780639ac2a01114610236578063c6400814146100b95763f9a1dde914610076575f80fd5b346100b65760207ffffffffffffffffffffffffffffffffffffffffffffffffffffffffffffffffc3601126100b6576100ad610620565b60043560015580f35b80fd5b503461020a5760607ffffffffffffffffffffffffffffffffffffffffffffffffffffffffffffffffc36011261020a5760043573ffffffffffffffffffffffffffffffffffffffff811680910361020a576024359073ffffffffffffffffffffffffffffffffffffffff821680920361020a576044359173ffffffffffffffffffffffffffffffffffffffff831680930361020a57335f52600260205260ff60405f2054161561020e5773ffffffffffffffffffffffffffffffffffffffff7f000000000000000000000000000000000000000000000000000000000000000016803b1561020a575f928360649260405196879586947fc64008140000000000000000000000000000000000000000000000000000000086526004860152602485015260448401525af180156101ff576101f1575080f35b6101fd91505f90610586565b005b6040513d5f823e3d90fd5b5f80fd5b7fee90c468000000000000000000000000000000000000000000000000000000005f5260045ffd5b3461020a5760207ffffffffffffffffffffffffffffffffffffffffffffffffffffffffffffffffc36011261020a5773ffffffffffffffffffffffffffffffffffffffff610282610563565b165f526002602052602060ff60405f2054166040519015158152f35b3461020a5760207ffffffffffffffffffffffffffffffffffffffffffffffffffffffffffffffffc36011261020a5760043573ffffffffffffffffffffffffffffffffffffffff811680910361020a576102f6610620565b7fffffffffffffffffffffffff00000000000000000000000000000000000000005f5416175f555f80f35b3461020a575f7ffffffffffffffffffffffffffffffffffffffffffffffffffffffffffffffffc36011261020a57602060405173ffffffffffffffffffffffffffffffffffffffff7f0000000000000000000000000000000000000000000000000000000000000000168152f35b3461020a575f7ffffffffffffffffffffffffffffffffffffffffffffffffffffffffffffffffc36011261020a576020600154604051908152f35b3461020a5760407ffffffffffffffffffffffffffffffffffffffffffffffffffffffffffffffffc36011261020a57610401610563565b6024359081151580920361020a577f9fdbc2d48b8a0db2f62663bf9312ad02f5b1f6414ad600b55a247d09aeec3ea29173ffffffffffffffffffffffffffffffffffffffff604092610451610620565b1690815f526002602052825f207fffffffffffffffffffffffffffffffffffffffffffffffffffffffffffffff0081541660ff831617905582519182526020820152a1005b3461020a575f7ffffffffffffffffffffffffffffffffffffffffffffffffffffffffffffffffc36011261020a5760208160048173ffffffffffffffffffffffffffffffffffffffff5f54167f12d43a510000000000000000000000000000000000000000000000000000000082525afa80156101ff576020915f91610536575b5073ffffffffffffffffffffffffffffffffffffffff60405191168152f35b6105569150823d841161055c575b61054e8183610586565b8101906105f4565b82610517565b503d610544565b6004359073ffffffffffffffffffffffffffffffffffffffff8216820361020a57565b90601f7fffffffffffffffffffffffffffffffffffffffffffffffffffffffffffffffe0910116810190811067ffffffffffffffff8211176105c757604052565b7f4e487b71000000000000000000000000000000000000000000000000000000005f52604160045260245ffd5b9081602091031261020a575173ffffffffffffffffffffffffffffffffffffffff8116810361020a5790565b6004602073ffffffffffffffffffffffffffffffffffffffff5f5416604051928380927f12d43a510000000000000000000000000000000000000000000000000000000082525afa80156101ff5773ffffffffffffffffffffffffffffffffffffffff915f91610695575b5016330361020e57565b6106ae915060203d60201161055c5761054e8183610586565b5f61068b56fea164736f6c634300081a000a",
  "linkReferences": {},
  "deployedLinkReferences": {}
}