{
  "_format": "hh-sol-artifact-1",
  "contractName": "BalanceRateBalancer",
  "sourceName": "contracts/plugins/BalanceRateBalancer.sol",
  "abi": [
    {
      "inputs": [
        {
          "internalType": "contract Governable",
          "name": "_govImpl",
          "type": "address"
        },
        {
          "internalType": "contract IMarketManager",
          "name": "_marketManager",
          "type": "address"
        },
        {
          "internalType": "contract IDirectExecutablePlugin",
          "name": "_plugin",
          "type": "address"
        },
        {
          "internalType": "enum IPositionRouterCommon.EstimatedGasLimitType[]",
          "name": "_estimatedGasLimitTypes",
          "type": "uint8[]"
        },
        {
          "internalType": "uint256[]",
          "name": "_estimatedGasLimits",
          "type": "uint256[]"
        }
      ],
      "stateMutability": "nonpayable",
      "type": "constructor"
    },
    {
      "inputs": [
        {
          "internalType": "address",
          "name": "target",
          "type": "address"
        }
      ],
      "name": "AddressEmptyCode",
      "type": "error"
    },
    {
      "inputs": [
        {
          "internalType": "address",
          "name": "account",
          "type": "address"
        }
      ],
      "name": "AddressInsufficientBalance",
      "type": "error"
    },
    {
      "inputs": [
        {
          "internalType": "bytes32",
          "name": "id",
          "type": "bytes32"
        }
      ],
      "name": "ConflictRequests",
      "type": "error"
    },
    {
      "inputs": [
        {
          "internalType": "uint256",
          "name": "expiredAt",
          "type": "uint256"
        }
      ],
      "name": "Expired",
      "type": "error"
    },
    {
      "inputs": [],
      "name": "FailedInnerCall",
      "type": "error"
    },
    {
      "inputs": [],
      "name": "FailedTransferETH",
      "type": "error"
    },
    {
      "inputs": [],
      "name": "Forbidden",
      "type": "error"
    },
    {
      "inputs": [
        {
          "internalType": "uint256",
          "name": "balance",
          "type": "uint256"
        },
        {
          "internalType": "uint256",
          "name": "requiredAmount",
          "type": "uint256"
        }
      ],
      "name": "InsufficientBalance",
      "type": "error"
    },
    {
      "inputs": [
        {
          "internalType": "uint256",
          "name": "available",
          "type": "uint256"
        },
        {
          "internalType": "uint256",
          "name": "required",
          "type": "uint256"
        }
      ],
      "name": "InsufficientExecutionFee",
      "type": "error"
    },
    {
      "inputs": [],
      "name": "InvalidCallbackData",
      "type": "error"
    },
    {
      "inputs": [
        {
          "internalType": "address",
          "name": "requiredCaller",
          "type": "address"
        }
      ],
      "name": "InvalidCaller",
      "type": "error"
    },
    {
      "inputs": [
        {
          "internalType": "address",
          "name": "caller",
          "type": "address"
        }
      ],
      "name": "InvalidCaller",
      "type": "error"
    },
    {
      "inputs": [
        {
          "internalType": "uint64",
          "name": "indexPrice",
          "type": "uint64"
        },
        {
          "internalType": "uint64",
          "name": "acceptableIndexPrice",
          "type": "uint64"
        }
      ],
      "name": "InvalidIndexPrice",
      "type": "error"
    },
    {
      "inputs": [
        {
          "internalType": "uint8",
          "name": "bits",
          "type": "uint8"
        },
        {
          "internalType": "uint256",
          "name": "value",
          "type": "uint256"
        }
      ],
      "name": "SafeCastOverflowedUintDowncast",
      "type": "error"
    },
    {
      "inputs": [
        {
          "internalType": "uint256",
          "name": "earliest",
          "type": "uint256"
        }
      ],
      "name": "TooEarly",
      "type": "error"
    },
    {
      "inputs": [
        {
          "internalType": "uint96",
          "name": "acceptableMinAmount",
          "type": "uint96"
        },
        {
          "internalType": "uint96",
          "name": "receiveAmount",
          "type": "uint96"
        }
      ],
      "name": "TooLittleReceived",
      "type": "error"
    },
    {
      "inputs": [
        {
          "internalType": "uint96",
          "name": "payAmount",
          "type": "uint96"
        },
        {
          "internalType": "uint96",
          "name": "acceptableMaxAmount",
          "type": "uint96"
        }
      ],
      "name": "TooMuchPaid",
      "type": "error"
    },
    {
      "anonymous": false,
      "inputs": [
        {
          "indexed": false,
          "internalType": "uint32",
          "name": "minBlockDelayExecutor",
          "type": "uint32"
        },
        {
          "indexed": false,
          "internalType": "uint32",
          "name": "minBlockDelayPublic",
          "type": "uint32"
        },
        {
          "indexed": false,
          "internalType": "uint32",
          "name": "maxBlockDelay",
          "type": "uint32"
        }
      ],
      "name": "DelayValuesUpdated",
      "type": "event"
    },
    {
      "anonymous": false,
      "inputs": [
        {
          "indexed": false,
          "internalType": "uint24",
          "name": "estimatedGasMultiplier",
          "type": "uint24"
        }
      ],
      "name": "EstimatedGasFeeMultiplierUpdated",
      "type": "event"
    },
    {
      "anonymous": false,
      "inputs": [
        {
          "indexed": false,
          "internalType": "enum IPositionRouterCommon.EstimatedGasLimitType",
          "name": "estimatedGasLimitType",
          "type": "uint8"
        },
        {
          "indexed": false,
          "internalType": "uint256",
          "name": "estimatedGasLimit",
          "type": "uint256"
        }
      ],
      "name": "EstimatedGasLimitUpdated",
      "type": "event"
    },
    {
      "anonymous": false,
      "inputs": [
        {
          "indexed": true,
          "internalType": "bytes32",
          "name": "id",
          "type": "bytes32"
        },
        {
          "indexed": false,
          "internalType": "bytes4",
          "name": "shortenedReason",
          "type": "bytes4"
        }
      ],
      "name": "ExecuteFailed",
      "type": "event"
    },
    {
      "anonymous": false,
      "inputs": [
        {
          "indexed": true,
          "internalType": "enum IPositionRouterCommon.RequestType",
          "name": "reqType",
          "type": "uint8"
        },
        {
          "indexed": true,
          "internalType": "bytes32",
          "name": "id",
          "type": "bytes32"
        },
        {
          "indexed": false,
          "internalType": "bytes4",
          "name": "shortenedReason",
          "type": "bytes4"
        }
      ],
      "name": "ExecuteFailed",
      "type": "event"
    },
    {
      "anonymous": false,
      "inputs": [
        {
          "indexed": false,
          "internalType": "uint24",
          "name": "executionGasFeeMultiplier",
          "type": "uint24"
        }
      ],
      "name": "ExecutionGasFeeMultiplierUpdated",
      "type": "event"
    },
    {
      "anonymous": false,
      "inputs": [
        {
          "indexed": true,
          "internalType": "bytes32",
          "name": "id",
          "type": "bytes32"
        },
        {
          "indexed": false,
          "internalType": "address payable",
          "name": "executionFeeReceiver",
          "type": "address"
        }
      ],
      "name": "IncreaseBalanceRateCancelled",
      "type": "event"
    },
    {
      "anonymous": false,
      "inputs": [
        {
          "indexed": true,
          "internalType": "contract IERC20",
          "name": "market",
          "type": "address"
        },
        {
          "indexed": true,
          "internalType": "contract IERC20",
          "name": "collateral",
          "type": "address"
        },
        {
          "indexed": false,
          "internalType": "uint128",
          "name": "amount",
          "type": "uint128"
        },
        {
          "indexed": false,
          "internalType": "uint256",
          "name": "executionFee",
          "type": "uint256"
        },
        {
          "indexed": false,
          "internalType": "address",
          "name": "account",
          "type": "address"
        },
        {
          "indexed": false,
          "internalType": "address[]",
          "name": "targets",
          "type": "address[]"
        },
        {
          "indexed": false,
          "internalType": "bytes[]",
          "name": "calldatas",
          "type": "bytes[]"
        },
        {
          "indexed": false,
          "internalType": "bytes32",
          "name": "id",
          "type": "bytes32"
        }
      ],
      "name": "IncreaseBalanceRateCreated",
      "type": "event"
    },
    {
      "anonymous": false,
      "inputs": [
        {
          "indexed": true,
          "internalType": "bytes32",
          "name": "id",
          "type": "bytes32"
        },
        {
          "indexed": false,
          "internalType": "address payable",
          "name": "executionFeeReceiver",
          "type": "address"
        },
        {
          "indexed": false,
          "internalType": "uint256",
          "name": "executionFee",
          "type": "uint256"
        }
      ],
      "name": "IncreaseBalanceRateExecuted",
      "type": "event"
    },
    {
      "anonymous": false,
      "inputs": [
        {
          "indexed": true,
          "internalType": "address",
          "name": "account",
          "type": "address"
        },
        {
          "indexed": false,
          "internalType": "bool",
          "name": "active",
          "type": "bool"
        }
      ],
      "name": "PositionExecutorUpdated",
      "type": "event"
    },
    {
      "inputs": [
        {
          "internalType": "contract IERC20",
          "name": "",
          "type": "address"
        },
        {
          "internalType": "uint96",
          "name": "_payAmount",
          "type": "uint96"
        },
        {
          "internalType": "uint96",
          "name": "",
          "type": "uint96"
        },
        {
          "internalType": "bytes",
          "name": "_data",
          "type": "bytes"
        }
      ],
      "name": "PUSDManagerCallback",
      "outputs": [],
      "stateMutability": "nonpayable",
      "type": "function"
    },
    {
      "inputs": [
        {
          "internalType": "contract Governable",
          "name": "_newGov",
          "type": "address"
        }
      ],
      "name": "_changeImpl",
      "outputs": [],
      "stateMutability": "nonpayable",
      "type": "function"
    },
    {
      "inputs": [
        {
          "internalType": "bytes32",
          "name": "id",
          "type": "bytes32"
        }
      ],
      "name": "blockNumbers",
      "outputs": [
        {
          "internalType": "uint256",
          "name": "blockNumber",
          "type": "uint256"
        }
      ],
      "stateMutability": "view",
      "type": "function"
    },
    {
      "inputs": [
        {
          "components": [
            {
              "internalType": "contract IERC20",
              "name": "market",
              "type": "address"
            },
            {
              "internalType": "contract IERC20",
              "name": "collateral",
              "type": "address"
            },
            {
              "internalType": "uint96",
              "name": "amount",
              "type": "uint96"
            },
            {
              "internalType": "uint256",
              "name": "executionFee",
              "type": "uint256"
            },
            {
              "internalType": "address",
              "name": "account",
              "type": "address"
            },
            {
              "internalType": "address[]",
              "name": "targets",
              "type": "address[]"
            },
            {
              "internalType": "bytes[]",
              "name": "calldatas",
              "type": "bytes[]"
            }
          ],
          "internalType": "struct IBalanceRateBalancer.IncreaseBalanceRateRequestIdParam",
          "name": "_param",
          "type": "tuple"
        },
        {
          "internalType": "address payable",
          "name": "_executionFeeReceiver",
          "type": "address"
        }
      ],
      "name": "cancelIncreaseBalanceRate",
      "outputs": [
        {
          "internalType": "bool",
          "name": "",
          "type": "bool"
        }
      ],
      "stateMutability": "nonpayable",
      "type": "function"
    },
    {
      "inputs": [
        {
          "internalType": "contract IERC20",
          "name": "_market",
          "type": "address"
        },
        {
          "internalType": "contract IERC20",
          "name": "_collateral",
          "type": "address"
        },
        {
          "internalType": "uint96",
          "name": "_amount",
          "type": "uint96"
        },
        {
          "internalType": "address[]",
          "name": "_targets",
          "type": "address[]"
        },
        {
          "internalType": "bytes[]",
          "name": "_calldatas",
          "type": "bytes[]"
        }
      ],
      "name": "createIncreaseBalanceRate",
      "outputs": [
        {
          "internalType": "bytes32",
          "name": "id",
          "type": "bytes32"
        }
      ],
      "stateMutability": "payable",
      "type": "function"
    },
    {
      "inputs": [],
      "name": "estimatedGasFeeMultiplier",
      "outputs": [
        {
          "internalType": "uint24",
          "name": "",
          "type": "uint24"
        }
      ],
      "stateMutability": "view",
      "type": "function"
    },
    {
      "inputs": [
        {
          "internalType": "enum IPositionRouterCommon.EstimatedGasLimitType",
          "name": "",
          "type": "uint8"
        }
      ],
      "name": "estimatedGasLimits",
      "outputs": [
        {
          "internalType": "uint256",
          "name": "",
          "type": "uint256"
        }
      ],
      "stateMutability": "view",
      "type": "function"
    },
    {
      "inputs": [],
      "name": "etherTransferGasLimit",
      "outputs": [
        {
          "internalType": "uint32",
          "name": "",
          "type": "uint32"
        }
      ],
      "stateMutability": "view",
      "type": "function"
    },
    {
      "inputs": [
        {
          "components": [
            {
              "internalType": "contract IERC20",
              "name": "market",
              "type": "address"
            },
            {
              "internalType": "contract IERC20",
              "name": "collateral",
              "type": "address"
            },
            {
              "internalType": "uint96",
              "name": "amount",
              "type": "uint96"
            },
            {
              "internalType": "uint256",
              "name": "executionFee",
              "type": "uint256"
            },
            {
              "internalType": "address",
              "name": "account",
              "type": "address"
            },
            {
              "internalType": "address[]",
              "name": "targets",
              "type": "address[]"
            },
            {
              "internalType": "bytes[]",
              "name": "calldatas",
              "type": "bytes[]"
            }
          ],
          "internalType": "struct IBalanceRateBalancer.IncreaseBalanceRateRequestIdParam",
          "name": "_param",
          "type": "tuple"
        },
        {
          "internalType": "address payable",
          "name": "_executionFeeReceiver",
          "type": "address"
        }
      ],
      "name": "executeIncreaseBalanceRate",
      "outputs": [
        {
          "internalType": "bool",
          "name": "",
          "type": "bool"
        }
      ],
      "stateMutability": "nonpayable",
      "type": "function"
    },
    {
      "inputs": [
        {
          "components": [
            {
              "internalType": "contract IERC20",
              "name": "market",
              "type": "address"
            },
            {
              "internalType": "contract IERC20",
              "name": "collateral",
              "type": "address"
            },
            {
              "internalType": "uint96",
              "name": "amount",
              "type": "uint96"
            },
            {
              "internalType": "uint256",
              "name": "executionFee",
              "type": "uint256"
            },
            {
              "internalType": "address",
              "name": "account",
              "type": "address"
            },
            {
              "internalType": "address[]",
              "name": "targets",
              "type": "address[]"
            },
            {
              "internalType": "bytes[]",
              "name": "calldatas",
              "type": "bytes[]"
            }
          ],
          "internalType": "struct IBalanceRateBalancer.IncreaseBalanceRateRequestIdParam",
          "name": "_param",
          "type": "tuple"
        },
        {
          "internalType": "bool",
          "name": "_shouldCancelOnFail",
          "type": "bool"
        },
        {
          "internalType": "address payable",
          "name": "_executionFeeReceiver",
          "type": "address"
        }
      ],
      "name": "executeOrCancelIncreaseBalanceRate",
      "outputs": [],
      "stateMutability": "nonpayable",
      "type": "function"
    },
    {
      "inputs": [],
      "name": "executionGasFeeMultiplier",
      "outputs": [
        {
          "internalType": "uint24",
          "name": "",
          "type": "uint24"
        }
      ],
      "stateMutability": "view",
      "type": "function"
    },
    {
      "inputs": [],
      "name": "executionGasLimit",
      "outputs": [
        {
          "internalType": "uint32",
          "name": "",
          "type": "uint32"
        }
      ],
      "stateMutability": "view",
      "type": "function"
    },
    {
      "inputs": [],
      "name": "gov",
      "outputs": [
        {
          "internalType": "address",
          "name": "",
          "type": "address"
        }
      ],
      "stateMutability": "view",
      "type": "function"
    },
    {
      "inputs": [],
      "name": "marketManager",
      "outputs": [
        {
          "internalType": "contract IMarketManager",
          "name": "",
          "type": "address"
        }
      ],
      "stateMutability": "view",
      "type": "function"
    },
    {
      "inputs": [],
      "name": "maxBlockDelay",
      "outputs": [
        {
          "internalType": "uint32",
          "name": "",
          "type": "uint32"
        }
      ],
      "stateMutability": "view",
      "type": "function"
    },
    {
      "inputs": [],
      "name": "minBlockDelayExecutor",
      "outputs": [
        {
          "internalType": "uint32",
          "name": "",
          "type": "uint32"
        }
      ],
      "stateMutability": "view",
      "type": "function"
    },
    {
      "inputs": [],
      "name": "minBlockDelayPublic",
      "outputs": [
        {
          "internalType": "uint32",
          "name": "",
          "type": "uint32"
        }
      ],
      "stateMutability": "view",
      "type": "function"
    },
    {
      "inputs": [],
      "name": "plugin",
      "outputs": [
        {
          "internalType": "contract IDirectExecutablePlugin",
          "name": "",
          "type": "address"
        }
      ],
      "stateMutability": "view",
      "type": "function"
    },
    {
      "inputs": [
        {
          "internalType": "address",
          "name": "",
          "type": "address"
        }
      ],
      "name": "positionExecutors",
      "outputs": [
        {
          "internalType": "bool",
          "name": "",
          "type": "bool"
        }
      ],
      "stateMutability": "view",
      "type": "function"
    },
    {
      "inputs": [
        {
          "internalType": "uint32",
          "name": "_minBlockDelayExecutor",
          "type": "uint32"
        },
        {
          "internalType": "uint32",
          "name": "_minBlockDelayPublic",
          "type": "uint32"
        },
        {
          "internalType": "uint32",
          "name": "_maxBlockDelay",
          "type": "uint32"
        }
      ],
      "name": "updateDelayValues",
      "outputs": [],
      "stateMutability": "nonpayable",
      "type": "function"
    },
    {
      "inputs": [
        {
          "internalType": "uint24",
          "name": "_multiplier",
          "type": "uint24"
        }
      ],
      "name": "updateEstimatedGasFeeMultiplier",
      "outputs": [],
      "stateMutability": "nonpayable",
      "type": "function"
    },
    {
      "inputs": [
        {
          "internalType": "enum IPositionRouterCommon.EstimatedGasLimitType",
          "name": "_estimatedGasLimitType",
          "type": "uint8"
        },
        {
          "internalType": "uint256",
          "name": "_estimatedGasLimit",
          "type": "uint256"
        }
      ],
      "name": "updateEstimatedGasLimit",
      "outputs": [],
      "stateMutability": "nonpayable",
      "type": "function"
    },
    {
      "inputs": [
        {
          "internalType": "uint32",
          "name": "_etherTransferGasLimit",
          "type": "uint32"
        }
      ],
      "name": "updateEtherTransferGasLimit",
      "outputs": [],
      "stateMutability": "nonpayable",
      "type": "function"
    },
    {
      "inputs": [
        {
          "internalType": "uint24",
          "name": "_multiplier",
          "type": "uint24"
        }
      ],
      "name": "updateExecutionGasFeeMultiplier",
      "outputs": [],
      "stateMutability": "nonpayable",
      "type": "function"
    },
    {
      "inputs": [
        {
          "internalType": "uint32",
          "name": "_executionGasLimit",
          "type": "uint32"
        }
      ],
      "name": "updateExecutionGasLimit",
      "outputs": [],
      "stateMutability": "nonpayable",
      "type": "function"
    },
    {
      "inputs": [
        {
          "internalType": "address",
          "name": "_account",
          "type": "address"
        },
        {
          "internalType": "bool",
          "name": "_active",
          "type": "bool"
        }
      ],
      "name": "updatePositionExecutor",
      "outputs": [],
      "stateMutability": "nonpayable",
      "type": "function"
    },
    {
      "inputs": [],
      "name": "weth",
      "outputs": [
        {
          "internalType": "contract IWETHMinimum",
          "name": "",
          "type": "address"
        }
      ],
      "stateMutability": "view",
      "type": "function"
    },
    {
      "stateMutability": "payable",
      "type": "receive"
    }
  ],
  "bytecode": "0x60e06040523461026c57612b0c8038038061001981610289565b92833981019060a08183031261026c5780516001600160a01b038116919082900361026c5760208101516001600160a01b038116810361026c576040820151926001600160a01b038416840361026c5760608301516001600160401b03811161026c5783019285601f8501121561026c57835161009d610098826102c2565b610289565b9460208087848152019260051b8201019088821161026c57602001915b818310610270575050506080810151906001600160401b03821161026c57019480601f8701121561026c5785516100f3610098826102c2565b9660208089848152019260051b82010192831161026c57602001905b82821061025c5750505f80546001600160a01b031916929092178255506002805460809390935260a0829052600160201b600160d01b0319909216772710989680989680000f42400000012c0000003200000000179091555b81518110156102135761017b81856102d9565b5161018e61018983856102d9565b610301565b600b8110156101ff575f52600160205260405f20556101b061018982846102d9565b906101bb81866102d9565b5160405192600b8110156101ff57837fc8d9f716ee6f7a1977483c05570fa0e1f0b522aa1b25219c7336b65368ad56a492604092600196526020820152a101610168565b634e487b7160e01b5f52602160045260245ffd5b8260c0526040516127fd908161030f8239608051818181610ae20152818161106e01526121f4015260a051818181603101526110dc015260c0518181816102040152610d050152f35b815181526020918201910161010f565b5f80fd5b8251600b81101561026c578152602092830192016100ba565b6040519190601f01601f191682016001600160401b038111838210176102ae57604052565b634e487b7160e01b5f52604160045260245ffd5b6001600160401b0381116102ae5760051b60200190565b80518210156102ed5760209160051b010190565b634e487b7160e01b5f52603260045260245ffd5b51600b8110156101ff579056fe6080806040526004361015610085575b50361561001a575f80fd5b73ffffffffffffffffffffffffffffffffffffffff7f00000000000000000000000000000000000000000000000000000000000000001680330361005a57005b7fcbd9d2e0000000000000000000000000000000000000000000000000000000005f5260045260245ffd5b5f3560e01c908163020def58146114695750806309e33d44146114215780630dbc9a6a146113dd57806312d43a511461130b5780631e80544a14611288578063263a0272146111d15780632e9022da1461114457806339cb1f3e146111005780633fc8cef31461109257806341ed2c121461102457806349f6e1de14610fa15780634f4fe75714610f525780635567c2f714610e61578063622d151714610a3057806374dff169146106ec578063a482ea851461066a578063a804fdd914610627578063aadea982146105e4578063adda056b146105b4578063b29022a714610552578063b5d6bca714610511578063b6ee0c3a146104a9578063c7004d6314610466578063cfd8b2e1146103a1578063d954b637146102e8578063dcb76f561461022c5763ef01df4f146101ba575f61000f565b34610228575f7ffffffffffffffffffffffffffffffffffffffffffffffffffffffffffffffffc36011261022857602060405173ffffffffffffffffffffffffffffffffffffffff7f0000000000000000000000000000000000000000000000000000000000000000168152f35b5f80fd5b346102285760207ffffffffffffffffffffffffffffffffffffffffffffffffffffffffffffffffc3601126102285760043562ffffff811690818103610228577f34c21c35651c2633b08ce9561654ef2f43ce0c152ee897c954bc6ac52a5360fb91602091610299612416565b7fffffffffffffffffffff000000ffffffffffffffffffffffffffffffffffffff75ffffff000000000000000000000000000000000000006002549260981b16911617600255604051908152a1005b346102285760207ffffffffffffffffffffffffffffffffffffffffffffffffffffffffffffffffc3601126102285760043562ffffff811690818103610228577f80e45ab8c40ae9d24baa55f0199cd3565a59f756870f67fadfff9161e19e752b91602091610355612416565b7fffffffffffffffffffffffffff000000ffffffffffffffffffffffffffffffff72ffffff000000000000000000000000000000006002549260801b16911617600255604051908152a1005b346102285760407ffffffffffffffffffffffffffffffffffffffffffffffffffffffffffffffffc360112610228576103d8611531565b7f3707af22b3aeb6f4e368f52e62c4e9ab2addbadf6f9de7d9d1d24bc0b8456d82602073ffffffffffffffffffffffffffffffffffffffff6104186114bd565b93610421612416565b1692835f526003825260405f20901515907fffffffffffffffffffffffffffffffffffffffffffffffffffffffffffffff0081541660ff8316179055604051908152a2005b34610228575f7ffffffffffffffffffffffffffffffffffffffffffffffffffffffffffffffffc36011261022857602063ffffffff600254821c16604051908152f35b346102285760207ffffffffffffffffffffffffffffffffffffffffffffffffffffffffffffffffc3601126102285773ffffffffffffffffffffffffffffffffffffffff6104f5611531565b165f526003602052602060ff60405f2054166040519015158152f35b34610228575f7ffffffffffffffffffffffffffffffffffffffffffffffffffffffffffffffffc36011261022857602063ffffffff60025416604051908152f35b3461022857610560366115b9565b90335f52600360205260ff60405f2054161561058c5760209161058291612370565b6040519015158152f35b7fee90c468000000000000000000000000000000000000000000000000000000005f5260045ffd5b34610228576105c2366115b9565b90335f52600360205260ff60405f2054161561058c5760209161058291611fe4565b34610228575f7ffffffffffffffffffffffffffffffffffffffffffffffffffffffffffffffffc36011261022857602062ffffff60025460981c16604051908152f35b34610228575f7ffffffffffffffffffffffffffffffffffffffffffffffffffffffffffffffffc36011261022857602062ffffff60025460801c16604051908152f35b346102285760407ffffffffffffffffffffffffffffffffffffffffffffffffffffffffffffffffc36011261022857600435600b8110156102285760407fc8d9f716ee6f7a1977483c05570fa0e1f0b522aa1b25219c7336b65368ad56a4916024356106d4612416565b806106de836114ed565b5582519182526020820152a1005b60a07ffffffffffffffffffffffffffffffffffffffffffffffffffffffffffffffffc3601126102285761071e611531565b6024359073ffffffffffffffffffffffffffffffffffffffff821680920361022857610748611554565b60643567ffffffffffffffff811161022857610768903690600401611588565b939060843567ffffffffffffffff81116102285761078a903690600401611588565b9190610794612416565b600a5f5260016020526107b860405f20543a0262ffffff60025460801c16026125e9565b803410610a0157508287036109d9576108359073ffffffffffffffffffffffffffffffffffffffff604051976107ed89611692565b168752602087019485526bffffffffffffffffffffffff604088019616865261082660608801933485526080890199338b523691611a59565b9360a088019485523691611acb565b9060c08601918252610846866124aa565b95865f52600460205260405f20546109ad576bffffffffffffffffffffffff73ffffffffffffffffffffffffffffffffffffffff8080938a5f5260046020524360405f20555116965116965116915197511692519151926040519760c089019289526020890152604088015260c060608801528151809152602060e088019201905f5b818110610981575050508581036080870152815180825260208201916020808360051b8301019401925f915b8383106109365760208989897f362d8b049bfa5d3346a205d5ef1211f54a07cf4854dffe0d8c66f2ba3b3023a48e808c8660a08301520390a3604051908152f35b9091929394602080610972837fffffffffffffffffffffffffffffffffffffffffffffffffffffffffffffffe086600196030187528951611f2b565b970193019301919392906108f5565b825173ffffffffffffffffffffffffffffffffffffffff168452602093840193909201916001016108c9565b867f43731142000000000000000000000000000000000000000000000000000000005f5260045260245ffd5b7fcdcf2483000000000000000000000000000000000000000000000000000000005f5260045ffd5b7f5dac504d000000000000000000000000000000000000000000000000000000005f523460045260245260445ffd5b346102285760807ffffffffffffffffffffffffffffffffffffffffffffffffffffffffffffffffc36011261022857610a67611531565b506024356bffffffffffffffffffffffff811680910361022857610a89611554565b506064359067ffffffffffffffff8211610228573660238301121561022857816004013567ffffffffffffffff81116102285782019060248201913683116102285773ffffffffffffffffffffffffffffffffffffffff7f00000000000000000000000000000000000000000000000000000000000000001693843303610e355760208183031261022857602481013567ffffffffffffffff8111610228570190606090829003126102285760405190610b4282611649565b610b4e602482016114cc565b8252604481013567ffffffffffffffff811161022857846024610b7392840101611aad565b936020830194855260648201359167ffffffffffffffff831161022857610b9d9201602401611b6f565b93604082019485525f5b84518051821015610c065790610bff73ffffffffffffffffffffffffffffffffffffffff610bd783600195611e17565b51165f80610be6858c51611e17565b5160208151910182855af1610bf9611a12565b91612757565b5001610ba7565b50508273ffffffffffffffffffffffffffffffffffffffff8084511693511690604051917fc1c7a4a60000000000000000000000000000000000000000000000000000000083526004830152606082602481865afa918215610d67575f92610da2575b5060ff8060206402540be4009401511660040116600a0a02046bffffffffffffffffffffffff8111610d72576bffffffffffffffffffffffff90604051937f553619d100000000000000000000000000000000000000000000000000000000855260048501521660248301526044820152608060648201525f608482015260208160a4815f73ffffffffffffffffffffffffffffffffffffffff7f0000000000000000000000000000000000000000000000000000000000000000165af18015610d6757610d3357005b6020813d602011610d5f575b81610d4c602093836116ae565b8101031261022857610d5d90611e58565b005b3d9150610d3f565b6040513d5f823e3d90fd5b7f6dfcc650000000000000000000000000000000000000000000000000000000005f52606060045260245260445ffd5b91506060823d606011610e2d575b81610dbd606093836116ae565b810103126102285760405191610dd283611649565b80516effffffffffffffffffffffffffffff8116810361022857835260208101519060ff8216820361022857604091602085015201516fffffffffffffffffffffffffffffffff8116810361022857604083015260ff610c69565b3d9150610db0565b7fcbd9d2e0000000000000000000000000000000000000000000000000000000005f523360045260245ffd5b346102285760607ffffffffffffffffffffffffffffffffffffffffffffffffffffffffffffffffc36011261022857610e986114aa565b6024359063ffffffff821691828103610228576044359263ffffffff841690818503610228577f5059425a16aa50b8d42ba1b984287f78e50743f3674c64736be81d875723294d9463ffffffff606095610ef0612416565b169367ffffffff00000000857fffffffffffffffffffffffffffffffffffffffff0000000000000000000000006bffffffff00000000000000006002549560401b169416179160201b16171760025560405192835260208301526040820152a1005b346102285760207ffffffffffffffffffffffffffffffffffffffffffffffffffffffffffffffffc36011261022857600435600b81101561022857610f986020916114ed565b54604051908152f35b346102285760207ffffffffffffffffffffffffffffffffffffffffffffffffffffffffffffffffc3601126102285760043573ffffffffffffffffffffffffffffffffffffffff811680910361022857610ff9612416565b7fffffffffffffffffffffffff00000000000000000000000000000000000000005f5416175f555f80f35b34610228575f7ffffffffffffffffffffffffffffffffffffffffffffffffffffffffffffffffc36011261022857602060405173ffffffffffffffffffffffffffffffffffffffff7f0000000000000000000000000000000000000000000000000000000000000000168152f35b34610228575f7ffffffffffffffffffffffffffffffffffffffffffffffffffffffffffffffffc36011261022857602060405173ffffffffffffffffffffffffffffffffffffffff7f0000000000000000000000000000000000000000000000000000000000000000168152f35b34610228575f7ffffffffffffffffffffffffffffffffffffffffffffffffffffffffffffffffc36011261022857602063ffffffff60025460601c16604051908152f35b346102285760207ffffffffffffffffffffffffffffffffffffffffffffffffffffffffffffffffc3601126102285761117b6114aa565b611183612416565b7fffffffffffff00000000ffffffffffffffffffffffffffffffffffffffffffff79ffffffff000000000000000000000000000000000000000000006002549260b01b169116176002555f80f35b346102285760607ffffffffffffffffffffffffffffffffffffffffffffffffffffffffffffffffc3601126102285760043567ffffffffffffffff81116102285760e07ffffffffffffffffffffffffffffffffffffffffffffffffffffffffffffffffc8236030112610228576112466114bd565b6044359073ffffffffffffffffffffffffffffffffffffffff8216820361022857335f52600360205260ff60405f2054161561058c57610d5d92600401611c39565b346102285760207ffffffffffffffffffffffffffffffffffffffffffffffffffffffffffffffffc360112610228576112bf6114aa565b6112c7612416565b7fffffffffffffffffffffffffffffffff00000000ffffffffffffffffffffffff6fffffffff0000000000000000000000006002549260601b169116176002555f80f35b34610228575f7ffffffffffffffffffffffffffffffffffffffffffffffffffffffffffffffffc360112610228576004602073ffffffffffffffffffffffffffffffffffffffff5f5416604051928380927f12d43a510000000000000000000000000000000000000000000000000000000082525afa8015610d67576020915f916113b0575b5073ffffffffffffffffffffffffffffffffffffffff60405191168152f35b6113d09150823d84116113d6575b6113c881836116ae565b8101906116ef565b82611391565b503d6113be565b34610228575f7ffffffffffffffffffffffffffffffffffffffffffffffffffffffffffffffffc36011261022857602063ffffffff60025460b01c16604051908152f35b346102285760207ffffffffffffffffffffffffffffffffffffffffffffffffffffffffffffffffc360112610228576004355f526004602052602060405f2054604051908152f35b34610228575f7ffffffffffffffffffffffffffffffffffffffffffffffffffffffffffffffffc3601126102285760209063ffffffff60025460401c168152f35b6004359063ffffffff8216820361022857565b60243590811515820361022857565b359073ffffffffffffffffffffffffffffffffffffffff8216820361022857565b600b811015611504575f52600160205260405f2090565b7f4e487b71000000000000000000000000000000000000000000000000000000005f52602160045260245ffd5b6004359073ffffffffffffffffffffffffffffffffffffffff8216820361022857565b604435906bffffffffffffffffffffffff8216820361022857565b35906bffffffffffffffffffffffff8216820361022857565b9181601f840112156102285782359167ffffffffffffffff8311610228576020808501948460051b01011161022857565b60407ffffffffffffffffffffffffffffffffffffffffffffffffffffffffffffffffc820112610228576004359067ffffffffffffffff8211610228577ffffffffffffffffffffffffffffffffffffffffffffffffffffffffffffffffc8260e092030112610228576004019060243573ffffffffffffffffffffffffffffffffffffffff811681036102285790565b6060810190811067ffffffffffffffff82111761166557604052565b7f4e487b71000000000000000000000000000000000000000000000000000000005f52604160045260245ffd5b60e0810190811067ffffffffffffffff82111761166557604052565b90601f7fffffffffffffffffffffffffffffffffffffffffffffffffffffffffffffffe0910116810190811067ffffffffffffffff82111761166557604052565b90816020910312610228575173ffffffffffffffffffffffffffffffffffffffff811681036102285790565b90816020910312610228575180151581036102285790565b90357fffffffffffffffffffffffffffffffffffffffffffffffffffffffffffffffe18236030181121561022857016020813591019167ffffffffffffffff8211610228578160051b3603831361022857565b909291926040825261012082019073ffffffffffffffffffffffffffffffffffffffff6117b2826114cc565b16604084015273ffffffffffffffffffffffffffffffffffffffff6117d9602083016114cc565b1660608401526bffffffffffffffffffffffff6117f86040830161156f565b166080840152606081013560a084015273ffffffffffffffffffffffffffffffffffffffff611829608083016114cc565b1660c084015261183c60a0820182611733565b60e085810152928390526101408401925f5b8181106119a3575050508060c0611866920190611733565b7fffffffffffffffffffffffffffffffffffffffffffffffffffffffffffffffc084840301610100850152808352602083019060208160051b85010193835f917fffffffffffffffffffffffffffffffffffffffffffffffffffffffffffffffe182360301905b8484106118fa575050505050505073ffffffffffffffffffffffffffffffffffffffff6020919416910152565b909192939495967fffffffffffffffffffffffffffffffffffffffffffffffffffffffffffffffe0828203018752873583811215610228578401906020823592019167ffffffffffffffff8111610228578036038313610228576020827fffffffffffffffffffffffffffffffffffffffffffffffffffffffffffffffe0601f8480600198869897879852868601375f84820186015201160101990197019594019291906118cd565b90919360208060019273ffffffffffffffffffffffffffffffffffffffff6119ca896114cc565b16815201950192910161184e565b67ffffffffffffffff811161166557601f017fffffffffffffffffffffffffffffffffffffffffffffffffffffffffffffffe01660200190565b3d15611a3c573d90611a23826119d8565b91611a3160405193846116ae565b82523d5f602084013e565b606090565b67ffffffffffffffff81116116655760051b60200190565b929190611a6581611a41565b93611a7360405195866116ae565b602085838152019160051b810192831161022857905b828210611a9557505050565b60208091611aa2846114cc565b815201910190611a89565b9080601f8301121561022857816020611ac893359101611a59565b90565b92919092611ad884611a41565b93611ae660405195866116ae565b602085828152019060051b8201918383116102285780915b838310611b0c575050505050565b823567ffffffffffffffff811161022857820185601f8201121561022857803591611b36836119d8565b611b4360405191826116ae565b8381528760208585010111610228575f6020858196828097018386013783010152815201920191611afe565b9080601f8301121561022857816020611ac893359101611acb565b919060e0838203126102285760405190611ba382611692565b8193611bae816114cc565b8352611bbc602082016114cc565b6020840152611bcd6040820161156f565b604084015260608101356060840152611be8608082016114cc565b608084015260a081013567ffffffffffffffff81116102285782611c0d918301611aad565b60a084015260c08101359167ffffffffffffffff83116102285760c092611c349201611b6f565b910152565b906040517fadda056b00000000000000000000000000000000000000000000000000000000815260208180611c72878760048401611786565b03815f305af15f9181611df6575b50611deb5750611c8e611a12565b602081519101517fffffffff0000000000000000000000000000000000000000000000000000000081169160048110611db6575b50507ffc44b2db2474749597ca8daf07ae8b29944a465a020e6381101164cf803b363f6020611cf9611cf43687611b8a565b6124aa565b927fffffffff0000000000000000000000000000000000000000000000000000000060405191168152a2611d2b575050565b611d669160209160405193849283927fb29022a700000000000000000000000000000000000000000000000000000000845260048401611786565b03815f305af15f9181611d85575b50611d7c5750565b15611d8357565b565b611da891925060203d602011611daf575b611da081836116ae565b81019061171b565b905f611d74565b503d611d96565b7fffffffff000000000000000000000000000000000000000000000000000000009250829060040360031b1b16165f80611cc2565b9250505015611d8357565b611e1091925060203d602011611daf57611da081836116ae565b905f611c80565b8051821015611e2b5760209160051b010190565b7f4e487b71000000000000000000000000000000000000000000000000000000005f52603260045260245ffd5b519067ffffffffffffffff8216820361022857565b3573ffffffffffffffffffffffffffffffffffffffff811681036102285790565b9035907fffffffffffffffffffffffffffffffffffffffffffffffffffffffffffffffe181360301821215610228570180359067ffffffffffffffff821161022857602001918160051b3603831361022857565b90602080835192838152019201905f5b818110611eff5750505090565b825173ffffffffffffffffffffffffffffffffffffffff16845260209384019390920191600101611ef2565b907fffffffffffffffffffffffffffffffffffffffffffffffffffffffffffffffe0601f602080948051918291828752018686015e5f8582860101520116010190565b9080602083519182815201916020808360051b8301019401925f915b838310611f9957505050505090565b9091929394602080611fd5837fffffffffffffffffffffffffffffffffffffffffffffffffffffffffffffffe086600196030187528951611f2b565b97019301930191939290611f8a565b90611ff2611cf43684611b8a565b91825f52600460205260405f205490811561236757608081019161201583611e6d565b9063ffffffff60025460401c1681014381111561233c57509061203791612624565b1561233457835f5260046020525f604081205563ffffffff60025460601c1661205f82611e6d565b60408301356bffffffffffffffffffffffff81168091036102285773ffffffffffffffffffffffffffffffffffffffff92835f60409461217d6120e861215160206121206120f78d6120b460a0820182611e8e565b96906120cf6120c660c0850185611e8e565b97909401611e6d565b978f8d9051996120de8b611649565b1689523691611a59565b93602087019485523691611acb565b918b85019283528b519c8d9560208088015251168c8601525160608086015260a0850190611ee2565b90517fffffffffffffffffffffffffffffffffffffffffffffffffffffffffffffffc0848303016080850152611f6e565b037fffffffffffffffffffffffffffffffffffffffffffffffffffffffffffffffe081018952886116ae565b6121d58651978896879586947fa505498600000000000000000000000000000000000000000000000000000000865216600485015260016024850152604484015230606484015260c0608484015260c4830190611f2b565b3060a4830152039273ffffffffffffffffffffffffffffffffffffffff7f00000000000000000000000000000000000000000000000000000000000000001690f18015610d67576122de575b50907ffbeedc61dc8a082697492e16f082b606938e5c1218378ddfcce4a9a6919a8eab926122556060604094013592611e6d565b91600a5f526001602052612279845f20543a0262ffffff60025460981c16026125e9565b928382116122b75750915073ffffffffffffffffffffffffffffffffffffffff905b16906122a782826125bc565b82519182526020820152a2600190565b6122d9908473ffffffffffffffffffffffffffffffffffffffff9493036125bc565b61229b565b6040929192813d60401161232c575b816122fa604093836116ae565b81010312610228578061230e602092611e58565b5001516bffffffffffffffffffffffff81160361022857905f612221565b3d91506122ed565b505050505f90565b7ff80dbaea000000000000000000000000000000000000000000000000000000005f5260045260245ffd5b50505050600190565b61237d611cf43683611b8a565b91825f52600460205260405f20548015612367576123a7906123a160808501611e6d565b90612624565b1561240f5760606124037f53a2aac879741c2cfff9934693789968b94f7fca7ac6e4f439fdd9e36309c31d9373ffffffffffffffffffffffffffffffffffffffff602094875f52600486525f60408120551692839101356125bc565b604051908152a2600190565b5050505f90565b6004602073ffffffffffffffffffffffffffffffffffffffff5f5416604051928380927f12d43a510000000000000000000000000000000000000000000000000000000082525afa8015610d675773ffffffffffffffffffffffffffffffffffffffff915f9161248b575b5016330361058c57565b6124a4915060203d6020116113d6576113c881836116ae565b5f612481565b6040516125b68161258a60208201946020865273ffffffffffffffffffffffffffffffffffffffff815116604084015273ffffffffffffffffffffffffffffffffffffffff60208201511660608401526bffffffffffffffffffffffff6040820151166080840152606081015160a084015273ffffffffffffffffffffffffffffffffffffffff60808201511660c084015260c061255760a083015160e080870152610120860190611ee2565b9101517fffffffffffffffffffffffffffffffffffffffffffffffffffffffffffffffc084830301610100850152611f6e565b037fffffffffffffffffffffffffffffffffffffffffffffffffffffffffffffffe081018352826116ae565b51902090565b90611d839173ffffffffffffffffffffffffffffffffffffffff63ffffffff60025460b01c1692166126bb565b5f90806125f4575090565b600191507fffffffffffffffffffffffffffffffffffffffffffffffffffffffffffffffff629896809101040190565b9030331480156126a5575b6126945773ffffffffffffffffffffffffffffffffffffffff16330361058c5763ffffffff60025460201c16014381116126695750600190565b7f2a35a324000000000000000000000000000000000000000000000000000000005f5260045260245ffd5b5063ffffffff600254160143101590565b50335f52600360205260ff60405f20541661262f565b919091821561275257824710612722575f8093819373ffffffffffffffffffffffffffffffffffffffff83941690f16126f2611a12565b50156126fa57565b7fe293b56b000000000000000000000000000000000000000000000000000000005f5260045ffd5b82477fcf479181000000000000000000000000000000000000000000000000000000005f5260045260245260445ffd5b505050565b90612794575080511561276c57805190602001fd5b7f1425ea42000000000000000000000000000000000000000000000000000000005f5260045ffd5b815115806127e7575b6127a5575090565b73ffffffffffffffffffffffffffffffffffffffff907f9996b315000000000000000000000000000000000000000000000000000000005f521660045260245ffd5b50803b1561279d56fea164736f6c634300081a000a",
  "linkReferences": {},
  "deployedLinkReferences": {}
}