{
  "_format": "hh-sol-artifact-1",
  "contractName": "PositionRouter2",
  "sourceName": "contracts/plugins/PositionRouter2.sol",
  "abi": [
    {
      "inputs": [
        {
          "internalType": "contract Governable",
          "name": "_govImpl",
          "type": "address"
        },
        {
          "internalType": "contract IMarketManager",
          "name": "_marketManager",
          "type": "address"
        },
        {
          "internalType": "contract IWETHMinimum",
          "name": "_weth",
          "type": "address"
        },
        {
          "internalType": "enum IPositionRouterCommon.EstimatedGasLimitType[]",
          "name": "_estimatedGasLimitTypes",
          "type": "uint8[]"
        },
        {
          "internalType": "uint256[]",
          "name": "_estimatedGasLimits",
          "type": "uint256[]"
        }
      ],
      "stateMutability": "nonpayable",
      "type": "constructor"
    },
    {
      "inputs": [
        {
          "internalType": "address",
          "name": "target",
          "type": "address"
        }
      ],
      "name": "AddressEmptyCode",
      "type": "error"
    },
    {
      "inputs": [
        {
          "internalType": "bytes32",
          "name": "id",
          "type": "bytes32"
        }
      ],
      "name": "ConflictRequests",
      "type": "error"
    },
    {
      "inputs": [
        {
          "internalType": "uint256",
          "name": "expiredAt",
          "type": "uint256"
        }
      ],
      "name": "Expired",
      "type": "error"
    },
    {
      "inputs": [],
      "name": "FailedInnerCall",
      "type": "error"
    },
    {
      "inputs": [],
      "name": "FailedTransferETH",
      "type": "error"
    },
    {
      "inputs": [],
      "name": "Forbidden",
      "type": "error"
    },
    {
      "inputs": [
        {
          "internalType": "uint256",
          "name": "balance",
          "type": "uint256"
        },
        {
          "internalType": "uint256",
          "name": "requiredAmount",
          "type": "uint256"
        }
      ],
      "name": "InsufficientBalance",
      "type": "error"
    },
    {
      "inputs": [
        {
          "internalType": "uint256",
          "name": "available",
          "type": "uint256"
        },
        {
          "internalType": "uint256",
          "name": "required",
          "type": "uint256"
        }
      ],
      "name": "InsufficientExecutionFee",
      "type": "error"
    },
    {
      "inputs": [
        {
          "internalType": "address",
          "name": "requiredCaller",
          "type": "address"
        }
      ],
      "name": "InvalidCaller",
      "type": "error"
    },
    {
      "inputs": [
        {
          "internalType": "uint64",
          "name": "indexPrice",
          "type": "uint64"
        },
        {
          "internalType": "uint64",
          "name": "acceptableIndexPrice",
          "type": "uint64"
        }
      ],
      "name": "InvalidIndexPrice",
      "type": "error"
    },
    {
      "inputs": [
        {
          "internalType": "uint8",
          "name": "bits",
          "type": "uint8"
        },
        {
          "internalType": "uint256",
          "name": "value",
          "type": "uint256"
        }
      ],
      "name": "SafeCastOverflowedUintDowncast",
      "type": "error"
    },
    {
      "inputs": [
        {
          "internalType": "uint256",
          "name": "earliest",
          "type": "uint256"
        }
      ],
      "name": "TooEarly",
      "type": "error"
    },
    {
      "inputs": [
        {
          "internalType": "uint96",
          "name": "acceptableMinAmount",
          "type": "uint96"
        },
        {
          "internalType": "uint96",
          "name": "receiveAmount",
          "type": "uint96"
        }
      ],
      "name": "TooLittleReceived",
      "type": "error"
    },
    {
      "inputs": [
        {
          "internalType": "uint96",
          "name": "payAmount",
          "type": "uint96"
        },
        {
          "internalType": "uint96",
          "name": "acceptableMaxAmount",
          "type": "uint96"
        }
      ],
      "name": "TooMuchPaid",
      "type": "error"
    },
    {
      "inputs": [
        {
          "internalType": "contract IERC20",
          "name": "token",
          "type": "address"
        }
      ],
      "name": "TransferFailed",
      "type": "error"
    },
    {
      "anonymous": false,
      "inputs": [
        {
          "indexed": true,
          "internalType": "bytes32",
          "name": "id",
          "type": "bytes32"
        },
        {
          "indexed": false,
          "internalType": "address payable",
          "name": "executionFeeReceiver",
          "type": "address"
        }
      ],
      "name": "BurnLPTCancelled",
      "type": "event"
    },
    {
      "anonymous": false,
      "inputs": [
        {
          "indexed": true,
          "internalType": "address",
          "name": "account",
          "type": "address"
        },
        {
          "indexed": true,
          "internalType": "contract IERC20",
          "name": "market",
          "type": "address"
        },
        {
          "indexed": false,
          "internalType": "uint64",
          "name": "amount",
          "type": "uint64"
        },
        {
          "indexed": false,
          "internalType": "uint96",
          "name": "acceptableMinLiquidity",
          "type": "uint96"
        },
        {
          "indexed": false,
          "internalType": "address",
          "name": "receiver",
          "type": "address"
        },
        {
          "indexed": false,
          "internalType": "uint256",
          "name": "executionFee",
          "type": "uint256"
        },
        {
          "indexed": false,
          "internalType": "bool",
          "name": "receivePUSD",
          "type": "bool"
        },
        {
          "indexed": false,
          "internalType": "uint64",
          "name": "minPUSDReceived",
          "type": "uint64"
        },
        {
          "indexed": false,
          "internalType": "bytes32",
          "name": "id",
          "type": "bytes32"
        }
      ],
      "name": "BurnLPTCreated",
      "type": "event"
    },
    {
      "anonymous": false,
      "inputs": [
        {
          "indexed": true,
          "internalType": "bytes32",
          "name": "id",
          "type": "bytes32"
        },
        {
          "indexed": false,
          "internalType": "address payable",
          "name": "executionFeeReceiver",
          "type": "address"
        },
        {
          "indexed": false,
          "internalType": "uint256",
          "name": "executionFee",
          "type": "uint256"
        }
      ],
      "name": "BurnLPTExecuted",
      "type": "event"
    },
    {
      "anonymous": false,
      "inputs": [
        {
          "indexed": false,
          "internalType": "uint32",
          "name": "minBlockDelayExecutor",
          "type": "uint32"
        },
        {
          "indexed": false,
          "internalType": "uint32",
          "name": "minBlockDelayPublic",
          "type": "uint32"
        },
        {
          "indexed": false,
          "internalType": "uint32",
          "name": "maxBlockDelay",
          "type": "uint32"
        }
      ],
      "name": "DelayValuesUpdated",
      "type": "event"
    },
    {
      "anonymous": false,
      "inputs": [
        {
          "indexed": false,
          "internalType": "uint24",
          "name": "estimatedGasMultiplier",
          "type": "uint24"
        }
      ],
      "name": "EstimatedGasFeeMultiplierUpdated",
      "type": "event"
    },
    {
      "anonymous": false,
      "inputs": [
        {
          "indexed": false,
          "internalType": "enum IPositionRouterCommon.EstimatedGasLimitType",
          "name": "estimatedGasLimitType",
          "type": "uint8"
        },
        {
          "indexed": false,
          "internalType": "uint256",
          "name": "estimatedGasLimit",
          "type": "uint256"
        }
      ],
      "name": "EstimatedGasLimitUpdated",
      "type": "event"
    },
    {
      "anonymous": false,
      "inputs": [
        {
          "indexed": true,
          "internalType": "enum IPositionRouterCommon.RequestType",
          "name": "reqType",
          "type": "uint8"
        },
        {
          "indexed": true,
          "internalType": "bytes32",
          "name": "id",
          "type": "bytes32"
        },
        {
          "indexed": false,
          "internalType": "bytes4",
          "name": "shortenedReason",
          "type": "bytes4"
        }
      ],
      "name": "ExecuteFailed",
      "type": "event"
    },
    {
      "anonymous": false,
      "inputs": [
        {
          "indexed": false,
          "internalType": "uint24",
          "name": "executionGasFeeMultiplier",
          "type": "uint24"
        }
      ],
      "name": "ExecutionGasFeeMultiplierUpdated",
      "type": "event"
    },
    {
      "anonymous": false,
      "inputs": [
        {
          "indexed": true,
          "internalType": "bytes32",
          "name": "id",
          "type": "bytes32"
        },
        {
          "indexed": false,
          "internalType": "address payable",
          "name": "receiver",
          "type": "address"
        }
      ],
      "name": "MintLPTCancelled",
      "type": "event"
    },
    {
      "anonymous": false,
      "inputs": [
        {
          "indexed": true,
          "internalType": "address",
          "name": "account",
          "type": "address"
        },
        {
          "indexed": true,
          "internalType": "contract IERC20",
          "name": "market",
          "type": "address"
        },
        {
          "indexed": false,
          "internalType": "uint96",
          "name": "liquidityDelta",
          "type": "uint96"
        },
        {
          "indexed": false,
          "internalType": "uint256",
          "name": "executionFee",
          "type": "uint256"
        },
        {
          "indexed": false,
          "internalType": "address",
          "name": "receiver",
          "type": "address"
        },
        {
          "indexed": false,
          "internalType": "bool",
          "name": "payPUSD",
          "type": "bool"
        },
        {
          "indexed": false,
          "internalType": "uint96",
          "name": "minReceiveAmountFromBurningPUSD",
          "type": "uint96"
        },
        {
          "indexed": false,
          "internalType": "bytes32",
          "name": "id",
          "type": "bytes32"
        }
      ],
      "name": "MintLPTCreated",
      "type": "event"
    },
    {
      "anonymous": false,
      "inputs": [
        {
          "indexed": true,
          "internalType": "bytes32",
          "name": "id",
          "type": "bytes32"
        },
        {
          "indexed": false,
          "internalType": "address payable",
          "name": "executionFeeReceiver",
          "type": "address"
        },
        {
          "indexed": false,
          "internalType": "uint256",
          "name": "executionFee",
          "type": "uint256"
        }
      ],
      "name": "MintLPTExecuted",
      "type": "event"
    },
    {
      "anonymous": false,
      "inputs": [
        {
          "indexed": true,
          "internalType": "address",
          "name": "account",
          "type": "address"
        },
        {
          "indexed": false,
          "internalType": "bool",
          "name": "active",
          "type": "bool"
        }
      ],
      "name": "PositionExecutorUpdated",
      "type": "event"
    },
    {
      "inputs": [
        {
          "internalType": "contract IERC20",
          "name": "_payToken",
          "type": "address"
        },
        {
          "internalType": "uint96",
          "name": "_payAmount",
          "type": "uint96"
        },
        {
          "internalType": "uint96",
          "name": "",
          "type": "uint96"
        },
        {
          "internalType": "bytes",
          "name": "_data",
          "type": "bytes"
        }
      ],
      "name": "PUSDManagerCallback",
      "outputs": [],
      "stateMutability": "nonpayable",
      "type": "function"
    },
    {
      "inputs": [
        {
          "internalType": "contract Governable",
          "name": "_newGov",
          "type": "address"
        }
      ],
      "name": "_changeImpl",
      "outputs": [],
      "stateMutability": "nonpayable",
      "type": "function"
    },
    {
      "inputs": [
        {
          "internalType": "bytes32",
          "name": "id",
          "type": "bytes32"
        }
      ],
      "name": "blockNumbers",
      "outputs": [
        {
          "internalType": "uint256",
          "name": "blockNumber",
          "type": "uint256"
        }
      ],
      "stateMutability": "view",
      "type": "function"
    },
    {
      "inputs": [
        {
          "components": [
            {
              "internalType": "address",
              "name": "account",
              "type": "address"
            },
            {
              "internalType": "contract IERC20",
              "name": "market",
              "type": "address"
            },
            {
              "internalType": "uint64",
              "name": "amount",
              "type": "uint64"
            },
            {
              "internalType": "uint96",
              "name": "acceptableMinLiquidity",
              "type": "uint96"
            },
            {
              "internalType": "address",
              "name": "receiver",
              "type": "address"
            },
            {
              "internalType": "uint256",
              "name": "executionFee",
              "type": "uint256"
            },
            {
              "internalType": "bool",
              "name": "receivePUSD",
              "type": "bool"
            },
            {
              "internalType": "uint64",
              "name": "minPUSDReceived",
              "type": "uint64"
            }
          ],
          "internalType": "struct IPositionRouter2.BurnLPTRequestIdParam",
          "name": "_param",
          "type": "tuple"
        },
        {
          "internalType": "address payable",
          "name": "_executionFeeReceiver",
          "type": "address"
        }
      ],
      "name": "cancelBurnLPT",
      "outputs": [
        {
          "internalType": "bool",
          "name": "",
          "type": "bool"
        }
      ],
      "stateMutability": "nonpayable",
      "type": "function"
    },
    {
      "inputs": [
        {
          "components": [
            {
              "internalType": "address",
              "name": "account",
              "type": "address"
            },
            {
              "internalType": "contract IERC20",
              "name": "market",
              "type": "address"
            },
            {
              "internalType": "uint96",
              "name": "liquidityDelta",
              "type": "uint96"
            },
            {
              "internalType": "uint256",
              "name": "executionFee",
              "type": "uint256"
            },
            {
              "internalType": "address",
              "name": "receiver",
              "type": "address"
            },
            {
              "internalType": "bool",
              "name": "payPUSD",
              "type": "bool"
            },
            {
              "internalType": "uint96",
              "name": "minReceivedFromBurningPUSD",
              "type": "uint96"
            }
          ],
          "internalType": "struct IPositionRouter2.MintLPTRequestIdParam",
          "name": "_param",
          "type": "tuple"
        },
        {
          "internalType": "address payable",
          "name": "_executionFeeReceiver",
          "type": "address"
        }
      ],
      "name": "cancelMintLPT",
      "outputs": [
        {
          "internalType": "bool",
          "name": "",
          "type": "bool"
        }
      ],
      "stateMutability": "nonpayable",
      "type": "function"
    },
    {
      "inputs": [
        {
          "internalType": "contract IERC20",
          "name": "_market",
          "type": "address"
        },
        {
          "internalType": "uint64",
          "name": "_amount",
          "type": "uint64"
        },
        {
          "internalType": "uint96",
          "name": "_acceptableMinLiquidity",
          "type": "uint96"
        },
        {
          "internalType": "address",
          "name": "_receiver",
          "type": "address"
        },
        {
          "internalType": "bytes",
          "name": "_permitData",
          "type": "bytes"
        }
      ],
      "name": "createBurnLPT",
      "outputs": [
        {
          "internalType": "bytes32",
          "name": "id",
          "type": "bytes32"
        }
      ],
      "stateMutability": "payable",
      "type": "function"
    },
    {
      "inputs": [
        {
          "internalType": "contract IERC20",
          "name": "_market",
          "type": "address"
        },
        {
          "internalType": "uint64",
          "name": "_amount",
          "type": "uint64"
        },
        {
          "internalType": "uint64",
          "name": "_minPUSDReceived",
          "type": "uint64"
        },
        {
          "internalType": "address",
          "name": "_receiver",
          "type": "address"
        },
        {
          "internalType": "bytes",
          "name": "_permitData",
          "type": "bytes"
        }
      ],
      "name": "createBurnLPTReceivePUSD",
      "outputs": [
        {
          "internalType": "bytes32",
          "name": "id",
          "type": "bytes32"
        }
      ],
      "stateMutability": "payable",
      "type": "function"
    },
    {
      "inputs": [
        {
          "internalType": "contract IERC20",
          "name": "_market",
          "type": "address"
        },
        {
          "internalType": "uint96",
          "name": "_liquidityDelta",
          "type": "uint96"
        },
        {
          "internalType": "address",
          "name": "_receiver",
          "type": "address"
        },
        {
          "internalType": "bytes",
          "name": "_permitData",
          "type": "bytes"
        }
      ],
      "name": "createMintLPT",
      "outputs": [
        {
          "internalType": "bytes32",
          "name": "id",
          "type": "bytes32"
        }
      ],
      "stateMutability": "payable",
      "type": "function"
    },
    {
      "inputs": [
        {
          "internalType": "address",
          "name": "_receiver",
          "type": "address"
        },
        {
          "internalType": "uint256",
          "name": "_executionFee",
          "type": "uint256"
        }
      ],
      "name": "createMintLPTETH",
      "outputs": [
        {
          "internalType": "bytes32",
          "name": "id",
          "type": "bytes32"
        }
      ],
      "stateMutability": "payable",
      "type": "function"
    },
    {
      "inputs": [
        {
          "internalType": "contract IERC20",
          "name": "_market",
          "type": "address"
        },
        {
          "internalType": "uint64",
          "name": "_pusdAmount",
          "type": "uint64"
        },
        {
          "internalType": "address",
          "name": "_receiver",
          "type": "address"
        },
        {
          "internalType": "uint96",
          "name": "_minReceivedFromBurningPUSD",
          "type": "uint96"
        },
        {
          "internalType": "bytes",
          "name": "_permitData",
          "type": "bytes"
        }
      ],
      "name": "createMintLPTPayPUSD",
      "outputs": [
        {
          "internalType": "bytes32",
          "name": "id",
          "type": "bytes32"
        }
      ],
      "stateMutability": "payable",
      "type": "function"
    },
    {
      "inputs": [],
      "name": "estimatedGasFeeMultiplier",
      "outputs": [
        {
          "internalType": "uint24",
          "name": "",
          "type": "uint24"
        }
      ],
      "stateMutability": "view",
      "type": "function"
    },
    {
      "inputs": [
        {
          "internalType": "enum IPositionRouterCommon.EstimatedGasLimitType",
          "name": "",
          "type": "uint8"
        }
      ],
      "name": "estimatedGasLimits",
      "outputs": [
        {
          "internalType": "uint256",
          "name": "",
          "type": "uint256"
        }
      ],
      "stateMutability": "view",
      "type": "function"
    },
    {
      "inputs": [],
      "name": "etherTransferGasLimit",
      "outputs": [
        {
          "internalType": "uint32",
          "name": "",
          "type": "uint32"
        }
      ],
      "stateMutability": "view",
      "type": "function"
    },
    {
      "inputs": [
        {
          "components": [
            {
              "internalType": "address",
              "name": "account",
              "type": "address"
            },
            {
              "internalType": "contract IERC20",
              "name": "market",
              "type": "address"
            },
            {
              "internalType": "uint64",
              "name": "amount",
              "type": "uint64"
            },
            {
              "internalType": "uint96",
              "name": "acceptableMinLiquidity",
              "type": "uint96"
            },
            {
              "internalType": "address",
              "name": "receiver",
              "type": "address"
            },
            {
              "internalType": "uint256",
              "name": "executionFee",
              "type": "uint256"
            },
            {
              "internalType": "bool",
              "name": "receivePUSD",
              "type": "bool"
            },
            {
              "internalType": "uint64",
              "name": "minPUSDReceived",
              "type": "uint64"
            }
          ],
          "internalType": "struct IPositionRouter2.BurnLPTRequestIdParam",
          "name": "_param",
          "type": "tuple"
        },
        {
          "internalType": "address payable",
          "name": "_executionFeeReceiver",
          "type": "address"
        }
      ],
      "name": "executeBurnLPT",
      "outputs": [
        {
          "internalType": "bool",
          "name": "",
          "type": "bool"
        }
      ],
      "stateMutability": "nonpayable",
      "type": "function"
    },
    {
      "inputs": [
        {
          "components": [
            {
              "internalType": "address",
              "name": "account",
              "type": "address"
            },
            {
              "internalType": "contract IERC20",
              "name": "market",
              "type": "address"
            },
            {
              "internalType": "uint96",
              "name": "liquidityDelta",
              "type": "uint96"
            },
            {
              "internalType": "uint256",
              "name": "executionFee",
              "type": "uint256"
            },
            {
              "internalType": "address",
              "name": "receiver",
              "type": "address"
            },
            {
              "internalType": "bool",
              "name": "payPUSD",
              "type": "bool"
            },
            {
              "internalType": "uint96",
              "name": "minReceivedFromBurningPUSD",
              "type": "uint96"
            }
          ],
          "internalType": "struct IPositionRouter2.MintLPTRequestIdParam",
          "name": "_param",
          "type": "tuple"
        },
        {
          "internalType": "address payable",
          "name": "_executionFeeReceiver",
          "type": "address"
        }
      ],
      "name": "executeMintLPT",
      "outputs": [
        {
          "internalType": "bool",
          "name": "",
          "type": "bool"
        }
      ],
      "stateMutability": "nonpayable",
      "type": "function"
    },
    {
      "inputs": [
        {
          "components": [
            {
              "internalType": "address",
              "name": "account",
              "type": "address"
            },
            {
              "internalType": "contract IERC20",
              "name": "market",
              "type": "address"
            },
            {
              "internalType": "uint64",
              "name": "amount",
              "type": "uint64"
            },
            {
              "internalType": "uint96",
              "name": "acceptableMinLiquidity",
              "type": "uint96"
            },
            {
              "internalType": "address",
              "name": "receiver",
              "type": "address"
            },
            {
              "internalType": "uint256",
              "name": "executionFee",
              "type": "uint256"
            },
            {
              "internalType": "bool",
              "name": "receivePUSD",
              "type": "bool"
            },
            {
              "internalType": "uint64",
              "name": "minPUSDReceived",
              "type": "uint64"
            }
          ],
          "internalType": "struct IPositionRouter2.BurnLPTRequestIdParam",
          "name": "_param",
          "type": "tuple"
        },
        {
          "internalType": "address payable",
          "name": "_executionFeeReceiver",
          "type": "address"
        }
      ],
      "name": "executeOrCancelBurnLPT",
      "outputs": [],
      "stateMutability": "nonpayable",
      "type": "function"
    },
    {
      "inputs": [
        {
          "components": [
            {
              "internalType": "address",
              "name": "account",
              "type": "address"
            },
            {
              "internalType": "contract IERC20",
              "name": "market",
              "type": "address"
            },
            {
              "internalType": "uint96",
              "name": "liquidityDelta",
              "type": "uint96"
            },
            {
              "internalType": "uint256",
              "name": "executionFee",
              "type": "uint256"
            },
            {
              "internalType": "address",
              "name": "receiver",
              "type": "address"
            },
            {
              "internalType": "bool",
              "name": "payPUSD",
              "type": "bool"
            },
            {
              "internalType": "uint96",
              "name": "minReceivedFromBurningPUSD",
              "type": "uint96"
            }
          ],
          "internalType": "struct IPositionRouter2.MintLPTRequestIdParam",
          "name": "_param",
          "type": "tuple"
        },
        {
          "internalType": "address payable",
          "name": "_executionFeeReceiver",
          "type": "address"
        }
      ],
      "name": "executeOrCancelMintLPT",
      "outputs": [],
      "stateMutability": "nonpayable",
      "type": "function"
    },
    {
      "inputs": [],
      "name": "executionGasFeeMultiplier",
      "outputs": [
        {
          "internalType": "uint24",
          "name": "",
          "type": "uint24"
        }
      ],
      "stateMutability": "view",
      "type": "function"
    },
    {
      "inputs": [],
      "name": "executionGasLimit",
      "outputs": [
        {
          "internalType": "uint32",
          "name": "",
          "type": "uint32"
        }
      ],
      "stateMutability": "view",
      "type": "function"
    },
    {
      "inputs": [],
      "name": "gov",
      "outputs": [
        {
          "internalType": "address",
          "name": "",
          "type": "address"
        }
      ],
      "stateMutability": "view",
      "type": "function"
    },
    {
      "inputs": [],
      "name": "marketManager",
      "outputs": [
        {
          "internalType": "contract IMarketManager",
          "name": "",
          "type": "address"
        }
      ],
      "stateMutability": "view",
      "type": "function"
    },
    {
      "inputs": [],
      "name": "maxBlockDelay",
      "outputs": [
        {
          "internalType": "uint32",
          "name": "",
          "type": "uint32"
        }
      ],
      "stateMutability": "view",
      "type": "function"
    },
    {
      "inputs": [],
      "name": "minBlockDelayExecutor",
      "outputs": [
        {
          "internalType": "uint32",
          "name": "",
          "type": "uint32"
        }
      ],
      "stateMutability": "view",
      "type": "function"
    },
    {
      "inputs": [],
      "name": "minBlockDelayPublic",
      "outputs": [
        {
          "internalType": "uint32",
          "name": "",
          "type": "uint32"
        }
      ],
      "stateMutability": "view",
      "type": "function"
    },
    {
      "inputs": [
        {
          "internalType": "address",
          "name": "",
          "type": "address"
        }
      ],
      "name": "positionExecutors",
      "outputs": [
        {
          "internalType": "bool",
          "name": "",
          "type": "bool"
        }
      ],
      "stateMutability": "view",
      "type": "function"
    },
    {
      "inputs": [
        {
          "internalType": "uint32",
          "name": "_minBlockDelayExecutor",
          "type": "uint32"
        },
        {
          "internalType": "uint32",
          "name": "_minBlockDelayPublic",
          "type": "uint32"
        },
        {
          "internalType": "uint32",
          "name": "_maxBlockDelay",
          "type": "uint32"
        }
      ],
      "name": "updateDelayValues",
      "outputs": [],
      "stateMutability": "nonpayable",
      "type": "function"
    },
    {
      "inputs": [
        {
          "internalType": "uint24",
          "name": "_multiplier",
          "type": "uint24"
        }
      ],
      "name": "updateEstimatedGasFeeMultiplier",
      "outputs": [],
      "stateMutability": "nonpayable",
      "type": "function"
    },
    {
      "inputs": [
        {
          "internalType": "enum IPositionRouterCommon.EstimatedGasLimitType",
          "name": "_estimatedGasLimitType",
          "type": "uint8"
        },
        {
          "internalType": "uint256",
          "name": "_estimatedGasLimit",
          "type": "uint256"
        }
      ],
      "name": "updateEstimatedGasLimit",
      "outputs": [],
      "stateMutability": "nonpayable",
      "type": "function"
    },
    {
      "inputs": [
        {
          "internalType": "uint32",
          "name": "_etherTransferGasLimit",
          "type": "uint32"
        }
      ],
      "name": "updateEtherTransferGasLimit",
      "outputs": [],
      "stateMutability": "nonpayable",
      "type": "function"
    },
    {
      "inputs": [
        {
          "internalType": "uint24",
          "name": "_multiplier",
          "type": "uint24"
        }
      ],
      "name": "updateExecutionGasFeeMultiplier",
      "outputs": [],
      "stateMutability": "nonpayable",
      "type": "function"
    },
    {
      "inputs": [
        {
          "internalType": "uint32",
          "name": "_executionGasLimit",
          "type": "uint32"
        }
      ],
      "name": "updateExecutionGasLimit",
      "outputs": [],
      "stateMutability": "nonpayable",
      "type": "function"
    },
    {
      "inputs": [
        {
          "internalType": "address",
          "name": "_account",
          "type": "address"
        },
        {
          "internalType": "bool",
          "name": "_active",
          "type": "bool"
        }
      ],
      "name": "updatePositionExecutor",
      "outputs": [],
      "stateMutability": "nonpayable",
      "type": "function"
    },
    {
      "inputs": [],
      "name": "weth",
      "outputs": [
        {
          "internalType": "contract IWETHMinimum",
          "name": "",
          "type": "address"
        }
      ],
      "stateMutability": "view",
      "type": "function"
    },
    {
      "stateMutability": "payable",
      "type": "receive"
    }
  ],
  "bytecode": "0x60c0604052346102a45761432880380380610019816102c1565b92833981019060a0818303126102a45780516001600160a01b03811691908290036102a45760208101516001600160a01b03811681036102a45760408201516001600160a01b03811681036102a45760608301516001600160401b0381116102a45783019285601f850112156102a457835161009c610097826102fa565b6102c1565b9460208087848152019260051b820101908882116102a457602001915b8183106102a8575050506080810151906001600160401b0382116102a457019385601f860112156102a4578451956100f3610097886102fa565b95602080888a8152019860051b8201019182116102a457602001965b8188106102945750505f80546001600160a01b0319169190911781556002805460809490945260a092909252600160201b600160d01b0319909216772710989680989680000f42400000012c00000032000000001790555b81518110156102125761017a8184610311565b5161018d6101888385610311565b610339565b600b8110156101fe575f52600160205260405f20556101af6101888284610311565b906101ba8185610311565b5160405192600b8110156101fe57837fc8d9f716ee6f7a1977483c05570fa0e1f0b522aa1b25219c7336b65368ad56a492604092600196526020820152a101610167565b634e487b7160e01b5f52602160045260245ffd5b604051613fe19081610347823960805181818161079901528181610a5601528181610eea015281816110b0015281816113ef0152818161182d01528181611df5015281816120de01528181612392015281816125bf0152612e8e015260a0518181816031015281816102610152818161145e0152818161263a01526137eb0152f35b875181526020978801970161010f565b5f80fd5b8251600b8110156102a4578152602092830192016100b9565b6040519190601f01601f191682016001600160401b038111838210176102e657604052565b634e487b7160e01b5f52604160045260245ffd5b6001600160401b0381116102e65760051b60200190565b80518210156103255760209160051b010190565b634e487b7160e01b5f52603260045260245ffd5b51600b8110156101fe579056fe6080806040526004361015610085575b50361561001a575f80fd5b73ffffffffffffffffffffffffffffffffffffffff7f00000000000000000000000000000000000000000000000000000000000000001680330361005a57005b7fcbd9d2e0000000000000000000000000000000000000000000000000000000005f5260045260245ffd5b5f905f3560e01c908163020def58146119cf5750806303bb71af1461178257806309e33d441461173a5780630dbc9a6a146116f557806312d43a51146116225780631e80544a1461159f5780632a9de9fb146115545780632e9022da146114c757806339cb1f3e146114825780633fc8cef31461141357806341ed2c12146113a457806349f6e1de146113215780634f4fe757146112d05780635567c2f7146111dd578063622d15171461102b5780636cdc81db14610e57578063a41f17fe14610e0c578063a482ea8514610d88578063a804fdd914610d44578063aadea98214610d00578063ad4a70ab14610cb4578063b27fc92614610c54578063b5d6bca714610c12578063b6ee0c3a14610baa578063bda6dd0e146109a6578063c34c9df114610950578063c7004d631461090c578063cf74f9eb146106cf578063cfd8b2e114610606578063d954b6371461054b578063dcb76f5614610489578063e80ef9ec146103fb5763ed52fba90361000f5760407ffffffffffffffffffffffffffffffffffffffffffffffffffffffffffffffffc3601126103f85761022a611a10565b90602435918234106103c85761023e613150565b80841061039857508234039273ffffffffffffffffffffffffffffffffffffffff7f00000000000000000000000000000000000000000000000000000000000000001693843b15610389576040517fd0e30db00000000000000000000000000000000000000000000000000000000081528481600481858a5af1801561038d57908591610374575b50506bffffffffffffffffffffffff8111610344576020949261033c94926bffffffffffffffffffffffff73ffffffffffffffffffffffffffffffffffffffff936040519661031488611c54565b3388528988015216604086015260608501521660808301528060a083015260c0820152613a4c565b604051908152f35b7f6dfcc6500000000000000000000000000000000000000000000000000000000084526060600452602452604483fd5b8161037e91611c70565b61038957835f6102c6565b8380fd5b6040513d87823e3d90fd5b90506044927f5dac504d000000000000000000000000000000000000000000000000000000008352600452602452fd5b506044917f5dac504d00000000000000000000000000000000000000000000000000000000825234600452602452fd5b80fd5b50346103f8577ffffffffffffffffffffffffffffffffffffffffffffffffffffffffffffffffc360161010081126104855760e0136103f85761043c611b56565b338252600360205260ff6040832054161561045d5761045a90612fdc565b80f35b6004827fee90c468000000000000000000000000000000000000000000000000000000008152fd5b5080fd5b50346103f85760207ffffffffffffffffffffffffffffffffffffffffffffffffffffffffffffffffc3601126103f85760043562ffffff811690818103610547577f34c21c35651c2633b08ce9561654ef2f43ce0c152ee897c954bc6ac52a5360fb916020916104f7613668565b7fffffffffffffffffffff000000ffffffffffffffffffffffffffffffffffffff75ffffff000000000000000000000000000000000000006002549260981b16911617600255604051908152a180f35b8280fd5b50346103f85760207ffffffffffffffffffffffffffffffffffffffffffffffffffffffffffffffffc3601126103f85760043562ffffff811690818103610547577f80e45ab8c40ae9d24baa55f0199cd3565a59f756870f67fadfff9161e19e752b916020916105b9613668565b7fffffffffffffffffffffffffff000000ffffffffffffffffffffffffffffffff72ffffff000000000000000000000000000000006002549260801b16911617600255604051908152a180f35b50346103f85760407ffffffffffffffffffffffffffffffffffffffffffffffffffffffffffffffffc3601126103f85761063e611a10565b6024359081151580920361054757602073ffffffffffffffffffffffffffffffffffffffff7f3707af22b3aeb6f4e368f52e62c4e9ab2addbadf6f9de7d9d1d24bc0b8456d829261068d613668565b169283855260038252604085207fffffffffffffffffffffffffffffffffffffffffffffffffffffffffffffff0081541660ff8316179055604051908152a280f35b5060a07ffffffffffffffffffffffffffffffffffffffffffffffffffffffffffffffffc3601126103f857610702611a10565b61070a611a54565b6044359067ffffffffffffffff821680920361038957610728611acf565b9060843567ffffffffffffffff811161090857610749903690600401611b15565b909161076c6107586003611b9d565b543a0262ffffff60025460801c1602613d11565b8034106108d9575067ffffffffffffffff87916107e273ffffffffffffffffffffffffffffffffffffffff7f0000000000000000000000000000000000000000000000000000000000000000169473ffffffffffffffffffffffffffffffffffffffff6107d9878c61315f565b169686886131b5565b1692823b15610485576040517f1b82787800000000000000000000000000000000000000000000000000000000815273ffffffffffffffffffffffffffffffffffffffff91909116600482015233602482015230604482015260648101849052918290608490829084905af180156108ce576108b5575b602061033c868673ffffffffffffffffffffffffffffffffffffffff878b88836040519661088688611bee565b3388521688870152604086015260608501521660808301523460a0830152600160c083015260e082015261356c565b6108c0868092611c70565b6108ca575f610859565b8480fd5b6040513d88823e3d90fd5b7f5dac504d00000000000000000000000000000000000000000000000000000000885234600452602452604487fd5b8580fd5b50346103f857807ffffffffffffffffffffffffffffffffffffffffffffffffffffffffffffffffc3601126103f857602063ffffffff600254821c16604051908152f35b50346103f8577ffffffffffffffffffffffffffffffffffffffffffffffffffffffffffffffffc3601610120811261048557610100136103f857602061099c610997611b79565b612df1565b6040519015158152f35b5060a07ffffffffffffffffffffffffffffffffffffffffffffffffffffffffffffffffc3601126103f8576109d9611a10565b906109e2611a54565b6109ea611af2565b90606435926bffffffffffffffffffffffff84168094036103f85760843567ffffffffffffffff811161048557610a25903690600401611b15565b9290610a346107586001611b9d565b803410610b7b5750610a9e73ffffffffffffffffffffffffffffffffffffffff7f0000000000000000000000000000000000000000000000000000000000000000169473ffffffffffffffffffffffffffffffffffffffff610a9587613901565b169286846131b5565b833b156105475767ffffffffffffffff91608484928360405195869485937f1b827878000000000000000000000000000000000000000000000000000000008552600485015233602485015230604485015216978860648401525af18015610b7057610b5b575b602061033c878773ffffffffffffffffffffffffffffffffffffffff88888260405195610b3187611c54565b33875216878601526040850152346060850152166080830152600160a083015260c0820152613a4c565b610b66828092611c70565b6103f85780610b05565b6040513d84823e3d90fd5b7f5dac504d00000000000000000000000000000000000000000000000000000000845234600452602452604483fd5b50346103f85760207ffffffffffffffffffffffffffffffffffffffffffffffffffffffffffffffffc3601126103f85760ff604060209273ffffffffffffffffffffffffffffffffffffffff610bfe611a10565b168152600384522054166040519015158152f35b50346103f857807ffffffffffffffffffffffffffffffffffffffffffffffffffffffffffffffffc3601126103f857602063ffffffff60025416604051908152f35b50346103f8577ffffffffffffffffffffffffffffffffffffffffffffffffffffffffffffffffc3601610120811261048557610100136103f857610c96611b79565b338252600360205260ff6040832054161561045d5761045a90612c23565b50346103f8577ffffffffffffffffffffffffffffffffffffffffffffffffffffffffffffffffc3601610120811261048557610100136103f857602061099c610cfb611b79565b61250f565b50346103f857807ffffffffffffffffffffffffffffffffffffffffffffffffffffffffffffffffc3601126103f857602062ffffff60025460981c16604051908152f35b50346103f857807ffffffffffffffffffffffffffffffffffffffffffffffffffffffffffffffffc3601126103f857602062ffffff60025460801c16604051908152f35b50346103f85760407ffffffffffffffffffffffffffffffffffffffffffffffffffffffffffffffffc3601126103f857600435600b8110156104855760407fc8d9f716ee6f7a1977483c05570fa0e1f0b522aa1b25219c7336b65368ad56a491602435610df3613668565b80610dfd83611b9d565b5582519182526020820152a180f35b50346103f8577ffffffffffffffffffffffffffffffffffffffffffffffffffffffffffffffffc360161010081126104855760e0136103f857602061099c610e52611b56565b611ff1565b5060807ffffffffffffffffffffffffffffffffffffffffffffffffffffffffffffffffc3601126103f857610e8a611a10565b610e92611a9b565b90610e9b611af2565b9060643567ffffffffffffffff81116108ca57610ebc903690600401611b15565b610ec7929192613150565b803410610ffc5750610f129073ffffffffffffffffffffffffffffffffffffffff7f0000000000000000000000000000000000000000000000000000000000000000169384846131b5565b84823b156103f85773ffffffffffffffffffffffffffffffffffffffff60846bffffffffffffffffffffffff938360405195869485937f1b82787800000000000000000000000000000000000000000000000000000000855216998a600485015233602485015230604485015216968760648401525af1801561038d57610fe7575b602061033c858773ffffffffffffffffffffffffffffffffffffffff878760405194610fbf86611c54565b3386528786015260408501523460608501521660808301528060a083015260c0820152613a4c565b610ff2858092611c70565b610389575f610f94565b7f5dac504d00000000000000000000000000000000000000000000000000000000875234600452602452604486fd5b50346103f85760807ffffffffffffffffffffffffffffffffffffffffffffffffffffffffffffffffc3601126103f857611063611a10565b9061106c611a9b565b91611075611a80565b5060643567ffffffffffffffff811161054757611096903690600401611b15565b73ffffffffffffffffffffffffffffffffffffffff9291927f00000000000000000000000000000000000000000000000000000000000000001633036111b557826040918101031261054757604051916110ef83611c38565b6bffffffffffffffffffffffff611114602061110a84611ab6565b9384875201611a33565b916020850192835216926bffffffffffffffffffffffff861693808511611185575061045a94956bffffffffffffffffffffffff8092511603168061115d575b50503390613961565b73ffffffffffffffffffffffffffffffffffffffff61117e925116836137d4565b5f80611154565b85604491867f379d3018000000000000000000000000000000000000000000000000000000008352600452602452fd5b6004847fee90c468000000000000000000000000000000000000000000000000000000008152fd5b50346103f85760607ffffffffffffffffffffffffffffffffffffffffffffffffffffffffffffffffc3601126103f857611215611b43565b6024359063ffffffff821691828103610389576044359263ffffffff841690818503610908577f5059425a16aa50b8d42ba1b984287f78e50743f3674c64736be81d875723294d9463ffffffff60609561126d613668565b169367ffffffff00000000857fffffffffffffffffffffffffffffffffffffffff0000000000000000000000006bffffffff00000000000000006002549560401b169416179160201b16171760025560405192835260208301526040820152a180f35b50346103f85760207ffffffffffffffffffffffffffffffffffffffffffffffffffffffffffffffffc3601126103f85760043590600b8210156103f857602061131883611b9d565b54604051908152f35b50346103f85760207ffffffffffffffffffffffffffffffffffffffffffffffffffffffffffffffffc3601126103f85760043573ffffffffffffffffffffffffffffffffffffffff81168091036104855761137a613668565b7fffffffffffffffffffffffff000000000000000000000000000000000000000082541617815580f35b50346103f857807ffffffffffffffffffffffffffffffffffffffffffffffffffffffffffffffffc3601126103f857602060405173ffffffffffffffffffffffffffffffffffffffff7f0000000000000000000000000000000000000000000000000000000000000000168152f35b50346103f857807ffffffffffffffffffffffffffffffffffffffffffffffffffffffffffffffffc3601126103f857602060405173ffffffffffffffffffffffffffffffffffffffff7f0000000000000000000000000000000000000000000000000000000000000000168152f35b50346103f857807ffffffffffffffffffffffffffffffffffffffffffffffffffffffffffffffffc3601126103f857602063ffffffff60025460601c16604051908152f35b50346103f85760207ffffffffffffffffffffffffffffffffffffffffffffffffffffffffffffffffc3601126103f8576114ff611b43565b611507613668565b7fffffffffffff00000000ffffffffffffffffffffffffffffffffffffffffffff79ffffffff000000000000000000000000000000000000000000006002549260b01b1691161760025580f35b50346103f8577ffffffffffffffffffffffffffffffffffffffffffffffffffffffffffffffffc360161010081126104855760e0136103f857602061099c61159a611b56565b611d61565b50346103f85760207ffffffffffffffffffffffffffffffffffffffffffffffffffffffffffffffffc3601126103f8576115d7611b43565b6115df613668565b7fffffffffffffffffffffffffffffffff00000000ffffffffffffffffffffffff6fffffffff0000000000000000000000006002549260601b1691161760025580f35b50346103f857807ffffffffffffffffffffffffffffffffffffffffffffffffffffffffffffffffc3601126103f8576004602073ffffffffffffffffffffffffffffffffffffffff835416604051928380927f12d43a510000000000000000000000000000000000000000000000000000000082525afa908115610b7057602092916116c8575b5073ffffffffffffffffffffffffffffffffffffffff60405191168152f35b6116e89150823d84116116ee575b6116e08183611c70565b810190611cb1565b5f6116a9565b503d6116d6565b50346103f857807ffffffffffffffffffffffffffffffffffffffffffffffffffffffffffffffffc3601126103f857602063ffffffff60025460b01c16604051908152f35b50346103f85760207ffffffffffffffffffffffffffffffffffffffffffffffffffffffffffffffffc3601126103f85760406020916004358152600483522054604051908152f35b5060a07ffffffffffffffffffffffffffffffffffffffffffffffffffffffffffffffffc36011261199c576117b5611a10565b906117be611a54565b916117c7611a80565b916117d0611acf565b9060843567ffffffffffffffff811161199c576117f1903690600401611b15565b9290956118016107586002611b9d565b8034106119a0575067ffffffffffffffff9061187673ffffffffffffffffffffffffffffffffffffffff7f0000000000000000000000000000000000000000000000000000000000000000169573ffffffffffffffffffffffffffffffffffffffff61186d888a61315f565b1699878b6131b5565b1692803b1561199c576040517f1b82787800000000000000000000000000000000000000000000000000000000815273ffffffffffffffffffffffffffffffffffffffff979097166004880152336024880152306044880152606487018490525f908790608490829084905af19485156119915760209661033c96611959575b506bffffffffffffffffffffffff9073ffffffffffffffffffffffffffffffffffffffff9394846040519761192a89611bee565b338952168988015260408701521660608501521660808301523460a08301528060c083015260e082015261356c565b73ffffffffffffffffffffffffffffffffffffffff9350906119885f6bffffffffffffffffffffffff93611c70565b5f9350906118f6565b6040513d5f823e3d90fd5b5f80fd5b7f5dac504d000000000000000000000000000000000000000000000000000000005f523460045260245260445ffd5b3461199c575f7ffffffffffffffffffffffffffffffffffffffffffffffffffffffffffffffffc36011261199c5760209063ffffffff60025460401c168152f35b6004359073ffffffffffffffffffffffffffffffffffffffff8216820361199c57565b359073ffffffffffffffffffffffffffffffffffffffff8216820361199c57565b6024359067ffffffffffffffff8216820361199c57565b359067ffffffffffffffff8216820361199c57565b604435906bffffffffffffffffffffffff8216820361199c57565b602435906bffffffffffffffffffffffff8216820361199c57565b35906bffffffffffffffffffffffff8216820361199c57565b6064359073ffffffffffffffffffffffffffffffffffffffff8216820361199c57565b6044359073ffffffffffffffffffffffffffffffffffffffff8216820361199c57565b9181601f8401121561199c5782359167ffffffffffffffff831161199c576020838186019501011161199c57565b6004359063ffffffff8216820361199c57565b60e4359073ffffffffffffffffffffffffffffffffffffffff8216820361199c57565b610104359073ffffffffffffffffffffffffffffffffffffffff8216820361199c57565b600b811015611bb4575f52600160205260405f2090565b7f4e487b71000000000000000000000000000000000000000000000000000000005f52602160045260245ffd5b3590811515820361199c57565b610100810190811067ffffffffffffffff821117611c0b57604052565b7f4e487b71000000000000000000000000000000000000000000000000000000005f52604160045260245ffd5b6040810190811067ffffffffffffffff821117611c0b57604052565b60e0810190811067ffffffffffffffff821117611c0b57604052565b90601f7fffffffffffffffffffffffffffffffffffffffffffffffffffffffffffffffe0910116810190811067ffffffffffffffff821117611c0b57604052565b9081602091031261199c575173ffffffffffffffffffffffffffffffffffffffff8116810361199c5790565b91908260e091031261199c57604051611cf581611c54565b60c0611d5c818395611d0681611a33565b8552611d1460208201611a33565b6020860152611d2560408201611ab6565b604086015260608101356060860152611d4060808201611a33565b6080860152611d5160a08201611be1565b60a086015201611ab6565b910152565b611d74611d6f366004611cdd565b613724565b90815f52600460205260405f20548015611f27576004359073ffffffffffffffffffffffffffffffffffffffff8216821415908161199c5782611db691613d8b565b15611f1f57835f5260046020525f604081205560a435801515810361199c5715611e995773ffffffffffffffffffffffffffffffffffffffff611e1a817f000000000000000000000000000000000000000000000000000000000000000016613901565b169061199c57604435926bffffffffffffffffffffffff84169384810361199c577f63969e9524610e75d008ff369b60dca79462936cb81dabd2ff79f1d61d67d96d9460209473ffffffffffffffffffffffffffffffffffffffff94611e809350613961565b16611e8d81606435613a1f565b604051908152a2600190565b5060243573ffffffffffffffffffffffffffffffffffffffff8116810361199c57604435926bffffffffffffffffffffffff84169384810361199c577f63969e9524610e75d008ff369b60dca79462936cb81dabd2ff79f1d61d67d96d9460209473ffffffffffffffffffffffffffffffffffffffff94611f1a93506137d4565b611e80565b505050505f90565b505050600190565b519067ffffffffffffffff8216820361199c57565b51906bffffffffffffffffffffffff8216820361199c57565b93601f60207fffffffffffffffffffffffffffffffffffffffffffffffffffffffffffffffe09273ffffffffffffffffffffffffffffffffffffffff60a0976bffffffffffffffffffffffff82988360e0999e9d9e168c526001868d01521660408b015216606089015260c0608089015280519182918260c08b0152018589015e5f84828901015201168401019416910152565b611fff611d6f366004611cdd565b90815f52600460205260405f2054908115611f275760043573ffffffffffffffffffffffffffffffffffffffff81169283821415908161199c578261204391613b37565b1561247557845f5260046020525f604081205563ffffffff60025460601c1690604435916bffffffffffffffffffffffff83169586840361199c578360a43597881515890361199c5788612287575b5050506024359173ffffffffffffffffffffffffffffffffffffffff8316830361199c57612107826bffffffffffffffffffffffff73ffffffffffffffffffffffffffffffffffffffff7f00000000000000000000000000000000000000000000000000000000000000001696168686613b87565b61199c576084359073ffffffffffffffffffffffffffffffffffffffff8216820361199c576040517fc1785c8600000000000000000000000000000000000000000000000000000000815273ffffffffffffffffffffffffffffffffffffffff9384166004820152858416602482015291909216604482015291602091839160649183915f91f1801561199157612226575b506121d2907fcde375bf78c9ad97fcef9ab49c05bd7f40d6f8645f9f6712a1fa506871971fd7935f146122205760015b60643590613c14565b906121f373ffffffffffffffffffffffffffffffffffffffff821683613a1f565b6040805173ffffffffffffffffffffffffffffffffffffffff9290921682526020820192909252a2600190565b5f6121c9565b906020823d60201161227f575b8161224060209383611c70565b8101031261199c577fcde375bf78c9ad97fcef9ab49c05bd7f40d6f8645f9f6712a1fa506871971fd7936122766121d293611f2f565b50935090612199565b3d9150612233565b9193509193506024359073ffffffffffffffffffffffffffffffffffffffff8216820361199c578161233e61231292604094505f968551916122c883611c38565b82526020820152845193849160208301919091602073ffffffffffffffffffffffffffffffffffffffff8160408401956bffffffffffffffffffffffff8151168552015116910152565b037fffffffffffffffffffffffffffffffffffffffffffffffffffffffffffffffe08101845283611c70565b612378835194859384937fa50549860000000000000000000000000000000000000000000000000000000085523092309160048701611f5d565b03815f73ffffffffffffffffffffffffffffffffffffffff7f00000000000000000000000000000000000000000000000000000000000000001688f1908115611991575f9161242e575b5060c4356bffffffffffffffffffffffff811680820361199c576bffffffffffffffffffffffff8316918183106123ff57505050915f8080612092565b507f162a9905000000000000000000000000000000000000000000000000000000005f5260045260245260445ffd5b90506040813d60401161246d575b8161244960409383611c70565b8101031261199c5760208161246061246793611f2f565b5001611f44565b5f6123c2565b3d915061243c565b50505050505f90565b91908261010091031261199c5760405161249781611bee565b60e0611d5c8183956124a881611a33565b85526124b660208201611a33565b60208601526124c760408201611a6b565b60408601526124d860608201611ab6565b60608601526124e960808201611a33565b608086015260a081013560a086015261250460c08201611be1565b60c086015201611a6b565b5f9061252461251f36600461247e565b613c51565b91825f52600460205260405f20548015612ae1576004359173ffffffffffffffffffffffffffffffffffffffff83169182840361199c578361256591613b37565b1561247557845f5260046020525f604081205563ffffffff60025460601c16916024359273ffffffffffffffffffffffffffffffffffffffff84169182850361199c5773ffffffffffffffffffffffffffffffffffffffff7f0000000000000000000000000000000000000000000000000000000000000000169173ffffffffffffffffffffffffffffffffffffffff6125ff848861315f565b166044359067ffffffffffffffff821680830361199c578584926126239450613b87565b73ffffffffffffffffffffffffffffffffffffffff7f0000000000000000000000000000000000000000000000000000000000000000169384149081612ab7575b5f9660c4359586158015880361199c578790612ab0575b15612a83576126e7936020305b6040517f29c04cee00000000000000000000000000000000000000000000000000000000815273ffffffffffffffffffffffffffffffffffffffff8087166004830152808f166024830152909116604482015295869081906064820190565b03815f8b89f1948515611991575f95612a47575b50871561292f57505086946bffffffffffffffffffffffff8416806127c4575b50505050505060e4359067ffffffffffffffff8216908183036108ca5767ffffffffffffffff1691818310612794575050505b1561278c576003915b6103f857507f95bb8a3bc291e3c463912e0f71c31142c82a4ce42f823a91791800e4d77e9ea592916121d29160a43590613c14565b600291612757565b507f162a990500000000000000000000000000000000000000000000000000000000845260045260245250604490fd5b61282d9599506128599192939496505f99604051916127e283611c38565b8252602082015260405195869160208301919091602073ffffffffffffffffffffffffffffffffffffffff8160408401956bffffffffffffffffffffffff8151168552015116910152565b037fffffffffffffffffffffffffffffffffffffffffffffffffffffffffffffffe08101865285611c70565b6084359473ffffffffffffffffffffffffffffffffffffffff8616860361292b5760409493929188916128bc8751988997889687947f6c717edc000000000000000000000000000000000000000000000000000000008652309160048701611f5d565b0393f19081156129205783916128d9575b505f808080808061271b565b90506040813d604011612918575b816128f460409383611c70565b810103126105475760208161290b61291293611f44565b5001611f2f565b5f6128cd565b3d91506128e7565b6040513d85823e3d90fd5b8780fd5b93955093505050606435926bffffffffffffffffffffffff84169081850361199c576bffffffffffffffffffffffff1693818510612a1557505080612a0c575b61297b575b505061274e565b803b1561199c575f80916024604051809481937f2e1a7d4d0000000000000000000000000000000000000000000000000000000083528760048401525af18015611991576129f7575b506084359073ffffffffffffffffffffffffffffffffffffffff8216820361038957906129f091613a1f565b5f80612974565b612a049193505f90611c70565b5f915f6129c4565b5081151561296f565b849250507f162a9905000000000000000000000000000000000000000000000000000000005f5260045260245260445ffd5b9094506020813d602011612a7b575b81612a6360209383611c70565b8101031261199c57612a7490611f44565b935f6126fb565b3d9150612a56565b6084359373ffffffffffffffffffffffffffffffffffffffff8516850361199c576126e794602090612688565b508361267b565b905060843573ffffffffffffffffffffffffffffffffffffffff8116810361199c573b1590612664565b50505050600190565b9081602091031261199c5751801515810361199c5790565b90929173ffffffffffffffffffffffffffffffffffffffff6101009167ffffffffffffffff612bba60e061012087019885612b3c82611a33565b16885285612b4c60208301611a33565b16602089015283612b5f60408301611a6b565b1660408901526bffffffffffffffffffffffff612b7e60608301611ab6565b16606089015285612b9160808301611a33565b16608089015260a081013560a0890152612bad60c08201611be1565b151560c089015201611a6b565b1660e085015216910152565b3d15612c1e573d9067ffffffffffffffff8211611c0b5760405191612c1360207fffffffffffffffffffffffffffffffffffffffffffffffffffffffffffffffe0601f8401160184611c70565b82523d5f602084013e565b606090565b6040517fad4a70ab00000000000000000000000000000000000000000000000000000000815260208180612c5b856004808401612b02565b03815f305af15f9181612dd0575b50612dc757506020612d4291612c7d612bc6565b8281519101517fffffffff0000000000000000000000000000000000000000000000000000000081169160048110612d92575b505060017f30467beaabb8ef26014dc3e31dc09bf58060436193d2f111af53d708264ec40b84612ce461251f36600461247e565b937fffffffff0000000000000000000000000000000000000000000000000000000060405191168152a3604051809381927fc34c9df10000000000000000000000000000000000000000000000000000000083526004808401612b02565b03815f305af15f9181612d61575b50612d585750565b15612d5f57565b565b612d8491925060203d602011612d8b575b612d7c8183611c70565b810190612aea565b905f612d50565b503d612d72565b7fffffffff000000000000000000000000000000000000000000000000000000009250829060040360031b1b16165f80612cb0565b905015612d5f57565b612dea91925060203d602011612d8b57612d7c8183611c70565b905f612c69565b612dff61251f36600461247e565b90815f52600460205260405f2054908115611f27576004359173ffffffffffffffffffffffffffffffffffffffff8316830361199c5782612e3f91613d8b565b15612f2d57825f5260046020525f604081205560243573ffffffffffffffffffffffffffffffffffffffff8116810361199c5773ffffffffffffffffffffffffffffffffffffffff90612eb5907f000000000000000000000000000000000000000000000000000000000000000083169061315f565b16916044359167ffffffffffffffff83169283810361199c577f2477129b9d67a93862d4e8221ea52fdbfa3d00e655dab7ed021fc569b70e58d79460209473ffffffffffffffffffffffffffffffffffffffff94612f20935063ffffffff60025460601c1692613b87565b16611e8d8160a435613a1f565b5050505f90565b90929173ffffffffffffffffffffffffffffffffffffffff60e0916bffffffffffffffffffffffff612fd060c061010087019885612f7182611a33565b16885285612f8160208301611a33565b16602089015283612f9460408301611ab6565b1660408901526060810135606089015285612fb160808301611a33565b166080890152612fc360a08201611be1565b151560a089015201611ab6565b1660c085015216910152565b6040517fa41f17fe00000000000000000000000000000000000000000000000000000000815260208180613014856004808401612f34565b03815f305af15f918161312f575b50612dc757506020612d4291613036612bc6565b8281519101517fffffffff00000000000000000000000000000000000000000000000000000000811691600481106130fa575b50505f7f30467beaabb8ef26014dc3e31dc09bf58060436193d2f111af53d708264ec40b8461309c611d6f366004611cdd565b937fffffffff0000000000000000000000000000000000000000000000000000000060405191168152a3604051809381927f2a9de9fb0000000000000000000000000000000000000000000000000000000083526004808401612f34565b7fffffffff000000000000000000000000000000000000000000000000000000009250829060040360031b1b16165f80613069565b61314991925060203d602011612d8b57612d7c8183611c70565b905f613022565b61315c6107585f611b9d565b90565b600b9060559273ffffffffffffffffffffffffffffffffffffffff604051927ff7ee18f8779e8a47b9fee2bf37816783fe8615833733cf03cc48cd8fc3e3128b604085015216602083015281520160ff81532090565b908315613566575f938493604051928290816064146134af57816048146133ec578160e0146133b2578161010014613376578160601461327b575061016014613231578185926004927f9fd5a6cf0000000000000000000000000000000000000000000000000000000086528386013701925af15b1561199157565b610164935061016091507f2b67b5700000000000000000000000000000000000000000000000000000000083526004830137826e22d473030f116ddee9f6b43ac78ba35af161322a565b602093506040929150610164957f2b67b570000000000000000000000000000000000000000000000000000000008652336004870152602486015260148260508701377fffffffffffffffffffffffffffffffffffffffffffffffffffffffffffffffff601483013560e01c0165ffffffffffff166064860152601882013560e01c608486015260a48501527fffffffffffffffffffffffffffffffffffffffffffffffffffffffffffffffff601c82013560e01c0165ffffffffffff1660c485015261010060e4850152816101048501528280820161012486013701610144830137826e22d473030f116ddee9f6b43ac78ba35af161322a565b505084915092610100610104947f8fcbaf0c00000000000000000000000000000000000000000000000000000000855260048501375af161322a565b50508491509260e060e4947fd505accf00000000000000000000000000000000000000000000000000000000855260048501375af161322a565b8693507f7fffffffffffffffffffffffffffffffffffffffffffffffffffffffffffffff91509161010495927f8fcbaf0c000000000000000000000000000000000000000000000000000000008652336004870152602486015260206008602883013592803560e01c60448901527fffffffffffffffffffffffffffffffffffffffffffffffffffffffffffffffff600482013560e01c016064890152600160848901528360ff1c601b0160a48901520160c48701371660e48401525af161322a565b8693507f7fffffffffffffffffffffffffffffffffffffffffffffffffffffffffffffff91509160e495927fd505accf000000000000000000000000000000000000000000000000000000008652336004870152602486015260206024604483013592828160448a01377fffffffffffffffffffffffffffffffffffffffffffffffffffffffffffffffff8382013560e01c0160648901528360ff1c601b0160848901520160a48701371660c48401525af161322a565b50505050565b9061357682613c51565b9161358083613d4c565b825f5260046020524360405f205573ffffffffffffffffffffffffffffffffffffffff8151167f7cfc77df9024de43278b902b6501a8e9b21a89996358c36c0a400facc24018ac60e073ffffffffffffffffffffffffffffffffffffffff6020850151169367ffffffffffffffff604082015116906bffffffffffffffffffffffff6060820151169073ffffffffffffffffffffffffffffffffffffffff60808201511660a08201519067ffffffffffffffff8660c085015115159401511693604051958652602086015260408501526060840152608083015260a08201528660c0820152a3565b6004602073ffffffffffffffffffffffffffffffffffffffff5f5416604051928380927f12d43a510000000000000000000000000000000000000000000000000000000082525afa80156119915773ffffffffffffffffffffffffffffffffffffffff915f91613705575b501633036136dd57565b7fee90c468000000000000000000000000000000000000000000000000000000005f5260045ffd5b61371e915060203d6020116116ee576116e08183611c70565b5f6136d3565b6040516bffffffffffffffffffffffff60c0602083019373ffffffffffffffffffffffffffffffffffffffff815116855273ffffffffffffffffffffffffffffffffffffffff60208201511660408501528260408201511660608501526060810151608085015273ffffffffffffffffffffffffffffffffffffffff60808201511660a085015260a081015115158285015201511660e082015260e081526137ce61010082611c70565b51902090565b73ffffffffffffffffffffffffffffffffffffffff7f0000000000000000000000000000000000000000000000000000000000000000169073ffffffffffffffffffffffffffffffffffffffff81168214806138f8575b156138cc5750803b1561199c575f6fffffffffffffffffffffffffffffffff6024829560405196879384927f2e1a7d4d00000000000000000000000000000000000000000000000000000000845216958660048401525af192831561199157612d5f936138bc575b5073ffffffffffffffffffffffffffffffffffffffff63ffffffff60025460b01c169216613e22565b5f6138c691611c70565b5f613893565b9050612d5f92916fffffffffffffffffffffffffffffffff63ffffffff60025460601c16931691613b87565b50823b1561382b565b600b605591604051907f833a3129a7c49096ba2bc346ab64e2bbec674f4181bf8e6dedfa83aea7fb0fec60408301527f19e0e5e01a085dfed6202468dbe0a147fedc8ede0e01cde25a7e0cb754329740602083015281520160ff81532090565b905f80916139c96139f5612d5f9660405192839160208301957fa9059cbb000000000000000000000000000000000000000000000000000000008752602484016020909392919373ffffffffffffffffffffffffffffffffffffffff60408201951681520152565b037fffffffffffffffffffffffffffffffffffffffffffffffffffffffffffffffe08101835282611c70565b51908273ffffffffffffffffffffffffffffffffffffffff86165af1613a19612bc6565b91613ebe565b90612d5f9173ffffffffffffffffffffffffffffffffffffffff63ffffffff60025460b01c169216613e22565b90613a5682613724565b91613a6083613d4c565b825f5260046020524360405f205573ffffffffffffffffffffffffffffffffffffffff8151167fbe051e2fc2e9cc86eec70e56e15771f572911f18ab163a6955adede08a9a9dd360c073ffffffffffffffffffffffffffffffffffffffff602085015116936bffffffffffffffffffffffff6040820151169060608101519073ffffffffffffffffffffffffffffffffffffffff6080820151166bffffffffffffffffffffffff8560a08401511515930151169260405194855260208501526040840152606083015260808201528660a0820152a3565b919063ffffffff60025460401c1683019243841115613b5b5761315c929350613d8b565b837ff80dbaea000000000000000000000000000000000000000000000000000000005f5260045260245ffd5b91612d5f935f92836139c9613bf1829560405192839160208301967fa9059cbb000000000000000000000000000000000000000000000000000000008852602484016020909392919373ffffffffffffffffffffffffffffffffffffffff60408201951681520152565b519273ffffffffffffffffffffffffffffffffffffffff871690f1613a19612bc6565b613c23613c3791939293611b9d565b543a0262ffffff60025460981c1602613d11565b90818311613c4457505090565b81612d5f92949303613a1f565b60405167ffffffffffffffff60e0602083019373ffffffffffffffffffffffffffffffffffffffff815116855273ffffffffffffffffffffffffffffffffffffffff60208201511660408501528260408201511660608501526bffffffffffffffffffffffff606082015116608085015273ffffffffffffffffffffffffffffffffffffffff60808201511660a085015260a081015160c085015260c081015115158285015201511661010082015261010081526137ce61012082611c70565b5f9080613d1c575090565b600191507fffffffffffffffffffffffffffffffffffffffffffffffffffffffffffffffff629896809101040190565b805f52600460205260405f2054613d605750565b7f43731142000000000000000000000000000000000000000000000000000000005f5260045260245ffd5b903033148015613e0c575b613dfb5773ffffffffffffffffffffffffffffffffffffffff1633036136dd5763ffffffff60025460201c1601438111613dd05750600190565b7f2a35a324000000000000000000000000000000000000000000000000000000005f5260045260245ffd5b5063ffffffff600254160143101590565b50335f52600360205260ff60405f205416613d96565b9190918215613eb957824710613e89575f8093819373ffffffffffffffffffffffffffffffffffffffff83941690f1613e59612bc6565b5015613e6157565b7fe293b56b000000000000000000000000000000000000000000000000000000005f5260045ffd5b82477fcf479181000000000000000000000000000000000000000000000000000000005f5260045260245260445ffd5b505050565b73ffffffffffffffffffffffffffffffffffffffff1691613edf9183613f3b565b8051908115159182613f20575b5050613ef55750565b7f39f1c8d9000000000000000000000000000000000000000000000000000000005f5260045260245ffd5b613f339250602080918301019101612aea565b155f80613eec565b90613f785750805115613f5057805190602001fd5b7f1425ea42000000000000000000000000000000000000000000000000000000005f5260045ffd5b81511580613fcb575b613f89575090565b73ffffffffffffffffffffffffffffffffffffffff907f9996b315000000000000000000000000000000000000000000000000000000005f521660045260245ffd5b50803b15613f8156fea164736f6c634300081a000a",
  "linkReferences": {},
  "deployedLinkReferences": {}
}