{
  "_format": "hh-sol-artifact-1",
  "contractName": "FeeDistributorUpgradeable",
  "sourceName": "contracts/core/FeeDistributorUpgradeable.sol",
  "abi": [
    {
      "inputs": [],
      "stateMutability": "nonpayable",
      "type": "constructor"
    },
    {
      "inputs": [
        {
          "internalType": "address",
          "name": "target",
          "type": "address"
        }
      ],
      "name": "AddressEmptyCode",
      "type": "error"
    },
    {
      "inputs": [
        {
          "internalType": "address",
          "name": "implementation",
          "type": "address"
        }
      ],
      "name": "ERC1967InvalidImplementation",
      "type": "error"
    },
    {
      "inputs": [],
      "name": "ERC1967NonPayable",
      "type": "error"
    },
    {
      "inputs": [],
      "name": "FailedInnerCall",
      "type": "error"
    },
    {
      "inputs": [],
      "name": "Forbidden",
      "type": "error"
    },
    {
      "inputs": [
        {
          "internalType": "uint24",
          "name": "protocolFeeRate",
          "type": "uint24"
        },
        {
          "internalType": "uint24",
          "name": "ecosystemFeeRate",
          "type": "uint24"
        }
      ],
      "name": "InvalidFeeRate",
      "type": "error"
    },
    {
      "inputs": [],
      "name": "InvalidInitialization",
      "type": "error"
    },
    {
      "inputs": [],
      "name": "NotInitializing",
      "type": "error"
    },
    {
      "inputs": [
        {
          "internalType": "uint8",
          "name": "bits",
          "type": "uint8"
        },
        {
          "internalType": "uint256",
          "name": "value",
          "type": "uint256"
        }
      ],
      "name": "SafeCastOverflowedUintDowncast",
      "type": "error"
    },
    {
      "inputs": [],
      "name": "UUPSUnauthorizedCallContext",
      "type": "error"
    },
    {
      "inputs": [
        {
          "internalType": "bytes32",
          "name": "slot",
          "type": "bytes32"
        }
      ],
      "name": "UUPSUnsupportedProxiableUUID",
      "type": "error"
    },
    {
      "anonymous": false,
      "inputs": [
        {
          "indexed": true,
          "internalType": "address",
          "name": "previousGov",
          "type": "address"
        },
        {
          "indexed": true,
          "internalType": "address",
          "name": "newGov",
          "type": "address"
        }
      ],
      "name": "ChangeGovStarted",
      "type": "event"
    },
    {
      "anonymous": false,
      "inputs": [
        {
          "indexed": true,
          "internalType": "contract IERC20",
          "name": "token",
          "type": "address"
        },
        {
          "indexed": true,
          "internalType": "address",
          "name": "receiver",
          "type": "address"
        },
        {
          "indexed": false,
          "internalType": "uint128",
          "name": "amount",
          "type": "uint128"
        }
      ],
      "name": "DevelopmentFundWithdrawal",
      "type": "event"
    },
    {
      "anonymous": false,
      "inputs": [
        {
          "indexed": true,
          "internalType": "contract IERC20",
          "name": "token",
          "type": "address"
        },
        {
          "indexed": true,
          "internalType": "address",
          "name": "receiver",
          "type": "address"
        },
        {
          "indexed": false,
          "internalType": "uint128",
          "name": "amount",
          "type": "uint128"
        }
      ],
      "name": "EcosystemFeeWithdrawal",
      "type": "event"
    },
    {
      "anonymous": false,
      "inputs": [
        {
          "indexed": true,
          "internalType": "contract IERC20",
          "name": "token",
          "type": "address"
        },
        {
          "indexed": false,
          "internalType": "uint128",
          "name": "protocolFee",
          "type": "uint128"
        },
        {
          "indexed": false,
          "internalType": "uint128",
          "name": "ecosystemFee",
          "type": "uint128"
        },
        {
          "indexed": false,
          "internalType": "uint128",
          "name": "developmentFund",
          "type": "uint128"
        }
      ],
      "name": "FeeDeposited",
      "type": "event"
    },
    {
      "anonymous": false,
      "inputs": [
        {
          "indexed": false,
          "internalType": "uint24",
          "name": "newProtocolFeeRate",
          "type": "uint24"
        },
        {
          "indexed": false,
          "internalType": "uint24",
          "name": "newEcosystemFeeRate",
          "type": "uint24"
        }
      ],
      "name": "FeeRateUpdated",
      "type": "event"
    },
    {
      "anonymous": false,
      "inputs": [
        {
          "indexed": true,
          "internalType": "address",
          "name": "previousGov",
          "type": "address"
        },
        {
          "indexed": true,
          "internalType": "address",
          "name": "newGov",
          "type": "address"
        }
      ],
      "name": "GovChanged",
      "type": "event"
    },
    {
      "anonymous": false,
      "inputs": [
        {
          "indexed": false,
          "internalType": "uint64",
          "name": "version",
          "type": "uint64"
        }
      ],
      "name": "Initialized",
      "type": "event"
    },
    {
      "anonymous": false,
      "inputs": [
        {
          "indexed": true,
          "internalType": "contract IERC20",
          "name": "token",
          "type": "address"
        },
        {
          "indexed": true,
          "internalType": "address",
          "name": "receiver",
          "type": "address"
        },
        {
          "indexed": false,
          "internalType": "uint128",
          "name": "amount",
          "type": "uint128"
        }
      ],
      "name": "ProtocolFeeWithdrawal",
      "type": "event"
    },
    {
      "anonymous": false,
      "inputs": [
        {
          "indexed": true,
          "internalType": "address",
          "name": "implementation",
          "type": "address"
        }
      ],
      "name": "Upgraded",
      "type": "event"
    },
    {
      "inputs": [],
      "name": "UPGRADE_INTERFACE_VERSION",
      "outputs": [
        {
          "internalType": "string",
          "name": "",
          "type": "string"
        }
      ],
      "stateMutability": "view",
      "type": "function"
    },
    {
      "inputs": [],
      "name": "acceptGov",
      "outputs": [],
      "stateMutability": "nonpayable",
      "type": "function"
    },
    {
      "inputs": [
        {
          "internalType": "address",
          "name": "_newGov",
          "type": "address"
        }
      ],
      "name": "changeGov",
      "outputs": [],
      "stateMutability": "nonpayable",
      "type": "function"
    },
    {
      "inputs": [
        {
          "internalType": "contract IERC20",
          "name": "_token",
          "type": "address"
        }
      ],
      "name": "deposit",
      "outputs": [],
      "stateMutability": "nonpayable",
      "type": "function"
    },
    {
      "inputs": [],
      "name": "ecosystemFeeRate",
      "outputs": [
        {
          "internalType": "uint24",
          "name": "",
          "type": "uint24"
        }
      ],
      "stateMutability": "view",
      "type": "function"
    },
    {
      "inputs": [
        {
          "internalType": "contract IERC20",
          "name": "market",
          "type": "address"
        }
      ],
      "name": "feeDistributions",
      "outputs": [
        {
          "internalType": "uint128",
          "name": "protocolFee",
          "type": "uint128"
        },
        {
          "internalType": "uint128",
          "name": "ecosystemFee",
          "type": "uint128"
        },
        {
          "internalType": "uint128",
          "name": "developmentFund",
          "type": "uint128"
        }
      ],
      "stateMutability": "view",
      "type": "function"
    },
    {
      "inputs": [],
      "name": "gov",
      "outputs": [
        {
          "internalType": "address",
          "name": "",
          "type": "address"
        }
      ],
      "stateMutability": "view",
      "type": "function"
    },
    {
      "inputs": [
        {
          "internalType": "address",
          "name": "_initialGov",
          "type": "address"
        },
        {
          "internalType": "uint24",
          "name": "_protocolFeeRate",
          "type": "uint24"
        },
        {
          "internalType": "uint24",
          "name": "_ecosystemFeeRate",
          "type": "uint24"
        }
      ],
      "name": "initialize",
      "outputs": [],
      "stateMutability": "nonpayable",
      "type": "function"
    },
    {
      "inputs": [],
      "name": "pendingGov",
      "outputs": [
        {
          "internalType": "address",
          "name": "",
          "type": "address"
        }
      ],
      "stateMutability": "view",
      "type": "function"
    },
    {
      "inputs": [],
      "name": "protocolFeeRate",
      "outputs": [
        {
          "internalType": "uint24",
          "name": "",
          "type": "uint24"
        }
      ],
      "stateMutability": "view",
      "type": "function"
    },
    {
      "inputs": [],
      "name": "proxiableUUID",
      "outputs": [
        {
          "internalType": "bytes32",
          "name": "",
          "type": "bytes32"
        }
      ],
      "stateMutability": "view",
      "type": "function"
    },
    {
      "inputs": [
        {
          "internalType": "uint24",
          "name": "_protocolFeeRate",
          "type": "uint24"
        },
        {
          "internalType": "uint24",
          "name": "_ecosystemFeeRate",
          "type": "uint24"
        }
      ],
      "name": "updateFeeRate",
      "outputs": [],
      "stateMutability": "nonpayable",
      "type": "function"
    },
    {
      "inputs": [
        {
          "internalType": "address",
          "name": "newImplementation",
          "type": "address"
        },
        {
          "internalType": "bytes",
          "name": "data",
          "type": "bytes"
        }
      ],
      "name": "upgradeToAndCall",
      "outputs": [],
      "stateMutability": "payable",
      "type": "function"
    },
    {
      "inputs": [
        {
          "internalType": "contract IERC20",
          "name": "_token",
          "type": "address"
        },
        {
          "internalType": "address",
          "name": "_receiver",
          "type": "address"
        },
        {
          "internalType": "uint128",
          "name": "_amount",
          "type": "uint128"
        }
      ],
      "name": "withdrawDevelopmentFund",
      "outputs": [],
      "stateMutability": "nonpayable",
      "type": "function"
    },
    {
      "inputs": [
        {
          "internalType": "contract IERC20",
          "name": "_token",
          "type": "address"
        },
        {
          "internalType": "address",
          "name": "_receiver",
          "type": "address"
        },
        {
          "internalType": "uint128",
          "name": "_amount",
          "type": "uint128"
        }
      ],
      "name": "withdrawEcosystemFee",
      "outputs": [],
      "stateMutability": "nonpayable",
      "type": "function"
    },
    {
      "inputs": [
        {
          "internalType": "contract IERC20",
          "name": "_token",
          "type": "address"
        },
        {
          "internalType": "address",
          "name": "_receiver",
          "type": "address"
        },
        {
          "internalType": "uint128",
          "name": "_amount",
          "type": "uint128"
        }
      ],
      "name": "withdrawProtocolFee",
      "outputs": [],
      "stateMutability": "nonpayable",
      "type": "function"
    }
  ],
  "bytecode": "0x60a080604052346100e857306080527ff0c57e16840df040f15088dc2f81fe391c3923bec73e23a9662efc9c229c6a005460ff8160401c166100d9576002600160401b03196001600160401b03821601610073575b6040516117a290816100ed8239608051818181610a7d0152610b9c0152f35b6001600160401b0319166001600160401b039081177ff0c57e16840df040f15088dc2f81fe391c3923bec73e23a9662efc9c229c6a005581527fc7f505b2f371ae2175ee4913f4499e1f2633a7b5936321eed1cdaeb6115181d290602090a15f80610054565b63f92ee8a960e01b5f5260045ffd5b5f80fdfe60806040526004361015610011575f80fd5b5f3560e01c806303d66725146111c457806312d43a5114611154578063175ddf8614610f095780632524081014610e9957806336555f4814610e575780634f1ef28614610af557806352d1902d14610a3857806358f85880146109f957806368936d8e146109615780637bc6729b1461087f578063a0438ab514610825578063a962ef1e1461070a578063ad3cb1cc14610658578063b50fe49d1461050b578063c4bfc33f146103955763f340fa01146100c9575f80fd5b3461037e5760207ffffffffffffffffffffffffffffffffffffffffffffffffffffffffffffffffc36011261037e5773ffffffffffffffffffffffffffffffffffffffff610115611318565b166040517f70a08231000000000000000000000000000000000000000000000000000000008152306004820152602081602481855afa90811561038a575f91610354575b50815f52600160205260405f208054906101b66101896fffffffffffffffffffffffffffffffff841680956114f7565b926101ac60018401946fffffffffffffffffffffffffffffffff865416906114f7565b9060801c906114f7565b6fffffffffffffffffffffffffffffffff8111610324577fb2263c3bb54e1352877c03bfeed88f197ce9f0fb218f5e9167bd259624e7bdb09362989680936102bb62ffffff946fffffffffffffffffffffffffffffffff808061031f9716815f54918180808e8e8716850204169d8e9d8e9660181c16840204169c8d9203160316960116167fffffffffffffffffffffffffffffffff000000000000000000000000000000008254161781556fffffffffffffffffffffffffffffffff87825460801c01166fffffffffffffffffffffffffffffffff7fffffffffffffffffffffffffffffffff0000000000000000000000000000000083549260801b169116179055565b80547fffffffffffffffffffffffffffffffff0000000000000000000000000000000081166fffffffffffffffffffffffffffffffff9182168401821617909155604080519482168552948116602085015216928201929092529081906060820190565b0390a2005b7f6dfcc650000000000000000000000000000000000000000000000000000000005f52608060045260245260445ffd5b90506020813d602011610382575b8161036f602093836113d8565b8101031261037e57515f610159565b5f80fd5b3d9150610362565b6040513d5f823e3d90fd5b3461037e5773ffffffffffffffffffffffffffffffffffffffff6103b83661133b565b9290916103c3611504565b1690815f52600160205260405f206fffffffffffffffffffffffffffffffff6103ef8582845416611480565b82547fffffffffffffffffffffffffffffffff000000000000000000000000000000001691161790556040517fa9059cbb00000000000000000000000000000000000000000000000000000000815273ffffffffffffffffffffffffffffffffffffffff821660048201526fffffffffffffffffffffffffffffffff841660248201526020816044815f875af1801561038a577f28476db7bce85ae0614cc63ec6d0fb4950b54542fd3d46b5c99212b8aea8d3109260209273ffffffffffffffffffffffffffffffffffffffff926104e0575b506fffffffffffffffffffffffffffffffff604051961686521693a3005b6104ff90843d8611610504575b6104f781836113d8565b8101906114df565b6104c2565b503d6104ed565b3461037e5773ffffffffffffffffffffffffffffffffffffffff61052e3661133b565b929091610539611504565b1690815f526001602052600160405f20016fffffffffffffffffffffffffffffffff6105688582845416611480565b82547fffffffffffffffffffffffffffffffff000000000000000000000000000000001691161790556040517fa9059cbb00000000000000000000000000000000000000000000000000000000815273ffffffffffffffffffffffffffffffffffffffff821660048201526fffffffffffffffffffffffffffffffff841660248201526020816044815f875af1801561038a577f673f79e5af45d8188ccac0ed3a5edeff2074b6e9624719e6bdf212f191ea6a2a9260209273ffffffffffffffffffffffffffffffffffffffff926104e057506fffffffffffffffffffffffffffffffff604051961686521693a3005b3461037e575f7ffffffffffffffffffffffffffffffffffffffffffffffffffffffffffffffffc36011261037e57604080519061069581836113d8565b6005825260208201917f352e302e3000000000000000000000000000000000000000000000000000000083527fffffffffffffffffffffffffffffffffffffffffffffffffffffffffffffffe0601f8351948593602085525180918160208701528686015e5f85828601015201168101030190f35b3461037e5760207ffffffffffffffffffffffffffffffffffffffffffffffffffffffffffffffffc36011261037e5773ffffffffffffffffffffffffffffffffffffffff610756611318565b61075e611504565b16807fffffffffffffffffffffffff00000000000000000000000000000000000000007f71907d27e7f56436d282b33232af729b796faa4dde12f80868ee08b9116c52015416177f71907d27e7f56436d282b33232af729b796faa4dde12f80868ee08b9116c52015573ffffffffffffffffffffffffffffffffffffffff7f71907d27e7f56436d282b33232af729b796faa4dde12f80868ee08b9116c520054167fb9911e2099e372c216862258dc462bb65da46a2c854536c8b1acae619d0d62ed5f80a3005b3461037e5760407ffffffffffffffffffffffffffffffffffffffffffffffffffffffffffffffffc36011261037e5760043562ffffff8116810361037e5761087d9061086f6113c6565b90610878611504565b611544565b005b3461037e575f7ffffffffffffffffffffffffffffffffffffffffffffffffffffffffffffffffc36011261037e577f71907d27e7f56436d282b33232af729b796faa4dde12f80868ee08b9116c52015473ffffffffffffffffffffffffffffffffffffffff81163303610939577fffffffffffffffffffffffff0000000000000000000000000000000000000000167f71907d27e7f56436d282b33232af729b796faa4dde12f80868ee08b9116c52015561087d336115fc565b7fee90c468000000000000000000000000000000000000000000000000000000005f5260045ffd5b3461037e5760207ffffffffffffffffffffffffffffffffffffffffffffffffffffffffffffffffc36011261037e5773ffffffffffffffffffffffffffffffffffffffff6109ad611318565b165f90815260016020818152604092839020805492015483516fffffffffffffffffffffffffffffffff808516825260809490941c928101929092529190911691810191909152606090f35b3461037e575f7ffffffffffffffffffffffffffffffffffffffffffffffffffffffffffffffffc36011261037e57602062ffffff5f5416604051908152f35b3461037e575f7ffffffffffffffffffffffffffffffffffffffffffffffffffffffffffffffffc36011261037e5773ffffffffffffffffffffffffffffffffffffffff7f0000000000000000000000000000000000000000000000000000000000000000163003610acd5760206040517f360894a13ba1a3210667c828492db98dca3e2076cc3735a920a3ca505d382bbc8152f35b7fe07c8dba000000000000000000000000000000000000000000000000000000005f5260045ffd5b60407ffffffffffffffffffffffffffffffffffffffffffffffffffffffffffffffffc36011261037e57610b27611318565b6024359067ffffffffffffffff821161037e573660238301121561037e57816004013590610b5482611446565b91610b6260405193846113d8565b8083526020830193366024838301011161037e57815f9260246020930187378401015273ffffffffffffffffffffffffffffffffffffffff7f000000000000000000000000000000000000000000000000000000000000000016803014908115610e15575b50610acd57610bd4611504565b73ffffffffffffffffffffffffffffffffffffffff8116926040517f52d1902d000000000000000000000000000000000000000000000000000000008152602081600481885afa5f9181610de1575b50610c5457847f4c9c8ce3000000000000000000000000000000000000000000000000000000005f5260045260245ffd5b807f360894a13ba1a3210667c828492db98dca3e2076cc3735a920a3ca505d382bbc869203610db65750823b15610d8b57807fffffffffffffffffffffffff00000000000000000000000000000000000000007f360894a13ba1a3210667c828492db98dca3e2076cc3735a920a3ca505d382bbc5416177f360894a13ba1a3210667c828492db98dca3e2076cc3735a920a3ca505d382bbc557fbc7cd75a20ee27fd9adebab32041f755214dbc6bffa90cc0225b39da2e5c2d3b5f80a2825115610d59575f809161087d945190845af43d15610d51573d91610d3583611446565b92610d4360405194856113d8565b83523d5f602085013e6116fc565b6060916116fc565b50505034610d6357005b7fb398979f000000000000000000000000000000000000000000000000000000005f5260045ffd5b7f4c9c8ce3000000000000000000000000000000000000000000000000000000005f5260045260245ffd5b7faa1d49a4000000000000000000000000000000000000000000000000000000005f5260045260245ffd5b9091506020813d602011610e0d575b81610dfd602093836113d8565b8101031261037e57519086610c23565b3d9150610df0565b905073ffffffffffffffffffffffffffffffffffffffff7f360894a13ba1a3210667c828492db98dca3e2076cc3735a920a3ca505d382bbc5416141584610bc7565b3461037e575f7ffffffffffffffffffffffffffffffffffffffffffffffffffffffffffffffffc36011261037e57602062ffffff5f5460181c16604051908152f35b3461037e575f7ffffffffffffffffffffffffffffffffffffffffffffffffffffffffffffffffc36011261037e57602073ffffffffffffffffffffffffffffffffffffffff7f71907d27e7f56436d282b33232af729b796faa4dde12f80868ee08b9116c52015416604051908152f35b3461037e5760607ffffffffffffffffffffffffffffffffffffffffffffffffffffffffffffffffc36011261037e57610f40611318565b610f486113c6565b9060443562ffffff8116810361037e577ff0c57e16840df040f15088dc2f81fe391c3923bec73e23a9662efc9c229c6a00549260ff8460401c16159367ffffffffffffffff81168015908161114c575b6001149081611142575b159081611139575b506111115761102393818660017fffffffffffffffffffffffffffffffffffffffffffffffff00000000000000006108789516177ff0c57e16840df040f15088dc2f81fe391c3923bec73e23a9662efc9c229c6a00556110bc575b5061100e6116a5565b6110166116a5565b61101e6116a5565b6115fc565b61102957005b7fffffffffffffffffffffffffffffffffffffffffffffff00ffffffffffffffff7ff0c57e16840df040f15088dc2f81fe391c3923bec73e23a9662efc9c229c6a0054167ff0c57e16840df040f15088dc2f81fe391c3923bec73e23a9662efc9c229c6a00557fc7f505b2f371ae2175ee4913f4499e1f2633a7b5936321eed1cdaeb6115181d2602060405160018152a1005b7fffffffffffffffffffffffffffffffffffffffffffffff0000000000000000001668010000000000000001177ff0c57e16840df040f15088dc2f81fe391c3923bec73e23a9662efc9c229c6a005586611005565b7ff92ee8a9000000000000000000000000000000000000000000000000000000005f5260045ffd5b90501586610faa565b303b159150610fa2565b869150610f98565b3461037e575f7ffffffffffffffffffffffffffffffffffffffffffffffffffffffffffffffffc36011261037e57602073ffffffffffffffffffffffffffffffffffffffff7f71907d27e7f56436d282b33232af729b796faa4dde12f80868ee08b9116c52005416604051908152f35b3461037e5773ffffffffffffffffffffffffffffffffffffffff6111e73661133b565b9290916111f2611504565b1690815f52600160205261125160405f2061121185825460801c611480565b6fffffffffffffffffffffffffffffffff7fffffffffffffffffffffffffffffffff0000000000000000000000000000000083549260801b169116179055565b6040517fa9059cbb00000000000000000000000000000000000000000000000000000000815273ffffffffffffffffffffffffffffffffffffffff821660048201526fffffffffffffffffffffffffffffffff841660248201526020816044815f875af1801561038a577fe84084b772c40c4ba26445f802a6813ff50ac1907bd175333019652d1f73a7d59260209273ffffffffffffffffffffffffffffffffffffffff926104e057506fffffffffffffffffffffffffffffffff604051961686521693a3005b6004359073ffffffffffffffffffffffffffffffffffffffff8216820361037e57565b7ffffffffffffffffffffffffffffffffffffffffffffffffffffffffffffffffc606091011261037e5760043573ffffffffffffffffffffffffffffffffffffffff8116810361037e579060243573ffffffffffffffffffffffffffffffffffffffff8116810361037e57906044356fffffffffffffffffffffffffffffffff8116810361037e5790565b6024359062ffffff8216820361037e57565b90601f7fffffffffffffffffffffffffffffffffffffffffffffffffffffffffffffffe0910116810190811067ffffffffffffffff82111761141957604052565b7f4e487b71000000000000000000000000000000000000000000000000000000005f52604160045260245ffd5b67ffffffffffffffff811161141957601f017fffffffffffffffffffffffffffffffffffffffffffffffffffffffffffffffe01660200190565b906fffffffffffffffffffffffffffffffff809116911603906fffffffffffffffffffffffffffffffff82116114b257565b7f4e487b71000000000000000000000000000000000000000000000000000000005f52601160045260245ffd5b9081602091031261037e5751801515810361037e5790565b919082039182116114b257565b73ffffffffffffffffffffffffffffffffffffffff7f71907d27e7f56436d282b33232af729b796faa4dde12f80868ee08b9116c52005416330361093957565b62ffffff169062ffffff8116906298968063ffffffff83850116116115cc57916040917fbe93d1e6fd5160eefbac42324fb3a6c97298fdc2e7c0dcd724ee88335186cefb93827fffffffffffffffffffffffffffffffffffffffffffffffffffff00000000000065ffffff0000005f549360181b16921617175f5582519182526020820152a1565b50907f3fd196a2000000000000000000000000000000000000000000000000000000005f5260045260245260445ffd5b73ffffffffffffffffffffffffffffffffffffffff807f71907d27e7f56436d282b33232af729b796faa4dde12f80868ee08b9116c520054921691827fffffffffffffffffffffffff00000000000000000000000000000000000000008216177f71907d27e7f56436d282b33232af729b796faa4dde12f80868ee08b9116c520055167f3d1e4c3a68fed9f4f8315582b7297cf8fa264bc8e6704287603ba8c72bf05ac25f80a3565b60ff7ff0c57e16840df040f15088dc2f81fe391c3923bec73e23a9662efc9c229c6a005460401c16156116d457565b7fd7e6bcf8000000000000000000000000000000000000000000000000000000005f5260045ffd5b90611739575080511561171157805190602001fd5b7f1425ea42000000000000000000000000000000000000000000000000000000005f5260045ffd5b8151158061178c575b61174a575090565b73ffffffffffffffffffffffffffffffffffffffff907f9996b315000000000000000000000000000000000000000000000000000000005f521660045260245ffd5b50803b1561174256fea164736f6c634300081a000a",
  "linkReferences": {},
  "deployedLinkReferences": {}
}