{
  "_format": "hh-sol-artifact-1",
  "contractName": "PUSD",
  "sourceName": "contracts/core/PUSD.sol",
  "abi": [
    {
      "inputs": [],
      "stateMutability": "nonpayable",
      "type": "constructor"
    },
    {
      "inputs": [],
      "name": "ECDSAInvalidSignature",
      "type": "error"
    },
    {
      "inputs": [
        {
          "internalType": "uint256",
          "name": "length",
          "type": "uint256"
        }
      ],
      "name": "ECDSAInvalidSignatureLength",
      "type": "error"
    },
    {
      "inputs": [
        {
          "internalType": "bytes32",
          "name": "s",
          "type": "bytes32"
        }
      ],
      "name": "ECDSAInvalidSignatureS",
      "type": "error"
    },
    {
      "inputs": [
        {
          "internalType": "address",
          "name": "spender",
          "type": "address"
        },
        {
          "internalType": "uint256",
          "name": "allowance",
          "type": "uint256"
        },
        {
          "internalType": "uint256",
          "name": "needed",
          "type": "uint256"
        }
      ],
      "name": "ERC20InsufficientAllowance",
      "type": "error"
    },
    {
      "inputs": [
        {
          "internalType": "address",
          "name": "sender",
          "type": "address"
        },
        {
          "internalType": "uint256",
          "name": "balance",
          "type": "uint256"
        },
        {
          "internalType": "uint256",
          "name": "needed",
          "type": "uint256"
        }
      ],
      "name": "ERC20InsufficientBalance",
      "type": "error"
    },
    {
      "inputs": [
        {
          "internalType": "address",
          "name": "approver",
          "type": "address"
        }
      ],
      "name": "ERC20InvalidApprover",
      "type": "error"
    },
    {
      "inputs": [
        {
          "internalType": "address",
          "name": "receiver",
          "type": "address"
        }
      ],
      "name": "ERC20InvalidReceiver",
      "type": "error"
    },
    {
      "inputs": [
        {
          "internalType": "address",
          "name": "sender",
          "type": "address"
        }
      ],
      "name": "ERC20InvalidSender",
      "type": "error"
    },
    {
      "inputs": [
        {
          "internalType": "address",
          "name": "spender",
          "type": "address"
        }
      ],
      "name": "ERC20InvalidSpender",
      "type": "error"
    },
    {
      "inputs": [
        {
          "internalType": "uint256",
          "name": "deadline",
          "type": "uint256"
        }
      ],
      "name": "ERC2612ExpiredSignature",
      "type": "error"
    },
    {
      "inputs": [
        {
          "internalType": "address",
          "name": "signer",
          "type": "address"
        },
        {
          "internalType": "address",
          "name": "owner",
          "type": "address"
        }
      ],
      "name": "ERC2612InvalidSigner",
      "type": "error"
    },
    {
      "inputs": [],
      "name": "Forbidden",
      "type": "error"
    },
    {
      "inputs": [
        {
          "internalType": "address",
          "name": "account",
          "type": "address"
        },
        {
          "internalType": "uint256",
          "name": "currentNonce",
          "type": "uint256"
        }
      ],
      "name": "InvalidAccountNonce",
      "type": "error"
    },
    {
      "inputs": [],
      "name": "InvalidShortString",
      "type": "error"
    },
    {
      "inputs": [
        {
          "internalType": "string",
          "name": "str",
          "type": "string"
        }
      ],
      "name": "StringTooLong",
      "type": "error"
    },
    {
      "anonymous": false,
      "inputs": [
        {
          "indexed": true,
          "internalType": "address",
          "name": "owner",
          "type": "address"
        },
        {
          "indexed": true,
          "internalType": "address",
          "name": "spender",
          "type": "address"
        },
        {
          "indexed": false,
          "internalType": "uint256",
          "name": "value",
          "type": "uint256"
        }
      ],
      "name": "Approval",
      "type": "event"
    },
    {
      "anonymous": false,
      "inputs": [],
      "name": "EIP712DomainChanged",
      "type": "event"
    },
    {
      "anonymous": false,
      "inputs": [
        {
          "indexed": true,
          "internalType": "address",
          "name": "from",
          "type": "address"
        },
        {
          "indexed": true,
          "internalType": "address",
          "name": "to",
          "type": "address"
        },
        {
          "indexed": false,
          "internalType": "uint256",
          "name": "value",
          "type": "uint256"
        }
      ],
      "name": "Transfer",
      "type": "event"
    },
    {
      "inputs": [],
      "name": "DOMAIN_SEPARATOR",
      "outputs": [
        {
          "internalType": "bytes32",
          "name": "",
          "type": "bytes32"
        }
      ],
      "stateMutability": "view",
      "type": "function"
    },
    {
      "inputs": [
        {
          "internalType": "address",
          "name": "owner",
          "type": "address"
        },
        {
          "internalType": "address",
          "name": "spender",
          "type": "address"
        }
      ],
      "name": "allowance",
      "outputs": [
        {
          "internalType": "uint256",
          "name": "",
          "type": "uint256"
        }
      ],
      "stateMutability": "view",
      "type": "function"
    },
    {
      "inputs": [
        {
          "internalType": "address",
          "name": "spender",
          "type": "address"
        },
        {
          "internalType": "uint256",
          "name": "value",
          "type": "uint256"
        }
      ],
      "name": "approve",
      "outputs": [
        {
          "internalType": "bool",
          "name": "",
          "type": "bool"
        }
      ],
      "stateMutability": "nonpayable",
      "type": "function"
    },
    {
      "inputs": [
        {
          "internalType": "address",
          "name": "account",
          "type": "address"
        }
      ],
      "name": "balanceOf",
      "outputs": [
        {
          "internalType": "uint256",
          "name": "",
          "type": "uint256"
        }
      ],
      "stateMutability": "view",
      "type": "function"
    },
    {
      "inputs": [
        {
          "internalType": "uint256",
          "name": "_value",
          "type": "uint256"
        }
      ],
      "name": "burn",
      "outputs": [],
      "stateMutability": "nonpayable",
      "type": "function"
    },
    {
      "inputs": [],
      "name": "decimals",
      "outputs": [
        {
          "internalType": "uint8",
          "name": "",
          "type": "uint8"
        }
      ],
      "stateMutability": "view",
      "type": "function"
    },
    {
      "inputs": [],
      "name": "eip712Domain",
      "outputs": [
        {
          "internalType": "bytes1",
          "name": "fields",
          "type": "bytes1"
        },
        {
          "internalType": "string",
          "name": "name",
          "type": "string"
        },
        {
          "internalType": "string",
          "name": "version",
          "type": "string"
        },
        {
          "internalType": "uint256",
          "name": "chainId",
          "type": "uint256"
        },
        {
          "internalType": "address",
          "name": "verifyingContract",
          "type": "address"
        },
        {
          "internalType": "bytes32",
          "name": "salt",
          "type": "bytes32"
        },
        {
          "internalType": "uint256[]",
          "name": "extensions",
          "type": "uint256[]"
        }
      ],
      "stateMutability": "view",
      "type": "function"
    },
    {
      "inputs": [],
      "name": "marketManager",
      "outputs": [
        {
          "internalType": "address",
          "name": "",
          "type": "address"
        }
      ],
      "stateMutability": "view",
      "type": "function"
    },
    {
      "inputs": [
        {
          "internalType": "address",
          "name": "_to",
          "type": "address"
        },
        {
          "internalType": "uint256",
          "name": "_value",
          "type": "uint256"
        }
      ],
      "name": "mint",
      "outputs": [],
      "stateMutability": "nonpayable",
      "type": "function"
    },
    {
      "inputs": [],
      "name": "name",
      "outputs": [
        {
          "internalType": "string",
          "name": "",
          "type": "string"
        }
      ],
      "stateMutability": "view",
      "type": "function"
    },
    {
      "inputs": [
        {
          "internalType": "address",
          "name": "owner",
          "type": "address"
        }
      ],
      "name": "nonces",
      "outputs": [
        {
          "internalType": "uint256",
          "name": "",
          "type": "uint256"
        }
      ],
      "stateMutability": "view",
      "type": "function"
    },
    {
      "inputs": [
        {
          "internalType": "address",
          "name": "owner",
          "type": "address"
        },
        {
          "internalType": "address",
          "name": "spender",
          "type": "address"
        },
        {
          "internalType": "uint256",
          "name": "value",
          "type": "uint256"
        },
        {
          "internalType": "uint256",
          "name": "deadline",
          "type": "uint256"
        },
        {
          "internalType": "uint8",
          "name": "v",
          "type": "uint8"
        },
        {
          "internalType": "bytes32",
          "name": "r",
          "type": "bytes32"
        },
        {
          "internalType": "bytes32",
          "name": "s",
          "type": "bytes32"
        }
      ],
      "name": "permit",
      "outputs": [],
      "stateMutability": "nonpayable",
      "type": "function"
    },
    {
      "inputs": [],
      "name": "symbol",
      "outputs": [
        {
          "internalType": "string",
          "name": "",
          "type": "string"
        }
      ],
      "stateMutability": "view",
      "type": "function"
    },
    {
      "inputs": [],
      "name": "totalSupply",
      "outputs": [
        {
          "internalType": "uint256",
          "name": "",
          "type": "uint256"
        }
      ],
      "stateMutability": "view",
      "type": "function"
    },
    {
      "inputs": [
        {
          "internalType": "address",
          "name": "to",
          "type": "address"
        },
        {
          "internalType": "uint256",
          "name": "value",
          "type": "uint256"
        }
      ],
      "name": "transfer",
      "outputs": [
        {
          "internalType": "bool",
          "name": "",
          "type": "bool"
        }
      ],
      "stateMutability": "nonpayable",
      "type": "function"
    },
    {
      "inputs": [
        {
          "internalType": "address",
          "name": "from",
          "type": "address"
        },
        {
          "internalType": "address",
          "name": "to",
          "type": "address"
        },
        {
          "internalType": "uint256",
          "name": "value",
          "type": "uint256"
        }
      ],
      "name": "transferFrom",
      "outputs": [
        {
          "internalType": "bool",
          "name": "",
          "type": "bool"
        }
      ],
      "stateMutability": "nonpayable",
      "type": "function"
    }
  ],
  "bytecode": "0x610180604052346104475760405161001860408261044b565b600881526020810167141d5c99481554d160c21b81526040519061003d60408361044b565b6008825267141d5c99481554d160c21b60208301526040519261006160408561044b565b6004845263141554d160e21b60208501526040519361008160408661044b565b60018552603160f81b60208601908152845190946001600160401b03821161034a5760035490600182811c9216801561043d575b602083101461032c5781601f8493116103cf575b50602090601f8311600114610369575f9261035e575b50508160011b915f199060031b1c1916176003555b8051906001600160401b03821161034a5760045490600182811c92168015610340575b602083101461032c5781601f8493116102be575b50602090601f8311600114610258575f9261024d575b50508160011b915f199060031b1c1916176004555b61015f8161046e565b6101205261016c846105f5565b61014052519020918260e05251902080610100524660a0526040519060208201927f8b73c3c69bb8fe3d512ecc4cf759cc79239f7b179b0ffacaa9a75d522b39400f8452604083015260608201524660808201523060a082015260a081526101d560c08261044b565b5190206080523060c0523361016052604051611348908161072e823960805181610fb6015260a05181611073015260c05181610f87015260e051816110050152610100518161102b015261012051816104b0015261014051816104d90152610160518181816106ba0152818161081001526108860152f35b015190505f80610141565b60045f9081528281209350601f198516905b8181106102a6575090846001959493921061028e575b505050811b01600455610156565b01515f1960f88460031b161c191690555f8080610280565b9293602060018192878601518155019501930161026a565b60045f529091507f8a35acfbc15ff81a39ae7d344fd709f28e8600b4aa8c65c6b64bfe7fe36bd19b601f840160051c81019160208510610322575b90601f859493920160051c01905b818110610314575061012b565b5f8155849350600101610307565b90915081906102f9565b634e487b7160e01b5f52602260045260245ffd5b91607f1691610117565b634e487b7160e01b5f52604160045260245ffd5b015190505f806100df565b60035f9081528281209350601f198516905b8181106103b7575090846001959493921061039f575b505050811b016003556100f4565b01515f1960f88460031b161c191690555f8080610391565b9293602060018192878601518155019501930161037b565b60035f529091507fc2575a0e9e593c00f959f8c92f12db2869c3395a3b0502d05e2516446f71f85b601f840160051c81019160208510610433575b90601f859493920160051c01905b81811061042557506100c9565b5f8155849350600101610418565b909150819061040a565b91607f16916100b5565b5f80fd5b601f909101601f19168101906001600160401b0382119082101761034a57604052565b908151602081105f146104e8575090601f8151116104a8576020815191015160208210610499571790565b5f198260200360031b1b161790565b604460209160405192839163305a27a960e01b83528160048401528051918291826024860152018484015e5f828201840152601f01601f19168101030190fd5b6001600160401b03811161034a57600554600181811c911680156105eb575b602082101461032c57601f81116105b8575b50602092601f821160011461055757928192935f9261054c575b50508160011b915f199060031b1c19161760055560ff90565b015190505f80610533565b601f1982169360055f52805f20915f5b8681106105a05750836001959610610588575b505050811b0160055560ff90565b01515f1960f88460031b161c191690555f808061057a565b91926020600181928685015181550194019201610567565b60055f52601f60205f20910160051c810190601f830160051c015b8181106105e05750610519565b5f81556001016105d3565b90607f1690610507565b908151602081105f14610620575090601f8151116104a8576020815191015160208210610499571790565b6001600160401b03811161034a57600654600181811c91168015610723575b602082101461032c57601f81116106f0575b50602092601f821160011461068f57928192935f92610684575b50508160011b915f199060031b1c19161760065560ff90565b015190505f8061066b565b601f1982169360065f52805f20915f5b8681106106d857508360019596106106c0575b505050811b0160065560ff90565b01515f1960f88460031b161c191690555f80806106b2565b9192602060018192868501518155019401920161069f565b60065f52601f60205f20910160051c810190601f830160051c015b8181106107185750610651565b5f815560010161070b565b90607f169061063f56fe6080806040526004361015610012575f80fd5b5f3560e01c90816306fdde0314610bfe57508063095ea7b314610bba57806318160ddd14610b7f57806323b872dd146109eb578063313ce567146109b25780633644e5151461097257806340c10f191461083457806341ed2c12146107c657806342966c681461067157806370a082311461060f5780637ecebe00146105ac57806384b0196e1461047a57806395d89b411461035c578063a9059cbb1461030d578063d505accf1461015c5763dd62ed3e146100cc575f80fd5b346101585760407ffffffffffffffffffffffffffffffffffffffffffffffffffffffffffffffffc36011261015857610103610d01565b73ffffffffffffffffffffffffffffffffffffffff610120610d24565b91165f52600160205273ffffffffffffffffffffffffffffffffffffffff60405f2091165f52602052602060405f2054604051908152f35b5f80fd5b346101585760e07ffffffffffffffffffffffffffffffffffffffffffffffffffffffffffffffffc36011261015857610193610d01565b61019b610d24565b604435906064359260843560ff81168103610158578442116102e15761029c61029373ffffffffffffffffffffffffffffffffffffffff9283851697885f52600760205260405f20908154916001830190556040519060208201927f6e71edae12b1b97f4d1f60370fef10105fa2faae0126114a169c64845d6126c984528b6040840152878a1660608401528a608084015260a083015260c082015260c0815261024660e082610e38565b519020610251610f70565b90604051917f190100000000000000000000000000000000000000000000000000000000000083526002830152602282015260c43591604260a43592206111c9565b90929192611263565b168481036102b157506102af9350611099565b005b84907f4b800e46000000000000000000000000000000000000000000000000000000005f5260045260245260445ffd5b847f62791302000000000000000000000000000000000000000000000000000000005f5260045260245ffd5b346101585760407ffffffffffffffffffffffffffffffffffffffffffffffffffffffffffffffffc36011261015857610351610347610d01565b6024359033610ea6565b602060405160018152f35b34610158575f7ffffffffffffffffffffffffffffffffffffffffffffffffffffffffffffffffc360112610158576040515f60045461039a81610d47565b808452906001811690811561043857506001146103da575b6103d6836103c281850382610e38565b604051918291602083526020830190610cbe565b0390f35b60045f9081527f8a35acfbc15ff81a39ae7d344fd709f28e8600b4aa8c65c6b64bfe7fe36bd19b939250905b80821061041e575090915081016020016103c26103b2565b919260018160209254838588010152019101909291610406565b7fffffffffffffffffffffffffffffffffffffffffffffffffffffffffffffff001660208086019190915291151560051b840190910191506103c290506103b2565b34610158575f7ffffffffffffffffffffffffffffffffffffffffffffffffffffffffffffffffc360112610158576105506104d47f0000000000000000000000000000000000000000000000000000000000000000611116565b6104fd7f0000000000000000000000000000000000000000000000000000000000000000611192565b602061055e604051926105108385610e38565b5f84525f3681376040519586957f0f00000000000000000000000000000000000000000000000000000000000000875260e08588015260e0870190610cbe565b908582036040870152610cbe565b4660608501523060808501525f60a085015283810360c08501528180845192838152019301915f5b82811061059557505050500390f35b835185528695509381019392810192600101610586565b346101585760207ffffffffffffffffffffffffffffffffffffffffffffffffffffffffffffffffc3601126101585773ffffffffffffffffffffffffffffffffffffffff6105f8610d01565b165f526007602052602060405f2054604051908152f35b346101585760207ffffffffffffffffffffffffffffffffffffffffffffffffffffffffffffffffc3601126101585773ffffffffffffffffffffffffffffffffffffffff61065b610d01565b165f525f602052602060405f2054604051908152f35b346101585760207ffffffffffffffffffffffffffffffffffffffffffffffffffffffffffffffffc3601126101585760043573ffffffffffffffffffffffffffffffffffffffff7f000000000000000000000000000000000000000000000000000000000000000016330361079e57331561077257335f525f60205260405f20548181106107405790805f923384528360205203604083205580600254036002556040519081527fddf252ad1be2c89b69c2b068fc378daa952ba7f163c4a11628f55a4df523b3ef60203392a3005b7fe450d38c000000000000000000000000000000000000000000000000000000005f523360045260245260445260645ffd5b7f96c6fd1e000000000000000000000000000000000000000000000000000000005f525f60045260245ffd5b7fee90c468000000000000000000000000000000000000000000000000000000005f5260045ffd5b34610158575f7ffffffffffffffffffffffffffffffffffffffffffffffffffffffffffffffffc36011261015857602060405173ffffffffffffffffffffffffffffffffffffffff7f0000000000000000000000000000000000000000000000000000000000000000168152f35b346101585760407ffffffffffffffffffffffffffffffffffffffffffffffffffffffffffffffffc3601126101585761086b610d01565b6024359073ffffffffffffffffffffffffffffffffffffffff7f000000000000000000000000000000000000000000000000000000000000000016330361079e5773ffffffffffffffffffffffffffffffffffffffff1690811561094657600254908082018092116109195760207fddf252ad1be2c89b69c2b068fc378daa952ba7f163c4a11628f55a4df523b3ef915f9360025584845283825260408420818154019055604051908152a3005b7f4e487b71000000000000000000000000000000000000000000000000000000005f52601160045260245ffd5b7fec442f05000000000000000000000000000000000000000000000000000000005f525f60045260245ffd5b34610158575f7ffffffffffffffffffffffffffffffffffffffffffffffffffffffffffffffffc3601126101585760206109aa610f70565b604051908152f35b34610158575f7ffffffffffffffffffffffffffffffffffffffffffffffffffffffffffffffffc36011261015857602060405160068152f35b346101585760607ffffffffffffffffffffffffffffffffffffffffffffffffffffffffffffffffc36011261015857610a22610d01565b610a2a610d24565b6044359073ffffffffffffffffffffffffffffffffffffffff831692835f52600160205260405f2073ffffffffffffffffffffffffffffffffffffffff33165f5260205260405f20547fffffffffffffffffffffffffffffffffffffffffffffffffffffffffffffffff8103610aa6575b506103519350610ea6565b838110610b4b578415610b1f573315610af357610351945f52600160205260405f2073ffffffffffffffffffffffffffffffffffffffff33165f526020528360405f209103905584610a9b565b7f94280d62000000000000000000000000000000000000000000000000000000005f525f60045260245ffd5b7fe602df05000000000000000000000000000000000000000000000000000000005f525f60045260245ffd5b83907ffb8f41b2000000000000000000000000000000000000000000000000000000005f523360045260245260445260645ffd5b34610158575f7ffffffffffffffffffffffffffffffffffffffffffffffffffffffffffffffffc360112610158576020600254604051908152f35b346101585760407ffffffffffffffffffffffffffffffffffffffffffffffffffffffffffffffffc36011261015857610351610bf4610d01565b6024359033611099565b34610158575f7ffffffffffffffffffffffffffffffffffffffffffffffffffffffffffffffffc360112610158575f600354610c3981610d47565b80845290600181169081156104385750600114610c60576103d6836103c281850382610e38565b60035f9081527fc2575a0e9e593c00f959f8c92f12db2869c3395a3b0502d05e2516446f71f85b939250905b808210610ca4575090915081016020016103c26103b2565b919260018160209254838588010152019101909291610c8c565b907fffffffffffffffffffffffffffffffffffffffffffffffffffffffffffffffe0601f602080948051918291828752018686015e5f8582860101520116010190565b6004359073ffffffffffffffffffffffffffffffffffffffff8216820361015857565b6024359073ffffffffffffffffffffffffffffffffffffffff8216820361015857565b90600182811c92168015610d8e575b6020831014610d6157565b7f4e487b71000000000000000000000000000000000000000000000000000000005f52602260045260245ffd5b91607f1691610d56565b5f9291815491610da783610d47565b8083529260018116908115610dfc5750600114610dc357505050565b5f9081526020812093945091925b838310610de2575060209250010190565b600181602092949394548385870101520191019190610dd1565b905060209495507fffffffffffffffffffffffffffffffffffffffffffffffffffffffffffffff0091509291921683830152151560051b010190565b90601f7fffffffffffffffffffffffffffffffffffffffffffffffffffffffffffffffe0910116810190811067ffffffffffffffff821117610e7957604052565b7f4e487b71000000000000000000000000000000000000000000000000000000005f52604160045260245ffd5b73ffffffffffffffffffffffffffffffffffffffff169081156107725773ffffffffffffffffffffffffffffffffffffffff1691821561094657815f525f60205260405f2054818110610f3e57817fddf252ad1be2c89b69c2b068fc378daa952ba7f163c4a11628f55a4df523b3ef92602092855f525f84520360405f2055845f525f825260405f20818154019055604051908152a3565b827fe450d38c000000000000000000000000000000000000000000000000000000005f5260045260245260445260645ffd5b73ffffffffffffffffffffffffffffffffffffffff7f000000000000000000000000000000000000000000000000000000000000000016301480611070575b15610fd8577f000000000000000000000000000000000000000000000000000000000000000090565b60405160208101907f8b73c3c69bb8fe3d512ecc4cf759cc79239f7b179b0ffacaa9a75d522b39400f82527f000000000000000000000000000000000000000000000000000000000000000060408201527f000000000000000000000000000000000000000000000000000000000000000060608201524660808201523060a082015260a0815261106a60c082610e38565b51902090565b507f00000000000000000000000000000000000000000000000000000000000000004614610faf565b73ffffffffffffffffffffffffffffffffffffffff16908115610b1f5773ffffffffffffffffffffffffffffffffffffffff16918215610af35760207f8c5be1e5ebec7d5bd14f71427d1e84f3dd0314c0f7b2291e5b200ac8c7c3b92591835f526001825260405f20855f5282528060405f2055604051908152a3565b60ff81146111755760ff811690601f821161114d576040519161113a604084610e38565b6020808452838101919036833783525290565b7fb3512b0c000000000000000000000000000000000000000000000000000000005f5260045ffd5b5060405161118f81611188816005610d98565b0382610e38565b90565b60ff81146111b65760ff811690601f821161114d576040519161113a604084610e38565b5060405161118f81611188816006610d98565b91907f7fffffffffffffffffffffffffffffff5d576e7357a4501ddfe92f46681b20a08411611258579160209360809260ff5f9560405194855216868401526040830152606082015282805260015afa1561124d575f5173ffffffffffffffffffffffffffffffffffffffff81161561124357905f905f90565b505f906001905f90565b6040513d5f823e3d90fd5b5050505f9160039190565b600481101561130e5780611275575050565b600181036112a5577ff645eedf000000000000000000000000000000000000000000000000000000005f5260045ffd5b600281036112d957507ffce698f7000000000000000000000000000000000000000000000000000000005f5260045260245ffd5b6003146112e35750565b7fd78bce0c000000000000000000000000000000000000000000000000000000005f5260045260245ffd5b7f4e487b71000000000000000000000000000000000000000000000000000000005f52602160045260245ffdfea164736f6c634300081a000a",
  "linkReferences": {},
  "deployedLinkReferences": {}
}