{
  "_format": "hh-sol-artifact-1",
  "contractName": "MarketManagerUpgradeable",
  "sourceName": "contracts/core/MarketManagerUpgradeable.sol",
  "abi": [
    {
      "inputs": [],
      "stateMutability": "nonpayable",
      "type": "constructor"
    },
    {
      "inputs": [
        {
          "internalType": "address",
          "name": "target",
          "type": "address"
        }
      ],
      "name": "AddressEmptyCode",
      "type": "error"
    },
    {
      "inputs": [
        {
          "internalType": "address",
          "name": "account",
          "type": "address"
        }
      ],
      "name": "AddressInsufficientBalance",
      "type": "error"
    },
    {
      "inputs": [],
      "name": "BalanceRateCapExceeded",
      "type": "error"
    },
    {
      "inputs": [
        {
          "internalType": "address",
          "name": "implementation",
          "type": "address"
        }
      ],
      "name": "ERC1967InvalidImplementation",
      "type": "error"
    },
    {
      "inputs": [],
      "name": "ERC1967NonPayable",
      "type": "error"
    },
    {
      "inputs": [],
      "name": "FailedInnerCall",
      "type": "error"
    },
    {
      "inputs": [],
      "name": "FailedTransferETH",
      "type": "error"
    },
    {
      "inputs": [],
      "name": "Forbidden",
      "type": "error"
    },
    {
      "inputs": [
        {
          "internalType": "uint256",
          "name": "balance",
          "type": "uint256"
        },
        {
          "internalType": "uint256",
          "name": "requiredAmount",
          "type": "uint256"
        }
      ],
      "name": "InsufficientBalance",
      "type": "error"
    },
    {
      "inputs": [
        {
          "internalType": "uint256",
          "name": "liquidity",
          "type": "uint256"
        },
        {
          "internalType": "uint128",
          "name": "requiredLiquidity",
          "type": "uint128"
        }
      ],
      "name": "InsufficientLiquidityToDecrease",
      "type": "error"
    },
    {
      "inputs": [],
      "name": "InsufficientMargin",
      "type": "error"
    },
    {
      "inputs": [
        {
          "internalType": "uint96",
          "name": "receiveAmount",
          "type": "uint96"
        },
        {
          "internalType": "uint128",
          "name": "balance",
          "type": "uint128"
        }
      ],
      "name": "InsufficientPSMBalance",
      "type": "error"
    },
    {
      "inputs": [
        {
          "internalType": "uint128",
          "name": "requiredSize",
          "type": "uint128"
        },
        {
          "internalType": "uint128",
          "name": "size",
          "type": "uint128"
        }
      ],
      "name": "InsufficientSizeToDecrease",
      "type": "error"
    },
    {
      "inputs": [
        {
          "internalType": "uint128",
          "name": "requiredAmount",
          "type": "uint128"
        },
        {
          "internalType": "uint128",
          "name": "pusdBalance",
          "type": "uint128"
        }
      ],
      "name": "InvalidAmount",
      "type": "error"
    },
    {
      "inputs": [
        {
          "internalType": "address",
          "name": "requiredCaller",
          "type": "address"
        }
      ],
      "name": "InvalidCaller",
      "type": "error"
    },
    {
      "inputs": [],
      "name": "InvalidCollateral",
      "type": "error"
    },
    {
      "inputs": [
        {
          "internalType": "uint8",
          "name": "decimals",
          "type": "uint8"
        }
      ],
      "name": "InvalidCollateralDecimals",
      "type": "error"
    },
    {
      "inputs": [
        {
          "internalType": "uint8",
          "name": "decimals",
          "type": "uint8"
        }
      ],
      "name": "InvalidDecimals",
      "type": "error"
    },
    {
      "inputs": [],
      "name": "InvalidInitialization",
      "type": "error"
    },
    {
      "inputs": [
        {
          "internalType": "uint24",
          "name": "liquidationFeeRatePerPosition",
          "type": "uint24"
        }
      ],
      "name": "InvalidLiquidationFeeRatePerPosition",
      "type": "error"
    },
    {
      "inputs": [
        {
          "internalType": "uint120",
          "name": "liquidityCap",
          "type": "uint120"
        }
      ],
      "name": "InvalidLiquidityCap",
      "type": "error"
    },
    {
      "inputs": [
        {
          "internalType": "uint24",
          "name": "maxBurnningRate",
          "type": "uint24"
        }
      ],
      "name": "InvalidMaxBurningRate",
      "type": "error"
    },
    {
      "inputs": [
        {
          "internalType": "uint24",
          "name": "maxFeeRate",
          "type": "uint24"
        }
      ],
      "name": "InvalidMaxFeeRate",
      "type": "error"
    },
    {
      "inputs": [
        {
          "internalType": "uint8",
          "name": "maxLeveragePerPosition",
          "type": "uint8"
        }
      ],
      "name": "InvalidMaxLeveragePerPosition",
      "type": "error"
    },
    {
      "inputs": [
        {
          "internalType": "uint24",
          "name": "maxSizeRatePerPosition",
          "type": "uint24"
        }
      ],
      "name": "InvalidMaxSizeRatePerPosition",
      "type": "error"
    },
    {
      "inputs": [
        {
          "internalType": "uint24",
          "name": "minMintingRate",
          "type": "uint24"
        }
      ],
      "name": "InvalidMinMintingRate",
      "type": "error"
    },
    {
      "inputs": [
        {
          "internalType": "uint24",
          "name": "openPositionThreshold",
          "type": "uint24"
        }
      ],
      "name": "InvalidOpenPositionThreshold",
      "type": "error"
    },
    {
      "inputs": [
        {
          "internalType": "uint24",
          "name": "protocolFeeRate",
          "type": "uint24"
        }
      ],
      "name": "InvalidProtocolFeeRate",
      "type": "error"
    },
    {
      "inputs": [
        {
          "internalType": "int256",
          "name": "referencePrice",
          "type": "int256"
        }
      ],
      "name": "InvalidReferencePrice",
      "type": "error"
    },
    {
      "inputs": [],
      "name": "InvalidSize",
      "type": "error"
    },
    {
      "inputs": [
        {
          "internalType": "uint256",
          "name": "stablecoinSupplyCap",
          "type": "uint256"
        }
      ],
      "name": "InvalidStableCoinSupplyCap",
      "type": "error"
    },
    {
      "inputs": [
        {
          "internalType": "uint24",
          "name": "tradingFeeRate",
          "type": "uint24"
        }
      ],
      "name": "InvalidTradingFeeRate",
      "type": "error"
    },
    {
      "inputs": [
        {
          "internalType": "uint32",
          "name": "timestamp",
          "type": "uint32"
        }
      ],
      "name": "InvalidUpdateTimestamp",
      "type": "error"
    },
    {
      "inputs": [
        {
          "internalType": "uint256",
          "name": "margin",
          "type": "uint256"
        },
        {
          "internalType": "uint128",
          "name": "size",
          "type": "uint128"
        },
        {
          "internalType": "uint8",
          "name": "maxLeverage",
          "type": "uint8"
        }
      ],
      "name": "LeverageTooHigh",
      "type": "error"
    },
    {
      "inputs": [
        {
          "internalType": "uint128",
          "name": "liquidityBefore",
          "type": "uint128"
        },
        {
          "internalType": "uint96",
          "name": "liquidityDelta",
          "type": "uint96"
        },
        {
          "internalType": "uint120",
          "name": "liquidityCap",
          "type": "uint120"
        }
      ],
      "name": "LiquidityCapExceeded",
      "type": "error"
    },
    {
      "inputs": [
        {
          "internalType": "int256",
          "name": "margin",
          "type": "int256"
        },
        {
          "internalType": "uint256",
          "name": "maintenanceMargin",
          "type": "uint256"
        }
      ],
      "name": "MarginRateTooHigh",
      "type": "error"
    },
    {
      "inputs": [
        {
          "internalType": "int256",
          "name": "margin",
          "type": "int256"
        },
        {
          "internalType": "uint256",
          "name": "maintenanceMargin",
          "type": "uint256"
        }
      ],
      "name": "MarginRateTooLow",
      "type": "error"
    },
    {
      "inputs": [
        {
          "internalType": "contract IERC20",
          "name": "market",
          "type": "address"
        }
      ],
      "name": "MarketAlreadyEnabled",
      "type": "error"
    },
    {
      "inputs": [
        {
          "internalType": "contract IERC20",
          "name": "market",
          "type": "address"
        }
      ],
      "name": "MarketNotEnabled",
      "type": "error"
    },
    {
      "inputs": [],
      "name": "MathOverflowedMulDiv",
      "type": "error"
    },
    {
      "inputs": [
        {
          "internalType": "uint128",
          "name": "netSize",
          "type": "uint128"
        },
        {
          "internalType": "uint128",
          "name": "sizeDelta",
          "type": "uint128"
        },
        {
          "internalType": "uint256",
          "name": "maxBurningSizeCap",
          "type": "uint256"
        }
      ],
      "name": "MaxBurningSizeCapExceeded",
      "type": "error"
    },
    {
      "inputs": [
        {
          "internalType": "uint128",
          "name": "netSize",
          "type": "uint128"
        },
        {
          "internalType": "uint128",
          "name": "sizeDelta",
          "type": "uint128"
        },
        {
          "internalType": "uint128",
          "name": "minMintingSizeCap",
          "type": "uint128"
        }
      ],
      "name": "MinMintingSizeCapNotMet",
      "type": "error"
    },
    {
      "inputs": [
        {
          "internalType": "int256",
          "name": "receiveAmount",
          "type": "int256"
        }
      ],
      "name": "NegativeReceiveAmount",
      "type": "error"
    },
    {
      "inputs": [],
      "name": "NotInitialized",
      "type": "error"
    },
    {
      "inputs": [],
      "name": "NotInitializing",
      "type": "error"
    },
    {
      "inputs": [
        {
          "internalType": "address",
          "name": "plugin",
          "type": "address"
        }
      ],
      "name": "PluginInactive",
      "type": "error"
    },
    {
      "inputs": [
        {
          "internalType": "address",
          "name": "requiredAccount",
          "type": "address"
        }
      ],
      "name": "PositionNotFound",
      "type": "error"
    },
    {
      "inputs": [],
      "name": "ReentrancyGuardReentrantCall",
      "type": "error"
    },
    {
      "inputs": [],
      "name": "ReferencePriceFeedNotSet",
      "type": "error"
    },
    {
      "inputs": [
        {
          "internalType": "uint256",
          "name": "elapsed",
          "type": "uint256"
        }
      ],
      "name": "ReferencePriceTimeout",
      "type": "error"
    },
    {
      "inputs": [
        {
          "internalType": "int256",
          "name": "value",
          "type": "int256"
        }
      ],
      "name": "SafeCastOverflowedIntToUint",
      "type": "error"
    },
    {
      "inputs": [
        {
          "internalType": "uint8",
          "name": "bits",
          "type": "uint8"
        },
        {
          "internalType": "uint256",
          "name": "value",
          "type": "uint256"
        }
      ],
      "name": "SafeCastOverflowedUintDowncast",
      "type": "error"
    },
    {
      "inputs": [
        {
          "internalType": "address",
          "name": "token",
          "type": "address"
        }
      ],
      "name": "SafeERC20FailedOperation",
      "type": "error"
    },
    {
      "inputs": [
        {
          "internalType": "uint256",
          "name": "requiredSize",
          "type": "uint256"
        },
        {
          "internalType": "uint256",
          "name": "maxSize",
          "type": "uint256"
        }
      ],
      "name": "SizeExceedsMaxSize",
      "type": "error"
    },
    {
      "inputs": [
        {
          "internalType": "uint256",
          "name": "requiredSize",
          "type": "uint256"
        },
        {
          "internalType": "uint256",
          "name": "maxSizePerPosition",
          "type": "uint256"
        }
      ],
      "name": "SizeExceedsMaxSizePerPosition",
      "type": "error"
    },
    {
      "inputs": [
        {
          "internalType": "uint256",
          "name": "supplyCap",
          "type": "uint256"
        },
        {
          "internalType": "uint256",
          "name": "totalSupply",
          "type": "uint256"
        },
        {
          "internalType": "uint256",
          "name": "amountDelta",
          "type": "uint256"
        }
      ],
      "name": "StableCoinSupplyCapExceeded",
      "type": "error"
    },
    {
      "inputs": [
        {
          "internalType": "uint128",
          "name": "requiredAmount",
          "type": "uint128"
        },
        {
          "internalType": "uint128",
          "name": "payAmount",
          "type": "uint128"
        }
      ],
      "name": "TooLittlePayAmount",
      "type": "error"
    },
    {
      "inputs": [],
      "name": "UUPSUnauthorizedCallContext",
      "type": "error"
    },
    {
      "inputs": [
        {
          "internalType": "bytes32",
          "name": "slot",
          "type": "bytes32"
        }
      ],
      "name": "UUPSUnsupportedProxiableUUID",
      "type": "error"
    },
    {
      "inputs": [
        {
          "internalType": "uint128",
          "name": "requiredAmount",
          "type": "uint128"
        },
        {
          "internalType": "uint128",
          "name": "payAmount",
          "type": "uint128"
        }
      ],
      "name": "UnexpectedPayAmount",
      "type": "error"
    },
    {
      "inputs": [],
      "name": "ZeroLiquidityScale",
      "type": "error"
    },
    {
      "inputs": [],
      "name": "ZeroRiskFreeTime",
      "type": "error"
    },
    {
      "anonymous": false,
      "inputs": [
        {
          "indexed": true,
          "internalType": "address",
          "name": "previousGov",
          "type": "address"
        },
        {
          "indexed": true,
          "internalType": "address",
          "name": "newGov",
          "type": "address"
        }
      ],
      "name": "ChangeGovStarted",
      "type": "event"
    },
    {
      "anonymous": false,
      "inputs": [
        {
          "indexed": true,
          "internalType": "contract IERC20",
          "name": "market",
          "type": "address"
        },
        {
          "indexed": false,
          "internalType": "uint96",
          "name": "liquidityFee",
          "type": "uint96"
        }
      ],
      "name": "GlobalLiquidityIncreasedByTradingFee",
      "type": "event"
    },
    {
      "anonymous": false,
      "inputs": [
        {
          "indexed": true,
          "internalType": "contract IERC20",
          "name": "market",
          "type": "address"
        },
        {
          "indexed": false,
          "internalType": "int256",
          "name": "sizeDelta",
          "type": "int256"
        },
        {
          "indexed": false,
          "internalType": "int256",
          "name": "realizedPnL",
          "type": "int256"
        },
        {
          "indexed": false,
          "internalType": "uint64",
          "name": "entryPriceAfter",
          "type": "uint64"
        }
      ],
      "name": "GlobalLiquiditySettled",
      "type": "event"
    },
    {
      "anonymous": false,
      "inputs": [
        {
          "indexed": true,
          "internalType": "contract IERC20",
          "name": "market",
          "type": "address"
        },
        {
          "indexed": true,
          "internalType": "address",
          "name": "receiver",
          "type": "address"
        },
        {
          "indexed": false,
          "internalType": "uint128",
          "name": "stabilityFundDelta",
          "type": "uint128"
        }
      ],
      "name": "GlobalStabilityFundGovUsed",
      "type": "event"
    },
    {
      "anonymous": false,
      "inputs": [
        {
          "indexed": true,
          "internalType": "contract IERC20",
          "name": "market",
          "type": "address"
        },
        {
          "indexed": false,
          "internalType": "uint96",
          "name": "liquidationFee",
          "type": "uint96"
        }
      ],
      "name": "GlobalStabilityFundIncreasedByLiquidation",
      "type": "event"
    },
    {
      "anonymous": false,
      "inputs": [
        {
          "indexed": true,
          "internalType": "contract IERC20",
          "name": "market",
          "type": "address"
        },
        {
          "indexed": false,
          "internalType": "uint96",
          "name": "spread",
          "type": "uint96"
        }
      ],
      "name": "GlobalStabilityFundIncreasedBySpread",
      "type": "event"
    },
    {
      "anonymous": false,
      "inputs": [
        {
          "indexed": true,
          "internalType": "address",
          "name": "previousGov",
          "type": "address"
        },
        {
          "indexed": true,
          "internalType": "address",
          "name": "newGov",
          "type": "address"
        }
      ],
      "name": "GovChanged",
      "type": "event"
    },
    {
      "anonymous": false,
      "inputs": [
        {
          "indexed": false,
          "internalType": "uint64",
          "name": "version",
          "type": "uint64"
        }
      ],
      "name": "Initialized",
      "type": "event"
    },
    {
      "anonymous": false,
      "inputs": [
        {
          "indexed": true,
          "internalType": "contract IERC20",
          "name": "market",
          "type": "address"
        },
        {
          "indexed": true,
          "internalType": "address",
          "name": "account",
          "type": "address"
        },
        {
          "indexed": true,
          "internalType": "address",
          "name": "receiver",
          "type": "address"
        },
        {
          "indexed": false,
          "internalType": "uint96",
          "name": "liquidity",
          "type": "uint96"
        },
        {
          "indexed": false,
          "internalType": "uint64",
          "name": "tokenValue",
          "type": "uint64"
        }
      ],
      "name": "LPTBurned",
      "type": "event"
    },
    {
      "anonymous": false,
      "inputs": [
        {
          "indexed": true,
          "internalType": "contract IERC20",
          "name": "market",
          "type": "address"
        },
        {
          "indexed": true,
          "internalType": "address",
          "name": "account",
          "type": "address"
        },
        {
          "indexed": true,
          "internalType": "address",
          "name": "receiver",
          "type": "address"
        },
        {
          "indexed": false,
          "internalType": "uint96",
          "name": "liquidity",
          "type": "uint96"
        },
        {
          "indexed": false,
          "internalType": "uint64",
          "name": "tokenValue",
          "type": "uint64"
        }
      ],
      "name": "LPTMinted",
      "type": "event"
    },
    {
      "anonymous": false,
      "inputs": [
        {
          "indexed": true,
          "internalType": "contract IERC20",
          "name": "market",
          "type": "address"
        },
        {
          "indexed": true,
          "internalType": "contract ILPToken",
          "name": "token",
          "type": "address"
        }
      ],
      "name": "LPTokenDeployed",
      "type": "event"
    },
    {
      "anonymous": false,
      "inputs": [
        {
          "indexed": false,
          "internalType": "contract IERC20",
          "name": "market",
          "type": "address"
        },
        {
          "indexed": false,
          "internalType": "address",
          "name": "account",
          "type": "address"
        },
        {
          "indexed": false,
          "internalType": "uint128",
          "name": "pusdDebtDelta",
          "type": "uint128"
        },
        {
          "indexed": false,
          "internalType": "uint128",
          "name": "tokenPaybackDelta",
          "type": "uint128"
        }
      ],
      "name": "LiquidityBufferModuleDebtIncreased",
      "type": "event"
    },
    {
      "anonymous": false,
      "inputs": [
        {
          "indexed": false,
          "internalType": "contract IERC20",
          "name": "market",
          "type": "address"
        },
        {
          "indexed": false,
          "internalType": "address",
          "name": "account",
          "type": "address"
        },
        {
          "indexed": false,
          "internalType": "uint128",
          "name": "pusdDebtDelta",
          "type": "uint128"
        },
        {
          "indexed": false,
          "internalType": "uint128",
          "name": "tokenPaybackDelta",
          "type": "uint128"
        }
      ],
      "name": "LiquidityBufferModuleDebtRepaid",
      "type": "event"
    },
    {
      "anonymous": false,
      "inputs": [
        {
          "indexed": true,
          "internalType": "contract IERC20",
          "name": "market",
          "type": "address"
        },
        {
          "components": [
            {
              "internalType": "uint24",
              "name": "liquidationFeeRatePerPosition",
              "type": "uint24"
            },
            {
              "internalType": "uint24",
              "name": "maxSizeRatePerPosition",
              "type": "uint24"
            },
            {
              "internalType": "uint24",
              "name": "openPositionThreshold",
              "type": "uint24"
            },
            {
              "internalType": "uint24",
              "name": "tradingFeeRate",
              "type": "uint24"
            },
            {
              "internalType": "uint8",
              "name": "maxLeveragePerPosition",
              "type": "uint8"
            },
            {
              "internalType": "uint8",
              "name": "decimals",
              "type": "uint8"
            },
            {
              "internalType": "uint120",
              "name": "liquidityScale",
              "type": "uint120"
            },
            {
              "internalType": "uint24",
              "name": "protocolFeeRate",
              "type": "uint24"
            },
            {
              "internalType": "uint24",
              "name": "maxFeeRate",
              "type": "uint24"
            },
            {
              "internalType": "uint24",
              "name": "riskFreeTime",
              "type": "uint24"
            },
            {
              "internalType": "uint64",
              "name": "minMarginPerPosition",
              "type": "uint64"
            },
            {
              "internalType": "uint24",
              "name": "minMintingRate",
              "type": "uint24"
            },
            {
              "internalType": "uint24",
              "name": "maxBurningRate",
              "type": "uint24"
            },
            {
              "internalType": "uint64",
              "name": "liquidationExecutionFee",
              "type": "uint64"
            },
            {
              "internalType": "bool",
              "name": "liquidityBufferModuleEnabled",
              "type": "bool"
            },
            {
              "internalType": "uint64",
              "name": "stableCoinSupplyCap",
              "type": "uint64"
            },
            {
              "internalType": "uint120",
              "name": "liquidityCap",
              "type": "uint120"
            }
          ],
          "indexed": false,
          "internalType": "struct IConfigurable.MarketConfig",
          "name": "cfg",
          "type": "tuple"
        }
      ],
      "name": "MarketConfigChanged",
      "type": "event"
    },
    {
      "anonymous": false,
      "inputs": [
        {
          "indexed": true,
          "internalType": "contract IERC20",
          "name": "market",
          "type": "address"
        },
        {
          "components": [
            {
              "internalType": "uint24",
              "name": "liquidationFeeRatePerPosition",
              "type": "uint24"
            },
            {
              "internalType": "uint24",
              "name": "maxSizeRatePerPosition",
              "type": "uint24"
            },
            {
              "internalType": "uint24",
              "name": "openPositionThreshold",
              "type": "uint24"
            },
            {
              "internalType": "uint24",
              "name": "tradingFeeRate",
              "type": "uint24"
            },
            {
              "internalType": "uint8",
              "name": "maxLeveragePerPosition",
              "type": "uint8"
            },
            {
              "internalType": "uint8",
              "name": "decimals",
              "type": "uint8"
            },
            {
              "internalType": "uint120",
              "name": "liquidityScale",
              "type": "uint120"
            },
            {
              "internalType": "uint24",
              "name": "protocolFeeRate",
              "type": "uint24"
            },
            {
              "internalType": "uint24",
              "name": "maxFeeRate",
              "type": "uint24"
            },
            {
              "internalType": "uint24",
              "name": "riskFreeTime",
              "type": "uint24"
            },
            {
              "internalType": "uint64",
              "name": "minMarginPerPosition",
              "type": "uint64"
            },
            {
              "internalType": "uint24",
              "name": "minMintingRate",
              "type": "uint24"
            },
            {
              "internalType": "uint24",
              "name": "maxBurningRate",
              "type": "uint24"
            },
            {
              "internalType": "uint64",
              "name": "liquidationExecutionFee",
              "type": "uint64"
            },
            {
              "internalType": "bool",
              "name": "liquidityBufferModuleEnabled",
              "type": "bool"
            },
            {
              "internalType": "uint64",
              "name": "stableCoinSupplyCap",
              "type": "uint64"
            },
            {
              "internalType": "uint120",
              "name": "liquidityCap",
              "type": "uint120"
            }
          ],
          "indexed": false,
          "internalType": "struct IConfigurable.MarketConfig",
          "name": "cfg",
          "type": "tuple"
        }
      ],
      "name": "MarketConfigEnabled",
      "type": "event"
    },
    {
      "anonymous": false,
      "inputs": [
        {
          "indexed": true,
          "internalType": "contract IERC20",
          "name": "market",
          "type": "address"
        },
        {
          "indexed": false,
          "internalType": "uint64",
          "name": "price",
          "type": "uint64"
        },
        {
          "indexed": false,
          "internalType": "uint64",
          "name": "refPrice",
          "type": "uint64"
        },
        {
          "indexed": false,
          "internalType": "uint64",
          "name": "cumulativeDelta",
          "type": "uint64"
        },
        {
          "indexed": false,
          "internalType": "uint64",
          "name": "cumulativeRefDelta",
          "type": "uint64"
        }
      ],
      "name": "MaxCumulativeDeltaDiffExceeded",
      "type": "event"
    },
    {
      "anonymous": false,
      "inputs": [
        {
          "indexed": true,
          "internalType": "contract IERC20",
          "name": "collateral",
          "type": "address"
        },
        {
          "indexed": true,
          "internalType": "address",
          "name": "receiver",
          "type": "address"
        },
        {
          "indexed": false,
          "internalType": "uint64",
          "name": "payAmount",
          "type": "uint64"
        },
        {
          "indexed": false,
          "internalType": "uint96",
          "name": "receiveAmount",
          "type": "uint96"
        }
      ],
      "name": "PSMBurned",
      "type": "event"
    },
    {
      "anonymous": false,
      "inputs": [
        {
          "indexed": false,
          "internalType": "contract IERC20",
          "name": "collateral",
          "type": "address"
        },
        {
          "indexed": false,
          "internalType": "uint120",
          "name": "cap",
          "type": "uint120"
        }
      ],
      "name": "PSMCollateralUpdated",
      "type": "event"
    },
    {
      "anonymous": false,
      "inputs": [
        {
          "indexed": true,
          "internalType": "contract IERC20",
          "name": "collateral",
          "type": "address"
        },
        {
          "indexed": true,
          "internalType": "address",
          "name": "receiver",
          "type": "address"
        },
        {
          "indexed": false,
          "internalType": "uint96",
          "name": "payAmount",
          "type": "uint96"
        },
        {
          "indexed": false,
          "internalType": "uint64",
          "name": "receiveAmount",
          "type": "uint64"
        }
      ],
      "name": "PSMMinted",
      "type": "event"
    },
    {
      "anonymous": false,
      "inputs": [
        {
          "indexed": true,
          "internalType": "contract IPUSD",
          "name": "pusd",
          "type": "address"
        }
      ],
      "name": "PUSDDeployed",
      "type": "event"
    },
    {
      "anonymous": false,
      "inputs": [
        {
          "indexed": true,
          "internalType": "contract IERC20",
          "name": "market",
          "type": "address"
        },
        {
          "indexed": true,
          "internalType": "address",
          "name": "receiver",
          "type": "address"
        },
        {
          "indexed": false,
          "internalType": "uint96",
          "name": "sizeDelta",
          "type": "uint96"
        },
        {
          "indexed": false,
          "internalType": "uint64",
          "name": "indexPrice",
          "type": "uint64"
        },
        {
          "indexed": false,
          "internalType": "uint64",
          "name": "payAmount",
          "type": "uint64"
        },
        {
          "indexed": false,
          "internalType": "uint96",
          "name": "receiveAmount",
          "type": "uint96"
        },
        {
          "indexed": false,
          "internalType": "int256",
          "name": "realizedPnL",
          "type": "int256"
        },
        {
          "indexed": false,
          "internalType": "uint96",
          "name": "tradingFee",
          "type": "uint96"
        },
        {
          "indexed": false,
          "internalType": "uint96",
          "name": "spread",
          "type": "uint96"
        }
      ],
      "name": "PUSDPositionDecreased",
      "type": "event"
    },
    {
      "anonymous": false,
      "inputs": [
        {
          "indexed": true,
          "internalType": "contract IERC20",
          "name": "market",
          "type": "address"
        },
        {
          "indexed": true,
          "internalType": "address",
          "name": "receiver",
          "type": "address"
        },
        {
          "indexed": false,
          "internalType": "uint96",
          "name": "sizeDelta",
          "type": "uint96"
        },
        {
          "indexed": false,
          "internalType": "uint64",
          "name": "indexPrice",
          "type": "uint64"
        },
        {
          "indexed": false,
          "internalType": "uint64",
          "name": "entryPriceAfter",
          "type": "uint64"
        },
        {
          "indexed": false,
          "internalType": "uint96",
          "name": "payAmount",
          "type": "uint96"
        },
        {
          "indexed": false,
          "internalType": "uint64",
          "name": "receiveAmount",
          "type": "uint64"
        },
        {
          "indexed": false,
          "internalType": "uint96",
          "name": "tradingFee",
          "type": "uint96"
        },
        {
          "indexed": false,
          "internalType": "uint96",
          "name": "spread",
          "type": "uint96"
        }
      ],
      "name": "PUSDPositionIncreased",
      "type": "event"
    },
    {
      "anonymous": false,
      "inputs": [
        {
          "indexed": true,
          "internalType": "address",
          "name": "plugin",
          "type": "address"
        },
        {
          "indexed": false,
          "internalType": "bool",
          "name": "active",
          "type": "bool"
        }
      ],
      "name": "PluginUpdated",
      "type": "event"
    },
    {
      "anonymous": false,
      "inputs": [
        {
          "indexed": true,
          "internalType": "contract IERC20",
          "name": "market",
          "type": "address"
        },
        {
          "indexed": true,
          "internalType": "address",
          "name": "account",
          "type": "address"
        },
        {
          "indexed": false,
          "internalType": "uint96",
          "name": "marginDelta",
          "type": "uint96"
        },
        {
          "indexed": false,
          "internalType": "uint96",
          "name": "marginAfter",
          "type": "uint96"
        },
        {
          "indexed": false,
          "internalType": "uint96",
          "name": "sizeDelta",
          "type": "uint96"
        },
        {
          "indexed": false,
          "internalType": "uint64",
          "name": "indexPrice",
          "type": "uint64"
        },
        {
          "indexed": false,
          "internalType": "int256",
          "name": "realizedPnL",
          "type": "int256"
        },
        {
          "indexed": false,
          "internalType": "uint96",
          "name": "tradingFee",
          "type": "uint96"
        },
        {
          "indexed": false,
          "internalType": "uint96",
          "name": "spread",
          "type": "uint96"
        },
        {
          "indexed": false,
          "internalType": "address",
          "name": "receiver",
          "type": "address"
        }
      ],
      "name": "PositionDecreased",
      "type": "event"
    },
    {
      "anonymous": false,
      "inputs": [
        {
          "indexed": true,
          "internalType": "contract IERC20",
          "name": "market",
          "type": "address"
        },
        {
          "indexed": true,
          "internalType": "address",
          "name": "account",
          "type": "address"
        },
        {
          "indexed": false,
          "internalType": "uint96",
          "name": "marginDelta",
          "type": "uint96"
        },
        {
          "indexed": false,
          "internalType": "uint96",
          "name": "marginAfter",
          "type": "uint96"
        },
        {
          "indexed": false,
          "internalType": "uint96",
          "name": "sizeDelta",
          "type": "uint96"
        },
        {
          "indexed": false,
          "internalType": "uint64",
          "name": "indexPrice",
          "type": "uint64"
        },
        {
          "indexed": false,
          "internalType": "uint64",
          "name": "entryPriceAfter",
          "type": "uint64"
        },
        {
          "indexed": false,
          "internalType": "uint96",
          "name": "tradingFee",
          "type": "uint96"
        },
        {
          "indexed": false,
          "internalType": "uint96",
          "name": "spread",
          "type": "uint96"
        }
      ],
      "name": "PositionIncreased",
      "type": "event"
    },
    {
      "anonymous": false,
      "inputs": [
        {
          "indexed": true,
          "internalType": "contract IERC20",
          "name": "market",
          "type": "address"
        },
        {
          "indexed": true,
          "internalType": "address",
          "name": "liquidator",
          "type": "address"
        },
        {
          "indexed": true,
          "internalType": "address",
          "name": "account",
          "type": "address"
        },
        {
          "indexed": false,
          "internalType": "uint96",
          "name": "sizeDelta",
          "type": "uint96"
        },
        {
          "indexed": false,
          "internalType": "uint64",
          "name": "indexPrice",
          "type": "uint64"
        },
        {
          "indexed": false,
          "internalType": "uint64",
          "name": "liquidationPrice",
          "type": "uint64"
        },
        {
          "indexed": false,
          "internalType": "uint96",
          "name": "tradingFee",
          "type": "uint96"
        },
        {
          "indexed": false,
          "internalType": "uint96",
          "name": "liquidationFee",
          "type": "uint96"
        },
        {
          "indexed": false,
          "internalType": "uint64",
          "name": "liquidationExecutionFee",
          "type": "uint64"
        },
        {
          "indexed": false,
          "internalType": "address",
          "name": "feeReceiver",
          "type": "address"
        }
      ],
      "name": "PositionLiquidated",
      "type": "event"
    },
    {
      "anonymous": false,
      "inputs": [
        {
          "indexed": true,
          "internalType": "contract IERC20",
          "name": "market",
          "type": "address"
        },
        {
          "indexed": false,
          "internalType": "uint64",
          "name": "price",
          "type": "uint64"
        },
        {
          "indexed": false,
          "internalType": "uint64",
          "name": "minPrice",
          "type": "uint64"
        },
        {
          "indexed": false,
          "internalType": "uint64",
          "name": "maxPrice",
          "type": "uint64"
        }
      ],
      "name": "PriceUpdated",
      "type": "event"
    },
    {
      "anonymous": false,
      "inputs": [
        {
          "indexed": true,
          "internalType": "contract IERC20",
          "name": "market",
          "type": "address"
        },
        {
          "indexed": false,
          "internalType": "uint128",
          "name": "amount",
          "type": "uint128"
        }
      ],
      "name": "ProtocolFeeCollected",
      "type": "event"
    },
    {
      "anonymous": false,
      "inputs": [
        {
          "indexed": true,
          "internalType": "contract IERC20",
          "name": "market",
          "type": "address"
        },
        {
          "indexed": false,
          "internalType": "uint96",
          "name": "amount",
          "type": "uint96"
        }
      ],
      "name": "ProtocolFeeIncreased",
      "type": "event"
    },
    {
      "anonymous": false,
      "inputs": [
        {
          "indexed": false,
          "internalType": "contract IERC20",
          "name": "market",
          "type": "address"
        },
        {
          "indexed": false,
          "internalType": "int256",
          "name": "spreadFactorAfterX96",
          "type": "int256"
        }
      ],
      "name": "SpreadFactorChanged",
      "type": "event"
    },
    {
      "anonymous": false,
      "inputs": [
        {
          "indexed": true,
          "internalType": "address",
          "name": "implementation",
          "type": "address"
        }
      ],
      "name": "Upgraded",
      "type": "event"
    },
    {
      "inputs": [],
      "name": "UPGRADE_INTERFACE_VERSION",
      "outputs": [
        {
          "internalType": "string",
          "name": "",
          "type": "string"
        }
      ],
      "stateMutability": "view",
      "type": "function"
    },
    {
      "inputs": [],
      "name": "acceptGov",
      "outputs": [],
      "stateMutability": "nonpayable",
      "type": "function"
    },
    {
      "inputs": [
        {
          "internalType": "address",
          "name": "_plugin",
          "type": "address"
        }
      ],
      "name": "activePlugins",
      "outputs": [
        {
          "internalType": "bool",
          "name": "active",
          "type": "bool"
        }
      ],
      "stateMutability": "view",
      "type": "function"
    },
    {
      "inputs": [
        {
          "internalType": "contract IERC20",
          "name": "_market",
          "type": "address"
        },
        {
          "internalType": "address",
          "name": "_account",
          "type": "address"
        },
        {
          "internalType": "address",
          "name": "_receiver",
          "type": "address"
        }
      ],
      "name": "burnLPT",
      "outputs": [
        {
          "internalType": "uint96",
          "name": "liquidity",
          "type": "uint96"
        }
      ],
      "stateMutability": "nonpayable",
      "type": "function"
    },
    {
      "inputs": [
        {
          "internalType": "contract IERC20",
          "name": "_market",
          "type": "address"
        },
        {
          "internalType": "bool",
          "name": "_exactIn",
          "type": "bool"
        },
        {
          "internalType": "uint96",
          "name": "_amount",
          "type": "uint96"
        },
        {
          "internalType": "contract IPUSDManagerCallback",
          "name": "_callback",
          "type": "address"
        },
        {
          "internalType": "bytes",
          "name": "_data",
          "type": "bytes"
        },
        {
          "internalType": "address",
          "name": "_receiver",
          "type": "address"
        }
      ],
      "name": "burnPUSD",
      "outputs": [
        {
          "internalType": "uint64",
          "name": "payAmount",
          "type": "uint64"
        },
        {
          "internalType": "uint96",
          "name": "receiveAmount",
          "type": "uint96"
        }
      ],
      "stateMutability": "nonpayable",
      "type": "function"
    },
    {
      "inputs": [
        {
          "internalType": "address",
          "name": "_newGov",
          "type": "address"
        }
      ],
      "name": "changeGov",
      "outputs": [],
      "stateMutability": "nonpayable",
      "type": "function"
    },
    {
      "inputs": [
        {
          "internalType": "contract IERC20",
          "name": "_market",
          "type": "address"
        }
      ],
      "name": "collectProtocolFee",
      "outputs": [],
      "stateMutability": "nonpayable",
      "type": "function"
    },
    {
      "inputs": [
        {
          "internalType": "contract IERC20",
          "name": "_market",
          "type": "address"
        },
        {
          "internalType": "address",
          "name": "_account",
          "type": "address"
        },
        {
          "internalType": "uint96",
          "name": "_marginDelta",
          "type": "uint96"
        },
        {
          "internalType": "uint96",
          "name": "_sizeDelta",
          "type": "uint96"
        },
        {
          "internalType": "address",
          "name": "_receiver",
          "type": "address"
        }
      ],
      "name": "decreasePosition",
      "outputs": [
        {
          "internalType": "uint96",
          "name": "spread",
          "type": "uint96"
        },
        {
          "internalType": "uint96",
          "name": "actualMarginDelta",
          "type": "uint96"
        }
      ],
      "stateMutability": "nonpayable",
      "type": "function"
    },
    {
      "inputs": [
        {
          "internalType": "contract IERC20",
          "name": "_market",
          "type": "address"
        },
        {
          "internalType": "string",
          "name": "_tokenSymbol",
          "type": "string"
        },
        {
          "components": [
            {
              "internalType": "uint24",
              "name": "liquidationFeeRatePerPosition",
              "type": "uint24"
            },
            {
              "internalType": "uint24",
              "name": "maxSizeRatePerPosition",
              "type": "uint24"
            },
            {
              "internalType": "uint24",
              "name": "openPositionThreshold",
              "type": "uint24"
            },
            {
              "internalType": "uint24",
              "name": "tradingFeeRate",
              "type": "uint24"
            },
            {
              "internalType": "uint8",
              "name": "maxLeveragePerPosition",
              "type": "uint8"
            },
            {
              "internalType": "uint8",
              "name": "decimals",
              "type": "uint8"
            },
            {
              "internalType": "uint120",
              "name": "liquidityScale",
              "type": "uint120"
            },
            {
              "internalType": "uint24",
              "name": "protocolFeeRate",
              "type": "uint24"
            },
            {
              "internalType": "uint24",
              "name": "maxFeeRate",
              "type": "uint24"
            },
            {
              "internalType": "uint24",
              "name": "riskFreeTime",
              "type": "uint24"
            },
            {
              "internalType": "uint64",
              "name": "minMarginPerPosition",
              "type": "uint64"
            },
            {
              "internalType": "uint24",
              "name": "minMintingRate",
              "type": "uint24"
            },
            {
              "internalType": "uint24",
              "name": "maxBurningRate",
              "type": "uint24"
            },
            {
              "internalType": "uint64",
              "name": "liquidationExecutionFee",
              "type": "uint64"
            },
            {
              "internalType": "bool",
              "name": "liquidityBufferModuleEnabled",
              "type": "bool"
            },
            {
              "internalType": "uint64",
              "name": "stableCoinSupplyCap",
              "type": "uint64"
            },
            {
              "internalType": "uint120",
              "name": "liquidityCap",
              "type": "uint120"
            }
          ],
          "internalType": "struct IConfigurable.MarketConfig",
          "name": "_cfg",
          "type": "tuple"
        }
      ],
      "name": "enableMarket",
      "outputs": [],
      "stateMutability": "nonpayable",
      "type": "function"
    },
    {
      "inputs": [
        {
          "internalType": "contract IERC20",
          "name": "_market",
          "type": "address"
        }
      ],
      "name": "getPrice",
      "outputs": [
        {
          "internalType": "uint64",
          "name": "minPrice",
          "type": "uint64"
        },
        {
          "internalType": "uint64",
          "name": "maxPrice",
          "type": "uint64"
        }
      ],
      "stateMutability": "view",
      "type": "function"
    },
    {
      "inputs": [
        {
          "internalType": "contract IERC20",
          "name": "_market",
          "type": "address"
        }
      ],
      "name": "globalPUSDPositions",
      "outputs": [
        {
          "components": [
            {
              "internalType": "uint64",
              "name": "totalSupply",
              "type": "uint64"
            },
            {
              "internalType": "uint128",
              "name": "size",
              "type": "uint128"
            },
            {
              "internalType": "uint64",
              "name": "entryPrice",
              "type": "uint64"
            }
          ],
          "internalType": "struct IPUSDManager.GlobalPUSDPosition",
          "name": "",
          "type": "tuple"
        }
      ],
      "stateMutability": "view",
      "type": "function"
    },
    {
      "inputs": [],
      "name": "globalPriceFeedConfig",
      "outputs": [
        {
          "internalType": "uint24",
          "name": "maxDeviationRatio",
          "type": "uint24"
        },
        {
          "internalType": "uint32",
          "name": "cumulativeRoundDuration",
          "type": "uint32"
        },
        {
          "internalType": "uint32",
          "name": "updateTxTimeout",
          "type": "uint32"
        },
        {
          "internalType": "bool",
          "name": "ignoreReferencePriceFeedError",
          "type": "bool"
        }
      ],
      "stateMutability": "view",
      "type": "function"
    },
    {
      "inputs": [
        {
          "internalType": "contract IERC20",
          "name": "_market",
          "type": "address"
        }
      ],
      "name": "globalStabilityFunds",
      "outputs": [
        {
          "internalType": "uint256",
          "name": "",
          "type": "uint256"
        }
      ],
      "stateMutability": "view",
      "type": "function"
    },
    {
      "inputs": [],
      "name": "gov",
      "outputs": [
        {
          "internalType": "address",
          "name": "",
          "type": "address"
        }
      ],
      "stateMutability": "view",
      "type": "function"
    },
    {
      "inputs": [
        {
          "internalType": "contract IERC20",
          "name": "_market",
          "type": "address"
        },
        {
          "internalType": "address",
          "name": "_receiver",
          "type": "address"
        },
        {
          "internalType": "uint128",
          "name": "_stabilityFundDelta",
          "type": "uint128"
        }
      ],
      "name": "govUseStabilityFund",
      "outputs": [],
      "stateMutability": "nonpayable",
      "type": "function"
    },
    {
      "inputs": [
        {
          "internalType": "contract IERC20",
          "name": "_market",
          "type": "address"
        },
        {
          "internalType": "address",
          "name": "_account",
          "type": "address"
        },
        {
          "internalType": "uint96",
          "name": "_sizeDelta",
          "type": "uint96"
        }
      ],
      "name": "increasePosition",
      "outputs": [
        {
          "internalType": "uint96",
          "name": "spread",
          "type": "uint96"
        }
      ],
      "stateMutability": "nonpayable",
      "type": "function"
    },
    {
      "inputs": [
        {
          "internalType": "address",
          "name": "_initialGov",
          "type": "address"
        },
        {
          "internalType": "contract FeeDistributorUpgradeable",
          "name": "_feeDistributor",
          "type": "address"
        },
        {
          "internalType": "bool",
          "name": "_ignoreReferencePriceFeedError",
          "type": "bool"
        }
      ],
      "name": "initialize",
      "outputs": [],
      "stateMutability": "nonpayable",
      "type": "function"
    },
    {
      "inputs": [
        {
          "internalType": "contract IERC20",
          "name": "_market",
          "type": "address"
        }
      ],
      "name": "isEnabledMarket",
      "outputs": [
        {
          "internalType": "bool",
          "name": "",
          "type": "bool"
        }
      ],
      "stateMutability": "view",
      "type": "function"
    },
    {
      "inputs": [
        {
          "internalType": "address",
          "name": "_account",
          "type": "address"
        }
      ],
      "name": "isUpdater",
      "outputs": [
        {
          "internalType": "bool",
          "name": "active",
          "type": "bool"
        }
      ],
      "stateMutability": "view",
      "type": "function"
    },
    {
      "inputs": [
        {
          "internalType": "contract IERC20",
          "name": "_market",
          "type": "address"
        },
        {
          "internalType": "address",
          "name": "_account",
          "type": "address"
        },
        {
          "internalType": "address",
          "name": "_feeReceiver",
          "type": "address"
        }
      ],
      "name": "liquidatePosition",
      "outputs": [],
      "stateMutability": "nonpayable",
      "type": "function"
    },
    {
      "inputs": [
        {
          "internalType": "contract IERC20",
          "name": "_market",
          "type": "address"
        }
      ],
      "name": "liquidityBufferModules",
      "outputs": [
        {
          "components": [
            {
              "internalType": "uint128",
              "name": "pusdDebt",
              "type": "uint128"
            },
            {
              "internalType": "uint128",
              "name": "tokenPayback",
              "type": "uint128"
            }
          ],
          "internalType": "struct IMarketManager.LiquidityBufferModule",
          "name": "",
          "type": "tuple"
        }
      ],
      "stateMutability": "view",
      "type": "function"
    },
    {
      "inputs": [
        {
          "internalType": "contract IERC20",
          "name": "_market",
          "type": "address"
        },
        {
          "internalType": "address",
          "name": "_account",
          "type": "address"
        }
      ],
      "name": "longPositions",
      "outputs": [
        {
          "components": [
            {
              "internalType": "uint96",
              "name": "margin",
              "type": "uint96"
            },
            {
              "internalType": "uint96",
              "name": "size",
              "type": "uint96"
            },
            {
              "internalType": "uint64",
              "name": "entryPrice",
              "type": "uint64"
            }
          ],
          "internalType": "struct IMarketPosition.Position",
          "name": "",
          "type": "tuple"
        }
      ],
      "stateMutability": "view",
      "type": "function"
    },
    {
      "inputs": [
        {
          "internalType": "contract IERC20",
          "name": "_market",
          "type": "address"
        }
      ],
      "name": "marketConfigs",
      "outputs": [
        {
          "components": [
            {
              "internalType": "uint24",
              "name": "liquidationFeeRatePerPosition",
              "type": "uint24"
            },
            {
              "internalType": "uint24",
              "name": "maxSizeRatePerPosition",
              "type": "uint24"
            },
            {
              "internalType": "uint24",
              "name": "openPositionThreshold",
              "type": "uint24"
            },
            {
              "internalType": "uint24",
              "name": "tradingFeeRate",
              "type": "uint24"
            },
            {
              "internalType": "uint8",
              "name": "maxLeveragePerPosition",
              "type": "uint8"
            },
            {
              "internalType": "uint8",
              "name": "decimals",
              "type": "uint8"
            },
            {
              "internalType": "uint120",
              "name": "liquidityScale",
              "type": "uint120"
            },
            {
              "internalType": "uint24",
              "name": "protocolFeeRate",
              "type": "uint24"
            },
            {
              "internalType": "uint24",
              "name": "maxFeeRate",
              "type": "uint24"
            },
            {
              "internalType": "uint24",
              "name": "riskFreeTime",
              "type": "uint24"
            },
            {
              "internalType": "uint64",
              "name": "minMarginPerPosition",
              "type": "uint64"
            },
            {
              "internalType": "uint24",
              "name": "minMintingRate",
              "type": "uint24"
            },
            {
              "internalType": "uint24",
              "name": "maxBurningRate",
              "type": "uint24"
            },
            {
              "internalType": "uint64",
              "name": "liquidationExecutionFee",
              "type": "uint64"
            },
            {
              "internalType": "bool",
              "name": "liquidityBufferModuleEnabled",
              "type": "bool"
            },
            {
              "internalType": "uint64",
              "name": "stableCoinSupplyCap",
              "type": "uint64"
            },
            {
              "internalType": "uint120",
              "name": "liquidityCap",
              "type": "uint120"
            }
          ],
          "internalType": "struct IConfigurable.MarketConfig",
          "name": "",
          "type": "tuple"
        }
      ],
      "stateMutability": "view",
      "type": "function"
    },
    {
      "inputs": [
        {
          "internalType": "contract IERC20",
          "name": "_market",
          "type": "address"
        }
      ],
      "name": "marketPriceFeedConfigs",
      "outputs": [
        {
          "components": [
            {
              "internalType": "contract IChainLinkAggregator",
              "name": "refPriceFeed",
              "type": "address"
            },
            {
              "internalType": "uint32",
              "name": "refHeartbeatDuration",
              "type": "uint32"
            },
            {
              "internalType": "uint48",
              "name": "maxCumulativeDeltaDiff",
              "type": "uint48"
            },
            {
              "internalType": "uint8",
              "name": "refPriceDecimals",
              "type": "uint8"
            }
          ],
          "internalType": "struct IPriceFeed.PriceFeedConfig",
          "name": "config",
          "type": "tuple"
        }
      ],
      "stateMutability": "view",
      "type": "function"
    },
    {
      "inputs": [
        {
          "internalType": "contract IERC20",
          "name": "_market",
          "type": "address"
        }
      ],
      "name": "marketPricePacks",
      "outputs": [
        {
          "components": [
            {
              "internalType": "uint32",
              "name": "updateTimestamp",
              "type": "uint32"
            },
            {
              "internalType": "uint64",
              "name": "maxPrice",
              "type": "uint64"
            },
            {
              "internalType": "uint64",
              "name": "minPrice",
              "type": "uint64"
            },
            {
              "internalType": "uint32",
              "name": "prevRound",
              "type": "uint32"
            },
            {
              "internalType": "uint64",
              "name": "prevRefPrice",
              "type": "uint64"
            },
            {
              "internalType": "uint64",
              "name": "cumulativeRefPriceDelta",
              "type": "uint64"
            },
            {
              "internalType": "uint64",
              "name": "prevPrice",
              "type": "uint64"
            },
            {
              "internalType": "uint64",
              "name": "cumulativePriceDelta",
              "type": "uint64"
            }
          ],
          "internalType": "struct IPriceFeed.PricePack",
          "name": "pack",
          "type": "tuple"
        }
      ],
      "stateMutability": "view",
      "type": "function"
    },
    {
      "inputs": [
        {
          "internalType": "contract IERC20",
          "name": "_market",
          "type": "address"
        },
        {
          "internalType": "address",
          "name": "_account",
          "type": "address"
        },
        {
          "internalType": "address",
          "name": "_receiver",
          "type": "address"
        }
      ],
      "name": "mintLPT",
      "outputs": [
        {
          "internalType": "uint64",
          "name": "tokenValue",
          "type": "uint64"
        }
      ],
      "stateMutability": "nonpayable",
      "type": "function"
    },
    {
      "inputs": [
        {
          "internalType": "contract IERC20",
          "name": "_market",
          "type": "address"
        },
        {
          "internalType": "bool",
          "name": "_exactIn",
          "type": "bool"
        },
        {
          "internalType": "uint96",
          "name": "_amount",
          "type": "uint96"
        },
        {
          "internalType": "contract IPUSDManagerCallback",
          "name": "_callback",
          "type": "address"
        },
        {
          "internalType": "bytes",
          "name": "_data",
          "type": "bytes"
        },
        {
          "internalType": "address",
          "name": "_receiver",
          "type": "address"
        }
      ],
      "name": "mintPUSD",
      "outputs": [
        {
          "internalType": "uint96",
          "name": "payAmount",
          "type": "uint96"
        },
        {
          "internalType": "uint64",
          "name": "receiveAmount",
          "type": "uint64"
        }
      ],
      "stateMutability": "nonpayable",
      "type": "function"
    },
    {
      "inputs": [
        {
          "internalType": "contract IERC20",
          "name": "_market",
          "type": "address"
        }
      ],
      "name": "packedStates",
      "outputs": [
        {
          "components": [
            {
              "internalType": "int256",
              "name": "spreadFactorX96",
              "type": "int256"
            },
            {
              "internalType": "uint64",
              "name": "lastTradingTimestamp",
              "type": "uint64"
            },
            {
              "internalType": "uint128",
              "name": "longSize",
              "type": "uint128"
            },
            {
              "internalType": "uint64",
              "name": "lpEntryPrice",
              "type": "uint64"
            },
            {
              "internalType": "uint128",
              "name": "lpLiquidity",
              "type": "uint128"
            },
            {
              "internalType": "uint128",
              "name": "lpNetSize",
              "type": "uint128"
            }
          ],
          "internalType": "struct IMarketManager.PackedState",
          "name": "",
          "type": "tuple"
        }
      ],
      "stateMutability": "view",
      "type": "function"
    },
    {
      "inputs": [],
      "name": "pendingGov",
      "outputs": [
        {
          "internalType": "address",
          "name": "",
          "type": "address"
        }
      ],
      "stateMutability": "view",
      "type": "function"
    },
    {
      "inputs": [
        {
          "internalType": "contract IERC20",
          "name": "_token",
          "type": "address"
        },
        {
          "internalType": "address",
          "name": "_from",
          "type": "address"
        },
        {
          "internalType": "address",
          "name": "_to",
          "type": "address"
        },
        {
          "internalType": "uint256",
          "name": "_amount",
          "type": "uint256"
        }
      ],
      "name": "pluginTransfer",
      "outputs": [],
      "stateMutability": "nonpayable",
      "type": "function"
    },
    {
      "inputs": [
        {
          "internalType": "contract IERC20",
          "name": "_market",
          "type": "address"
        }
      ],
      "name": "protocolFees",
      "outputs": [
        {
          "internalType": "uint128",
          "name": "",
          "type": "uint128"
        }
      ],
      "stateMutability": "view",
      "type": "function"
    },
    {
      "inputs": [],
      "name": "proxiableUUID",
      "outputs": [
        {
          "internalType": "bytes32",
          "name": "",
          "type": "bytes32"
        }
      ],
      "stateMutability": "view",
      "type": "function"
    },
    {
      "inputs": [
        {
          "internalType": "contract IERC20",
          "name": "_collateral",
          "type": "address"
        },
        {
          "internalType": "address",
          "name": "_receiver",
          "type": "address"
        }
      ],
      "name": "psmBurnPUSD",
      "outputs": [
        {
          "internalType": "uint96",
          "name": "receiveAmount",
          "type": "uint96"
        }
      ],
      "stateMutability": "nonpayable",
      "type": "function"
    },
    {
      "inputs": [
        {
          "internalType": "contract IERC20",
          "name": "_collateral",
          "type": "address"
        }
      ],
      "name": "psmCollateralStates",
      "outputs": [
        {
          "components": [
            {
              "internalType": "uint120",
              "name": "cap",
              "type": "uint120"
            },
            {
              "internalType": "uint8",
              "name": "decimals",
              "type": "uint8"
            },
            {
              "internalType": "uint128",
              "name": "balance",
              "type": "uint128"
            }
          ],
          "internalType": "struct IPSM.CollateralState",
          "name": "state",
          "type": "tuple"
        }
      ],
      "stateMutability": "view",
      "type": "function"
    },
    {
      "inputs": [
        {
          "internalType": "contract IERC20",
          "name": "_collateral",
          "type": "address"
        },
        {
          "internalType": "address",
          "name": "_receiver",
          "type": "address"
        }
      ],
      "name": "psmMintPUSD",
      "outputs": [
        {
          "internalType": "uint64",
          "name": "receiveAmount",
          "type": "uint64"
        }
      ],
      "stateMutability": "nonpayable",
      "type": "function"
    },
    {
      "inputs": [],
      "name": "pusd",
      "outputs": [
        {
          "internalType": "address",
          "name": "",
          "type": "address"
        }
      ],
      "stateMutability": "view",
      "type": "function"
    },
    {
      "inputs": [
        {
          "internalType": "contract IERC20",
          "name": "_market",
          "type": "address"
        },
        {
          "internalType": "address",
          "name": "_account",
          "type": "address"
        },
        {
          "internalType": "address",
          "name": "_receiver",
          "type": "address"
        }
      ],
      "name": "repayLiquidityBufferDebt",
      "outputs": [
        {
          "internalType": "uint128",
          "name": "receiveAmount",
          "type": "uint128"
        }
      ],
      "stateMutability": "nonpayable",
      "type": "function"
    },
    {
      "inputs": [
        {
          "internalType": "contract IERC20",
          "name": "_market",
          "type": "address"
        }
      ],
      "name": "tokenBalances",
      "outputs": [
        {
          "internalType": "uint128",
          "name": "",
          "type": "uint128"
        }
      ],
      "stateMutability": "view",
      "type": "function"
    },
    {
      "inputs": [
        {
          "internalType": "uint24",
          "name": "_maxDeviationRatio",
          "type": "uint24"
        },
        {
          "internalType": "uint32",
          "name": "_cumulativeRoundDuration",
          "type": "uint32"
        },
        {
          "internalType": "uint32",
          "name": "_updateTxTimeout",
          "type": "uint32"
        },
        {
          "internalType": "bool",
          "name": "_ignoreReferencePriceFeedError",
          "type": "bool"
        }
      ],
      "name": "updateGlobalPriceFeedConfig",
      "outputs": [],
      "stateMutability": "nonpayable",
      "type": "function"
    },
    {
      "inputs": [
        {
          "internalType": "contract IERC20",
          "name": "_market",
          "type": "address"
        },
        {
          "components": [
            {
              "internalType": "uint24",
              "name": "liquidationFeeRatePerPosition",
              "type": "uint24"
            },
            {
              "internalType": "uint24",
              "name": "maxSizeRatePerPosition",
              "type": "uint24"
            },
            {
              "internalType": "uint24",
              "name": "openPositionThreshold",
              "type": "uint24"
            },
            {
              "internalType": "uint24",
              "name": "tradingFeeRate",
              "type": "uint24"
            },
            {
              "internalType": "uint8",
              "name": "maxLeveragePerPosition",
              "type": "uint8"
            },
            {
              "internalType": "uint8",
              "name": "decimals",
              "type": "uint8"
            },
            {
              "internalType": "uint120",
              "name": "liquidityScale",
              "type": "uint120"
            },
            {
              "internalType": "uint24",
              "name": "protocolFeeRate",
              "type": "uint24"
            },
            {
              "internalType": "uint24",
              "name": "maxFeeRate",
              "type": "uint24"
            },
            {
              "internalType": "uint24",
              "name": "riskFreeTime",
              "type": "uint24"
            },
            {
              "internalType": "uint64",
              "name": "minMarginPerPosition",
              "type": "uint64"
            },
            {
              "internalType": "uint24",
              "name": "minMintingRate",
              "type": "uint24"
            },
            {
              "internalType": "uint24",
              "name": "maxBurningRate",
              "type": "uint24"
            },
            {
              "internalType": "uint64",
              "name": "liquidationExecutionFee",
              "type": "uint64"
            },
            {
              "internalType": "bool",
              "name": "liquidityBufferModuleEnabled",
              "type": "bool"
            },
            {
              "internalType": "uint64",
              "name": "stableCoinSupplyCap",
              "type": "uint64"
            },
            {
              "internalType": "uint120",
              "name": "liquidityCap",
              "type": "uint120"
            }
          ],
          "internalType": "struct IConfigurable.MarketConfig",
          "name": "_newCfg",
          "type": "tuple"
        }
      ],
      "name": "updateMarketConfig",
      "outputs": [],
      "stateMutability": "nonpayable",
      "type": "function"
    },
    {
      "inputs": [
        {
          "internalType": "contract IERC20",
          "name": "_market",
          "type": "address"
        },
        {
          "internalType": "contract IChainLinkAggregator",
          "name": "_priceFeed",
          "type": "address"
        },
        {
          "internalType": "uint32",
          "name": "_refHeartBeatDuration",
          "type": "uint32"
        },
        {
          "internalType": "uint48",
          "name": "_maxCumulativeDeltaDiff",
          "type": "uint48"
        }
      ],
      "name": "updateMarketPriceFeedConfig",
      "outputs": [],
      "stateMutability": "nonpayable",
      "type": "function"
    },
    {
      "inputs": [
        {
          "internalType": "contract IERC20",
          "name": "_collateral",
          "type": "address"
        },
        {
          "internalType": "uint120",
          "name": "_cap",
          "type": "uint120"
        }
      ],
      "name": "updatePSMCollateralCap",
      "outputs": [],
      "stateMutability": "nonpayable",
      "type": "function"
    },
    {
      "inputs": [
        {
          "internalType": "address",
          "name": "_plugin",
          "type": "address"
        },
        {
          "internalType": "bool",
          "name": "_active",
          "type": "bool"
        }
      ],
      "name": "updatePlugin",
      "outputs": [],
      "stateMutability": "nonpayable",
      "type": "function"
    },
    {
      "inputs": [
        {
          "internalType": "PackedValue",
          "name": "_packedValue",
          "type": "uint256"
        }
      ],
      "name": "updatePrice",
      "outputs": [],
      "stateMutability": "nonpayable",
      "type": "function"
    },
    {
      "inputs": [
        {
          "internalType": "address",
          "name": "_account",
          "type": "address"
        }
      ],
      "name": "updateUpdater",
      "outputs": [],
      "stateMutability": "nonpayable",
      "type": "function"
    },
    {
      "inputs": [
        {
          "internalType": "address",
          "name": "newImplementation",
          "type": "address"
        },
        {
          "internalType": "bytes",
          "name": "data",
          "type": "bytes"
        }
      ],
      "name": "upgradeToAndCall",
      "outputs": [],
      "stateMutability": "payable",
      "type": "function"
    }
  ],
  "bytecode": "0x60a080604052346100e857306080527ff0c57e16840df040f15088dc2f81fe391c3923bec73e23a9662efc9c229c6a005460ff8160401c166100d9576002600160401b03196001600160401b03821601610073575b604051615fd290816100ed8239608051818181612cde0152612e420152f35b6001600160401b0319166001600160401b039081177ff0c57e16840df040f15088dc2f81fe391c3923bec73e23a9662efc9c229c6a005581527fc7f505b2f371ae2175ee4913f4499e1f2633a7b5936321eed1cdaeb6115181d290602090a15f80610054565b63f92ee8a960e01b5f5260045ffd5b5f80fdfe60806040526004361015610011575f80fd5b5f803560e01c80630207b44e146148e857806304c088e11461474a57806312d43a5114614705578063149941c9146146815780631b827878146145ef5780631b9d032e146145525780631c985568146144235780631cbf099f1461432e5780632008ad3d14613fbc5780632070f37214613edb5780632524081014613e9557806329c04cee14613c015780633058f2f014613ac157806341976e0914613a89578063444bc80b1461308a5780634f1ef28614612dc75780634fdfb08614612d87578063523fba7f14612d3d57806352d1902d14612cc35780636056527f14612a015780636095c514146128c7578063637af51c146128715780636c717edc14611c945780636db31ff114611a595780637bc6729b146119d2578063836bb4bd1461193a5780638cd5b6ea1461187f5780638d6cc56d1461185f57806393f468731461180a578063a440fef914611696578063a505498614611456578063a962ef1e14611389578063ad3cb1cc14611315578063b211ad9b146112e8578063bc07066c146111fb578063c1785c8614610f59578063c1c7a4a614610eaf578063c3bdace814610bf4578063c640081414610990578063c867934a14610934578063cc38e978146108ed578063cf12068514610892578063d19c26de146107f6578063dcf844a7146107a6578063e4bbb5a81461042d5763ec75e08114610214575f80fd5b3461042a57608036600319011261042a5761022d614a41565b602435906001600160a01b0382168092036104265761024a614c7b565b6064359065ffffffffffff821680920361042257610266615456565b84928461038f575b610317916001600160a01b036102e263ffffffff93604051986102908a614b2c565b89528460208a01941684526040890196875260ff60608a01981688526001600160a01b03165f527f58a0c8f0f88cec20fbd92b7b52b0d2d1fcf9b126fb78d3cc170d4a02c5be090160205260405f2090565b9651166001600160a01b03198754161786555116849063ffffffff60a01b1963ffffffff60a01b83549260a01b169116179055565b51907fff00000000000000ffffffffffffffffffffffffffffffffffffffffffffffff7dffffffffffff0000000000000000000000000000000000000000000000007eff0000000000000000000000000000000000000000000000000000000000008554935160f01b169360c01b1691161717905580f35b92506040517f313ce567000000000000000000000000000000000000000000000000000000008152602081600481885afa9081156104175786916103d5575b509261026e565b90506020813d60201161040f575b816103f060209383614bb4565b8101031261040b575160ff8116810361040b576103176103ce565b8580fd5b3d91506103e3565b6040513d88823e3d90fd5b8480fd5b8280fd5b80fd5b503461042a57606036600319011261042a57610447614a41565b602435906001600160a01b038216809203610426576044358015158091036107a2577ff0c57e16840df040f15088dc2f81fe391c3923bec73e23a9662efc9c229c6a00549260ff8460401c1615936001600160401b0381168015908161079a575b6001149081610790575b159081610787575b5061075f5767ffffffffffffffff1981166001177ff0c57e16840df040f15088dc2f81fe391c3923bec73e23a9662efc9c229c6a005584610720575b506040517f76b74d6800000000000000000000000000000000000000000000000000000000815260208160048173__$ca13419e464d83291cf63d5a219ad1f9e5$__5af49081156104175786916106da575b50630186a000936001600160a01b036105b592167f9c66f1d790a72d7f76874ba7fa2b165ee4abccb3cf84621c166cbed5d569b37e8880a2610588615d26565b610590615d26565b610598615d26565b6105a0615d26565b6105a8615d26565b6105b0615d26565b615685565b6105bd615d26565b6105c5615d26565b6001600160a01b03197f251c369f4ebdedc72c1498dbeb9b538f609b170856998c6e34e4ab95eaf533015416177f251c369f4ebdedc72c1498dbeb9b538f609b170856998c6e34e4ab95eaf533015561061c615d26565b60ff683c0000003c000000006001600160601b03195f80516020615fa6833981519152541617911617175f80516020615fa68339815191525561065c5780f35b68ff0000000000000000197ff0c57e16840df040f15088dc2f81fe391c3923bec73e23a9662efc9c229c6a0054167ff0c57e16840df040f15088dc2f81fe391c3923bec73e23a9662efc9c229c6a00557fc7f505b2f371ae2175ee4913f4499e1f2633a7b5936321eed1cdaeb6115181d2602060405160018152a180f35b90506020813d602011610718575b816106f560209383614bb4565b8101031261040b57516001600160a01b038116810361040b57630186a000610548565b3d91506106e8565b68ffffffffffffffffff191668010000000000000001177ff0c57e16840df040f15088dc2f81fe391c3923bec73e23a9662efc9c229c6a00555f6104f6565b6004867ff92ee8a9000000000000000000000000000000000000000000000000000000008152fd5b9050155f6104ba565b303b1591506104b2565b8691506104a8565b8380fd5b503461042a57602036600319011261042a576001600160801b03600660406020936001600160a01b036107d7614a41565b1681525f80516020615f86833981519152855220015416604051908152f35b503461042a57604036600319011261042a576001600160a01b036004604061081c614a41565b9383610826614a57565b9561082f614cea565b501681525f80516020615f86833981519152602052200191165f52602052606061085b60405f206153b0565b6001600160401b0360408051926001600160601b0381511684526001600160601b0360208201511660208501520151166040820152f35b503461042a578060031936011261042a5760805f80516020615fa68339815191525460ff6040519162ffffff8160081c16835263ffffffff8160201c16602084015263ffffffff8160401c1660408401521615156060820152f35b503461042a57602036600319011261042a57600760406020926001600160a01b03610916614a41565b1681525f80516020615f868339815191528452200154604051908152f35b503461042a57602036600319011261042a5760ff60406020926001600160a01b0361095d614a41565b1681527fbb40e86f68fafb11efed99ac959fcf9a51deeafbf5b56a45f87ae418cc6eb30084522054166040519015158152f35b503461042a57606036600319011261042a576109aa614a41565b6109b2614a57565b906109bb614a6d565b5f80516020615f468339815191525c610be55760015f80516020615f468339815191525d6109e76153f4565b6001600160a01b038216918285525f80516020615f868339815191526020526040852092610a148261556b565b908288525f80516020615f66833981519152602052604088209660405193610a3b85614b47565b845260208401906001600160a01b0316815260408401916001600160401b0316825260608401926001600160401b0316835260808401936001600160a01b0387168552604051987f1b0ea4ca000000000000000000000000000000000000000000000000000000008a528860048b015260248a0152516001600160a01b03166044890152516001600160a01b03166064880152516001600160401b03166084870152516001600160401b031660a4860152516001600160a01b031660c4850152838073__$29ff11a0abbb7351a00da9a0441525d706$__5a9260e491602094f4938415610bda578594610b8d575b50610b7560066001600160401b03610b7a96169401610b4c85825460801c614ca2565b81546001600160801b031660809190911b6fffffffffffffffffffffffffffffffff1916179055565b615519565b805f80516020615f468339815191525d80f35b93506020843d602011610bd2575b81610ba860209383614bb4565b8101031261042257610b7560066001600160401b03610bc9610b7a97614cd6565b96505050610b29565b3d9150610b9b565b6040513d87823e3d90fd5b600484633ee5aeb560e01b8152fd5b503461042a5760a036600319011261042a57610c0e614a41565b610c16614a57565b90610c1f614ab0565b606435916001600160601b03831680930361042257608435916001600160a01b03831690818403610eab575f80516020615f468339815191525c610e9c5760015f80516020615f468339815191525d610c766153f4565b6001600160a01b038316958688525f80516020615f868339815191526020526040882095610ca38561556b565b939092898b525f80516020615f6683398151915260205260408b209960405190610ccc82614b62565b815260208101916001600160a01b0316825260408101926001600160601b031683526060810193845260808101946001600160401b0316855260a08101956001600160401b0316865260c081019687526040519a7fd139fcd8000000000000000000000000000000000000000000000000000000008c528a60048d015260248c0152516001600160a01b031660448b0152516001600160a01b031660648a0152516001600160601b03166084890152516001600160601b031660a4880152516001600160401b031660c4870152516001600160401b031660e4860152516001600160a01b0316610104850152838073__$29ff11a0abbb7351a00da9a0441525d706$__5a9261012491604094f48015610bda5785948691610e37575b509260409592610e1392610b756001600160601b036006971696879401610b4c85825460801c614ca2565b5f80516020615f468339815191525d6001600160601b038351921682526020820152f35b9450506040843d604011610e94575b81610e5360409383614bb4565b810103126104225760069260409592610e1392610b756001600160601b03610e866020610e7f8b614c8e565b9a01614c8e565b949750505092509295610de8565b3d9150610e46565b600487633ee5aeb560e01b8152fd5b8680fd5b503461042a57602036600319011261042a5760406060916001600160a01b03610ed6614a41565b610ede614cea565b501681527f9f37cc75d7cdaa7a198c13b92cf96b51104a2ab8d71dd4736b100ec4a2373c00602052206001600160801b0360405191610f1c83614b99565b5460ff6001600160781b0382169384815260406020820191838560781c168352019260801c83526040519485525116602084015251166040820152f35b503461042a57606036600319011261042a57610f73614a41565b610f7b614a57565b90610f84614a6d565b905f80516020615f468339815191525c610be55760015f80516020615f468339815191525d610fb16153f4565b6001600160a01b0381168085525f80516020615f8683398151915260205260408520936040516370a0823160e01b8152306004820152602081602481865afa9081156111f05787916111ad575b506001600160401b03946001600160a01b036001600160601b0394938161102581956155c5565b9561106860068c019761104d6001600160801b036110478b5460801c84614ca2565b166155f6565b98906001600160801b0382549181199060801b169116179055565b808c525f80516020615f6683398151915260205261108960408d20996154ba565b986040519161109783614b47565b82528260208301941684528260408301961686528860608301981688528a608083019a168a526040519b7f2ead04d5000000000000000000000000000000000000000000000000000000008d5260048d015260248c0152511660448a01525116606488015251166084860152511660a4840152511660c482015260208160e48173__$0a26411359100f1c3d514fb8ef6c275fcd$__5af49081156111a2578291611160575b506020915f80516020615f468339815191525d6001600160401b0360405191168152f35b90506020813d60201161119a575b8161117b60209383614bb4565b81010312611196579061118f602092614cd6565b909161113c565b5080fd5b3d915061116e565b6040513d84823e3d90fd5b929190506020833d6020116111e8575b816111ca60209383614bb4565b810103126111e45791519091906001600160401b03610ffe565b5f80fd5b3d91506111bd565b6040513d89823e3d90fd5b503461042a57604036600319011261042a5780611216614a41565b602435906001600160781b0382168092036112e4576001600160a01b039061123c615456565b168083527f9f37cc75d7cdaa7a198c13b92cf96b51104a2ab8d71dd4736b100ec4a2373c00602052604083209073__$ca13419e464d83291cf63d5a219ad1f9e5$__803b1561042257849260649160405195869485937fb09ec2060000000000000000000000000000000000000000000000000000000085526004850152602484015260448301525af480156111a2576112d35750f35b816112dd91614bb4565b61042a5780f35b5050fd5b503461042a578060031936011261042a57602061130430615cc6565b6001600160a01b0360405191168152f35b503461042a578060031936011261042a57604080516113348282614bb4565b60058152602081017f352e302e3000000000000000000000000000000000000000000000000000000081528251938492602084525180928160208601528585015e828201840152601f01601f19168101030190f35b503461042a57602036600319011261042a576001600160a01b036113ab614a41565b6113b3615456565b16806001600160a01b03197f71907d27e7f56436d282b33232af729b796faa4dde12f80868ee08b9116c52015416177f71907d27e7f56436d282b33232af729b796faa4dde12f80868ee08b9116c5201556001600160a01b037f71907d27e7f56436d282b33232af729b796faa4dde12f80868ee08b9116c520054167fb9911e2099e372c216862258dc462bb65da46a2c854536c8b1acae619d0d62ed8380a380f35b503461042a5761146536614bf0565b919390925f80516020615f468339815191525c6116875760015f80516020615f468339815191525d6114956153f4565b6001600160a01b038716918289525f80516020615f868339815191526020526040892096838a525f80516020615f6683398151915260205260408a20986114db906154ba565b93604051906114e982614b11565b815260208101911515825260408101926001600160601b0316835260608101936001600160a01b0316845260808101946001600160401b0316855260a08101956001600160a01b03168652604051998a997f7db569e8000000000000000000000000000000000000000000000000000000008b5260048b015260248a0152516001600160a01b031660448901525115156064880152516001600160601b03166084870152516001600160a01b031660a4860152516001600160401b031660c4850152516001600160a01b031660e4840152610104830161012090526101248301906115d392615390565b038173__$ca13419e464d83291cf63d5a219ad1f9e5$__91815a93604094f480156111a25782918391611633575b506001600160601b03906040935f80516020615f468339815191525d6001600160401b03845193168352166020820152f35b9150506040813d60401161167f575b8161164f60409383614bb4565b81010312611196576001600160601b03604092611677602061167085614cd6565b9401614c8e565b915092611601565b3d9150611642565b600488633ee5aeb560e01b8152fd5b503461042a57602036600319011261042a576116b0614a41565b5f80516020615f468339815191525c6117fb5760015f80516020615f468339815191525d6001600160a01b038116908183525f80516020615f868339815191526020528260066040822001916117276001600160801b03845416936001600160801b03198154168155610b4c85825460801c614ca2565b61175d836001600160a01b037f251c369f4ebdedc72c1498dbeb9b538f609b170856998c6e34e4ab95eaf5330154168093615519565b803b15611196578180916024604051809481937ff340fa010000000000000000000000000000000000000000000000000000000083528960048401525af180156111a2576117e6575b505060207f468e518bab7f6a5d2a4d71ee8fdaa4850abd9c2ece940d0423f37121bf246b7791604051908152a2805f80516020615f468339815191525d80f35b816117f091614bb4565b61042657825f6117a6565b600482633ee5aeb560e01b8152fd5b503461042a57602036600319011261042a576001600160781b03600260406020936001600160a01b0361183b614a41565b1681525f80516020615f66833981519152855220015460401c161515604051908152f35b503461042a57602036600319011261042a5761187c600435614d08565b80f35b503461042a57608036600319011261042a5760043562ffffff811681036111965760243563ffffffff81168103610426576118b8614c7b565b60643590811515809203610422576bffffffff000000000000000067ffffffff00000000926118e5615456565b63ffffff005f80516020615fa6833981519152549660081b169560ff63ffffff00199216906bffffffffffffffff000000ff191617169160401b16179160201b1617175f80516020615fa68339815191525580f35b503461042a57602036600319011261042a57600360406060926001600160a01b03611963614a41565b61196b614cea565b501681525f80516020615f8683398151915260205220016001600160401b036040519161199783614b99565b546001600160801b0382821693848152604060208201918385831c168352019260c01c83526040519485525116602084015251166040820152f35b503461042a578060031936011261042a577f71907d27e7f56436d282b33232af729b796faa4dde12f80868ee08b9116c5201546001600160a01b0381163303611a4a576001600160a01b0319167f71907d27e7f56436d282b33232af729b796faa4dde12f80868ee08b9116c52015561187c33615685565b600482631dd2188d60e31b8152fd5b503461042a5761024036600319011261042a5780611a75614a41565b610220366023190112611c9157611a8a615456565b73__$a1f2ab01d928b132890dcf6bf514391fc1$__803b156112e4576001600160a01b03604051927fc87a24890000000000000000000000000000000000000000000000000000000084525f80516020615f66833981519152600485015216602483015260243562ffffff8116809103611c8c57604483015260443562ffffff8116809103611c8c57606483015260643562ffffff8116809103611c8c57608483015260843562ffffff8116809103611c8c5760a483015260a43560ff8116809103611c8c5760c483015260c43560ff8116809103611c8c5760e483015260e4356001600160781b038116809103611c8c576101048301526101043562ffffff8116809103611c8c576101248301526101243562ffffff8116809103611c8c576101448301526101443562ffffff8116809103611c8c57610164830152610164356001600160401b038116809103611c8c576101848301526101843562ffffff8116809103611c8c576101a48301526101a43562ffffff8116809103611c8c576101c48301526101c4356001600160401b038116809103611c8c576101e48301526101e435801515809103611c8c57610204830152610204356001600160401b038116809103611c8c57610224830152610224356001600160781b038116809103611c8c5761026483859381936102448301525af480156111a2576112d35750f35b505050fd5b50fd5b503461042a57611ca336614bf0565b909692919395945f80516020615f468339815191525c610be55760015f80516020615f468339815191525d611cd66153f4565b6001600160a01b038616928385525f80516020615f8683398151915260205260408520978486525f80516020615f668339815191526020526001600160401b03611d5460408820996001600160a01b03165f527f58a0c8f0f88cec20fbd92b7b52b0d2d1fcf9b126fb78d3cc170d4a02c5be090260205260405f2090565b5460601c1692831561286257916001600160601b036001600160a01b0395949392869360405198611d848a614b11565b89521515602089015216604087015216606085015260808401521660a08201528194611de081546001600160401b0360018401541660405191611dc683614b2c565b600283528660208401526040830152606082015286615bbd565b60208401519098919790156128085750629896806bffffffffffffffffffffffff60601b604085015160601b160296611e3b611e36885499629896808c0262ffffff8c60481c16629896800160601b0190615647565b6155f6565b91611e84611e7f6001600160601b036040880151169a60ff806001600160401b0360808b0151169260681c1660040116600a0a906001600160601b03871602615647565b615489565b965b6001600160601b038416156127e0576001600160401b0360028a015416986001600160401b0360038701541699806001600160401b038b168c01116127a3575060028601548060801c6001600160601b03871611612768576001600160801b036298968081831662ffffff600186015460701c1602041690816001600160801b036001600160601b0389168360801c03161061272a5750506001600160a01b038751168886886001600160401b0360808c015116600282015490600183015460c01c855f146125d257611ff6856001606096611fd56001600160801b0361207c9d9c9b98611fad6001600160401b03996001600160601b03998a7f0812f6a295cc8a7a815c1d8ed846754c88804a4813bf46ef1291617660decfac9f16908460801c615b67565b978896169060801c011660028301906001600160801b0382549181199060801b169116179055565b01906001600160c01b036001600160c01b031983549260c01b169116179055565b604051926001600160601b038d1684526020840152166040820152a25b6001600160a01b03885116906001600160401b0360808a0151169054906040519261203d84614b62565b83526001600160601b038816602084015280604084015260608301526001608083015262ffffff8160481c1660a083015260e81c60c082015286615a0c565b6020870151909b90156125b557506001600160601b038b81868160408b01511603160316915b6120b7836001600160a01b0389511688615952565b60208701511561259a575b6001600160a01b036120d330615cc6565b166001600160a01b0360a08901511690803b15612596578a60446001600160401b03938c809460405196879586947f40c10f1900000000000000000000000000000000000000000000000000000000865260048601521660248401525af180156125725790899161257d575b50509060249160206001600160a01b03895116604051948580926370a0823160e01b82523060048301525afa92831561257257899361253e575b506001600160a01b03606089015116916001600160a01b0389511691833b1561253a57928d8b80946122078f97956001600160601b03966001600160401b036040519a8b998a9889977f622d15170000000000000000000000000000000000000000000000000000000089526004890152166024870152166044850152608060648501526084840191615390565b03925af1801561251a57908891612525575b505060249060206001600160a01b03885116604051938480926370a0823160e01b82523060048301525afa91821561251a5788926124e6575b5081039081116124d25761226d6001600160601b03916155f6565b16986001600160601b0381168a10612499575091839185949360068695018b815460801c9061229b91615627565b81546001600160801b031660809190911b6fffffffffffffffffffffffffffffffff1916179055600384015460808601516122fb906001600160401b03166001600160601b03861660c084901c6001600160801b03604086901c16615b67565b6003860180546001600160c01b0319166001600160401b038d8116909e01909d169c909c176001600160801b03604093841c166001600160601b0387160190921b77ffffffffffffffffffffffffffffffff00000000000000001691909117909a556003840180546001600160c01b031660c08c901b6001600160c01b0319161790558260601b6bffffffffffffffffffffffff60601b1691885f149c6001600160401b03809c60409f60806001600160a01b0360a0817f5d02f71d9af1dbdc969ef1e9c4e4d8d9346e8ed161f03f0b144f2996b85ca7779d7fa83f0e4ee4d8344c58131823c4129b19e2008563444fb262bd847b215e09ed9560e09e6001600160601b039d8e9c8b996124925701905b835182825560019091018054428b168b19909116179055604080519186166001600160a01b031682526020820192909252a151169d0151169c0151166040859051981688526020880152168e8601528c60608601528b8b1660808601521660a08401521660c0820152a35f80516020615f468339815191525d8351928352166020820152f35b039061240c565b866001600160601b036044928c7f9c01a0d800000000000000000000000000000000000000000000000000000000845260045216602452fd5b602487634e487b7160e01b81526011600452fd5b9091506020813d602011612512575b8161250260209383614bb4565b810103126111e45751905f612252565b3d91506124f5565b6040513d8a823e3d90fd5b8161252f91614bb4565b610eab57865f612219565b8a80fd5b9092506020813d60201161256a575b8161255a60209383614bb4565b810103126111e45751915f612179565b3d915061254d565b6040513d8b823e3d90fd5b8161258791614bb4565b61259257875f61213f565b8780fd5b8980fd5b99506125af826125aa8d87615665565b615665565b996120c2565b611e366125cc916001600160601b03871690615dda565b916120a2565b9350915092506001600160401b03811682816001600160401b038216105f1461270557612615926001600160601b038c169190036001600160401b031602615d7d565b5f03915b5f836001600160801b03831601126126ce57827f0812f6a295cc8a7a815c1d8ed846754c88804a4813bf46ef1291617660decfac926126ac8c60026001600160801b03868f6001600160601b03908361267c61207c9f9e9d8260609d16016155c5565b16841986880154161785870155169060801c03169101906001600160801b0382549181199060801b169116179055565b604051916001600160601b038c165f03835260208301526040820152a2612013565b6001600160801b0391507fa8ce4432000000000000000000000000000000000000000000000000000000005f52160160045260245ffd5b612724926001600160601b038c1691036001600160401b031602615647565b91612619565b7f60c83b31000000000000000000000000000000000000000000000000000000008a5260801c6004526001600160601b038616602452604452606488fd5b7ff2c5e6430000000000000000000000000000000000000000000000000000000089526001600160601b03861660045260801c602452604488fd5b886001600160401b038b8d6064947fb365b1ad00000000000000000000000000000000000000000000000000000000855260045260245216604452fd5b6004877f0ffd11ad000000000000000000000000000000000000000000000000000000008152fd5b966128226001600160601b03604086989498015116615489565b9561285c611e366001600160601b036040880151166001600160401b036080890151169060ff808d5460681c1660040116600a0a02615647565b92611e86565b6004876321c4e35760e21b8152fd5b503461042a57602036600319011261042a5761288b614a41565b612893615456565b6001600160601b035f80516020615fa6833981519152549181199060601b169116175f80516020615fa68339815191525580f35b503461042a57604036600319011261042a576128e1614a41565b6128e9614a57565b9160206001600160a01b03831692612900846153e8565b6129086153f4565b8383527f9f37cc75d7cdaa7a198c13b92cf96b51104a2ab8d71dd4736b100ec4a2373c008252604080842090517f1f3bcc1300000000000000000000000000000000000000000000000000000000815260048101919091526001600160a01b039182166024820152941660448501528360648173__$ca13419e464d83291cf63d5a219ad1f9e5$__5af49182156129f45781926129b6575b602093505d6001600160401b0360405191168152f35b9150916020813d6020116129ec575b816129d260209383614bb4565b8101031261042657916129e6602093614cd6565b916129a0565b3d91506129c5565b50604051903d90823e3d90fd5b503461042a57602036600319011261042a576040610220916001600160a01b03612a29614a41565b826102008551612a3881614b7d565b82815282602082015282878201528260608201528260808201528260a08201528260c08201528260e08201528261010082015282610120820152826101408201528261016082015282610180820152826101a0820152826101c0820152826101e082015201521681525f80516020615f66833981519152602052206001600160781b03610200604051612aca81614b7d565b82600285549562ffffff8716845262ffffff8760181c16602085015262ffffff8760301c16604085015262ffffff8760481c16606085015260ff8760601c16608085015260ff8760681c1660a0850152828760701c1660c08501528660e81c60e085015260ff600182015462ffffff811661010087015262ffffff8160181c166101208701526001600160401b038160301c1661014087015262ffffff8160701c1661016087015262ffffff8160881c166101808701526001600160401b038160a01c166101a087015260e01c1615156101c085015201546001600160401b0381166101e084015260401c168282015262ffffff6040519416845262ffffff602082015116602085015262ffffff604082015116604085015262ffffff606082015116606085015260ff608082015116608085015260ff60a08201511660a08501528260c08201511660c085015262ffffff60e08201511660e085015262ffffff6101008201511661010085015262ffffff610120820151166101208501526001600160401b036101408201511661014085015262ffffff6101608201511661016085015262ffffff610180820151166101808501526001600160401b036101a0820151166101a08501526101c081015115156101c08501526001600160401b036101e0820151166101e0850152015116610200820152f35b503461042a578060031936011261042a576001600160a01b037f0000000000000000000000000000000000000000000000000000000000000000163003612d2e5760206040517f360894a13ba1a3210667c828492db98dca3e2076cc3735a920a3ca505d382bbc8152f35b8063703e46dd60e11b60049252fd5b503461042a57602036600319011261042a57600660406020926001600160a01b03612d66614a41565b1681525f80516020615f86833981519152845220015460801c604051908152f35b503461042a57602036600319011261042a576020612da3614a41565b5f80516020615fa68339815191525460601c6001600160a01b036040519216148152f35b50604036600319011261042a57612ddc614a41565b602435906001600160401b03821161042657366023830112156104265781600401359083612e0983614bd5565b93612e176040519586614bb4565b8385526020850193366024828401011161042657806024602093018637850101526001600160a01b037f000000000000000000000000000000000000000000000000000000000000000016803014908115613055575b5061304657612e7a615456565b6001600160a01b038116926040517f52d1902d000000000000000000000000000000000000000000000000000000008152602081600481885afa869181613012575b50612ed45760248686634c9c8ce360e01b8252600452fd5b93847f360894a13ba1a3210667c828492db98dca3e2076cc3735a920a3ca505d382bbc879603612fe75750823b15612fd557908185926001600160a01b03197f360894a13ba1a3210667c828492db98dca3e2076cc3735a920a3ca505d382bbc5416177f360894a13ba1a3210667c828492db98dca3e2076cc3735a920a3ca505d382bbc557fbc7cd75a20ee27fd9adebab32041f755214dbc6bffa90cc0225b39da2e5c2d3b8380a2805115612fa157612f9d9382915190845af4612f97615dab565b91615e0c565b5080f35b5050505034612fad5780f35b807fb398979f0000000000000000000000000000000000000000000000000000000060049252fd5b634c9c8ce360e01b8552600452602484fd5b7faa1d49a4000000000000000000000000000000000000000000000000000000008652600452602485fd5b9091506020813d60201161303e575b8161302e60209383614bb4565b81010312610eab5751905f612ebc565b3d9150613021565b60048463703e46dd60e11b8152fd5b90506001600160a01b037f360894a13ba1a3210667c828492db98dca3e2076cc3735a920a3ca505d382bbc541614155f612e6d565b503461042a57606036600319011261042a576130a4614a41565b906130ad614a57565b906130b6614ab0565b925f80516020615f468339815191525c6117fb5760015f80516020615f468339815191525d6130e36153f4565b6001600160a01b038116928383525f80516020615f8683398151915260205260408320916040516370a0823160e01b8152306004820152602081602481895afa908115610bda578591613a50575b506001600160a01b036001600160601b036131c3988161319d61315b6001600160401b03966155c5565b9661319860068b019861317d6001600160801b036110478c5460801c84614ca2565b99906001600160801b0382549181199060801b169116179055565b61556b565b9490978b8b525f80516020615f6683398151915260205260408b209b6040519d8e614b11565b8d5216958660208d01521660408b01521660608901528160808901941684521660a08701526001600160a01b038491165f526004830160205260405f209261320a846153b0565b9060208201966001600160601b03885116156139b7575b8692896001600160601b038a5116936001600160601b0360608301511690816135f7575b5050906001600160401b0360406001600160601b03808084968185818951169201511601991699169c5116920151168b8360a06001600160601b03606084015116920151169280155f146135ce57505050955b5116604051936132a785614b47565b898601810385526001600160601b038416918260208701526001600160401b03881695866040820152606081019180835260808201908c825261331e629896806001600160401b0360018a549a015460a01c1692026001600160401b0362ffffff8a60481c1662ffffff8b1601168b890202615d7d565b01928c6001600160601b036020850151166001600160401b038060408701511693511691508183115f146135b4576001600160401b038261336194031602615d7d565b8c035b8c81126135a8575b505161355857518a811380159061354e575b613520575050613393905b8a870190036155f6565b916001600160601b0360608c0151166134ce575b50509260e092602099926001600160601b037f69a76d4ceb4ba52dcf5c9718b2b8338026e1454f52793559604d20e8f6109085961696885498886001600160601b03198b161781556001600160601b0360608701511699898b61347d575b50505050506001600160a01b03835116956001600160a01b038b85015116976001600160401b0360a06001600160601b0360408801511696015116916040519586528c86015260408501526060840152608083015260a08201528660c0820152a35f80516020615f468339815191525d604051908152f35b6001600160c01b03196bffffffffffffffffffffffff60601b6134c49660601b16921617178155906001600160c01b036001600160c01b031983549260c01b169116179055565b5f80808089613405565b60ff9060601c16906001600160601b03831681838202106134ef57506133a7565b7f60eef1bd000000000000000000000000000000000000000000000000000000008a52600452602452604452606487fd5b7fc37a506f000000000000000000000000000000000000000000000000000000008b52600452602452604489fd5b508082101561337e565b518a81138061359f575b61357157505061339390613389565b7fc03f6b78000000000000000000000000000000000000000000000000000000008b52600452602452604489fd5b50808210613562565b8c03909201915f61336c565b6001600160401b036135c99383031602615647565b613364565b816135dd575050905095613298565b6135f09285948383019302910201615d7d565b1695613298565b9550955090919250516001600160a01b03169383549460018501546001600160401b03166040519661362888614b2c565b6001885260208801938452604088015260608701526136478685615bbd565b839193516001600160601b031661365d91615dda565b613666906155f6565b965160ff16905160601b6bffffffffffffffffffffffff60601b166bffffffffffffffffffffffff60601b16906001145f14927fa83f0e4ee4d8344c58131823c4129b19e2008563444fb262bd847b215e09ed95936139b05701905b81865560018601805467ffffffffffffffff1916426001600160401b0316179055604080516001600160a01b039290921682526020820192909252a1613713846001600160a01b038b511685615952565b6001600160601b03885116926001600160601b0360608b015116906002810154946001600160801b038616838760801c0111613972578261375491016155f6565b6298968062ffffff865460181c166001600160801b03881602046001600160601b03821681811161394457505060406001600160601b0380808f999897956001600160401b03978f918c62ffffff8c613938958d9b9f6138136137cd8a6060880151166001600160801b0360018a015460401c16615627565b600188019077ffffffffffffffffffffffffffffffff00000000000000001977ffffffffffffffffffffffffffffffff000000000000000083549260401b169116179055565b857f0812f6a295cc8a7a815c1d8ed846754c88804a4813bf46ef1291617660decfac60608f61388b90896138ae8860016001600160a01b03845116986001600160601b036001600160801b03611fd5918a8960a08a0151169801511698899788600286015460801c978787015460c01c905088615b67565b968795011660028301906001600160801b0382549181199060801b169116179055565b604051928352876020840152166040820152a26139006001600160801b036001600160a01b03875116988f60a08d60608b015116990151169360801c01166001600160801b03600289015416856159a9565b925460e81c948c519761391289614b62565b88526020880152808c880152606087015260808601521660a084015260c0830152615a0c565b99959650505050613245565b7f66705ff7000000000000000000000000000000000000000000000000000000008c5260045260245260448afd5b60448a6001600160801b0388867f4ef1e4d80000000000000000000000000000000000000000000000000000000084528160801c0160045216602452fd5b03906136c2565b6001600160601b0360608a01511615613a17576001600160601b0360408a0151166001600160401b03600183015460301c161115613221576004877f41c092a9000000000000000000000000000000000000000000000000000000008152fd5b6024876001600160a01b0360208c0151167f1866aff2000000000000000000000000000000000000000000000000000000008252600452fd5b90506020813d602011613a81575b81613a6b60209383614bb4565b810103126111e457516001600160a01b03613131565b3d9150613a5e565b503461042a57602036600319011261042a5760406001600160401b03613ab0613198614a41565b835191831682529091166020820152f35b503461042a57606036600319011261042a57613adb614a41565b613ae3614a57565b90604435916001600160801b03831691828403610422575f80516020615f468339815191525c613bf25760015f80516020615f468339815191525d613b26615456565b6001600160a01b0381168086525f80516020615f8683398151915260205285604081209173__$6633ebe8291297d9afa6dd52cba1e90df9$__90813b156104265782906084604051809481937f9fd4a2c900000000000000000000000000000000000000000000000000000000835288600484015260248301528a60448301526001600160a01b038a1660648301525af480156111a257613bdd575b5050610b7a94610b4c6006610b75930191825460801c614ca2565b81613be791614bb4565b61040b57855f613bc2565b600485633ee5aeb560e01b8152fd5b503461042a57606036600319011261042a57613c1b614a41565b613c23614a57565b90613c2c614a6d565b905f80516020615f468339815191525c610be55760015f80516020615f468339815191525d613c596153f4565b6001600160a01b0381168085525f80516020615f868339815191526020526024604086209460206001600160a01b036055600b6040517ff7ee18f8779e8a47b9fee2bf37816783fe8615833733cf03cc48cd8fc3e3128b604082015287858201523081520160ff81532016604051938480926370a0823160e01b82523060048301525afa9182156111f0578792613e5a575b506001600160401b03613cfe8193615489565b6001600160a01b03613d0f876154ba565b9360405196613d1d88614b47565b8752816020880191168152816040880191818b1683528560608a01951685528560808a019716875281604051997f8a73c277000000000000000000000000000000000000000000000000000000008b528d60048c0152511660248a0152511660448801525116606486015251166084840152511660a482015260208160c48173__$0a26411359100f1c3d514fb8ef6c275fcd$__5af4908115610bda578591613e02575b6020600687613deb888888610b756001600160601b038a1696879401610b4c85825460801c614ca2565b5f80516020615f468339815191525d604051908152f35b90506020813d602011613e52575b81613e1d60209383614bb4565b81010312610422579260209492613deb92610b756001600160601b03613e44600698614c8e565b949750505092509294613dc1565b3d9150613e10565b91506020823d602011613e8d575b81613e7560209383614bb4565b810103126111e4579051906001600160401b03613ceb565b3d9150613e68565b503461042a578060031936011261042a5760206001600160a01b037f71907d27e7f56436d282b33232af729b796faa4dde12f80868ee08b9116c52015416604051908152f35b503461042a57602036600319011261042a57613f51608091613efb614a41565b906060604051613f0a81614b2c565b82815282602082015282604082015201526001600160a01b03165f527f58a0c8f0f88cec20fbd92b7b52b0d2d1fcf9b126fb78d3cc170d4a02c5be090160205260405f2090565b60ff60405191613f6083614b2c565b5465ffffffffffff6001600160a01b0382169384815263ffffffff60208201818560a01c1681528560606040850194868860c01c168652019560f01c168552604051968752511660208601525116604084015251166060820152f35b50346111e4576102603660031901126111e457613fd7614a41565b6024356001600160401b0381116111e457613ff6903690600401614a83565b6102203660431901126111e45761400b615456565b73__$a1f2ab01d928b132890dcf6bf514391fc1$__92833b156111e4576001600160a01b03604051917faf34626a0000000000000000000000000000000000000000000000000000000083525f80516020615f668339815191526004840152169384602483015260443562ffffff81168091036111e457604483015260643562ffffff81168091036111e457606483015260843562ffffff81168091036111e457608483015260a43562ffffff81168091036111e45760a483015260c43560ff81168091036111e45760c483015260e43560ff81168091036111e45760e4830152610104356001600160781b0381168091036111e4576101048301526101243562ffffff81168091036111e4576101248301526101443562ffffff81168091036111e4576101448301526101643562ffffff81168091036111e457610164830152610184356001600160401b0381168091036111e4576101848301526101a43562ffffff81168091036111e4576101a48301526101c43562ffffff81168091036111e4576101c48301526101e4356001600160401b0381168091036111e4576101e4830152610204358015158091036111e457610204830152610224356001600160401b0381168091036111e457610224830152610244356001600160781b0381168091036111e457610264835f9381936102448301525af4801561432357614306575b506142599160209160405193849283927f4d24510b000000000000000000000000000000000000000000000000000000008452876004850152604060248501526044840191615390565b038173__$0a26411359100f1c3d514fb8ef6c275fcd$__5af480156142fb5783906142b2575b6001600160a01b03915016907f568e18da806eb397f2d086fde9b2755e7281e9b6e258af09494db3fea007e3678380a380f35b506020813d6020116142f3575b816142cc60209383614bb4565b8101031261042657516001600160a01b0381168103610426576001600160a01b039061427f565b3d91506142bf565b6040513d85823e3d90fd5b6020919450916143195f61425994614bb4565b5f9491509161420f565b6040513d5f823e3d90fd5b346111e45760203660031901126111e4576001600160a01b0361434f614a41565b5f60a060405161435e81614b11565b8281528260208201528260408201528260608201528260808201520152165f525f80516020615f8683398151915260205260c060405f206001600160801b03604051916143aa83614b11565b818154938481526001600160401b03600184015483602084019583831687528360026040870192848660401c16845260608801958d1c865201549760a06080880197858b168952019860801c89526040519a8b52511660208a0152511660408801525116606086015251166080840152511660a0820152f35b346111e45760403660031901126111e45761443c614a41565b614444614a57565b9060206001600160a01b0382169161445b836153e8565b6144636153f4565b5f8381527f9f37cc75d7cdaa7a198c13b92cf96b51104a2ab8d71dd4736b100ec4a2373c00835260409081902090517f9677e98700000000000000000000000000000000000000000000000000000000815260048101919091526001600160a01b039182166024820152931660448401528260648173__$ca13419e464d83291cf63d5a219ad1f9e5$__5af4918215614323575f92614514575b6020835f845d6001600160601b0360405191168152f35b91506020823d60201161454a575b8161452f60209383614bb4565b810103126111e4575f614543602093614c8e565b92506144fd565b3d9150614522565b346111e45760403660031901126111e45761456b614a41565b602435908115158092036111e45760206001600160a01b037fbfebfd5a55fc68dcbd39a328466866d2b3ef72f193acc678ff4463762c5323d0926145ad615456565b1692835f527fbb40e86f68fafb11efed99ac959fcf9a51deeafbf5b56a45f87ae418cc6eb300825260405f2060ff1981541660ff8316179055604051908152a2005b346111e45760803660031901126111e45761467f61460b614a41565b614613614a57565b906001600160a01b03614624614a6d565b61462c6153f4565b81604051947f23b872dd00000000000000000000000000000000000000000000000000000000602087015216602485015216604483015260643560648301526064825261467a608483614bb4565b6158c4565b005b346111e45760203660031901126111e4576001600160a01b036146a2614a41565b5f60206040516146b181614af6565b8281520152165f525f80516020615f8683398151915260205260406005815f20016001600160801b038251916146e683614af6565b54602082821693848152019060801c8152835192835251166020820152f35b346111e4575f3660031901126111e45760206001600160a01b037f71907d27e7f56436d282b33232af729b796faa4dde12f80868ee08b9116c52005416604051908152f35b346111e45760203660031901126111e457614763614a41565b60405161476f81614ac6565b5f8152602081015f9052604081015f9052606081015f9052608081015f905260a081015f905260c081015f905260e0015f90526147dc906001600160a01b03165f527f58a0c8f0f88cec20fbd92b7b52b0d2d1fcf9b126fb78d3cc170d4a02c5be090260205260405f2090565b604051906147e982614ac6565b80549163ffffffff83169283825260208201908060201c6001600160401b0316825260408301938160601c6001600160401b0316855260608401908260a01c63ffffffff168252608085019260c01c8352600101549460a08501936001600160401b038716855260c08601958760401c6001600160401b0316875260e0019660801c6001600160401b03168752604051978852516001600160401b03166020880152516001600160401b031660408701525163ffffffff166060860152516001600160401b03166080850152516001600160401b031660a0840152516001600160401b031660c0830152516001600160401b031660e082015261010090f35b346111e45760603660031901126111e457614901614a41565b614909614a57565b90614912614a6d565b5f80516020615f468339815191525c614a32576001600160a01b0380809360015f80516020615f468339815191525d6149496153f4565b1693845f525f80516020615f8683398151915260205260405f2094604051957f2dba12a30000000000000000000000000000000000000000000000000000000087526004870152602486015216604484015216606482015260208160848173__$ca13419e464d83291cf63d5a219ad1f9e5$__5af48015614323575f906149ef575b6020905f5f80516020615f468339815191525d6001600160801b0360405191168152f35b506020813d602011614a2a575b81614a0960209383614bb4565b810103126111e457516001600160801b03811681036111e4576020906149cb565b3d91506149fc565b633ee5aeb560e01b5f5260045ffd5b600435906001600160a01b03821682036111e457565b602435906001600160a01b03821682036111e457565b604435906001600160a01b03821682036111e457565b9181601f840112156111e4578235916001600160401b0383116111e457602083818601950101116111e457565b604435906001600160601b03821682036111e457565b61010081019081106001600160401b03821117614ae257604052565b634e487b7160e01b5f52604160045260245ffd5b604081019081106001600160401b03821117614ae257604052565b60c081019081106001600160401b03821117614ae257604052565b608081019081106001600160401b03821117614ae257604052565b60a081019081106001600160401b03821117614ae257604052565b60e081019081106001600160401b03821117614ae257604052565b61022081019081106001600160401b03821117614ae257604052565b606081019081106001600160401b03821117614ae257604052565b90601f801991011681019081106001600160401b03821117614ae257604052565b6001600160401b038111614ae257601f01601f191660200190565b60c06003198201126111e4576004356001600160a01b03811681036111e4579160243580151581036111e457916044356001600160601b03811681036111e457916064356001600160a01b03811681036111e45791608435906001600160401b0382116111e457614c6391600401614a83565b909160a4356001600160a01b03811681036111e45790565b6044359063ffffffff821682036111e457565b51906001600160601b03821682036111e457565b906001600160801b03809116911603906001600160801b038211614cc257565b634e487b7160e01b5f52601160045260245ffd5b51906001600160401b03821682036111e457565b60405190614cf782614b99565b5f6040838281528260208201520152565b5f80516020615fa6833981519152548060601c3303615381576001600160a01b03821691614d8b6001600160401b038260a01c169163ffffffff614d7c866001600160a01b03165f527f58a0c8f0f88cec20fbd92b7b52b0d2d1fcf9b126fb78d3cc170d4a02c5be090260205260405f2090565b9460401c169060e01c84615709565b1561537c57614dca836001600160a01b03165f527f58a0c8f0f88cec20fbd92b7b52b0d2d1fcf9b126fb78d3cc170d4a02c5be090160205260405f2090565b9060405191614dd883614b2c565b546001600160a01b03811692838152602081019063ffffffff8360a01c168252604081019465ffffffffffff8460c01c16865260ff606083019460f01c168452156152a8579060a06001600160a01b03600494935116604051948580927ffeaf968c0000000000000000000000000000000000000000000000000000000082525afa908115614323575f935f92615252575b505f841315615226575163ffffffff1690816151e0575b5050805160ff16600a81106151aa5750614ebd91614eb760ff611e7f93511680600a0390600a8111906009190182180218615793565b90615647565b9183549385600182019283549060405194614ed786614b47565b8860a01c63ffffffff168652602086019860c01c8952604086016001600160401b038416815260608701928460401c6001600160401b03168452608088019460801c6001600160401b031685525165ffffffffffff165f80516020615fa68339815191525460201c63ffffffff16614f51918b8b8b6157c1565b9651865463ffffffff60a01b191660a09190911b63ffffffff60a01b1617865595988996905186546001600160c01b031660c09190911b6001600160c01b031916178655516001600160401b0316916001600160401b0383166001600160401b03198354161782555181549351938460801b77ffffffffffffffff00000000000000000000000000000000169160401b6fffffffffffffffff0000000000000000169077ffffffffffffffffffffffffffffffff00000000000000001916171790557f885a0818141ce0dc05b68893bef27a6a46437e39a53f794610509d262556872f9761515a575b50505062ffffff5f80516020615fa68339815191525460081c169383928495811561513e575b50615105575b50805473ffffffffffffffff0000000000000000000000001916606085901b73ffffffffffffffff0000000000000000000000001617815561510091906150d49082905b906bffffffffffffffff0000000082549160201b16906bffffffffffffffff000000001916179055565b604051938493849160409194936001600160401b03809281606087019816865216602085015216910152565b0390a2565b90936001600160401b03821684111561512d5750906150d48161510093955b92509250615066565b9361510092506150d4908290615124565b90506001600160401b036151528387615c9b565b16115f615060565b7f3ea4c6a143038c806f36788fc874be45b4565473dfafe3a7970459c36a9eee5f916080916001600160401b0360405192898452818b1660208501521660408301526060820152a2855f8061503a565b6151c6915080600a0390600a8111906009190182180218615793565b90818102918183041490151715614cc257614ebd90615489565b42810390804211904203821802189081116151fb5780614e81565b7fb30a685a000000000000000000000000000000000000000000000000000000005f5260045260245ffd5b837f85a20608000000000000000000000000000000000000000000000000000000005f5260045260245ffd5b9350905060a0833d60a0116152a0575b8161526f60a09383614bb4565b810103126111e4576152808361577c565b50602083015161529760806060860151950161577c565b5092905f614e6a565b3d9150615262565b50505091905060ff5f80516020615fa683398151915254161561535457805473ffffffffffffffff0000000000000000000000001916606083901b73ffffffffffffffff000000000000000000000000161781557f885a0818141ce0dc05b68893bef27a6a46437e39a53f794610509d262556872f916151009161532d9082906150aa565b604080516001600160401b0390921680835260208301819052908201529081906060820190565b7f42adce3f000000000000000000000000000000000000000000000000000000005f5260045ffd5b505050565b631dd2188d60e31b5f5260045ffd5b908060209392818452848401375f828201840152601f01601f1916010190565b906040516153bd81614b99565b60408193546001600160601b03811683526001600160601b038160601c16602084015260c01c910152565b805c614a32576001905d565b335f527fbb40e86f68fafb11efed99ac959fcf9a51deeafbf5b56a45f87ae418cc6eb30060205260ff60405f2054161561542a57565b7fa02ef12a000000000000000000000000000000000000000000000000000000005f523360045260245ffd5b6001600160a01b037f71907d27e7f56436d282b33232af729b796faa4dde12f80868ee08b9116c52005416330361538157565b6001600160401b0381116154a3576001600160401b031690565b6306dfcc6560e41b5f52604060045260245260445ffd5b6154fc6001600160401b03916001600160a01b03165f527f58a0c8f0f88cec20fbd92b7b52b0d2d1fcf9b126fb78d3cc170d4a02c5be090260205260405f2090565b5460201c1690811561550a57565b6321c4e35760e21b5f5260045ffd5b615569926001600160a01b03604051937fa9059cbb00000000000000000000000000000000000000000000000000000000602086015216602484015260448301526044825261467a606483614bb4565b565b6155a5906001600160a01b03165f527f58a0c8f0f88cec20fbd92b7b52b0d2d1fcf9b126fb78d3cc170d4a02c5be090260205260405f2090565b54906001600160401b03808360601c169260201c16908183171561550a57565b6001600160801b0381116155df576001600160801b031690565b6306dfcc6560e41b5f52608060045260245260445ffd5b6001600160601b038111615610576001600160601b031690565b6306dfcc6560e41b5f52606060045260245260445ffd5b906001600160801b03809116911601906001600160801b038211614cc257565b8115615651570490565b634e487b7160e01b5f52601260045260245ffd5b906001600160601b03809116911601906001600160601b038211614cc257565b6001600160a01b03807f71907d27e7f56436d282b33232af729b796faa4dde12f80868ee08b9116c520054921691826001600160a01b03198216177f71907d27e7f56436d282b33232af729b796faa4dde12f80868ee08b9116c520055167f3d1e4c3a68fed9f4f8315582b7297cf8fa264bc8e6704287603ba8c72bf05ac25f80a3565b919063ffffffff835491169163ffffffff82168311156157745763ffffffff164201804211614cc2578210156157485763ffffffff1916179055600190565b507fcfb02981000000000000000000000000000000000000000000000000000000005f5260045260245ffd5b505050505f90565b519069ffffffffffffffffffff821682036111e457565b604d8111614cc257600a0a90565b906001600160401b03809116911601906001600160401b038211614cc257565b91929063ffffffff6157d6815f971642615647565b169363ffffffff84511685036158965760208401906157ff6001600160401b0383511682615c9b565b9360608601946001600160401b0361581a8188511687615c9b565b918161582d60408b0192828451166157a1565b1681528161584260808b0194828651166157a1565b1680935251168082119283615878575b50505061586f575b6001600160401b039081169091521690525290565b6001965061585a565b65ffffffffffff1691036001600160401b03161190505f8080615852565b839495506001600160401b03938492935060805f9101525f6040860152166020840152166060820152525f90565b5f806001600160a01b036158ed93169360208151910182865af16158e6615dab565b9083615e0c565b805190811515918261592e575b50506159035750565b7f5274afe7000000000000000000000000000000000000000000000000000000005f5260045260245ffd5b81925090602091810103126111e457602001518015908115036111e4575f806158fa565b90916001600160601b0316918261596857505050565b6001600160a01b0360209160077fb34ff6ddd5dee9bf782869b9e926e675f574f9fe1710f1cecb30a69f7c94e54c94018581540190556040519485521692a2565b90916001600160801b0362ffffff9316908254926001600160801b0362989680868660301c1685020492168281115f14615a015785938385948560016159f6960154169203920302615647565b169160481c16011690565b5050505060481c1690565b919091629896806001600160401b03606085015116026001600160601b0360208501511662ffffff60a086015116026001600160401b036040860151160260808501516002811015615b53577fb2f6a4f7e42ba5ef7df3d0585d1a3378ea8c9af725cbe3d0e19592cfc6bf593c926020926001600160a01b0392615b4057615a9791611e3691615d7d565b955b60026001600160601b0388816298968062ffffff60c08701511682841602041690600689016001600160801b038084818454160116166001600160801b0319825416179055858551167f3728333a5018ab9fba2d4b5e866f0d4fc4266f7d12f1bd146ec9daca281022a988604051858152a2031695016001600160801b03615b248782845416615627565b166001600160801b0319825416179055511692604051908152a2565b615b4d91611e3691615647565b95615a99565b634e487b7160e01b5f52602160045260245ffd5b6001600160801b039093929193169081155f14615b85575050905090565b6001600160801b031680615b995750505090565b92615bb992916001600160401b0380958181840195160292160201615647565b1690565b91909162ffffff600182015460181c166001600160401b03606085015116420390808210801590615c8f575b615c8457615c0b5f9160408701938451908160ff1d9083039181011802615d7d565b91511315615c7c57805b60ff8195511690600182149182615c72575b8215615c55575b505015615c3b5750505f90565b6001600160781b03615c52925460701c1690615d7d565b90565b600214915081615c68575b505f80615c2e565b5f9150125f615c60565b5f82139250615c27565b805f03615c15565b50505090505f905f90565b50604085015115615be9565b6001600160401b0391620f42408380615bb99416921691808303908380821191038218021802615647565b600b605591604051907f833a3129a7c49096ba2bc346ab64e2bbec674f4181bf8e6dedfa83aea7fb0fec60408301527f19e0e5e01a085dfed6202468dbe0a147fedc8ede0e01cde25a7e0cb754329740602083015281520160ff81532090565b60ff7ff0c57e16840df040f15088dc2f81fe391c3923bec73e23a9662efc9c229c6a005460401c1615615d5557565b7fd7e6bcf8000000000000000000000000000000000000000000000000000000005f5260045ffd5b8115615da15780615d8e5750505f90565b600191615d9d915f1901615647565b0190565b90615c5291615647565b3d15615dd5573d90615dbc82614bd5565b91615dca6040519384614bb4565b82523d5f602084013e565b606090565b906c0100000000000000000000000090615df5828285615e98565b9209615dfe5790565b60018101809111614cc25790565b90615e495750805115615e2157805190602001fd5b7f1425ea42000000000000000000000000000000000000000000000000000000005f5260045ffd5b81511580615e8f575b615e5a575090565b6001600160a01b03907f9996b315000000000000000000000000000000000000000000000000000000005f521660045260245ffd5b50803b15615e52565b9091828202915f1984820993838086109503948086039514615f385784831115615f1057829109815f0382168092046002816003021880820260020302808202600203028082026002030280820260020302808202600203028091026002030293600183805f03040190848311900302920304170290565b7f227bc153000000000000000000000000000000000000000000000000000000005f5260045ffd5b505090615c52925061564756fe4beb0cc1ce3d1e2cf0d9a6b229c64b6d03eacccdcfc3e09da21139b35373ffd02e53c93cfb85b377c33c5881ea2e8ae1c7fa4b789e2a859438dc71474e045100251c369f4ebdedc72c1498dbeb9b538f609b170856998c6e34e4ab95eaf5330058a0c8f0f88cec20fbd92b7b52b0d2d1fcf9b126fb78d3cc170d4a02c5be0900a164736f6c634300081a000a",
  "linkReferences": {
    "contracts/libraries/ConfigurableUtil.sol": {
      "ConfigurableUtil": [
        {
          "length": 20,
          "start": 7033
        },
        {
          "length": 20,
          "start": 16634
        }
      ]
    },
    "contracts/libraries/LiquidityUtil.sol": {
      "LiquidityUtil": [
        {
          "length": 20,
          "start": 4614
        },
        {
          "length": 20,
          "start": 16011
        },
        {
          "length": 20,
          "start": 17226
        }
      ]
    },
    "contracts/libraries/MarketUtil.sol": {
      "MarketUtil": [
        {
          "length": 20,
          "start": 15417
        }
      ]
    },
    "contracts/libraries/PUSDManagerUtil.sol": {
      "PUSDManagerUtil": [
        {
          "length": 20,
          "start": 1554
        },
        {
          "length": 20,
          "start": 4952
        },
        {
          "length": 20,
          "start": 5828
        },
        {
          "length": 20,
          "start": 10858
        },
        {
          "length": 20,
          "start": 17863
        },
        {
          "length": 20,
          "start": 19094
        }
      ]
    },
    "contracts/libraries/PositionUtil.sol": {
      "PositionUtil": [
        {
          "length": 20,
          "start": 3052
        },
        {
          "length": 20,
          "start": 3753
        }
      ]
    }
  },
  "deployedLinkReferences": {
    "contracts/libraries/ConfigurableUtil.sol": {
      "ConfigurableUtil": [
        {
          "length": 20,
          "start": 6796
        },
        {
          "length": 20,
          "start": 16397
        }
      ]
    },
    "contracts/libraries/LiquidityUtil.sol": {
      "LiquidityUtil": [
        {
          "length": 20,
          "start": 4377
        },
        {
          "length": 20,
          "start": 15774
        },
        {
          "length": 20,
          "start": 16989
        }
      ]
    },
    "contracts/libraries/MarketUtil.sol": {
      "MarketUtil": [
        {
          "length": 20,
          "start": 15180
        }
      ]
    },
    "contracts/libraries/PUSDManagerUtil.sol": {
      "PUSDManagerUtil": [
        {
          "length": 20,
          "start": 1317
        },
        {
          "length": 20,
          "start": 4715
        },
        {
          "length": 20,
          "start": 5591
        },
        {
          "length": 20,
          "start": 10621
        },
        {
          "length": 20,
          "start": 17626
        },
        {
          "length": 20,
          "start": 18857
        }
      ]
    },
    "contracts/libraries/PositionUtil.sol": {
      "PositionUtil": [
        {
          "length": 20,
          "start": 2815
        },
        {
          "length": 20,
          "start": 3516
        }
      ]
    }
  }
}