{
  "_format": "hh-sol-artifact-1",
  "contractName": "PositionRouter",
  "sourceName": "contracts/plugins/PositionRouter.sol",
  "abi": [
    {
      "inputs": [
        {
          "internalType": "contract Governable",
          "name": "_govImpl",
          "type": "address"
        },
        {
          "internalType": "contract IPUSD",
          "name": "_usd",
          "type": "address"
        },
        {
          "internalType": "contract IMarketManager",
          "name": "_marketManager",
          "type": "address"
        },
        {
          "internalType": "contract IWETHMinimum",
          "name": "_weth",
          "type": "address"
        },
        {
          "internalType": "enum IPositionRouterCommon.EstimatedGasLimitType[]",
          "name": "_estimatedGasLimitTypes",
          "type": "uint8[]"
        },
        {
          "internalType": "uint256[]",
          "name": "_estimatedGasLimits",
          "type": "uint256[]"
        }
      ],
      "stateMutability": "nonpayable",
      "type": "constructor"
    },
    {
      "inputs": [
        {
          "internalType": "address",
          "name": "target",
          "type": "address"
        }
      ],
      "name": "AddressEmptyCode",
      "type": "error"
    },
    {
      "inputs": [
        {
          "internalType": "bytes32",
          "name": "id",
          "type": "bytes32"
        }
      ],
      "name": "ConflictRequests",
      "type": "error"
    },
    {
      "inputs": [
        {
          "internalType": "uint256",
          "name": "expiredAt",
          "type": "uint256"
        }
      ],
      "name": "Expired",
      "type": "error"
    },
    {
      "inputs": [],
      "name": "FailedInnerCall",
      "type": "error"
    },
    {
      "inputs": [],
      "name": "FailedTransferETH",
      "type": "error"
    },
    {
      "inputs": [],
      "name": "Forbidden",
      "type": "error"
    },
    {
      "inputs": [
        {
          "internalType": "uint256",
          "name": "balance",
          "type": "uint256"
        },
        {
          "internalType": "uint256",
          "name": "requiredAmount",
          "type": "uint256"
        }
      ],
      "name": "InsufficientBalance",
      "type": "error"
    },
    {
      "inputs": [
        {
          "internalType": "uint256",
          "name": "available",
          "type": "uint256"
        },
        {
          "internalType": "uint256",
          "name": "required",
          "type": "uint256"
        }
      ],
      "name": "InsufficientExecutionFee",
      "type": "error"
    },
    {
      "inputs": [
        {
          "internalType": "address",
          "name": "requiredCaller",
          "type": "address"
        }
      ],
      "name": "InvalidCaller",
      "type": "error"
    },
    {
      "inputs": [
        {
          "internalType": "uint64",
          "name": "indexPrice",
          "type": "uint64"
        },
        {
          "internalType": "uint64",
          "name": "acceptableIndexPrice",
          "type": "uint64"
        }
      ],
      "name": "InvalidIndexPrice",
      "type": "error"
    },
    {
      "inputs": [
        {
          "internalType": "uint8",
          "name": "bits",
          "type": "uint8"
        },
        {
          "internalType": "uint256",
          "name": "value",
          "type": "uint256"
        }
      ],
      "name": "SafeCastOverflowedUintDowncast",
      "type": "error"
    },
    {
      "inputs": [
        {
          "internalType": "uint256",
          "name": "earliest",
          "type": "uint256"
        }
      ],
      "name": "TooEarly",
      "type": "error"
    },
    {
      "inputs": [
        {
          "internalType": "uint96",
          "name": "acceptableMinAmount",
          "type": "uint96"
        },
        {
          "internalType": "uint96",
          "name": "receiveAmount",
          "type": "uint96"
        }
      ],
      "name": "TooLittleReceived",
      "type": "error"
    },
    {
      "inputs": [
        {
          "internalType": "uint96",
          "name": "payAmount",
          "type": "uint96"
        },
        {
          "internalType": "uint96",
          "name": "acceptableMaxAmount",
          "type": "uint96"
        }
      ],
      "name": "TooMuchPaid",
      "type": "error"
    },
    {
      "inputs": [
        {
          "internalType": "contract IERC20",
          "name": "token",
          "type": "address"
        }
      ],
      "name": "TransferFailed",
      "type": "error"
    },
    {
      "anonymous": false,
      "inputs": [
        {
          "indexed": true,
          "internalType": "bytes32",
          "name": "id",
          "type": "bytes32"
        },
        {
          "indexed": false,
          "internalType": "address payable",
          "name": "executionFeeReceiver",
          "type": "address"
        }
      ],
      "name": "BurnPUSDCancelled",
      "type": "event"
    },
    {
      "anonymous": false,
      "inputs": [
        {
          "indexed": true,
          "internalType": "address",
          "name": "account",
          "type": "address"
        },
        {
          "indexed": true,
          "internalType": "contract IERC20",
          "name": "market",
          "type": "address"
        },
        {
          "indexed": false,
          "internalType": "bool",
          "name": "exactIn",
          "type": "bool"
        },
        {
          "indexed": false,
          "internalType": "uint64",
          "name": "acceptableMaxPayAmount",
          "type": "uint64"
        },
        {
          "indexed": false,
          "internalType": "uint96",
          "name": "acceptableMinReceiveAmount",
          "type": "uint96"
        },
        {
          "indexed": false,
          "internalType": "address",
          "name": "receiver",
          "type": "address"
        },
        {
          "indexed": false,
          "internalType": "uint256",
          "name": "executionFee",
          "type": "uint256"
        },
        {
          "indexed": false,
          "internalType": "bytes32",
          "name": "id",
          "type": "bytes32"
        }
      ],
      "name": "BurnPUSDCreated",
      "type": "event"
    },
    {
      "anonymous": false,
      "inputs": [
        {
          "indexed": true,
          "internalType": "bytes32",
          "name": "id",
          "type": "bytes32"
        },
        {
          "indexed": false,
          "internalType": "address payable",
          "name": "executionFeeReceiver",
          "type": "address"
        },
        {
          "indexed": false,
          "internalType": "uint256",
          "name": "executionFee",
          "type": "uint256"
        }
      ],
      "name": "BurnPUSDExecuted",
      "type": "event"
    },
    {
      "anonymous": false,
      "inputs": [
        {
          "indexed": true,
          "internalType": "bytes32",
          "name": "id",
          "type": "bytes32"
        },
        {
          "indexed": false,
          "internalType": "address payable",
          "name": "executionFeeReceiver",
          "type": "address"
        }
      ],
      "name": "DecreasePositionCancelled",
      "type": "event"
    },
    {
      "anonymous": false,
      "inputs": [
        {
          "indexed": true,
          "internalType": "address",
          "name": "account",
          "type": "address"
        },
        {
          "indexed": true,
          "internalType": "contract IERC20",
          "name": "market",
          "type": "address"
        },
        {
          "indexed": false,
          "internalType": "uint96",
          "name": "marginDelta",
          "type": "uint96"
        },
        {
          "indexed": false,
          "internalType": "uint96",
          "name": "sizeDelta",
          "type": "uint96"
        },
        {
          "indexed": false,
          "internalType": "uint64",
          "name": "acceptableIndexPrice",
          "type": "uint64"
        },
        {
          "indexed": false,
          "internalType": "address",
          "name": "receiver",
          "type": "address"
        },
        {
          "indexed": false,
          "internalType": "uint256",
          "name": "executionFee",
          "type": "uint256"
        },
        {
          "indexed": false,
          "internalType": "bool",
          "name": "receivePUSD",
          "type": "bool"
        },
        {
          "indexed": false,
          "internalType": "bytes32",
          "name": "id",
          "type": "bytes32"
        }
      ],
      "name": "DecreasePositionCreated",
      "type": "event"
    },
    {
      "anonymous": false,
      "inputs": [
        {
          "indexed": true,
          "internalType": "bytes32",
          "name": "id",
          "type": "bytes32"
        },
        {
          "indexed": false,
          "internalType": "address payable",
          "name": "executionFeeReceiver",
          "type": "address"
        },
        {
          "indexed": false,
          "internalType": "uint256",
          "name": "executionFee",
          "type": "uint256"
        }
      ],
      "name": "DecreasePositionExecuted",
      "type": "event"
    },
    {
      "anonymous": false,
      "inputs": [
        {
          "indexed": false,
          "internalType": "uint32",
          "name": "minBlockDelayExecutor",
          "type": "uint32"
        },
        {
          "indexed": false,
          "internalType": "uint32",
          "name": "minBlockDelayPublic",
          "type": "uint32"
        },
        {
          "indexed": false,
          "internalType": "uint32",
          "name": "maxBlockDelay",
          "type": "uint32"
        }
      ],
      "name": "DelayValuesUpdated",
      "type": "event"
    },
    {
      "anonymous": false,
      "inputs": [
        {
          "indexed": false,
          "internalType": "uint24",
          "name": "estimatedGasMultiplier",
          "type": "uint24"
        }
      ],
      "name": "EstimatedGasFeeMultiplierUpdated",
      "type": "event"
    },
    {
      "anonymous": false,
      "inputs": [
        {
          "indexed": false,
          "internalType": "enum IPositionRouterCommon.EstimatedGasLimitType",
          "name": "estimatedGasLimitType",
          "type": "uint8"
        },
        {
          "indexed": false,
          "internalType": "uint256",
          "name": "estimatedGasLimit",
          "type": "uint256"
        }
      ],
      "name": "EstimatedGasLimitUpdated",
      "type": "event"
    },
    {
      "anonymous": false,
      "inputs": [
        {
          "indexed": true,
          "internalType": "enum IPositionRouterCommon.RequestType",
          "name": "reqType",
          "type": "uint8"
        },
        {
          "indexed": true,
          "internalType": "bytes32",
          "name": "id",
          "type": "bytes32"
        },
        {
          "indexed": false,
          "internalType": "bytes4",
          "name": "shortenedReason",
          "type": "bytes4"
        }
      ],
      "name": "ExecuteFailed",
      "type": "event"
    },
    {
      "anonymous": false,
      "inputs": [
        {
          "indexed": false,
          "internalType": "uint24",
          "name": "executionGasFeeMultiplier",
          "type": "uint24"
        }
      ],
      "name": "ExecutionGasFeeMultiplierUpdated",
      "type": "event"
    },
    {
      "anonymous": false,
      "inputs": [
        {
          "indexed": true,
          "internalType": "bytes32",
          "name": "id",
          "type": "bytes32"
        },
        {
          "indexed": false,
          "internalType": "address payable",
          "name": "executionFeeReceiver",
          "type": "address"
        }
      ],
      "name": "IncreasePositionCancelled",
      "type": "event"
    },
    {
      "anonymous": false,
      "inputs": [
        {
          "indexed": true,
          "internalType": "address",
          "name": "account",
          "type": "address"
        },
        {
          "indexed": true,
          "internalType": "contract IERC20",
          "name": "market",
          "type": "address"
        },
        {
          "indexed": false,
          "internalType": "uint96",
          "name": "marginDelta",
          "type": "uint96"
        },
        {
          "indexed": false,
          "internalType": "uint96",
          "name": "sizeDelta",
          "type": "uint96"
        },
        {
          "indexed": false,
          "internalType": "uint64",
          "name": "acceptableIndexPrice",
          "type": "uint64"
        },
        {
          "indexed": false,
          "internalType": "uint256",
          "name": "executionFee",
          "type": "uint256"
        },
        {
          "indexed": false,
          "internalType": "bool",
          "name": "payPUSD",
          "type": "bool"
        },
        {
          "indexed": false,
          "internalType": "bytes32",
          "name": "id",
          "type": "bytes32"
        }
      ],
      "name": "IncreasePositionCreated",
      "type": "event"
    },
    {
      "anonymous": false,
      "inputs": [
        {
          "indexed": true,
          "internalType": "bytes32",
          "name": "id",
          "type": "bytes32"
        },
        {
          "indexed": false,
          "internalType": "address payable",
          "name": "executionFeeReceiver",
          "type": "address"
        },
        {
          "indexed": false,
          "internalType": "uint256",
          "name": "executionFee",
          "type": "uint256"
        }
      ],
      "name": "IncreasePositionExecuted",
      "type": "event"
    },
    {
      "anonymous": false,
      "inputs": [
        {
          "indexed": true,
          "internalType": "bytes32",
          "name": "id",
          "type": "bytes32"
        },
        {
          "indexed": false,
          "internalType": "address payable",
          "name": "executionFeeReceiver",
          "type": "address"
        }
      ],
      "name": "MintPUSDCancelled",
      "type": "event"
    },
    {
      "anonymous": false,
      "inputs": [
        {
          "indexed": true,
          "internalType": "address",
          "name": "account",
          "type": "address"
        },
        {
          "indexed": true,
          "internalType": "contract IERC20",
          "name": "market",
          "type": "address"
        },
        {
          "indexed": false,
          "internalType": "bool",
          "name": "exactIn",
          "type": "bool"
        },
        {
          "indexed": false,
          "internalType": "uint96",
          "name": "acceptableMaxPayAmount",
          "type": "uint96"
        },
        {
          "indexed": false,
          "internalType": "uint64",
          "name": "acceptableMinReceiveAmount",
          "type": "uint64"
        },
        {
          "indexed": false,
          "internalType": "address",
          "name": "receiver",
          "type": "address"
        },
        {
          "indexed": false,
          "internalType": "uint256",
          "name": "executionFee",
          "type": "uint256"
        },
        {
          "indexed": false,
          "internalType": "bytes32",
          "name": "id",
          "type": "bytes32"
        }
      ],
      "name": "MintPUSDCreated",
      "type": "event"
    },
    {
      "anonymous": false,
      "inputs": [
        {
          "indexed": true,
          "internalType": "bytes32",
          "name": "id",
          "type": "bytes32"
        },
        {
          "indexed": false,
          "internalType": "address payable",
          "name": "executionFeeReceiver",
          "type": "address"
        },
        {
          "indexed": false,
          "internalType": "uint256",
          "name": "executionFee",
          "type": "uint256"
        }
      ],
      "name": "MintPUSDExecuted",
      "type": "event"
    },
    {
      "anonymous": false,
      "inputs": [
        {
          "indexed": true,
          "internalType": "address",
          "name": "account",
          "type": "address"
        },
        {
          "indexed": false,
          "internalType": "bool",
          "name": "active",
          "type": "bool"
        }
      ],
      "name": "PositionExecutorUpdated",
      "type": "event"
    },
    {
      "inputs": [
        {
          "internalType": "contract IERC20",
          "name": "_payToken",
          "type": "address"
        },
        {
          "internalType": "uint96",
          "name": "_payAmount",
          "type": "uint96"
        },
        {
          "internalType": "uint96",
          "name": "",
          "type": "uint96"
        },
        {
          "internalType": "bytes",
          "name": "_data",
          "type": "bytes"
        }
      ],
      "name": "PUSDManagerCallback",
      "outputs": [],
      "stateMutability": "nonpayable",
      "type": "function"
    },
    {
      "inputs": [
        {
          "internalType": "contract Governable",
          "name": "_newGov",
          "type": "address"
        }
      ],
      "name": "_changeImpl",
      "outputs": [],
      "stateMutability": "nonpayable",
      "type": "function"
    },
    {
      "inputs": [
        {
          "internalType": "bytes32",
          "name": "id",
          "type": "bytes32"
        }
      ],
      "name": "blockNumbers",
      "outputs": [
        {
          "internalType": "uint256",
          "name": "blockNumber",
          "type": "uint256"
        }
      ],
      "stateMutability": "view",
      "type": "function"
    },
    {
      "inputs": [
        {
          "components": [
            {
              "internalType": "contract IERC20",
              "name": "market",
              "type": "address"
            },
            {
              "internalType": "address",
              "name": "account",
              "type": "address"
            },
            {
              "internalType": "bool",
              "name": "exactIn",
              "type": "bool"
            },
            {
              "internalType": "uint64",
              "name": "acceptableMaxPayAmount",
              "type": "uint64"
            },
            {
              "internalType": "uint96",
              "name": "acceptableMinReceiveAmount",
              "type": "uint96"
            },
            {
              "internalType": "address",
              "name": "receiver",
              "type": "address"
            },
            {
              "internalType": "uint256",
              "name": "executionFee",
              "type": "uint256"
            }
          ],
          "internalType": "struct IPositionRouter.BurnPUSDRequestIdParam",
          "name": "_param",
          "type": "tuple"
        },
        {
          "internalType": "address payable",
          "name": "_executionFeeReceiver",
          "type": "address"
        }
      ],
      "name": "cancelBurnPUSD",
      "outputs": [
        {
          "internalType": "bool",
          "name": "cancelled",
          "type": "bool"
        }
      ],
      "stateMutability": "nonpayable",
      "type": "function"
    },
    {
      "inputs": [
        {
          "components": [
            {
              "internalType": "address",
              "name": "account",
              "type": "address"
            },
            {
              "internalType": "contract IERC20",
              "name": "market",
              "type": "address"
            },
            {
              "internalType": "uint96",
              "name": "marginDelta",
              "type": "uint96"
            },
            {
              "internalType": "uint96",
              "name": "sizeDelta",
              "type": "uint96"
            },
            {
              "internalType": "uint64",
              "name": "acceptableIndexPrice",
              "type": "uint64"
            },
            {
              "internalType": "address",
              "name": "receiver",
              "type": "address"
            },
            {
              "internalType": "uint256",
              "name": "executionFee",
              "type": "uint256"
            },
            {
              "internalType": "bool",
              "name": "receivePUSD",
              "type": "bool"
            }
          ],
          "internalType": "struct IPositionRouter.DecreasePositionRequestIdParam",
          "name": "_param",
          "type": "tuple"
        },
        {
          "internalType": "address payable",
          "name": "_executionFeeReceiver",
          "type": "address"
        }
      ],
      "name": "cancelDecreasePosition",
      "outputs": [
        {
          "internalType": "bool",
          "name": "",
          "type": "bool"
        }
      ],
      "stateMutability": "nonpayable",
      "type": "function"
    },
    {
      "inputs": [
        {
          "components": [
            {
              "internalType": "address",
              "name": "account",
              "type": "address"
            },
            {
              "internalType": "contract IERC20",
              "name": "market",
              "type": "address"
            },
            {
              "internalType": "uint96",
              "name": "marginDelta",
              "type": "uint96"
            },
            {
              "internalType": "uint96",
              "name": "sizeDelta",
              "type": "uint96"
            },
            {
              "internalType": "uint64",
              "name": "acceptableIndexPrice",
              "type": "uint64"
            },
            {
              "internalType": "uint256",
              "name": "executionFee",
              "type": "uint256"
            },
            {
              "internalType": "bool",
              "name": "payPUSD",
              "type": "bool"
            }
          ],
          "internalType": "struct IPositionRouter.IncreasePositionRequestIdParam",
          "name": "_param",
          "type": "tuple"
        },
        {
          "internalType": "address payable",
          "name": "_executionFeeReceiver",
          "type": "address"
        }
      ],
      "name": "cancelIncreasePosition",
      "outputs": [
        {
          "internalType": "bool",
          "name": "",
          "type": "bool"
        }
      ],
      "stateMutability": "nonpayable",
      "type": "function"
    },
    {
      "inputs": [
        {
          "components": [
            {
              "internalType": "address",
              "name": "account",
              "type": "address"
            },
            {
              "internalType": "contract IERC20",
              "name": "market",
              "type": "address"
            },
            {
              "internalType": "bool",
              "name": "exactIn",
              "type": "bool"
            },
            {
              "internalType": "uint96",
              "name": "acceptableMaxPayAmount",
              "type": "uint96"
            },
            {
              "internalType": "uint64",
              "name": "acceptableMinReceiveAmount",
              "type": "uint64"
            },
            {
              "internalType": "address",
              "name": "receiver",
              "type": "address"
            },
            {
              "internalType": "uint256",
              "name": "executionFee",
              "type": "uint256"
            }
          ],
          "internalType": "struct IPositionRouter.MintPUSDRequestIdParam",
          "name": "_param",
          "type": "tuple"
        },
        {
          "internalType": "address payable",
          "name": "_executionFeeReceiver",
          "type": "address"
        }
      ],
      "name": "cancelMintPUSD",
      "outputs": [
        {
          "internalType": "bool",
          "name": "cancelled",
          "type": "bool"
        }
      ],
      "stateMutability": "nonpayable",
      "type": "function"
    },
    {
      "inputs": [
        {
          "internalType": "contract IERC20",
          "name": "_market",
          "type": "address"
        },
        {
          "internalType": "bool",
          "name": "_exactIn",
          "type": "bool"
        },
        {
          "internalType": "uint64",
          "name": "_acceptableMaxPayAmount",
          "type": "uint64"
        },
        {
          "internalType": "uint96",
          "name": "_acceptableMinReceiveAmount",
          "type": "uint96"
        },
        {
          "internalType": "address",
          "name": "_receiver",
          "type": "address"
        },
        {
          "internalType": "bytes",
          "name": "_permitData",
          "type": "bytes"
        }
      ],
      "name": "createBurnPUSD",
      "outputs": [
        {
          "internalType": "bytes32",
          "name": "id",
          "type": "bytes32"
        }
      ],
      "stateMutability": "payable",
      "type": "function"
    },
    {
      "inputs": [
        {
          "internalType": "contract IERC20",
          "name": "_market",
          "type": "address"
        },
        {
          "internalType": "uint96",
          "name": "_marginDelta",
          "type": "uint96"
        },
        {
          "internalType": "uint96",
          "name": "_sizeDelta",
          "type": "uint96"
        },
        {
          "internalType": "uint64",
          "name": "_acceptableIndexPrice",
          "type": "uint64"
        },
        {
          "internalType": "address payable",
          "name": "_receiver",
          "type": "address"
        }
      ],
      "name": "createDecreasePosition",
      "outputs": [
        {
          "internalType": "bytes32",
          "name": "id",
          "type": "bytes32"
        }
      ],
      "stateMutability": "payable",
      "type": "function"
    },
    {
      "inputs": [
        {
          "internalType": "contract IERC20",
          "name": "_market",
          "type": "address"
        },
        {
          "internalType": "uint96",
          "name": "_marginDelta",
          "type": "uint96"
        },
        {
          "internalType": "uint96",
          "name": "_sizeDelta",
          "type": "uint96"
        },
        {
          "internalType": "uint64",
          "name": "_acceptableIndexPrice",
          "type": "uint64"
        },
        {
          "internalType": "address",
          "name": "_receiver",
          "type": "address"
        }
      ],
      "name": "createDecreasePositionReceivePUSD",
      "outputs": [
        {
          "internalType": "bytes32",
          "name": "id",
          "type": "bytes32"
        }
      ],
      "stateMutability": "payable",
      "type": "function"
    },
    {
      "inputs": [
        {
          "internalType": "contract IERC20",
          "name": "_market",
          "type": "address"
        },
        {
          "internalType": "uint96",
          "name": "_marginDelta",
          "type": "uint96"
        },
        {
          "internalType": "uint96",
          "name": "_sizeDelta",
          "type": "uint96"
        },
        {
          "internalType": "uint64",
          "name": "_acceptableIndexPrice",
          "type": "uint64"
        },
        {
          "internalType": "bytes",
          "name": "_permitData",
          "type": "bytes"
        }
      ],
      "name": "createIncreasePosition",
      "outputs": [
        {
          "internalType": "bytes32",
          "name": "id",
          "type": "bytes32"
        }
      ],
      "stateMutability": "payable",
      "type": "function"
    },
    {
      "inputs": [
        {
          "internalType": "uint96",
          "name": "_sizeDelta",
          "type": "uint96"
        },
        {
          "internalType": "uint64",
          "name": "_acceptableIndexPrice",
          "type": "uint64"
        },
        {
          "internalType": "uint256",
          "name": "_executionFee",
          "type": "uint256"
        }
      ],
      "name": "createIncreasePositionETH",
      "outputs": [
        {
          "internalType": "bytes32",
          "name": "id",
          "type": "bytes32"
        }
      ],
      "stateMutability": "payable",
      "type": "function"
    },
    {
      "inputs": [
        {
          "internalType": "contract IERC20",
          "name": "_market",
          "type": "address"
        },
        {
          "internalType": "uint64",
          "name": "_pusdAmount",
          "type": "uint64"
        },
        {
          "internalType": "uint96",
          "name": "_sizeDelta",
          "type": "uint96"
        },
        {
          "internalType": "uint64",
          "name": "_acceptableIndexPrice",
          "type": "uint64"
        },
        {
          "internalType": "bytes",
          "name": "_permitData",
          "type": "bytes"
        }
      ],
      "name": "createIncreasePositionPayPUSD",
      "outputs": [
        {
          "internalType": "bytes32",
          "name": "id",
          "type": "bytes32"
        }
      ],
      "stateMutability": "payable",
      "type": "function"
    },
    {
      "inputs": [
        {
          "internalType": "contract IERC20",
          "name": "_market",
          "type": "address"
        },
        {
          "internalType": "bool",
          "name": "_exactIn",
          "type": "bool"
        },
        {
          "internalType": "uint96",
          "name": "_acceptableMaxPayAmount",
          "type": "uint96"
        },
        {
          "internalType": "uint64",
          "name": "_acceptableMinReceiveAmount",
          "type": "uint64"
        },
        {
          "internalType": "address",
          "name": "_receiver",
          "type": "address"
        },
        {
          "internalType": "bytes",
          "name": "_permitData",
          "type": "bytes"
        }
      ],
      "name": "createMintPUSD",
      "outputs": [
        {
          "internalType": "bytes32",
          "name": "id",
          "type": "bytes32"
        }
      ],
      "stateMutability": "payable",
      "type": "function"
    },
    {
      "inputs": [
        {
          "internalType": "bool",
          "name": "_exactIn",
          "type": "bool"
        },
        {
          "internalType": "uint64",
          "name": "_acceptableMinReceiveAmount",
          "type": "uint64"
        },
        {
          "internalType": "address",
          "name": "_receiver",
          "type": "address"
        },
        {
          "internalType": "uint256",
          "name": "_executionFee",
          "type": "uint256"
        }
      ],
      "name": "createMintPUSDETH",
      "outputs": [
        {
          "internalType": "bytes32",
          "name": "id",
          "type": "bytes32"
        }
      ],
      "stateMutability": "payable",
      "type": "function"
    },
    {
      "inputs": [],
      "name": "estimatedGasFeeMultiplier",
      "outputs": [
        {
          "internalType": "uint24",
          "name": "",
          "type": "uint24"
        }
      ],
      "stateMutability": "view",
      "type": "function"
    },
    {
      "inputs": [
        {
          "internalType": "enum IPositionRouterCommon.EstimatedGasLimitType",
          "name": "",
          "type": "uint8"
        }
      ],
      "name": "estimatedGasLimits",
      "outputs": [
        {
          "internalType": "uint256",
          "name": "",
          "type": "uint256"
        }
      ],
      "stateMutability": "view",
      "type": "function"
    },
    {
      "inputs": [],
      "name": "etherTransferGasLimit",
      "outputs": [
        {
          "internalType": "uint32",
          "name": "",
          "type": "uint32"
        }
      ],
      "stateMutability": "view",
      "type": "function"
    },
    {
      "inputs": [
        {
          "components": [
            {
              "internalType": "contract IERC20",
              "name": "market",
              "type": "address"
            },
            {
              "internalType": "address",
              "name": "account",
              "type": "address"
            },
            {
              "internalType": "bool",
              "name": "exactIn",
              "type": "bool"
            },
            {
              "internalType": "uint64",
              "name": "acceptableMaxPayAmount",
              "type": "uint64"
            },
            {
              "internalType": "uint96",
              "name": "acceptableMinReceiveAmount",
              "type": "uint96"
            },
            {
              "internalType": "address",
              "name": "receiver",
              "type": "address"
            },
            {
              "internalType": "uint256",
              "name": "executionFee",
              "type": "uint256"
            }
          ],
          "internalType": "struct IPositionRouter.BurnPUSDRequestIdParam",
          "name": "_param",
          "type": "tuple"
        },
        {
          "internalType": "address payable",
          "name": "_executionFeeReceiver",
          "type": "address"
        }
      ],
      "name": "executeBurnPUSD",
      "outputs": [
        {
          "internalType": "bool",
          "name": "executed",
          "type": "bool"
        }
      ],
      "stateMutability": "nonpayable",
      "type": "function"
    },
    {
      "inputs": [
        {
          "components": [
            {
              "internalType": "address",
              "name": "account",
              "type": "address"
            },
            {
              "internalType": "contract IERC20",
              "name": "market",
              "type": "address"
            },
            {
              "internalType": "uint96",
              "name": "marginDelta",
              "type": "uint96"
            },
            {
              "internalType": "uint96",
              "name": "sizeDelta",
              "type": "uint96"
            },
            {
              "internalType": "uint64",
              "name": "acceptableIndexPrice",
              "type": "uint64"
            },
            {
              "internalType": "address",
              "name": "receiver",
              "type": "address"
            },
            {
              "internalType": "uint256",
              "name": "executionFee",
              "type": "uint256"
            },
            {
              "internalType": "bool",
              "name": "receivePUSD",
              "type": "bool"
            }
          ],
          "internalType": "struct IPositionRouter.DecreasePositionRequestIdParam",
          "name": "_param",
          "type": "tuple"
        },
        {
          "internalType": "address payable",
          "name": "_executionFeeReceiver",
          "type": "address"
        }
      ],
      "name": "executeDecreasePosition",
      "outputs": [
        {
          "internalType": "bool",
          "name": "",
          "type": "bool"
        }
      ],
      "stateMutability": "nonpayable",
      "type": "function"
    },
    {
      "inputs": [
        {
          "components": [
            {
              "internalType": "address",
              "name": "account",
              "type": "address"
            },
            {
              "internalType": "contract IERC20",
              "name": "market",
              "type": "address"
            },
            {
              "internalType": "uint96",
              "name": "marginDelta",
              "type": "uint96"
            },
            {
              "internalType": "uint96",
              "name": "sizeDelta",
              "type": "uint96"
            },
            {
              "internalType": "uint64",
              "name": "acceptableIndexPrice",
              "type": "uint64"
            },
            {
              "internalType": "uint256",
              "name": "executionFee",
              "type": "uint256"
            },
            {
              "internalType": "bool",
              "name": "payPUSD",
              "type": "bool"
            }
          ],
          "internalType": "struct IPositionRouter.IncreasePositionRequestIdParam",
          "name": "_param",
          "type": "tuple"
        },
        {
          "internalType": "address payable",
          "name": "_executionFeeReceiver",
          "type": "address"
        }
      ],
      "name": "executeIncreasePosition",
      "outputs": [
        {
          "internalType": "bool",
          "name": "",
          "type": "bool"
        }
      ],
      "stateMutability": "nonpayable",
      "type": "function"
    },
    {
      "inputs": [
        {
          "components": [
            {
              "internalType": "address",
              "name": "account",
              "type": "address"
            },
            {
              "internalType": "contract IERC20",
              "name": "market",
              "type": "address"
            },
            {
              "internalType": "bool",
              "name": "exactIn",
              "type": "bool"
            },
            {
              "internalType": "uint96",
              "name": "acceptableMaxPayAmount",
              "type": "uint96"
            },
            {
              "internalType": "uint64",
              "name": "acceptableMinReceiveAmount",
              "type": "uint64"
            },
            {
              "internalType": "address",
              "name": "receiver",
              "type": "address"
            },
            {
              "internalType": "uint256",
              "name": "executionFee",
              "type": "uint256"
            }
          ],
          "internalType": "struct IPositionRouter.MintPUSDRequestIdParam",
          "name": "_param",
          "type": "tuple"
        },
        {
          "internalType": "address payable",
          "name": "_executionFeeReceiver",
          "type": "address"
        }
      ],
      "name": "executeMintPUSD",
      "outputs": [
        {
          "internalType": "bool",
          "name": "executed",
          "type": "bool"
        }
      ],
      "stateMutability": "nonpayable",
      "type": "function"
    },
    {
      "inputs": [
        {
          "components": [
            {
              "internalType": "contract IERC20",
              "name": "market",
              "type": "address"
            },
            {
              "internalType": "address",
              "name": "account",
              "type": "address"
            },
            {
              "internalType": "bool",
              "name": "exactIn",
              "type": "bool"
            },
            {
              "internalType": "uint64",
              "name": "acceptableMaxPayAmount",
              "type": "uint64"
            },
            {
              "internalType": "uint96",
              "name": "acceptableMinReceiveAmount",
              "type": "uint96"
            },
            {
              "internalType": "address",
              "name": "receiver",
              "type": "address"
            },
            {
              "internalType": "uint256",
              "name": "executionFee",
              "type": "uint256"
            }
          ],
          "internalType": "struct IPositionRouter.BurnPUSDRequestIdParam",
          "name": "_param",
          "type": "tuple"
        },
        {
          "internalType": "address payable",
          "name": "_executionFeeReceiver",
          "type": "address"
        }
      ],
      "name": "executeOrCancelBurnPUSD",
      "outputs": [],
      "stateMutability": "nonpayable",
      "type": "function"
    },
    {
      "inputs": [
        {
          "components": [
            {
              "internalType": "address",
              "name": "account",
              "type": "address"
            },
            {
              "internalType": "contract IERC20",
              "name": "market",
              "type": "address"
            },
            {
              "internalType": "uint96",
              "name": "marginDelta",
              "type": "uint96"
            },
            {
              "internalType": "uint96",
              "name": "sizeDelta",
              "type": "uint96"
            },
            {
              "internalType": "uint64",
              "name": "acceptableIndexPrice",
              "type": "uint64"
            },
            {
              "internalType": "address",
              "name": "receiver",
              "type": "address"
            },
            {
              "internalType": "uint256",
              "name": "executionFee",
              "type": "uint256"
            },
            {
              "internalType": "bool",
              "name": "receivePUSD",
              "type": "bool"
            }
          ],
          "internalType": "struct IPositionRouter.DecreasePositionRequestIdParam",
          "name": "_param",
          "type": "tuple"
        },
        {
          "internalType": "address payable",
          "name": "_executionFeeReceiver",
          "type": "address"
        }
      ],
      "name": "executeOrCancelDecreasePosition",
      "outputs": [],
      "stateMutability": "nonpayable",
      "type": "function"
    },
    {
      "inputs": [
        {
          "components": [
            {
              "internalType": "address",
              "name": "account",
              "type": "address"
            },
            {
              "internalType": "contract IERC20",
              "name": "market",
              "type": "address"
            },
            {
              "internalType": "uint96",
              "name": "marginDelta",
              "type": "uint96"
            },
            {
              "internalType": "uint96",
              "name": "sizeDelta",
              "type": "uint96"
            },
            {
              "internalType": "uint64",
              "name": "acceptableIndexPrice",
              "type": "uint64"
            },
            {
              "internalType": "uint256",
              "name": "executionFee",
              "type": "uint256"
            },
            {
              "internalType": "bool",
              "name": "payPUSD",
              "type": "bool"
            }
          ],
          "internalType": "struct IPositionRouter.IncreasePositionRequestIdParam",
          "name": "_param",
          "type": "tuple"
        },
        {
          "internalType": "address payable",
          "name": "_executionFeeReceiver",
          "type": "address"
        }
      ],
      "name": "executeOrCancelIncreasePosition",
      "outputs": [],
      "stateMutability": "nonpayable",
      "type": "function"
    },
    {
      "inputs": [
        {
          "components": [
            {
              "internalType": "address",
              "name": "account",
              "type": "address"
            },
            {
              "internalType": "contract IERC20",
              "name": "market",
              "type": "address"
            },
            {
              "internalType": "bool",
              "name": "exactIn",
              "type": "bool"
            },
            {
              "internalType": "uint96",
              "name": "acceptableMaxPayAmount",
              "type": "uint96"
            },
            {
              "internalType": "uint64",
              "name": "acceptableMinReceiveAmount",
              "type": "uint64"
            },
            {
              "internalType": "address",
              "name": "receiver",
              "type": "address"
            },
            {
              "internalType": "uint256",
              "name": "executionFee",
              "type": "uint256"
            }
          ],
          "internalType": "struct IPositionRouter.MintPUSDRequestIdParam",
          "name": "_param",
          "type": "tuple"
        },
        {
          "internalType": "address payable",
          "name": "_executionFeeReceiver",
          "type": "address"
        }
      ],
      "name": "executeOrCancelMintPUSD",
      "outputs": [],
      "stateMutability": "nonpayable",
      "type": "function"
    },
    {
      "inputs": [],
      "name": "executionGasFeeMultiplier",
      "outputs": [
        {
          "internalType": "uint24",
          "name": "",
          "type": "uint24"
        }
      ],
      "stateMutability": "view",
      "type": "function"
    },
    {
      "inputs": [],
      "name": "executionGasLimit",
      "outputs": [
        {
          "internalType": "uint32",
          "name": "",
          "type": "uint32"
        }
      ],
      "stateMutability": "view",
      "type": "function"
    },
    {
      "inputs": [],
      "name": "gov",
      "outputs": [
        {
          "internalType": "address",
          "name": "",
          "type": "address"
        }
      ],
      "stateMutability": "view",
      "type": "function"
    },
    {
      "inputs": [],
      "name": "marketManager",
      "outputs": [
        {
          "internalType": "contract IMarketManager",
          "name": "",
          "type": "address"
        }
      ],
      "stateMutability": "view",
      "type": "function"
    },
    {
      "inputs": [],
      "name": "maxBlockDelay",
      "outputs": [
        {
          "internalType": "uint32",
          "name": "",
          "type": "uint32"
        }
      ],
      "stateMutability": "view",
      "type": "function"
    },
    {
      "inputs": [],
      "name": "minBlockDelayExecutor",
      "outputs": [
        {
          "internalType": "uint32",
          "name": "",
          "type": "uint32"
        }
      ],
      "stateMutability": "view",
      "type": "function"
    },
    {
      "inputs": [],
      "name": "minBlockDelayPublic",
      "outputs": [
        {
          "internalType": "uint32",
          "name": "",
          "type": "uint32"
        }
      ],
      "stateMutability": "view",
      "type": "function"
    },
    {
      "inputs": [
        {
          "internalType": "address",
          "name": "",
          "type": "address"
        }
      ],
      "name": "positionExecutors",
      "outputs": [
        {
          "internalType": "bool",
          "name": "",
          "type": "bool"
        }
      ],
      "stateMutability": "view",
      "type": "function"
    },
    {
      "inputs": [
        {
          "internalType": "uint32",
          "name": "_minBlockDelayExecutor",
          "type": "uint32"
        },
        {
          "internalType": "uint32",
          "name": "_minBlockDelayPublic",
          "type": "uint32"
        },
        {
          "internalType": "uint32",
          "name": "_maxBlockDelay",
          "type": "uint32"
        }
      ],
      "name": "updateDelayValues",
      "outputs": [],
      "stateMutability": "nonpayable",
      "type": "function"
    },
    {
      "inputs": [
        {
          "internalType": "uint24",
          "name": "_multiplier",
          "type": "uint24"
        }
      ],
      "name": "updateEstimatedGasFeeMultiplier",
      "outputs": [],
      "stateMutability": "nonpayable",
      "type": "function"
    },
    {
      "inputs": [
        {
          "internalType": "enum IPositionRouterCommon.EstimatedGasLimitType",
          "name": "_estimatedGasLimitType",
          "type": "uint8"
        },
        {
          "internalType": "uint256",
          "name": "_estimatedGasLimit",
          "type": "uint256"
        }
      ],
      "name": "updateEstimatedGasLimit",
      "outputs": [],
      "stateMutability": "nonpayable",
      "type": "function"
    },
    {
      "inputs": [
        {
          "internalType": "uint32",
          "name": "_etherTransferGasLimit",
          "type": "uint32"
        }
      ],
      "name": "updateEtherTransferGasLimit",
      "outputs": [],
      "stateMutability": "nonpayable",
      "type": "function"
    },
    {
      "inputs": [
        {
          "internalType": "uint24",
          "name": "_multiplier",
          "type": "uint24"
        }
      ],
      "name": "updateExecutionGasFeeMultiplier",
      "outputs": [],
      "stateMutability": "nonpayable",
      "type": "function"
    },
    {
      "inputs": [
        {
          "internalType": "uint32",
          "name": "_executionGasLimit",
          "type": "uint32"
        }
      ],
      "name": "updateExecutionGasLimit",
      "outputs": [],
      "stateMutability": "nonpayable",
      "type": "function"
    },
    {
      "inputs": [
        {
          "internalType": "address",
          "name": "_account",
          "type": "address"
        },
        {
          "internalType": "bool",
          "name": "_active",
          "type": "bool"
        }
      ],
      "name": "updatePositionExecutor",
      "outputs": [],
      "stateMutability": "nonpayable",
      "type": "function"
    },
    {
      "inputs": [],
      "name": "usd",
      "outputs": [
        {
          "internalType": "contract IPUSD",
          "name": "",
          "type": "address"
        }
      ],
      "stateMutability": "view",
      "type": "function"
    },
    {
      "inputs": [],
      "name": "weth",
      "outputs": [
        {
          "internalType": "contract IWETHMinimum",
          "name": "",
          "type": "address"
        }
      ],
      "stateMutability": "view",
      "type": "function"
    },
    {
      "stateMutability": "payable",
      "type": "receive"
    }
  ],
  "bytecode": "0x60e0604052346102ff57615bb6803803806100198161031c565b92833981019060c0818303126102ff5780516001600160a01b03811691908290036102ff5760208101516001600160a01b03811681036102ff5760408201516001600160a01b03811681036102ff576060830151906001600160a01b03821682036102ff5760808401516001600160401b0381116102ff5784019386601f860112156102ff5784516100b26100ad82610355565b61031c565b9560208088848152019260051b820101908982116102ff57602001915b8183106103035750505060a0810151906001600160401b0382116102ff57019486601f870112156102ff578551966101096100ad89610355565b96602080898b8152019960051b8201019182116102ff57602001975b8189106102ef5750505f80546001600160a01b0319169190911781556002805460809590955260a09290925260c092909252600160201b600160d01b0319909216772710989680989680000f42400000012c000000320000000017909155919250905b81518110156102335761019b818461036c565b516101ae6101a9838561036c565b610394565b600b81101561021f575f52600160205260405f20556101d06101a9828461036c565b906101db818561036c565b5160405192600b81101561021f57837fc8d9f716ee6f7a1977483c05570fa0e1f0b522aa1b25219c7336b65368ad56a492604092600196526020820152a101610188565b634e487b7160e01b5f52602160045260245ffd5b60405161581490816103a28239608051818181610303015281816106a801528181610d0a01528181612ad101526147e8015260a05181818161033a01528181610d410152818161104c0152818161147701528181611673015281816119b8015281816131180152818161359f01528181613b4701528181614442015261467e015260c0518181816031015281816116e2015281816117a201528181611ed001528181611f2d01528181613ae4015281816143140152614c460152f35b8851815260209889019801610125565b5f80fd5b8251600b8110156102ff578152602092830192016100cf565b6040519190601f01601f191682016001600160401b0381118382101761034157604052565b634e487b7160e01b5f52604160045260245ffd5b6001600160401b0381116103415760051b60200190565b80518210156103805760209160051b010190565b634e487b7160e01b5f52603260045260245ffd5b51600b81101561021f579056fe6080806040526004361015610085575b50361561001a575f80fd5b73ffffffffffffffffffffffffffffffffffffffff7f00000000000000000000000000000000000000000000000000000000000000001680330361005a57005b7fcbd9d2e0000000000000000000000000000000000000000000000000000000005f5260045260245ffd5b5f905f3560e01c908163020def58146121935750806309e33d441461214b5780630b914f80146121005780630bce38e0146120785780630dbc9a6a146120345780631073d6b614611e0957806312d43a5114611d365780631e80544a14611cb35780632d3b317b14611c685780632e9022da14611bdb57806334fde4ce14611b7c578063379b28a014611b3157806337ed38dd1461191c57806339cb1f3e146118d75780633e44bebb146117065780633fc8cef31461169757806341ed2c121461162857806349f6e1de146115a55780634c9458e2146113d15780634f4fe757146113805780635567c2f714611289578063572b57d414611179578063622d151714610fc75780636fb3688414610f67578063721ff14114610f1c5780637f47499514610c5c5780638650e4f714610b4e578063872c8a2f14610b0357806393c88dd014610ab7578063975eb69d14610a2d578063a482ea85146109a9578063a804fdd914610965578063aadea98214610921578063b204d094146108d6578063b5d6bca714610894578063b6ee0c3a1461082c578063c29ca86b146107d7578063c7004d6314610793578063cfd8b2e1146106cc578063d63a6ccd1461065d578063d954b637146105a2578063dcb76f56146104e05763f52d0be40361000f5760a07ffffffffffffffffffffffffffffffffffffffffffffffffffffffffffffffffc36011261049b576102986122e3565b906102a161228d565b6102a9612259565b906102b26122a4565b9260843567ffffffffffffffff81116104dc576102d3903690600401612327565b92906102f66102e26005612371565b543a0262ffffff60025460801c1602615733565b8034106104ad57506103787f00000000000000000000000000000000000000000000000000000000000000009473ffffffffffffffffffffffffffffffffffffffff7f000000000000000000000000000000000000000000000000000000000000000016928373ffffffffffffffffffffffffffffffffffffffff8816614e67565b67ffffffffffffffff821693846103fe575b60206103f68967ffffffffffffffff8a6bffffffffffffffffffffffff8b8b73ffffffffffffffffffffffffffffffffffffffff604051966103cb886123b5565b338852168887015260408601521660608401521660808201523460a0820152600160c0820152614a12565b604051908152f35b813b156104a9576040517f1b82787800000000000000000000000000000000000000000000000000000000815273ffffffffffffffffffffffffffffffffffffffff909116600482015233602482015230604482015267ffffffffffffffff9092166064830152829082908183816084810103925af1801561049e57610486575b808061038a565b610491828092612437565b61049b578061047f565b80fd5b6040513d84823e3d90fd5b8380fd5b7f5dac504d00000000000000000000000000000000000000000000000000000000845234600452602452604483fd5b5080fd5b503461049b5760207ffffffffffffffffffffffffffffffffffffffffffffffffffffffffffffffffc36011261049b5760043562ffffff81169081810361059e577f34c21c35651c2633b08ce9561654ef2f43ce0c152ee897c954bc6ac52a5360fb9160209161054e614af1565b7fffffffffffffffffffff000000ffffffffffffffffffffffffffffffffffffff75ffffff000000000000000000000000000000000000006002549260981b16911617600255604051908152a180f35b8280fd5b503461049b5760207ffffffffffffffffffffffffffffffffffffffffffffffffffffffffffffffffc36011261049b5760043562ffffff81169081810361059e577f80e45ab8c40ae9d24baa55f0199cd3565a59f756870f67fadfff9161e19e752b91602091610610614af1565b7fffffffffffffffffffffffffff000000ffffffffffffffffffffffffffffffff72ffffff000000000000000000000000000000006002549260801b16911617600255604051908152a180f35b503461049b57807ffffffffffffffffffffffffffffffffffffffffffffffffffffffffffffffffc36011261049b57602060405173ffffffffffffffffffffffffffffffffffffffff7f0000000000000000000000000000000000000000000000000000000000000000168152f35b503461049b5760407ffffffffffffffffffffffffffffffffffffffffffffffffffffffffffffffffc36011261049b576107046122e3565b7f3707af22b3aeb6f4e368f52e62c4e9ab2addbadf6f9de7d9d1d24bc0b8456d82602073ffffffffffffffffffffffffffffffffffffffff610744612355565b9361074d614af1565b16928385526003825260408520901515907fffffffffffffffffffffffffffffffffffffffffffffffffffffffffffffff0081541660ff8316179055604051908152a280f35b503461049b57807ffffffffffffffffffffffffffffffffffffffffffffffffffffffffffffffffc36011261049b57602063ffffffff600254821c16604051908152f35b503461049b577ffffffffffffffffffffffffffffffffffffffffffffffffffffffffffffffffc360161010081126104dc5760e01361049b57602061082261081d6121f8565b61472e565b6040519015158152f35b503461049b5760207ffffffffffffffffffffffffffffffffffffffffffffffffffffffffffffffffc36011261049b5760ff604060209273ffffffffffffffffffffffffffffffffffffffff6108806122e3565b168152600384522054166040519015158152f35b503461049b57807ffffffffffffffffffffffffffffffffffffffffffffffffffffffffffffffffc36011261049b57602063ffffffff60025416604051908152f35b503461049b577ffffffffffffffffffffffffffffffffffffffffffffffffffffffffffffffffc360161010081126104dc5760e01361049b57602061082261091c6121f8565b61425c565b503461049b57807ffffffffffffffffffffffffffffffffffffffffffffffffffffffffffffffffc36011261049b57602062ffffff60025460981c16604051908152f35b503461049b57807ffffffffffffffffffffffffffffffffffffffffffffffffffffffffffffffffc36011261049b57602062ffffff60025460801c16604051908152f35b503461049b5760407ffffffffffffffffffffffffffffffffffffffffffffffffffffffffffffffffc36011261049b57600435600b8110156104dc5760407fc8d9f716ee6f7a1977483c05570fa0e1f0b522aa1b25219c7336b65368ad56a491602435610a14614af1565b80610a1e83612371565b5582519182526020820152a180f35b503461049b577ffffffffffffffffffffffffffffffffffffffffffffffffffffffffffffffffc360161010081126104dc5760e01361049b57610a6e6121f8565b338252600360205260ff60408320541615610a8f57610a8c906140e2565b80f35b6004827fee90c468000000000000000000000000000000000000000000000000000000008152fd5b503461049b577ffffffffffffffffffffffffffffffffffffffffffffffffffffffffffffffffc360161012081126104dc576101001361049b576020610822610afe6121d4565b613a69565b503461049b577ffffffffffffffffffffffffffffffffffffffffffffffffffffffffffffffffc360161010081126104dc5760e01361049b576020610822610b496121f8565b613975565b5060a07ffffffffffffffffffffffffffffffffffffffffffffffffffffffffffffffffc36011261049b57610b816122e3565b90610b8a61223e565b610b92612259565b610b9a6122a4565b90610ba361221b565b92610bb16102e26006612371565b803410610c2d5760206103f6888873ffffffffffffffffffffffffffffffffffffffff8967ffffffffffffffff8a6bffffffffffffffffffffffff8b818c876040519a610bfd8c6123fe565b338c52168c8b01521660408901521660608701521660808501521660a08301523460c083015260e0820152615305565b7f5dac504d00000000000000000000000000000000000000000000000000000000865234600452602452604485fd5b5060c07ffffffffffffffffffffffffffffffffffffffffffffffffffffffffffffffffc36011261049b57610c8f6122e3565b90610c98612355565b60443567ffffffffffffffff8116938482036104a9576064356bffffffffffffffffffffffff8116809103610ed657610ccf61221b565b9260a43567ffffffffffffffff8111610f1857610cf0903690600401612327565b610cfd6102e26009612371565b803410610ee95750610d7f7f00000000000000000000000000000000000000000000000000000000000000009173ffffffffffffffffffffffffffffffffffffffff7f000000000000000000000000000000000000000000000000000000000000000016938473ffffffffffffffffffffffffffffffffffffffff8516614e67565b813b15610ee5576040517f1b82787800000000000000000000000000000000000000000000000000000000815273ffffffffffffffffffffffffffffffffffffffff909116600482015233602482015230604482015267ffffffffffffffff9092166064830152869082908183816084810103925af18015610eda57610ec1575b50602095610e5c73ffffffffffffffffffffffffffffffffffffffff8060405195610e2a876123b5565b1696878652338a87015215159586604087015283606087015284608087015216938460a08201523460c0820152615492565b95610e6687615544565b8681526004885260404391205560405193845286840152604083015260608201523460808201528260a08201527f5f3138be2b6c6c696f6e5dde16ea6ee1c0f79ac1015fa93eed5b0db30733a93060c03392a3604051908152f35b610ecc868092612437565b610ed6575f610e00565b8480fd5b6040513d88823e3d90fd5b8780fd5b7f5dac504d00000000000000000000000000000000000000000000000000000000895234600452602452604488fd5b8680fd5b503461049b577ffffffffffffffffffffffffffffffffffffffffffffffffffffffffffffffffc360161010081126104dc5760e01361049b576020610822610f626121f8565b613524565b503461049b577ffffffffffffffffffffffffffffffffffffffffffffffffffffffffffffffffc360161012081126104dc576101001361049b57610fa96121d4565b338252600360205260ff60408320541615610a8f57610a8c90613374565b503461049b5760807ffffffffffffffffffffffffffffffffffffffffffffffffffffffffffffffffc36011261049b57610fff6122e3565b9061100861223e565b91611011612259565b5060643567ffffffffffffffff811161059e57611032903690600401612327565b73ffffffffffffffffffffffffffffffffffffffff9291927f000000000000000000000000000000000000000000000000000000000000000016330361115157826040918101031261059e576040519161108b8361241b565b6bffffffffffffffffffffffff6110b060206110a684612274565b9384875201612306565b916020850192835216926bffffffffffffffffffffffff8616938085116111215750610a8c94956bffffffffffffffffffffffff809251160316806110f9575b50503390614d5c565b73ffffffffffffffffffffffffffffffffffffffff61111a92511683614c2f565b5f806110f0565b85604491867f379d3018000000000000000000000000000000000000000000000000000000008352600452602452fd5b6004847fee90c468000000000000000000000000000000000000000000000000000000008152fd5b5060a07ffffffffffffffffffffffffffffffffffffffffffffffffffffffffffffffffc36011261049b576111ac6122e3565b906111b561223e565b6111bd612259565b6111c56122a4565b916111ce61221b565b936111dc6102e26007612371565b8034106112595760206103f68873ffffffffffffffffffffffffffffffffffffffff8967ffffffffffffffff8a6bffffffffffffffffffffffff8b818c87604051996112278b6123fe565b338b52168b8a01521660408801521660608601521660808401521660a08201523460c0820152600160e0820152615305565b604492507f5dac504d00000000000000000000000000000000000000000000000000000000825234600452602452fd5b503461049b5760607ffffffffffffffffffffffffffffffffffffffffffffffffffffffffffffffffc36011261049b576112c16122d0565b6024359063ffffffff8216918281036104a9576044359263ffffffff84169081850361137c577f5059425a16aa50b8d42ba1b984287f78e50743f3674c64736be81d875723294d9463ffffffff606095611319614af1565b169367ffffffff00000000857fffffffffffffffffffffffffffffffffffffffff0000000000000000000000006bffffffff00000000000000006002549560401b169416179160201b16171760025560405192835260208301526040820152a180f35b8580fd5b503461049b5760207ffffffffffffffffffffffffffffffffffffffffffffffffffffffffffffffffc36011261049b5760043590600b82101561049b5760206113c883612371565b54604051908152f35b5060c07ffffffffffffffffffffffffffffffffffffffffffffffffffffffffffffffffc36011261049b576114046122e3565b9061140d612355565b611415612259565b61141d6122a4565b9161142661221b565b9360a43567ffffffffffffffff81116104dc57611447903690600401612327565b6114546102e26008612371565b8034106104ad575061149f9073ffffffffffffffffffffffffffffffffffffffff7f00000000000000000000000000000000000000000000000000000000000000001692838a614e67565b803b156104dc576040517f1b82787800000000000000000000000000000000000000000000000000000000815273ffffffffffffffffffffffffffffffffffffffff881660048201523360248201523060448201526bffffffffffffffffffffffff851660648201529082908290608490829084905af1801561049e57611590575b60206103f68873ffffffffffffffffffffffffffffffffffffffff8967ffffffffffffffff8a6bffffffffffffffffffffffff8b8b86604051986115648a6123b5565b338a52168a890152151560408801521660608601521660808401521660a08201523460c082015261521e565b61159b828092612437565b61049b5780611521565b503461049b5760207ffffffffffffffffffffffffffffffffffffffffffffffffffffffffffffffffc36011261049b5760043573ffffffffffffffffffffffffffffffffffffffff81168091036104dc576115fe614af1565b7fffffffffffffffffffffffff000000000000000000000000000000000000000082541617815580f35b503461049b57807ffffffffffffffffffffffffffffffffffffffffffffffffffffffffffffffffc36011261049b57602060405173ffffffffffffffffffffffffffffffffffffffff7f0000000000000000000000000000000000000000000000000000000000000000168152f35b503461049b57807ffffffffffffffffffffffffffffffffffffffffffffffffffffffffffffffffc36011261049b57602060405173ffffffffffffffffffffffffffffffffffffffff7f0000000000000000000000000000000000000000000000000000000000000000168152f35b5060807ffffffffffffffffffffffffffffffffffffffffffffffffffffffffffffffffc36011261049b576004358015158091036104dc5761174661228d565b6044359073ffffffffffffffffffffffffffffffffffffffff82168092036104a957606435928334106118a7576117806102e26008612371565b808510611877575083340373ffffffffffffffffffffffffffffffffffffffff7f00000000000000000000000000000000000000000000000000000000000000001695863b1561049b576040517fd0e30db00000000000000000000000000000000000000000000000000000000081528181600481868c5af1801561049e57611862575b60206103f689898967ffffffffffffffff8a6bffffffffffffffffffffffff8b61182d8c6149be565b906040519761183b896123b5565b3389528a890152604088015216606086015216608084015260a083015260c082015261521e565b61186d828092612437565b61049b5780611804565b85604491867f5dac504d000000000000000000000000000000000000000000000000000000008352600452602452fd5b604485857f5dac504d00000000000000000000000000000000000000000000000000000000825234600452602452fd5b503461049b57807ffffffffffffffffffffffffffffffffffffffffffffffffffffffffffffffffc36011261049b57602063ffffffff60025460601c16604051908152f35b5060a07ffffffffffffffffffffffffffffffffffffffffffffffffffffffffffffffffc36011261049b5761194f6122e3565b61195761223e565b61195f612259565b6119676122a4565b9160843567ffffffffffffffff811161137c57611988903690600401612327565b6119956102e26004612371565b803410611b0257506119e09073ffffffffffffffffffffffffffffffffffffffff7f000000000000000000000000000000000000000000000000000000000000000016928388614e67565b6bffffffffffffffffffffffff82169182611a61575b60206103f6878967ffffffffffffffff896bffffffffffffffffffffffff8a8a73ffffffffffffffffffffffffffffffffffffffff60405197611a38896123b5565b338952168988015260408701521660608501521660808301523460a083015260c0820152614a12565b908691813b1561059e576040517f1b82787800000000000000000000000000000000000000000000000000000000815273ffffffffffffffffffffffffffffffffffffffff881660048201523360248201523060448201526bffffffffffffffffffffffff91909116606482015291908290608490829084905af18015610eda57611aed575b806119f6565b611af8868092612437565b610ed6575f611ae7565b7f5dac504d00000000000000000000000000000000000000000000000000000000885234600452602452604487fd5b503461049b577ffffffffffffffffffffffffffffffffffffffffffffffffffffffffffffffffc360161010081126104dc5760e01361049b576020610822611b776121f8565b612f3e565b503461049b577ffffffffffffffffffffffffffffffffffffffffffffffffffffffffffffffffc360161010081126104dc5760e01361049b57611bbd6121f8565b338252600360205260ff60408320541615610a8f57610a8c90612c4e565b503461049b5760207ffffffffffffffffffffffffffffffffffffffffffffffffffffffffffffffffc36011261049b57611c136122d0565b611c1b614af1565b7fffffffffffff00000000ffffffffffffffffffffffffffffffffffffffffffff79ffffffff000000000000000000000000000000000000000000006002549260b01b1691161760025580f35b503461049b577ffffffffffffffffffffffffffffffffffffffffffffffffffffffffffffffffc360161010081126104dc5760e01361049b576020610822611cae6121f8565b6129f6565b503461049b5760207ffffffffffffffffffffffffffffffffffffffffffffffffffffffffffffffffc36011261049b57611ceb6122d0565b611cf3614af1565b7fffffffffffffffffffffffffffffffff00000000ffffffffffffffffffffffff6fffffffff0000000000000000000000006002549260601b1691161760025580f35b503461049b57807ffffffffffffffffffffffffffffffffffffffffffffffffffffffffffffffffc36011261049b576004602073ffffffffffffffffffffffffffffffffffffffff835416604051928380927f12d43a510000000000000000000000000000000000000000000000000000000082525afa90811561049e5760209291611ddc575b5073ffffffffffffffffffffffffffffffffffffffff60405191168152f35b611dfc9150823d8411611e02575b611df48183612437565b81019061294b565b5f611dbd565b503d611dea565b5060607ffffffffffffffffffffffffffffffffffffffffffffffffffffffffffffffffc360112611fd157600435906bffffffffffffffffffffffff8216809203611fd157611e5661228d565b6044359081341061200457611e6e6102e26004612371565b808310611fd557506bffffffffffffffffffffffff611e8e8334036149be565b169384611f13575b9167ffffffffffffffff6103f694926020969460405195611eb6876123b5565b33875273ffffffffffffffffffffffffffffffffffffffff7f000000000000000000000000000000000000000000000000000000000000000016898801526040870152606086015216608084015260a083015260c0820152614a12565b92909173ffffffffffffffffffffffffffffffffffffffff7f00000000000000000000000000000000000000000000000000000000000000001692833b15611fd1575f86946004604051809981937fd0e30db00000000000000000000000000000000000000000000000000000000083525af1948515611fc6576020966103f696611fa6575b5091939550919350611e96565b67ffffffffffffffff929194505f611fbd91612437565b5f939091611f99565b6040513d5f823e3d90fd5b5f80fd5b827f5dac504d000000000000000000000000000000000000000000000000000000005f5260045260245260445ffd5b507f5dac504d000000000000000000000000000000000000000000000000000000005f523460045260245260445ffd5b34611fd1575f7ffffffffffffffffffffffffffffffffffffffffffffffffffffffffffffffffc360112611fd157602063ffffffff60025460b01c16604051908152f35b34611fd1577ffffffffffffffffffffffffffffffffffffffffffffffffffffffffffffffffc36016101008112611fd15760e013611fd1576120b86121f8565b335f52600360205260ff60405f205416156120d8576120d690612779565b005b7fee90c468000000000000000000000000000000000000000000000000000000005f5260045ffd5b34611fd1577ffffffffffffffffffffffffffffffffffffffffffffffffffffffffffffffffc36016101208112611fd15761010013611fd15760206108226121466121d4565b61250e565b34611fd15760207ffffffffffffffffffffffffffffffffffffffffffffffffffffffffffffffffc360112611fd1576004355f526004602052602060405f2054604051908152f35b34611fd1575f7ffffffffffffffffffffffffffffffffffffffffffffffffffffffffffffffffc360112611fd15760209063ffffffff60025460401c168152f35b610104359073ffffffffffffffffffffffffffffffffffffffff82168203611fd157565b60e4359073ffffffffffffffffffffffffffffffffffffffff82168203611fd157565b6084359073ffffffffffffffffffffffffffffffffffffffff82168203611fd157565b602435906bffffffffffffffffffffffff82168203611fd157565b604435906bffffffffffffffffffffffff82168203611fd157565b35906bffffffffffffffffffffffff82168203611fd157565b6024359067ffffffffffffffff82168203611fd157565b6064359067ffffffffffffffff82168203611fd157565b359067ffffffffffffffff82168203611fd157565b6004359063ffffffff82168203611fd157565b6004359073ffffffffffffffffffffffffffffffffffffffff82168203611fd157565b359073ffffffffffffffffffffffffffffffffffffffff82168203611fd157565b9181601f84011215611fd15782359167ffffffffffffffff8311611fd15760208381860195010111611fd157565b602435908115158203611fd157565b35908115158203611fd157565b600b811015612388575f52600160205260405f2090565b7f4e487b71000000000000000000000000000000000000000000000000000000005f52602160045260245ffd5b60e0810190811067ffffffffffffffff8211176123d157604052565b7f4e487b71000000000000000000000000000000000000000000000000000000005f52604160045260245ffd5b610100810190811067ffffffffffffffff8211176123d157604052565b6040810190811067ffffffffffffffff8211176123d157604052565b90601f7fffffffffffffffffffffffffffffffffffffffffffffffffffffffffffffffe0910116810190811067ffffffffffffffff8211176123d157604052565b919082610100910312611fd157604051612491816123fe565b60e06125098183956124a281612306565b85526124b060208201612306565b60208601526124c160408201612274565b60408601526124d260608201612274565b60608601526124e3608082016122bb565b60808601526124f460a08201612306565b60a086015260c081013560c086015201612364565b910152565b61252161251c366004612478565b61480d565b90815f52600460205260405f205480156125c85760043573ffffffffffffffffffffffffffffffffffffffff81168103611fd15761255e91615583565b156125c257602073ffffffffffffffffffffffffffffffffffffffff7f683a6d89df69b8c7033f3fe1a470f68caaa688b9d605b913ede5e99e8b2702b992845f52600483525f6040812055166125b68160c4356148df565b604051908152a2600190565b50505f90565b505050600190565b90816020910312611fd157518015158103611fd15790565b90929173ffffffffffffffffffffffffffffffffffffffff60e09160c06101008501968361261582612306565b1686528361262560208301612306565b16602087015261263760408201612364565b151560408701526bffffffffffffffffffffffff61265760608301612274565b16606087015267ffffffffffffffff612672608083016122bb565b1660808701528361268560a08301612306565b1660a0870152013560c085015216910152565b3d156126f0573d9067ffffffffffffffff82116123d157604051916126e560207fffffffffffffffffffffffffffffffffffffffffffffffffffffffffffffffe0601f8401160184612437565b82523d5f602084013e565b606090565b91908260e0910312611fd15760405161270d816123b5565b60c080829461271b81612306565b845261272960208201612306565b602085015261273a60408201612364565b604085015261274b60608201612274565b606085015261275c608082016122bb565b608085015261276d60a08201612306565b60a08501520135910152565b6040517f379b28a0000000000000000000000000000000000000000000000000000000008152602081806127b18560048084016125e8565b03815f305af15f918161292a575b506129215750602061289c916127d3612698565b8281519101517fffffffff00000000000000000000000000000000000000000000000000000000811691600481106128ec575b505060047f30467beaabb8ef26014dc3e31dc09bf58060436193d2f111af53d708264ec40b8461283e61283936856126f5565b61490c565b937fffffffff0000000000000000000000000000000000000000000000000000000060405191168152a3604051809381927f872c8a2f00000000000000000000000000000000000000000000000000000000835260048084016125e8565b03815f305af15f91816128bb575b506128b25750565b156128b957565b565b6128de91925060203d6020116128e5575b6128d68183612437565b8101906125d0565b905f6128aa565b503d6128cc565b7fffffffff000000000000000000000000000000000000000000000000000000009250829060040360031b1b16165f80612806565b9050156128b957565b61294491925060203d6020116128e5576128d68183612437565b905f6127bf565b90816020910312611fd1575173ffffffffffffffffffffffffffffffffffffffff81168103611fd15790565b91908260e0910312611fd15760405161298f816123b5565b60c06125098183956129a081612306565b85526129ae60208201612306565b60208601526129bf60408201612274565b60408601526129d060608201612274565b60608601526129e1608082016122bb565b608086015260a081013560a086015201612364565b612a09612a04366004612977565b614b85565b90815f52600460205260405f20549081156125c8576004359173ffffffffffffffffffffffffffffffffffffffff83168314159081611fd15783612a4c91615583565b15612b8a57835f5260046020525f604081205560c4358015158103611fd15715612b0357611fd157604435916bffffffffffffffffffffffff831691828403611fd157612af660209373ffffffffffffffffffffffffffffffffffffffff937f5d739aba4aac9530ace4ba9e82a0ff3bb71bbdaed667b4aa7aa05f1821712e2d9650847f000000000000000000000000000000000000000000000000000000000000000016614d5c565b166125b68160a4356148df565b509060243573ffffffffffffffffffffffffffffffffffffffff81168103611fd157604435926bffffffffffffffffffffffff841693848103611fd1577f5d739aba4aac9530ace4ba9e82a0ff3bb71bbdaed667b4aa7aa05f1821712e2d9460209473ffffffffffffffffffffffffffffffffffffffff94612b859350614c2f565b612af6565b505050505f90565b90929173ffffffffffffffffffffffffffffffffffffffff60e091612c4160c061010086019784612bc282612306565b16875284612bd260208301612306565b1660208801526bffffffffffffffffffffffff612bf160408301612274565b1660408801526bffffffffffffffffffffffff612c1060608301612274565b16606088015267ffffffffffffffff612c2b608083016122bb565b16608088015260a081013560a088015201612364565b151560c085015216910152565b6040517f721ff14100000000000000000000000000000000000000000000000000000000815260208180612c86856004808401612b92565b03815f305af15f9181612da2575b506129215750602061289c91612ca8612698565b8281519101517fffffffff0000000000000000000000000000000000000000000000000000000081169160048110612d6d575b505060027f30467beaabb8ef26014dc3e31dc09bf58060436193d2f111af53d708264ec40b84612d0f612a04366004612977565b937fffffffff0000000000000000000000000000000000000000000000000000000060405191168152a3604051809381927f2d3b317b0000000000000000000000000000000000000000000000000000000083526004808401612b92565b7fffffffff000000000000000000000000000000000000000000000000000000009250829060040360031b1b16165f80612cdb565b612dbc91925060203d6020116128e5576128d68183612437565b905f612c94565b51906bffffffffffffffffffffffff82168203611fd157565b519067ffffffffffffffff82168203611fd157565b9190826040910312611fd157612e126020612e0b84612dc3565b9301612ddc565b90565b93601f60207fffffffffffffffffffffffffffffffffffffffffffffffffffffffffffffffe09273ffffffffffffffffffffffffffffffffffffffff60a0976bffffffffffffffffffffffff82988360e0999e9d9e168c526001868d01521660408b015216606089015260c0608089015280519182918260c08b0152018589015e5f84828901015201168401019416910152565b946020601f9173ffffffffffffffffffffffffffffffffffffffff60a0976bffffffffffffffffffffffff829860e098849d9e9d7fffffffffffffffffffffffffffffffffffffffffffffffffffffffffffffffe099168d521515868d01521660408b015216606089015260c0608089015280519182918260c08b0152018589015e5f84828901015201168401019416910152565b612f4c6128393660046126f5565b90815f52600460205260405f205480156125c8576004359073ffffffffffffffffffffffffffffffffffffffff821690818303611fd15782612f8d91614dee565b15612b8a57835f5260046020525f604081205563ffffffff60025460601c1660243573ffffffffffffffffffffffffffffffffffffffff81168103611fd157604435918215158303611fd1578215613288576064356bffffffffffffffffffffffff81168103611fd1575b6064356bffffffffffffffffffffffff8116808203611fd1576130729661309e9250604051916130278361241b565b8252602082015260405196879160208301919091602073ffffffffffffffffffffffffffffffffffffffff8160408401956bffffffffffffffffffffffff8151168552015116910152565b037fffffffffffffffffffffffffffffffffffffffffffffffffffffffffffffffe08101875286612437565b60a43573ffffffffffffffffffffffffffffffffffffffff81168103611fd1576040946130ff825f93508751988997889687957f6c717edc000000000000000000000000000000000000000000000000000000008752309260048801612ea9565b039273ffffffffffffffffffffffffffffffffffffffff7f00000000000000000000000000000000000000000000000000000000000000001690f1908115611fc6575f91613257575b506084359067ffffffffffffffff821690818303611fd15767ffffffffffffffff169181831061322857505050907f1e5b131f0a12d61f237ae7ac2433e5d4c62e2a46beac4ebaa5ab818f8a2ab1299160c435906131bd6131a96008612371565b543a0262ffffff60025460981c1602615733565b90818311613216575050905b6131e973ffffffffffffffffffffffffffffffffffffffff8216836148df565b6040805173ffffffffffffffffffffffffffffffffffffffff9290921682526020820192909252a2600190565b81613223929493036148df565b6131c9565b507f162a9905000000000000000000000000000000000000000000000000000000005f5260045260245260445ffd5b613279915060403d604011613281575b6132718183612437565b810190612df1565b90505f613148565b503d613267565b60843567ffffffffffffffff811690818103611fd15750612ff8565b90929173ffffffffffffffffffffffffffffffffffffffff6101009161336760e0610120860197846132d582612306565b168752846132e560208301612306565b1660208801526bffffffffffffffffffffffff61330460408301612274565b1660408801526bffffffffffffffffffffffff61332360608301612274565b16606088015267ffffffffffffffff61333e608083016122bb565b1660808801528461335160a08301612306565b1660a088015260c081013560c088015201612364565b151560e085015216910152565b6040517f93c88dd0000000000000000000000000000000000000000000000000000000008152602081806133ac8560048084016132a4565b03815f305af15f91816134c8575b506129215750602061289c916133ce612698565b8281519101517fffffffff0000000000000000000000000000000000000000000000000000000081169160048110613493575b505060037f30467beaabb8ef26014dc3e31dc09bf58060436193d2f111af53d708264ec40b8461343561251c366004612478565b937fffffffff0000000000000000000000000000000000000000000000000000000060405191168152a3604051809381927f0b914f8000000000000000000000000000000000000000000000000000000000835260048084016132a4565b7fffffffff000000000000000000000000000000000000000000000000000000009250829060040360031b1b16165f80613401565b6134e291925060203d6020116128e5576128d68183612437565b905f6133ba565b9190826040910312611fd157612e126020612e0b84612ddc565b9190826040910312611fd157612e12602061351d84612ddc565b9301612dc3565b613532612a04366004612977565b90815f52600460205260405f20549081156125c85760043573ffffffffffffffffffffffffffffffffffffffff8116808214159384611fd1578261357591614dee565b1561396c57845f5260046020525f604081205573ffffffffffffffffffffffffffffffffffffffff7f0000000000000000000000000000000000000000000000000000000000000000166024359173ffffffffffffffffffffffffffffffffffffffff831692838114159687611fd1576040517f41976e09000000000000000000000000000000000000000000000000000000008152856004820152604081602481885afa908115611fc6575f9161393b575b5060843567ffffffffffffffff811691828203611fd15767ffffffffffffffff9150168181118015613934575b61390657505063ffffffff60025460601c1691604435986bffffffffffffffffffffffff8a1690818b03611fd1578a9160c4359b8c15158d03611fd1578c6137e9575b5050611fd157836bffffffffffffffffffffffff6136b892168784615405565b50611fd157606435936bffffffffffffffffffffffff851694858103611fd1576020946064935f925060405197889687957f444bc80b000000000000000000000000000000000000000000000000000000008752600487015260248601526044850152f18015611fc657613788575b50613760907f62edafd2f83f91e1d876a040945a908920e4a222777b89e96647d433d0a7c5e5935f146137815760055b60a43590614e3e565b906131e973ffffffffffffffffffffffffffffffffffffffff8216836148df565b6004613757565b906020823d6020116137e1575b816137a260209383612437565b81010312611fd1577f62edafd2f83f91e1d876a040945a908920e4a222777b89e96647d433d0a7c5e5936137d861376093612dc3565b50935090613727565b3d9150613795565b92509350506138b860405f926138546138805f978451906138098261241b565b81528a6020820152845192839160208301919091602073ffffffffffffffffffffffffffffffffffffffff8160408401956bffffffffffffffffffffffff8151168552015116910152565b037fffffffffffffffffffffffffffffffffffffffffffffffffffffffffffffffe08101835282612437565b825193849283927fa5054986000000000000000000000000000000000000000000000000000000008452309130908a60048701612e15565b03815f8b8af1908115611fc6575f916138d5575b50905f80613698565b6138f7915060403d6040116138ff575b6138ef8183612437565b810190613503565b90505f6138cc565b503d6138e5565b7fd9afdd43000000000000000000000000000000000000000000000000000000005f5260045260245260445ffd5b505f613655565b61395d915060403d604011613965575b6139558183612437565b8101906134e9565b90505f613628565b503d61394b565b50505050505f90565b6139836128393660046126f5565b90815f52600460205260405f205480156125c8576004359073ffffffffffffffffffffffffffffffffffffffff82168203611fd157816139c291615583565b15613a6257825f5260046020525f604081205560243573ffffffffffffffffffffffffffffffffffffffff81168103611fd157606435926bffffffffffffffffffffffff841693848103611fd1577f13f40752b03763fd5f3cede0990772c06ac47f90525fb872b275da9ab235a9489460209473ffffffffffffffffffffffffffffffffffffffff94613a559350614c2f565b166125b68160c4356148df565b5050505f90565b5f90613a7961251c366004612478565b91825f52600460205260405f20548015613fe8576004359173ffffffffffffffffffffffffffffffffffffffff831691828403611fd15783613aba91614dee565b1561396c57845f5260046020525f604081205573ffffffffffffffffffffffffffffffffffffffff7f0000000000000000000000000000000000000000000000000000000000000000166024359273ffffffffffffffffffffffffffffffffffffffff841690818503611fd15781831480613fc0575b73ffffffffffffffffffffffffffffffffffffffff7f000000000000000000000000000000000000000000000000000000000000000016926040517f41976e09000000000000000000000000000000000000000000000000000000008152816004820152604081602481885afa908115611fc6575f91613fa0575b5060843567ffffffffffffffff811691828203611fd15767ffffffffffffffff91501681811061390657505063ffffffff60025460601c165f97604435956bffffffffffffffffffffffff871696878103611fd15750606435976bffffffffffffffffffffffff891698898103611fd1575060e4359889159889158b1415998a611fd1578b90613f99575b15613f5c5773ffffffffffffffffffffffffffffffffffffffff9130915b604051987fc3bdace8000000000000000000000000000000000000000000000000000000008a5260048a01528a60248a01526044890152606488015216608486015260408560a4815f8689f1948515611fc6575f95613f13575b506bffffffffffffffffffffffff85169081613d17575b50505050505050506104dc5715613d0f576007915b61049b57507f775d65006252fa2627ba0ef6ef5ef6d9ecf590c232ebd64eab048f65cd04a89092916137609160c43590614e3e565b600691613cda565b909294969a91939597505f97895f14613e6a5750505090613dbd613d919493925f9a60405191613d468361241b565b8252602082015260405195869160208301919091602073ffffffffffffffffffffffffffffffffffffffff8160408401956bffffffffffffffffffffffff8151168552015116910152565b037fffffffffffffffffffffffffffffffffffffffffffffffffffffffffffffffe08101865285612437565b60a4359473ffffffffffffffffffffffffffffffffffffffff86168603613e66576040949392918991613e208751988997889687947f6c717edc000000000000000000000000000000000000000000000000000000008652309160048701612e15565b0393f18015613e5b57613e3d575b505b5f80808080808080613cc5565b613e559060403d604011613281576132718183612437565b50613e2e565b6040513d86823e3d90fd5b8880fd5b945094509850935050613e7f575b5050613e30565b803b15611fd1575f80916024604051809481937f2e1a7d4d0000000000000000000000000000000000000000000000000000000083528760048401525af18015611fc657613efe575b5060a4359073ffffffffffffffffffffffffffffffffffffffff82169182810361137c5750613ef791906148df565b5f80613e78565b613f0b9194505f90612437565b5f925f613ec8565b9094506040813d604011613f54575b81613f2f60409383612437565b81010312611fd157602081613f46613f4d93612dc3565b5001612dc3565b935f613cae565b3d9150613f22565b60a4359173ffffffffffffffffffffffffffffffffffffffff83168303611fd15773ffffffffffffffffffffffffffffffffffffffff9291613c54565b5087613c36565b613fb9915060403d604011613965576139558183612437565b505f613bab565b5060a43573ffffffffffffffffffffffffffffffffffffffff81168103611fd1573b15613b30565b50505050600190565b90929173ffffffffffffffffffffffffffffffffffffffff60e09160c06101008501968361401e82612306565b1686528361402e60208301612306565b16602087015261404060408201612364565b1515604087015267ffffffffffffffff61405c606083016122bb565b1660608701526bffffffffffffffffffffffff61267260808301612274565b91908260e0910312611fd157604051614093816123b5565b60c08082946140a181612306565b84526140af60208201612306565b60208501526140c060408201612364565b60408501526140d1606082016122bb565b606085015261275c60808201612274565b6040517fb204d0940000000000000000000000000000000000000000000000000000000081526020818061411a856004808401613ff1565b03815f305af15f918161423b575b506129215750602061289c9161413c612698565b8281519101517fffffffff0000000000000000000000000000000000000000000000000000000081169160048110614206575b505060057f30467beaabb8ef26014dc3e31dc09bf58060436193d2f111af53d708264ec40b846141a86141a336600461407b565b615492565b937fffffffff0000000000000000000000000000000000000000000000000000000060405191168152a3604051809381927fc29ca86b0000000000000000000000000000000000000000000000000000000083526004808401613ff1565b7fffffffff000000000000000000000000000000000000000000000000000000009250829060040360031b1b16165f8061416f565b61425591925060203d6020116128e5576128d68183612437565b905f614128565b9061426b6141a336600461407b565b5f92815f52600460205260405f205480156147255760243573ffffffffffffffffffffffffffffffffffffffff8116808214159283611fd157826142ae91614dee565b1561471b57845f5260046020525f604081205563ffffffff60025460601c1690604435918215158314159182611fd15783156146fd5760643567ffffffffffffffff811690818103611fd15750915b73ffffffffffffffffffffffffffffffffffffffff7f000000000000000000000000000000000000000000000000000000000000000016936004359073ffffffffffffffffffffffffffffffffffffffff8216808314159081611fd1578714806146d5575b156145cc57611fd157611fd15760643567ffffffffffffffff811690818103611fd1575088611fd1576040946143ed5f92613072968851916143a38361241b565b82526020820152875196879160208301919091602073ffffffffffffffffffffffffffffffffffffffff8160408401956bffffffffffffffffffffffff8151168552015116910152565b6144298651988996879586947fa50549860000000000000000000000000000000000000000000000000000000086523093309260048801612ea9565b039273ffffffffffffffffffffffffffffffffffffffff7f00000000000000000000000000000000000000000000000000000000000000001690f1918215611fc6575f926145a9575b5081813b15611fd1575f6bffffffffffffffffffffffff6024829360405194859384927f2e1a7d4d00000000000000000000000000000000000000000000000000000000845216968760048401525af18015611fc657614594575b5060a43573ffffffffffffffffffffffffffffffffffffffff81168103613e66576144f7916148df565b608435906bffffffffffffffffffffffff821690818303613e66576bffffffffffffffffffffffff16918183106145655750505060c4359161137c577f7af8b07f998e5c320cbf31e3814ba3c4a7a951a05995f9e1d6287fbd4ad7f46c939495506131bd6131a96009612371565b507f162a9905000000000000000000000000000000000000000000000000000000008852600452602452604486fd5b6145a19198505f90612437565b5f965f6144cd565b6145c391925060403d6040116138ff576138ef8183612437565b9050905f614472565b5050929493509095506064359367ffffffffffffffff851694858103611fd1576130729561460491505f98604051916130278361241b565b60a43573ffffffffffffffffffffffffffffffffffffffff81168103611fd157604094614665825f93508751988997889687957fa5054986000000000000000000000000000000000000000000000000000000008752309260048801612ea9565b039273ffffffffffffffffffffffffffffffffffffffff7f00000000000000000000000000000000000000000000000000000000000000001690f1908115611fc6575f916146b4575b506144f7565b6146cd915060403d6040116138ff576138ef8183612437565b90505f6146ae565b5060a43573ffffffffffffffffffffffffffffffffffffffff81168103611fd1573b15614362565b6084356bffffffffffffffffffffffff81168103611fd157916142fd565b505f955050505050565b50600193505050565b61473c6141a336600461407b565b90815f52600460205260405f20549081156125c8576024359173ffffffffffffffffffffffffffffffffffffffff83168303611fd1578261477c91615583565b15613a6257825f5260046020525f60408120556064359167ffffffffffffffff831691828403611fd157613a5560209373ffffffffffffffffffffffffffffffffffffffff937f3a7252538b94b8f8452c3d0cd12d6e9c807e7cda8505e2063e6b52fdf1b2116e9650847f000000000000000000000000000000000000000000000000000000000000000016614d5c565b60405160e0602082019273ffffffffffffffffffffffffffffffffffffffff815116845273ffffffffffffffffffffffffffffffffffffffff60208201511660408401526bffffffffffffffffffffffff60408201511660608401526bffffffffffffffffffffffff606082015116608084015267ffffffffffffffff60808201511660a084015273ffffffffffffffffffffffffffffffffffffffff60a08201511660c084015260c0810151828401520151151561010082015261010081526148d961012082612437565b51902090565b906128b99173ffffffffffffffffffffffffffffffffffffffff63ffffffff60025460b01c16921661561a565b60405160c0602082019273ffffffffffffffffffffffffffffffffffffffff815116845273ffffffffffffffffffffffffffffffffffffffff60208201511660408401526040810151151560608401526bffffffffffffffffffffffff606082015116608084015267ffffffffffffffff60808201511660a084015273ffffffffffffffffffffffffffffffffffffffff60a08201511682840152015160e082015260e081526148d961010082612437565b6bffffffffffffffffffffffff81116149e2576bffffffffffffffffffffffff1690565b7f6dfcc650000000000000000000000000000000000000000000000000000000005f52606060045260245260445ffd5b90614a1c82614b85565b91614a2683615544565b825f5260046020524360405f205573ffffffffffffffffffffffffffffffffffffffff8151167fa4c40779d06ceebd523c74f4a2e95b662190f13958ee03c0dc92cfff2df0d21760c073ffffffffffffffffffffffffffffffffffffffff602085015116936bffffffffffffffffffffffff604082015116906bffffffffffffffffffffffff6060820151169067ffffffffffffffff6080820151168460a083015192015115159260405194855260208501526040840152606083015260808201528660a0820152a3565b6004602073ffffffffffffffffffffffffffffffffffffffff5f5416604051928380927f12d43a510000000000000000000000000000000000000000000000000000000082525afa8015611fc65773ffffffffffffffffffffffffffffffffffffffff915f91614b66575b501633036120d857565b614b7f915060203d602011611e0257611df48183612437565b5f614b5c565b60405160c0602082019273ffffffffffffffffffffffffffffffffffffffff815116845273ffffffffffffffffffffffffffffffffffffffff60208201511660408401526bffffffffffffffffffffffff60408201511660608401526bffffffffffffffffffffffff606082015116608084015267ffffffffffffffff60808201511660a084015260a0810151828401520151151560e082015260e081526148d961010082612437565b73ffffffffffffffffffffffffffffffffffffffff7f0000000000000000000000000000000000000000000000000000000000000000169073ffffffffffffffffffffffffffffffffffffffff8116821480614d53575b15614d275750803b15611fd1575f6fffffffffffffffffffffffffffffffff6024829560405196879384927f2e1a7d4d00000000000000000000000000000000000000000000000000000000845216958660048401525af1928315611fc6576128b993614d17575b5073ffffffffffffffffffffffffffffffffffffffff63ffffffff60025460b01c16921661561a565b5f614d2191612437565b5f614cee565b90506128b992916fffffffffffffffffffffffffffffffff63ffffffff60025460601c16931691615405565b50823b15614c86565b905f8091613854614dc46128b99660405192839160208301957fa9059cbb000000000000000000000000000000000000000000000000000000008752602484016020909392919373ffffffffffffffffffffffffffffffffffffffff60408201951681520152565b51908273ffffffffffffffffffffffffffffffffffffffff86165af1614de8612698565b916156b6565b919063ffffffff60025460401c1683019243841115614e1257612e12929350615583565b837ff80dbaea000000000000000000000000000000000000000000000000000000005f5260045260245ffd5b6131a9614e4d91939293612371565b90818311614e5a57505090565b816128b9929493036148df565b908315615218575f93849360405192829081606414615161578160481461509e578160e0146150645781610100146150285781606014614f2d575061016014614ee3578185926004927f9fd5a6cf0000000000000000000000000000000000000000000000000000000086528386013701925af15b15611fc657565b610164935061016091507f2b67b5700000000000000000000000000000000000000000000000000000000083526004830137826e22d473030f116ddee9f6b43ac78ba35af1614edc565b602093506040929150610164957f2b67b570000000000000000000000000000000000000000000000000000000008652336004870152602486015260148260508701377fffffffffffffffffffffffffffffffffffffffffffffffffffffffffffffffff601483013560e01c0165ffffffffffff166064860152601882013560e01c608486015260a48501527fffffffffffffffffffffffffffffffffffffffffffffffffffffffffffffffff601c82013560e01c0165ffffffffffff1660c485015261010060e4850152816101048501528280820161012486013701610144830137826e22d473030f116ddee9f6b43ac78ba35af1614edc565b505084915092610100610104947f8fcbaf0c00000000000000000000000000000000000000000000000000000000855260048501375af1614edc565b50508491509260e060e4947fd505accf00000000000000000000000000000000000000000000000000000000855260048501375af1614edc565b8693507f7fffffffffffffffffffffffffffffffffffffffffffffffffffffffffffffff91509161010495927f8fcbaf0c000000000000000000000000000000000000000000000000000000008652336004870152602486015260206008602883013592803560e01c60448901527fffffffffffffffffffffffffffffffffffffffffffffffffffffffffffffffff600482013560e01c016064890152600160848901528360ff1c601b0160a48901520160c48701371660e48401525af1614edc565b8693507f7fffffffffffffffffffffffffffffffffffffffffffffffffffffffffffffff91509160e495927fd505accf000000000000000000000000000000000000000000000000000000008652336004870152602486015260206024604483013592828160448a01377fffffffffffffffffffffffffffffffffffffffffffffffffffffffffffffffff8382013560e01c0160648901528360ff1c601b0160848901520160a48701371660c48401525af1614edc565b50505050565b906152288261490c565b9161523283615544565b825f5260046020524360405f205573ffffffffffffffffffffffffffffffffffffffff8151167fff86d0cdd46d39a5893e51e6a8295cfc15baba1f3ccdc6463ba20a49ec3d80d560c073ffffffffffffffffffffffffffffffffffffffff6020850151169360408101511515906bffffffffffffffffffffffff6060820151169067ffffffffffffffff6080820151168473ffffffffffffffffffffffffffffffffffffffff60a0840151169201519260405194855260208501526040840152606083015260808201528660a0820152a3565b9061530f8261480d565b9161531983615544565b825f5260046020524360405f205573ffffffffffffffffffffffffffffffffffffffff8151167f39883da8f51b7a76e5088868ba42b3fa6ba1c23b3fc57238cf522f20dc86a03d60e073ffffffffffffffffffffffffffffffffffffffff602085015116936bffffffffffffffffffffffff604082015116906bffffffffffffffffffffffff6060820151169067ffffffffffffffff60808201511673ffffffffffffffffffffffffffffffffffffffff60a083015116908560c0840151930151151593604051958652602086015260408501526060840152608083015260a08201528660c0820152a3565b916128b9935f928361385461546f829560405192839160208301967fa9059cbb000000000000000000000000000000000000000000000000000000008852602484016020909392919373ffffffffffffffffffffffffffffffffffffffff60408201951681520152565b519273ffffffffffffffffffffffffffffffffffffffff871690f1614de8612698565b60405160c0602082019273ffffffffffffffffffffffffffffffffffffffff815116845273ffffffffffffffffffffffffffffffffffffffff602082015116604084015260408101511515606084015267ffffffffffffffff60608201511660808401526bffffffffffffffffffffffff60808201511660a084015273ffffffffffffffffffffffffffffffffffffffff60a08201511682840152015160e082015260e081526148d961010082612437565b805f52600460205260405f20546155585750565b7f43731142000000000000000000000000000000000000000000000000000000005f5260045260245ffd5b903033148015615604575b6155f35773ffffffffffffffffffffffffffffffffffffffff1633036120d85763ffffffff60025460201c16014381116155c85750600190565b7f2a35a324000000000000000000000000000000000000000000000000000000005f5260045260245ffd5b5063ffffffff600254160143101590565b50335f52600360205260ff60405f20541661558e565b91909182156156b157824710615681575f8093819373ffffffffffffffffffffffffffffffffffffffff83941690f1615651612698565b501561565957565b7fe293b56b000000000000000000000000000000000000000000000000000000005f5260045ffd5b82477fcf479181000000000000000000000000000000000000000000000000000000005f5260045260245260445ffd5b505050565b73ffffffffffffffffffffffffffffffffffffffff16916156d7918361576e565b8051908115159182615718575b50506156ed5750565b7f39f1c8d9000000000000000000000000000000000000000000000000000000005f5260045260245ffd5b61572b92506020809183010191016125d0565b155f806156e4565b5f908061573e575090565b600191507fffffffffffffffffffffffffffffffffffffffffffffffffffffffffffffffff629896809101040190565b906157ab575080511561578357805190602001fd5b7f1425ea42000000000000000000000000000000000000000000000000000000005f5260045ffd5b815115806157fe575b6157bc575090565b73ffffffffffffffffffffffffffffffffffffffff907f9996b315000000000000000000000000000000000000000000000000000000005f521660045260245ffd5b50803b156157b456fea164736f6c634300081a000a",
  "linkReferences": {},
  "deployedLinkReferences": {}
}