{
  "_format": "hh-sol-artifact-1",
  "contractName": "PositionRouter2",
  "sourceName": "contracts/plugins/PositionRouter2.sol",
  "abi": [
    {
      "inputs": [
        {
          "internalType": "contract Governable",
          "name": "_govImpl",
          "type": "address"
        },
        {
          "internalType": "contract IPUSD",
          "name": "_usd",
          "type": "address"
        },
        {
          "internalType": "contract IMarketManager",
          "name": "_marketManager",
          "type": "address"
        },
        {
          "internalType": "contract IWETHMinimum",
          "name": "_weth",
          "type": "address"
        },
        {
          "internalType": "enum IPositionRouterCommon.EstimatedGasLimitType[]",
          "name": "_estimatedGasLimitTypes",
          "type": "uint8[]"
        },
        {
          "internalType": "uint256[]",
          "name": "_estimatedGasLimits",
          "type": "uint256[]"
        }
      ],
      "stateMutability": "nonpayable",
      "type": "constructor"
    },
    {
      "inputs": [
        {
          "internalType": "address",
          "name": "target",
          "type": "address"
        }
      ],
      "name": "AddressEmptyCode",
      "type": "error"
    },
    {
      "inputs": [
        {
          "internalType": "bytes32",
          "name": "id",
          "type": "bytes32"
        }
      ],
      "name": "ConflictRequests",
      "type": "error"
    },
    {
      "inputs": [
        {
          "internalType": "uint256",
          "name": "expiredAt",
          "type": "uint256"
        }
      ],
      "name": "Expired",
      "type": "error"
    },
    {
      "inputs": [],
      "name": "FailedInnerCall",
      "type": "error"
    },
    {
      "inputs": [],
      "name": "FailedTransferETH",
      "type": "error"
    },
    {
      "inputs": [],
      "name": "Forbidden",
      "type": "error"
    },
    {
      "inputs": [
        {
          "internalType": "uint256",
          "name": "balance",
          "type": "uint256"
        },
        {
          "internalType": "uint256",
          "name": "requiredAmount",
          "type": "uint256"
        }
      ],
      "name": "InsufficientBalance",
      "type": "error"
    },
    {
      "inputs": [
        {
          "internalType": "uint256",
          "name": "available",
          "type": "uint256"
        },
        {
          "internalType": "uint256",
          "name": "required",
          "type": "uint256"
        }
      ],
      "name": "InsufficientExecutionFee",
      "type": "error"
    },
    {
      "inputs": [
        {
          "internalType": "address",
          "name": "requiredCaller",
          "type": "address"
        }
      ],
      "name": "InvalidCaller",
      "type": "error"
    },
    {
      "inputs": [
        {
          "internalType": "uint64",
          "name": "indexPrice",
          "type": "uint64"
        },
        {
          "internalType": "uint64",
          "name": "acceptableIndexPrice",
          "type": "uint64"
        }
      ],
      "name": "InvalidIndexPrice",
      "type": "error"
    },
    {
      "inputs": [
        {
          "internalType": "uint8",
          "name": "bits",
          "type": "uint8"
        },
        {
          "internalType": "uint256",
          "name": "value",
          "type": "uint256"
        }
      ],
      "name": "SafeCastOverflowedUintDowncast",
      "type": "error"
    },
    {
      "inputs": [
        {
          "internalType": "uint256",
          "name": "earliest",
          "type": "uint256"
        }
      ],
      "name": "TooEarly",
      "type": "error"
    },
    {
      "inputs": [
        {
          "internalType": "uint96",
          "name": "acceptableMinAmount",
          "type": "uint96"
        },
        {
          "internalType": "uint96",
          "name": "receiveAmount",
          "type": "uint96"
        }
      ],
      "name": "TooLittleReceived",
      "type": "error"
    },
    {
      "inputs": [
        {
          "internalType": "uint96",
          "name": "payAmount",
          "type": "uint96"
        },
        {
          "internalType": "uint96",
          "name": "acceptableMaxAmount",
          "type": "uint96"
        }
      ],
      "name": "TooMuchPaid",
      "type": "error"
    },
    {
      "inputs": [
        {
          "internalType": "contract IERC20",
          "name": "token",
          "type": "address"
        }
      ],
      "name": "TransferFailed",
      "type": "error"
    },
    {
      "anonymous": false,
      "inputs": [
        {
          "indexed": true,
          "internalType": "bytes32",
          "name": "id",
          "type": "bytes32"
        },
        {
          "indexed": false,
          "internalType": "address payable",
          "name": "executionFeeReceiver",
          "type": "address"
        }
      ],
      "name": "BurnLPTCancelled",
      "type": "event"
    },
    {
      "anonymous": false,
      "inputs": [
        {
          "indexed": true,
          "internalType": "address",
          "name": "account",
          "type": "address"
        },
        {
          "indexed": true,
          "internalType": "contract IERC20",
          "name": "market",
          "type": "address"
        },
        {
          "indexed": false,
          "internalType": "uint64",
          "name": "amount",
          "type": "uint64"
        },
        {
          "indexed": false,
          "internalType": "uint96",
          "name": "acceptableMinLiquidity",
          "type": "uint96"
        },
        {
          "indexed": false,
          "internalType": "address",
          "name": "receiver",
          "type": "address"
        },
        {
          "indexed": false,
          "internalType": "uint256",
          "name": "executionFee",
          "type": "uint256"
        },
        {
          "indexed": false,
          "internalType": "bool",
          "name": "receivePUSD",
          "type": "bool"
        },
        {
          "indexed": false,
          "internalType": "uint64",
          "name": "minPUSDReceived",
          "type": "uint64"
        },
        {
          "indexed": false,
          "internalType": "bytes32",
          "name": "id",
          "type": "bytes32"
        }
      ],
      "name": "BurnLPTCreated",
      "type": "event"
    },
    {
      "anonymous": false,
      "inputs": [
        {
          "indexed": true,
          "internalType": "bytes32",
          "name": "id",
          "type": "bytes32"
        },
        {
          "indexed": false,
          "internalType": "address payable",
          "name": "executionFeeReceiver",
          "type": "address"
        },
        {
          "indexed": false,
          "internalType": "uint256",
          "name": "executionFee",
          "type": "uint256"
        }
      ],
      "name": "BurnLPTExecuted",
      "type": "event"
    },
    {
      "anonymous": false,
      "inputs": [
        {
          "indexed": false,
          "internalType": "uint32",
          "name": "minBlockDelayExecutor",
          "type": "uint32"
        },
        {
          "indexed": false,
          "internalType": "uint32",
          "name": "minBlockDelayPublic",
          "type": "uint32"
        },
        {
          "indexed": false,
          "internalType": "uint32",
          "name": "maxBlockDelay",
          "type": "uint32"
        }
      ],
      "name": "DelayValuesUpdated",
      "type": "event"
    },
    {
      "anonymous": false,
      "inputs": [
        {
          "indexed": false,
          "internalType": "uint24",
          "name": "estimatedGasMultiplier",
          "type": "uint24"
        }
      ],
      "name": "EstimatedGasFeeMultiplierUpdated",
      "type": "event"
    },
    {
      "anonymous": false,
      "inputs": [
        {
          "indexed": false,
          "internalType": "enum IPositionRouterCommon.EstimatedGasLimitType",
          "name": "estimatedGasLimitType",
          "type": "uint8"
        },
        {
          "indexed": false,
          "internalType": "uint256",
          "name": "estimatedGasLimit",
          "type": "uint256"
        }
      ],
      "name": "EstimatedGasLimitUpdated",
      "type": "event"
    },
    {
      "anonymous": false,
      "inputs": [
        {
          "indexed": true,
          "internalType": "enum IPositionRouterCommon.RequestType",
          "name": "reqType",
          "type": "uint8"
        },
        {
          "indexed": true,
          "internalType": "bytes32",
          "name": "id",
          "type": "bytes32"
        },
        {
          "indexed": false,
          "internalType": "bytes4",
          "name": "shortenedReason",
          "type": "bytes4"
        }
      ],
      "name": "ExecuteFailed",
      "type": "event"
    },
    {
      "anonymous": false,
      "inputs": [
        {
          "indexed": false,
          "internalType": "uint24",
          "name": "executionGasFeeMultiplier",
          "type": "uint24"
        }
      ],
      "name": "ExecutionGasFeeMultiplierUpdated",
      "type": "event"
    },
    {
      "anonymous": false,
      "inputs": [
        {
          "indexed": true,
          "internalType": "bytes32",
          "name": "id",
          "type": "bytes32"
        },
        {
          "indexed": false,
          "internalType": "address payable",
          "name": "receiver",
          "type": "address"
        }
      ],
      "name": "MintLPTCancelled",
      "type": "event"
    },
    {
      "anonymous": false,
      "inputs": [
        {
          "indexed": true,
          "internalType": "address",
          "name": "account",
          "type": "address"
        },
        {
          "indexed": true,
          "internalType": "contract IERC20",
          "name": "market",
          "type": "address"
        },
        {
          "indexed": false,
          "internalType": "uint96",
          "name": "liquidityDelta",
          "type": "uint96"
        },
        {
          "indexed": false,
          "internalType": "uint256",
          "name": "executionFee",
          "type": "uint256"
        },
        {
          "indexed": false,
          "internalType": "address",
          "name": "receiver",
          "type": "address"
        },
        {
          "indexed": false,
          "internalType": "bool",
          "name": "payPUSD",
          "type": "bool"
        },
        {
          "indexed": false,
          "internalType": "uint96",
          "name": "minReceiveAmountFromBurningPUSD",
          "type": "uint96"
        },
        {
          "indexed": false,
          "internalType": "bytes32",
          "name": "id",
          "type": "bytes32"
        }
      ],
      "name": "MintLPTCreated",
      "type": "event"
    },
    {
      "anonymous": false,
      "inputs": [
        {
          "indexed": true,
          "internalType": "bytes32",
          "name": "id",
          "type": "bytes32"
        },
        {
          "indexed": false,
          "internalType": "address payable",
          "name": "executionFeeReceiver",
          "type": "address"
        },
        {
          "indexed": false,
          "internalType": "uint256",
          "name": "executionFee",
          "type": "uint256"
        }
      ],
      "name": "MintLPTExecuted",
      "type": "event"
    },
    {
      "anonymous": false,
      "inputs": [
        {
          "indexed": true,
          "internalType": "address",
          "name": "account",
          "type": "address"
        },
        {
          "indexed": false,
          "internalType": "bool",
          "name": "active",
          "type": "bool"
        }
      ],
      "name": "PositionExecutorUpdated",
      "type": "event"
    },
    {
      "inputs": [
        {
          "internalType": "contract IERC20",
          "name": "_payToken",
          "type": "address"
        },
        {
          "internalType": "uint96",
          "name": "_payAmount",
          "type": "uint96"
        },
        {
          "internalType": "uint96",
          "name": "",
          "type": "uint96"
        },
        {
          "internalType": "bytes",
          "name": "_data",
          "type": "bytes"
        }
      ],
      "name": "PUSDManagerCallback",
      "outputs": [],
      "stateMutability": "nonpayable",
      "type": "function"
    },
    {
      "inputs": [
        {
          "internalType": "contract Governable",
          "name": "_newGov",
          "type": "address"
        }
      ],
      "name": "_changeImpl",
      "outputs": [],
      "stateMutability": "nonpayable",
      "type": "function"
    },
    {
      "inputs": [
        {
          "internalType": "bytes32",
          "name": "id",
          "type": "bytes32"
        }
      ],
      "name": "blockNumbers",
      "outputs": [
        {
          "internalType": "uint256",
          "name": "blockNumber",
          "type": "uint256"
        }
      ],
      "stateMutability": "view",
      "type": "function"
    },
    {
      "inputs": [
        {
          "components": [
            {
              "internalType": "address",
              "name": "account",
              "type": "address"
            },
            {
              "internalType": "contract IERC20",
              "name": "market",
              "type": "address"
            },
            {
              "internalType": "uint64",
              "name": "amount",
              "type": "uint64"
            },
            {
              "internalType": "uint96",
              "name": "acceptableMinLiquidity",
              "type": "uint96"
            },
            {
              "internalType": "address",
              "name": "receiver",
              "type": "address"
            },
            {
              "internalType": "uint256",
              "name": "executionFee",
              "type": "uint256"
            },
            {
              "internalType": "bool",
              "name": "receivePUSD",
              "type": "bool"
            },
            {
              "internalType": "uint64",
              "name": "minPUSDReceived",
              "type": "uint64"
            }
          ],
          "internalType": "struct IPositionRouter2.BurnLPTRequestIdParam",
          "name": "_param",
          "type": "tuple"
        },
        {
          "internalType": "address payable",
          "name": "_executionFeeReceiver",
          "type": "address"
        }
      ],
      "name": "cancelBurnLPT",
      "outputs": [
        {
          "internalType": "bool",
          "name": "",
          "type": "bool"
        }
      ],
      "stateMutability": "nonpayable",
      "type": "function"
    },
    {
      "inputs": [
        {
          "components": [
            {
              "internalType": "address",
              "name": "account",
              "type": "address"
            },
            {
              "internalType": "contract IERC20",
              "name": "market",
              "type": "address"
            },
            {
              "internalType": "uint96",
              "name": "liquidityDelta",
              "type": "uint96"
            },
            {
              "internalType": "uint256",
              "name": "executionFee",
              "type": "uint256"
            },
            {
              "internalType": "address",
              "name": "receiver",
              "type": "address"
            },
            {
              "internalType": "bool",
              "name": "payPUSD",
              "type": "bool"
            },
            {
              "internalType": "uint96",
              "name": "minReceivedFromBurningPUSD",
              "type": "uint96"
            }
          ],
          "internalType": "struct IPositionRouter2.MintLPTRequestIdParam",
          "name": "_param",
          "type": "tuple"
        },
        {
          "internalType": "address payable",
          "name": "_executionFeeReceiver",
          "type": "address"
        }
      ],
      "name": "cancelMintLPT",
      "outputs": [
        {
          "internalType": "bool",
          "name": "",
          "type": "bool"
        }
      ],
      "stateMutability": "nonpayable",
      "type": "function"
    },
    {
      "inputs": [
        {
          "internalType": "contract IERC20",
          "name": "_market",
          "type": "address"
        },
        {
          "internalType": "uint64",
          "name": "_amount",
          "type": "uint64"
        },
        {
          "internalType": "uint96",
          "name": "_acceptableMinLiquidity",
          "type": "uint96"
        },
        {
          "internalType": "address",
          "name": "_receiver",
          "type": "address"
        },
        {
          "internalType": "bytes",
          "name": "_permitData",
          "type": "bytes"
        }
      ],
      "name": "createBurnLPT",
      "outputs": [
        {
          "internalType": "bytes32",
          "name": "id",
          "type": "bytes32"
        }
      ],
      "stateMutability": "payable",
      "type": "function"
    },
    {
      "inputs": [
        {
          "internalType": "contract IERC20",
          "name": "_market",
          "type": "address"
        },
        {
          "internalType": "uint64",
          "name": "_amount",
          "type": "uint64"
        },
        {
          "internalType": "uint64",
          "name": "_minPUSDReceived",
          "type": "uint64"
        },
        {
          "internalType": "address",
          "name": "_receiver",
          "type": "address"
        },
        {
          "internalType": "bytes",
          "name": "_permitData",
          "type": "bytes"
        }
      ],
      "name": "createBurnLPTReceivePUSD",
      "outputs": [
        {
          "internalType": "bytes32",
          "name": "id",
          "type": "bytes32"
        }
      ],
      "stateMutability": "payable",
      "type": "function"
    },
    {
      "inputs": [
        {
          "internalType": "contract IERC20",
          "name": "_market",
          "type": "address"
        },
        {
          "internalType": "uint96",
          "name": "_liquidityDelta",
          "type": "uint96"
        },
        {
          "internalType": "address",
          "name": "_receiver",
          "type": "address"
        },
        {
          "internalType": "bytes",
          "name": "_permitData",
          "type": "bytes"
        }
      ],
      "name": "createMintLPT",
      "outputs": [
        {
          "internalType": "bytes32",
          "name": "id",
          "type": "bytes32"
        }
      ],
      "stateMutability": "payable",
      "type": "function"
    },
    {
      "inputs": [
        {
          "internalType": "address",
          "name": "_receiver",
          "type": "address"
        },
        {
          "internalType": "uint256",
          "name": "_executionFee",
          "type": "uint256"
        }
      ],
      "name": "createMintLPTETH",
      "outputs": [
        {
          "internalType": "bytes32",
          "name": "id",
          "type": "bytes32"
        }
      ],
      "stateMutability": "payable",
      "type": "function"
    },
    {
      "inputs": [
        {
          "internalType": "contract IERC20",
          "name": "_market",
          "type": "address"
        },
        {
          "internalType": "uint64",
          "name": "_pusdAmount",
          "type": "uint64"
        },
        {
          "internalType": "address",
          "name": "_receiver",
          "type": "address"
        },
        {
          "internalType": "uint96",
          "name": "_minReceivedFromBurningPUSD",
          "type": "uint96"
        },
        {
          "internalType": "bytes",
          "name": "_permitData",
          "type": "bytes"
        }
      ],
      "name": "createMintLPTPayPUSD",
      "outputs": [
        {
          "internalType": "bytes32",
          "name": "id",
          "type": "bytes32"
        }
      ],
      "stateMutability": "payable",
      "type": "function"
    },
    {
      "inputs": [],
      "name": "estimatedGasFeeMultiplier",
      "outputs": [
        {
          "internalType": "uint24",
          "name": "",
          "type": "uint24"
        }
      ],
      "stateMutability": "view",
      "type": "function"
    },
    {
      "inputs": [
        {
          "internalType": "enum IPositionRouterCommon.EstimatedGasLimitType",
          "name": "",
          "type": "uint8"
        }
      ],
      "name": "estimatedGasLimits",
      "outputs": [
        {
          "internalType": "uint256",
          "name": "",
          "type": "uint256"
        }
      ],
      "stateMutability": "view",
      "type": "function"
    },
    {
      "inputs": [],
      "name": "etherTransferGasLimit",
      "outputs": [
        {
          "internalType": "uint32",
          "name": "",
          "type": "uint32"
        }
      ],
      "stateMutability": "view",
      "type": "function"
    },
    {
      "inputs": [
        {
          "components": [
            {
              "internalType": "address",
              "name": "account",
              "type": "address"
            },
            {
              "internalType": "contract IERC20",
              "name": "market",
              "type": "address"
            },
            {
              "internalType": "uint64",
              "name": "amount",
              "type": "uint64"
            },
            {
              "internalType": "uint96",
              "name": "acceptableMinLiquidity",
              "type": "uint96"
            },
            {
              "internalType": "address",
              "name": "receiver",
              "type": "address"
            },
            {
              "internalType": "uint256",
              "name": "executionFee",
              "type": "uint256"
            },
            {
              "internalType": "bool",
              "name": "receivePUSD",
              "type": "bool"
            },
            {
              "internalType": "uint64",
              "name": "minPUSDReceived",
              "type": "uint64"
            }
          ],
          "internalType": "struct IPositionRouter2.BurnLPTRequestIdParam",
          "name": "_param",
          "type": "tuple"
        },
        {
          "internalType": "address payable",
          "name": "_executionFeeReceiver",
          "type": "address"
        }
      ],
      "name": "executeBurnLPT",
      "outputs": [
        {
          "internalType": "bool",
          "name": "",
          "type": "bool"
        }
      ],
      "stateMutability": "nonpayable",
      "type": "function"
    },
    {
      "inputs": [
        {
          "components": [
            {
              "internalType": "address",
              "name": "account",
              "type": "address"
            },
            {
              "internalType": "contract IERC20",
              "name": "market",
              "type": "address"
            },
            {
              "internalType": "uint96",
              "name": "liquidityDelta",
              "type": "uint96"
            },
            {
              "internalType": "uint256",
              "name": "executionFee",
              "type": "uint256"
            },
            {
              "internalType": "address",
              "name": "receiver",
              "type": "address"
            },
            {
              "internalType": "bool",
              "name": "payPUSD",
              "type": "bool"
            },
            {
              "internalType": "uint96",
              "name": "minReceivedFromBurningPUSD",
              "type": "uint96"
            }
          ],
          "internalType": "struct IPositionRouter2.MintLPTRequestIdParam",
          "name": "_param",
          "type": "tuple"
        },
        {
          "internalType": "address payable",
          "name": "_executionFeeReceiver",
          "type": "address"
        }
      ],
      "name": "executeMintLPT",
      "outputs": [
        {
          "internalType": "bool",
          "name": "",
          "type": "bool"
        }
      ],
      "stateMutability": "nonpayable",
      "type": "function"
    },
    {
      "inputs": [
        {
          "components": [
            {
              "internalType": "address",
              "name": "account",
              "type": "address"
            },
            {
              "internalType": "contract IERC20",
              "name": "market",
              "type": "address"
            },
            {
              "internalType": "uint64",
              "name": "amount",
              "type": "uint64"
            },
            {
              "internalType": "uint96",
              "name": "acceptableMinLiquidity",
              "type": "uint96"
            },
            {
              "internalType": "address",
              "name": "receiver",
              "type": "address"
            },
            {
              "internalType": "uint256",
              "name": "executionFee",
              "type": "uint256"
            },
            {
              "internalType": "bool",
              "name": "receivePUSD",
              "type": "bool"
            },
            {
              "internalType": "uint64",
              "name": "minPUSDReceived",
              "type": "uint64"
            }
          ],
          "internalType": "struct IPositionRouter2.BurnLPTRequestIdParam",
          "name": "_param",
          "type": "tuple"
        },
        {
          "internalType": "address payable",
          "name": "_executionFeeReceiver",
          "type": "address"
        }
      ],
      "name": "executeOrCancelBurnLPT",
      "outputs": [],
      "stateMutability": "nonpayable",
      "type": "function"
    },
    {
      "inputs": [
        {
          "components": [
            {
              "internalType": "address",
              "name": "account",
              "type": "address"
            },
            {
              "internalType": "contract IERC20",
              "name": "market",
              "type": "address"
            },
            {
              "internalType": "uint96",
              "name": "liquidityDelta",
              "type": "uint96"
            },
            {
              "internalType": "uint256",
              "name": "executionFee",
              "type": "uint256"
            },
            {
              "internalType": "address",
              "name": "receiver",
              "type": "address"
            },
            {
              "internalType": "bool",
              "name": "payPUSD",
              "type": "bool"
            },
            {
              "internalType": "uint96",
              "name": "minReceivedFromBurningPUSD",
              "type": "uint96"
            }
          ],
          "internalType": "struct IPositionRouter2.MintLPTRequestIdParam",
          "name": "_param",
          "type": "tuple"
        },
        {
          "internalType": "address payable",
          "name": "_executionFeeReceiver",
          "type": "address"
        }
      ],
      "name": "executeOrCancelMintLPT",
      "outputs": [],
      "stateMutability": "nonpayable",
      "type": "function"
    },
    {
      "inputs": [],
      "name": "executionGasFeeMultiplier",
      "outputs": [
        {
          "internalType": "uint24",
          "name": "",
          "type": "uint24"
        }
      ],
      "stateMutability": "view",
      "type": "function"
    },
    {
      "inputs": [],
      "name": "executionGasLimit",
      "outputs": [
        {
          "internalType": "uint32",
          "name": "",
          "type": "uint32"
        }
      ],
      "stateMutability": "view",
      "type": "function"
    },
    {
      "inputs": [],
      "name": "gov",
      "outputs": [
        {
          "internalType": "address",
          "name": "",
          "type": "address"
        }
      ],
      "stateMutability": "view",
      "type": "function"
    },
    {
      "inputs": [],
      "name": "marketManager",
      "outputs": [
        {
          "internalType": "contract IMarketManager",
          "name": "",
          "type": "address"
        }
      ],
      "stateMutability": "view",
      "type": "function"
    },
    {
      "inputs": [],
      "name": "maxBlockDelay",
      "outputs": [
        {
          "internalType": "uint32",
          "name": "",
          "type": "uint32"
        }
      ],
      "stateMutability": "view",
      "type": "function"
    },
    {
      "inputs": [],
      "name": "minBlockDelayExecutor",
      "outputs": [
        {
          "internalType": "uint32",
          "name": "",
          "type": "uint32"
        }
      ],
      "stateMutability": "view",
      "type": "function"
    },
    {
      "inputs": [],
      "name": "minBlockDelayPublic",
      "outputs": [
        {
          "internalType": "uint32",
          "name": "",
          "type": "uint32"
        }
      ],
      "stateMutability": "view",
      "type": "function"
    },
    {
      "inputs": [
        {
          "internalType": "address",
          "name": "",
          "type": "address"
        }
      ],
      "name": "positionExecutors",
      "outputs": [
        {
          "internalType": "bool",
          "name": "",
          "type": "bool"
        }
      ],
      "stateMutability": "view",
      "type": "function"
    },
    {
      "inputs": [
        {
          "internalType": "uint32",
          "name": "_minBlockDelayExecutor",
          "type": "uint32"
        },
        {
          "internalType": "uint32",
          "name": "_minBlockDelayPublic",
          "type": "uint32"
        },
        {
          "internalType": "uint32",
          "name": "_maxBlockDelay",
          "type": "uint32"
        }
      ],
      "name": "updateDelayValues",
      "outputs": [],
      "stateMutability": "nonpayable",
      "type": "function"
    },
    {
      "inputs": [
        {
          "internalType": "uint24",
          "name": "_multiplier",
          "type": "uint24"
        }
      ],
      "name": "updateEstimatedGasFeeMultiplier",
      "outputs": [],
      "stateMutability": "nonpayable",
      "type": "function"
    },
    {
      "inputs": [
        {
          "internalType": "enum IPositionRouterCommon.EstimatedGasLimitType",
          "name": "_estimatedGasLimitType",
          "type": "uint8"
        },
        {
          "internalType": "uint256",
          "name": "_estimatedGasLimit",
          "type": "uint256"
        }
      ],
      "name": "updateEstimatedGasLimit",
      "outputs": [],
      "stateMutability": "nonpayable",
      "type": "function"
    },
    {
      "inputs": [
        {
          "internalType": "uint32",
          "name": "_etherTransferGasLimit",
          "type": "uint32"
        }
      ],
      "name": "updateEtherTransferGasLimit",
      "outputs": [],
      "stateMutability": "nonpayable",
      "type": "function"
    },
    {
      "inputs": [
        {
          "internalType": "uint24",
          "name": "_multiplier",
          "type": "uint24"
        }
      ],
      "name": "updateExecutionGasFeeMultiplier",
      "outputs": [],
      "stateMutability": "nonpayable",
      "type": "function"
    },
    {
      "inputs": [
        {
          "internalType": "uint32",
          "name": "_executionGasLimit",
          "type": "uint32"
        }
      ],
      "name": "updateExecutionGasLimit",
      "outputs": [],
      "stateMutability": "nonpayable",
      "type": "function"
    },
    {
      "inputs": [
        {
          "internalType": "address",
          "name": "_account",
          "type": "address"
        },
        {
          "internalType": "bool",
          "name": "_active",
          "type": "bool"
        }
      ],
      "name": "updatePositionExecutor",
      "outputs": [],
      "stateMutability": "nonpayable",
      "type": "function"
    },
    {
      "inputs": [],
      "name": "usd",
      "outputs": [
        {
          "internalType": "contract IPUSD",
          "name": "",
          "type": "address"
        }
      ],
      "stateMutability": "view",
      "type": "function"
    },
    {
      "inputs": [],
      "name": "weth",
      "outputs": [
        {
          "internalType": "contract IWETHMinimum",
          "name": "",
          "type": "address"
        }
      ],
      "stateMutability": "view",
      "type": "function"
    },
    {
      "stateMutability": "payable",
      "type": "receive"
    }
  ],
  "bytecode": "0x60e0604052346102d55761436e80380380610019816102f2565b92833981019060c0818303126102d55780516001600160a01b03811691908290036102d55760208101516001600160a01b03811681036102d55760408201516001600160a01b03811681036102d5576060830151906001600160a01b03821682036102d55760808401516001600160401b0381116102d55784019386601f860112156102d55784516100b26100ad8261032b565b6102f2565b9560208088848152019260051b820101908982116102d557602001915b8183106102d95750505060a0810151906001600160401b0382116102d557019486601f870112156102d5578551966101096100ad8961032b565b96602080898b8152019960051b8201019182116102d557602001975b8189106102c55750505f80546001600160a01b0319169190911781556002805460809590955260a09290925260c092909252600160201b600160d01b0319909216772710989680989680000f42400000012c000000320000000017909155919250905b81518110156102335761019b8184610342565b516101ae6101a98385610342565b61036a565b600b81101561021f575f52600160205260405f20556101d06101a98284610342565b906101db8185610342565b5160405192600b81101561021f57837fc8d9f716ee6f7a1977483c05570fa0e1f0b522aa1b25219c7336b65368ad56a492604092600196526020820152a101610188565b634e487b7160e01b5f52602160045260245ffd5b604051613ff69081610378823960805181818161065c01528181610ad10152611ecf015260a05181818161081301528181610b0901528181610f7d0152818161114301528181611482015281816118c00152818161215301528181612407015281816126340152612f03015260c05181818160310152818161026c015281816114f1015281816126af01526138600152f35b8851815260209889019801610125565b5f80fd5b8251600b8110156102d5578152602092830192016100cf565b6040519190601f01601f191682016001600160401b0381118382101761031757604052565b634e487b7160e01b5f52604160045260245ffd5b6001600160401b0381116103175760051b60200190565b80518210156103565760209160051b010190565b634e487b7160e01b5f52603260045260245ffd5b51600b81101561021f579056fe6080806040526004361015610085575b50361561001a575f80fd5b73ffffffffffffffffffffffffffffffffffffffff7f00000000000000000000000000000000000000000000000000000000000000001680330361005a57005b7fcbd9d2e0000000000000000000000000000000000000000000000000000000005f5260045260245ffd5b5f905f3560e01c908163020def5814611a625750806303bb71af1461181557806309e33d44146117cd5780630dbc9a6a1461178857806312d43a51146116b55780631e80544a146116325780632a9de9fb146115e75780632e9022da1461155a57806339cb1f3e146115155780633fc8cef3146114a657806341ed2c121461143757806349f6e1de146113b45780634f4fe757146113635780635567c2f714611270578063622d1517146110be5780636cdc81db14610eea578063a41f17fe14610e9f578063a482ea8514610e1b578063a804fdd914610dd7578063aadea98214610d93578063ad4a70ab14610d47578063b27fc92614610ce7578063b5d6bca714610ca5578063b6ee0c3a14610c3d578063bda6dd0e14610a20578063c34c9df1146109ca578063c7004d6314610986578063cf74f9eb14610749578063cfd8b2e114610680578063d63a6ccd14610611578063d954b63714610556578063dcb76f5614610494578063e80ef9ec146104065763ed52fba90361000f5760407ffffffffffffffffffffffffffffffffffffffffffffffffffffffffffffffffc36011261040357610235611aa3565b90602435918234106103d3576102496131c5565b8084106103a357508234039273ffffffffffffffffffffffffffffffffffffffff7f00000000000000000000000000000000000000000000000000000000000000001693843b15610394576040517fd0e30db00000000000000000000000000000000000000000000000000000000081528481600481858a5af180156103985790859161037f575b50506bffffffffffffffffffffffff811161034f576020949261034794926bffffffffffffffffffffffff73ffffffffffffffffffffffffffffffffffffffff936040519661031f88611ce7565b3388528988015216604086015260608501521660808301528060a083015260c0820152613a61565b604051908152f35b7f6dfcc6500000000000000000000000000000000000000000000000000000000084526060600452602452604483fd5b8161038991611d03565b61039457835f6102d1565b8380fd5b6040513d87823e3d90fd5b90506044927f5dac504d000000000000000000000000000000000000000000000000000000008352600452602452fd5b506044917f5dac504d00000000000000000000000000000000000000000000000000000000825234600452602452fd5b80fd5b5034610403577ffffffffffffffffffffffffffffffffffffffffffffffffffffffffffffffffc360161010081126104905760e01361040357610447611be9565b338252600360205260ff604083205416156104685761046590613051565b80f35b6004827fee90c468000000000000000000000000000000000000000000000000000000008152fd5b5080fd5b50346104035760207ffffffffffffffffffffffffffffffffffffffffffffffffffffffffffffffffc3601126104035760043562ffffff811690818103610552577f34c21c35651c2633b08ce9561654ef2f43ce0c152ee897c954bc6ac52a5360fb916020916105026136dd565b7fffffffffffffffffffff000000ffffffffffffffffffffffffffffffffffffff75ffffff000000000000000000000000000000000000006002549260981b16911617600255604051908152a180f35b8280fd5b50346104035760207ffffffffffffffffffffffffffffffffffffffffffffffffffffffffffffffffc3601126104035760043562ffffff811690818103610552577f80e45ab8c40ae9d24baa55f0199cd3565a59f756870f67fadfff9161e19e752b916020916105c46136dd565b7fffffffffffffffffffffffffff000000ffffffffffffffffffffffffffffffff72ffffff000000000000000000000000000000006002549260801b16911617600255604051908152a180f35b503461040357807ffffffffffffffffffffffffffffffffffffffffffffffffffffffffffffffffc36011261040357602060405173ffffffffffffffffffffffffffffffffffffffff7f0000000000000000000000000000000000000000000000000000000000000000168152f35b50346104035760407ffffffffffffffffffffffffffffffffffffffffffffffffffffffffffffffffc360112610403576106b8611aa3565b6024359081151580920361055257602073ffffffffffffffffffffffffffffffffffffffff7f3707af22b3aeb6f4e368f52e62c4e9ab2addbadf6f9de7d9d1d24bc0b8456d82926107076136dd565b169283855260038252604085207fffffffffffffffffffffffffffffffffffffffffffffffffffffffffffffff0081541660ff8316179055604051908152a280f35b5060a07ffffffffffffffffffffffffffffffffffffffffffffffffffffffffffffffffc3601126104035761077c611aa3565b610784611ae7565b6044359067ffffffffffffffff8216809203610394576107a2611b62565b9060843567ffffffffffffffff8111610982576107c3903690600401611ba8565b90916107e66107d26003611c30565b543a0262ffffff60025460801c1602613d26565b803410610953575067ffffffffffffffff879161085c73ffffffffffffffffffffffffffffffffffffffff7f0000000000000000000000000000000000000000000000000000000000000000169473ffffffffffffffffffffffffffffffffffffffff610853878c6131d4565b1696868861322a565b1692823b15610490576040517f1b82787800000000000000000000000000000000000000000000000000000000815273ffffffffffffffffffffffffffffffffffffffff91909116600482015233602482015230604482015260648101849052918290608490829084905af180156109485761092f575b6020610347868673ffffffffffffffffffffffffffffffffffffffff878b88836040519661090088611c81565b3388521688870152604086015260608501521660808301523460a0830152600160c083015260e08201526135e1565b61093a868092611d03565b610944575f6108d3565b8480fd5b6040513d88823e3d90fd5b7f5dac504d00000000000000000000000000000000000000000000000000000000885234600452602452604487fd5b8580fd5b503461040357807ffffffffffffffffffffffffffffffffffffffffffffffffffffffffffffffffc36011261040357602063ffffffff600254821c16604051908152f35b5034610403577ffffffffffffffffffffffffffffffffffffffffffffffffffffffffffffffffc360161012081126104905761010013610403576020610a16610a11611c0c565b612e66565b6040519015158152f35b5060a07ffffffffffffffffffffffffffffffffffffffffffffffffffffffffffffffffc36011261040357610a53611aa3565b90610a5c611ae7565b610a64611b85565b90606435926bffffffffffffffffffffffff84168094036104035760843567ffffffffffffffff811161049057610a9f903690600401611ba8565b909290610aaf6107d26001611c30565b803410610c0e5750610b3173ffffffffffffffffffffffffffffffffffffffff7f0000000000000000000000000000000000000000000000000000000000000000169173ffffffffffffffffffffffffffffffffffffffff7f00000000000000000000000000000000000000000000000000000000000000001695868461322a565b833b156105525767ffffffffffffffff91608484928360405195869485937f1b827878000000000000000000000000000000000000000000000000000000008552600485015233602485015230604485015216978860648401525af18015610c0357610bee575b6020610347878773ffffffffffffffffffffffffffffffffffffffff88888260405195610bc487611ce7565b33875216878601526040850152346060850152166080830152600160a083015260c0820152613a61565b610bf9828092611d03565b6104035780610b98565b6040513d84823e3d90fd5b7f5dac504d00000000000000000000000000000000000000000000000000000000845234600452602452604483fd5b50346104035760207ffffffffffffffffffffffffffffffffffffffffffffffffffffffffffffffffc3601126104035760ff604060209273ffffffffffffffffffffffffffffffffffffffff610c91611aa3565b168152600384522054166040519015158152f35b503461040357807ffffffffffffffffffffffffffffffffffffffffffffffffffffffffffffffffc36011261040357602063ffffffff60025416604051908152f35b5034610403577ffffffffffffffffffffffffffffffffffffffffffffffffffffffffffffffffc36016101208112610490576101001361040357610d29611c0c565b338252600360205260ff604083205416156104685761046590612c98565b5034610403577ffffffffffffffffffffffffffffffffffffffffffffffffffffffffffffffffc360161012081126104905761010013610403576020610a16610d8e611c0c565b612584565b503461040357807ffffffffffffffffffffffffffffffffffffffffffffffffffffffffffffffffc36011261040357602062ffffff60025460981c16604051908152f35b503461040357807ffffffffffffffffffffffffffffffffffffffffffffffffffffffffffffffffc36011261040357602062ffffff60025460801c16604051908152f35b50346104035760407ffffffffffffffffffffffffffffffffffffffffffffffffffffffffffffffffc36011261040357600435600b8110156104905760407fc8d9f716ee6f7a1977483c05570fa0e1f0b522aa1b25219c7336b65368ad56a491602435610e866136dd565b80610e9083611c30565b5582519182526020820152a180f35b5034610403577ffffffffffffffffffffffffffffffffffffffffffffffffffffffffffffffffc360161010081126104905760e013610403576020610a16610ee5611be9565b612066565b5060807ffffffffffffffffffffffffffffffffffffffffffffffffffffffffffffffffc36011261040357610f1d611aa3565b610f25611b2e565b90610f2e611b85565b9060643567ffffffffffffffff811161094457610f4f903690600401611ba8565b610f5a9291926131c5565b80341061108f5750610fa59073ffffffffffffffffffffffffffffffffffffffff7f00000000000000000000000000000000000000000000000000000000000000001693848461322a565b84823b156104035773ffffffffffffffffffffffffffffffffffffffff60846bffffffffffffffffffffffff938360405195869485937f1b82787800000000000000000000000000000000000000000000000000000000855216998a600485015233602485015230604485015216968760648401525af180156103985761107a575b6020610347858773ffffffffffffffffffffffffffffffffffffffff87876040519461105286611ce7565b3386528786015260408501523460608501521660808301528060a083015260c0820152613a61565b611085858092611d03565b610394575f611027565b7f5dac504d00000000000000000000000000000000000000000000000000000000875234600452602452604486fd5b50346104035760807ffffffffffffffffffffffffffffffffffffffffffffffffffffffffffffffffc360112610403576110f6611aa3565b906110ff611b2e565b91611108611b13565b5060643567ffffffffffffffff811161055257611129903690600401611ba8565b73ffffffffffffffffffffffffffffffffffffffff9291927f0000000000000000000000000000000000000000000000000000000000000000163303611248578260409181010312610552576040519161118283611ccb565b6bffffffffffffffffffffffff6111a7602061119d84611b49565b9384875201611ac6565b916020850192835216926bffffffffffffffffffffffff861693808511611218575061046594956bffffffffffffffffffffffff809251160316806111f0575b50503390613976565b73ffffffffffffffffffffffffffffffffffffffff61121192511683613849565b5f806111e7565b85604491867f379d3018000000000000000000000000000000000000000000000000000000008352600452602452fd5b6004847fee90c468000000000000000000000000000000000000000000000000000000008152fd5b50346104035760607ffffffffffffffffffffffffffffffffffffffffffffffffffffffffffffffffc360112610403576112a8611bd6565b6024359063ffffffff821691828103610394576044359263ffffffff841690818503610982577f5059425a16aa50b8d42ba1b984287f78e50743f3674c64736be81d875723294d9463ffffffff6060956113006136dd565b169367ffffffff00000000857fffffffffffffffffffffffffffffffffffffffff0000000000000000000000006bffffffff00000000000000006002549560401b169416179160201b16171760025560405192835260208301526040820152a180f35b50346104035760207ffffffffffffffffffffffffffffffffffffffffffffffffffffffffffffffffc3601126104035760043590600b8210156104035760206113ab83611c30565b54604051908152f35b50346104035760207ffffffffffffffffffffffffffffffffffffffffffffffffffffffffffffffffc3601126104035760043573ffffffffffffffffffffffffffffffffffffffff81168091036104905761140d6136dd565b7fffffffffffffffffffffffff000000000000000000000000000000000000000082541617815580f35b503461040357807ffffffffffffffffffffffffffffffffffffffffffffffffffffffffffffffffc36011261040357602060405173ffffffffffffffffffffffffffffffffffffffff7f0000000000000000000000000000000000000000000000000000000000000000168152f35b503461040357807ffffffffffffffffffffffffffffffffffffffffffffffffffffffffffffffffc36011261040357602060405173ffffffffffffffffffffffffffffffffffffffff7f0000000000000000000000000000000000000000000000000000000000000000168152f35b503461040357807ffffffffffffffffffffffffffffffffffffffffffffffffffffffffffffffffc36011261040357602063ffffffff60025460601c16604051908152f35b50346104035760207ffffffffffffffffffffffffffffffffffffffffffffffffffffffffffffffffc36011261040357611592611bd6565b61159a6136dd565b7fffffffffffff00000000ffffffffffffffffffffffffffffffffffffffffffff79ffffffff000000000000000000000000000000000000000000006002549260b01b1691161760025580f35b5034610403577ffffffffffffffffffffffffffffffffffffffffffffffffffffffffffffffffc360161010081126104905760e013610403576020610a1661162d611be9565b611df4565b50346104035760207ffffffffffffffffffffffffffffffffffffffffffffffffffffffffffffffffc3601126104035761166a611bd6565b6116726136dd565b7fffffffffffffffffffffffffffffffff00000000ffffffffffffffffffffffff6fffffffff0000000000000000000000006002549260601b1691161760025580f35b503461040357807ffffffffffffffffffffffffffffffffffffffffffffffffffffffffffffffffc360112610403576004602073ffffffffffffffffffffffffffffffffffffffff835416604051928380927f12d43a510000000000000000000000000000000000000000000000000000000082525afa908115610c03576020929161175b575b5073ffffffffffffffffffffffffffffffffffffffff60405191168152f35b61177b9150823d8411611781575b6117738183611d03565b810190611d44565b5f61173c565b503d611769565b503461040357807ffffffffffffffffffffffffffffffffffffffffffffffffffffffffffffffffc36011261040357602063ffffffff60025460b01c16604051908152f35b50346104035760207ffffffffffffffffffffffffffffffffffffffffffffffffffffffffffffffffc3601126104035760406020916004358152600483522054604051908152f35b5060a07ffffffffffffffffffffffffffffffffffffffffffffffffffffffffffffffffc360112611a2f57611848611aa3565b90611851611ae7565b9161185a611b13565b91611863611b62565b9060843567ffffffffffffffff8111611a2f57611884903690600401611ba8565b9290956118946107d26002611c30565b803410611a33575067ffffffffffffffff9061190973ffffffffffffffffffffffffffffffffffffffff7f0000000000000000000000000000000000000000000000000000000000000000169573ffffffffffffffffffffffffffffffffffffffff611900888a6131d4565b1699878b61322a565b1692803b15611a2f576040517f1b82787800000000000000000000000000000000000000000000000000000000815273ffffffffffffffffffffffffffffffffffffffff979097166004880152336024880152306044880152606487018490525f908790608490829084905af1948515611a2457602096610347966119ec575b506bffffffffffffffffffffffff9073ffffffffffffffffffffffffffffffffffffffff939484604051976119bd89611c81565b338952168988015260408701521660608501521660808301523460a08301528060c083015260e08201526135e1565b73ffffffffffffffffffffffffffffffffffffffff935090611a1b5f6bffffffffffffffffffffffff93611d03565b5f935090611989565b6040513d5f823e3d90fd5b5f80fd5b7f5dac504d000000000000000000000000000000000000000000000000000000005f523460045260245260445ffd5b34611a2f575f7ffffffffffffffffffffffffffffffffffffffffffffffffffffffffffffffffc360112611a2f5760209063ffffffff60025460401c168152f35b6004359073ffffffffffffffffffffffffffffffffffffffff82168203611a2f57565b359073ffffffffffffffffffffffffffffffffffffffff82168203611a2f57565b6024359067ffffffffffffffff82168203611a2f57565b359067ffffffffffffffff82168203611a2f57565b604435906bffffffffffffffffffffffff82168203611a2f57565b602435906bffffffffffffffffffffffff82168203611a2f57565b35906bffffffffffffffffffffffff82168203611a2f57565b6064359073ffffffffffffffffffffffffffffffffffffffff82168203611a2f57565b6044359073ffffffffffffffffffffffffffffffffffffffff82168203611a2f57565b9181601f84011215611a2f5782359167ffffffffffffffff8311611a2f5760208381860195010111611a2f57565b6004359063ffffffff82168203611a2f57565b60e4359073ffffffffffffffffffffffffffffffffffffffff82168203611a2f57565b610104359073ffffffffffffffffffffffffffffffffffffffff82168203611a2f57565b600b811015611c47575f52600160205260405f2090565b7f4e487b71000000000000000000000000000000000000000000000000000000005f52602160045260245ffd5b35908115158203611a2f57565b610100810190811067ffffffffffffffff821117611c9e57604052565b7f4e487b71000000000000000000000000000000000000000000000000000000005f52604160045260245ffd5b6040810190811067ffffffffffffffff821117611c9e57604052565b60e0810190811067ffffffffffffffff821117611c9e57604052565b90601f7fffffffffffffffffffffffffffffffffffffffffffffffffffffffffffffffe0910116810190811067ffffffffffffffff821117611c9e57604052565b90816020910312611a2f575173ffffffffffffffffffffffffffffffffffffffff81168103611a2f5790565b91908260e0910312611a2f57604051611d8881611ce7565b60c0611def818395611d9981611ac6565b8552611da760208201611ac6565b6020860152611db860408201611b49565b604086015260608101356060860152611dd360808201611ac6565b6080860152611de460a08201611c74565b60a086015201611b49565b910152565b611e07611e02366004611d70565b613799565b90815f52600460205260405f2054908115611f9c576004359173ffffffffffffffffffffffffffffffffffffffff83168314159081611a2f5783611e4a91613da0565b15611f9457835f5260046020525f604081205560a4358015158103611a2f5715611f0d57611a2f57604435916bffffffffffffffffffffffff831691828403611a2f57611ef460209373ffffffffffffffffffffffffffffffffffffffff937f63969e9524610e75d008ff369b60dca79462936cb81dabd2ff79f1d61d67d96d9650847f000000000000000000000000000000000000000000000000000000000000000016613976565b16611f0181606435613a34565b604051908152a2600190565b509060243573ffffffffffffffffffffffffffffffffffffffff81168103611a2f57604435926bffffffffffffffffffffffff841693848103611a2f577f63969e9524610e75d008ff369b60dca79462936cb81dabd2ff79f1d61d67d96d9460209473ffffffffffffffffffffffffffffffffffffffff94611f8f9350613849565b611ef4565b505050505f90565b505050600190565b519067ffffffffffffffff82168203611a2f57565b51906bffffffffffffffffffffffff82168203611a2f57565b93601f60207fffffffffffffffffffffffffffffffffffffffffffffffffffffffffffffffe09273ffffffffffffffffffffffffffffffffffffffff60a0976bffffffffffffffffffffffff82988360e0999e9d9e168c526001868d01521660408b015216606089015260c0608089015280519182918260c08b0152018589015e5f84828901015201168401019416910152565b612074611e02366004611d70565b90815f52600460205260405f2054908115611f9c5760043573ffffffffffffffffffffffffffffffffffffffff811692838214159081611a2f57826120b891613b4c565b156124ea57845f5260046020525f604081205563ffffffff60025460601c1690604435916bffffffffffffffffffffffff831695868403611a2f578360a435978815158903611a2f57886122fc575b5050506024359173ffffffffffffffffffffffffffffffffffffffff83168303611a2f5761217c826bffffffffffffffffffffffff73ffffffffffffffffffffffffffffffffffffffff7f00000000000000000000000000000000000000000000000000000000000000001696168686613b9c565b611a2f576084359073ffffffffffffffffffffffffffffffffffffffff82168203611a2f576040517fc1785c8600000000000000000000000000000000000000000000000000000000815273ffffffffffffffffffffffffffffffffffffffff9384166004820152858416602482015291909216604482015291602091839160649183915f91f18015611a245761229b575b50612247907fcde375bf78c9ad97fcef9ab49c05bd7f40d6f8645f9f6712a1fa506871971fd7935f146122955760015b60643590613c29565b9061226873ffffffffffffffffffffffffffffffffffffffff821683613a34565b6040805173ffffffffffffffffffffffffffffffffffffffff9290921682526020820192909252a2600190565b5f61223e565b906020823d6020116122f4575b816122b560209383611d03565b81010312611a2f577fcde375bf78c9ad97fcef9ab49c05bd7f40d6f8645f9f6712a1fa506871971fd7936122eb61224793611fa4565b5093509061220e565b3d91506122a8565b9193509193506024359073ffffffffffffffffffffffffffffffffffffffff82168203611a2f57816123b361238792604094505f9685519161233d83611ccb565b82526020820152845193849160208301919091602073ffffffffffffffffffffffffffffffffffffffff8160408401956bffffffffffffffffffffffff8151168552015116910152565b037fffffffffffffffffffffffffffffffffffffffffffffffffffffffffffffffe08101845283611d03565b6123ed835194859384937fa50549860000000000000000000000000000000000000000000000000000000085523092309160048701611fd2565b03815f73ffffffffffffffffffffffffffffffffffffffff7f00000000000000000000000000000000000000000000000000000000000000001688f1908115611a24575f916124a3575b5060c4356bffffffffffffffffffffffff8116808203611a2f576bffffffffffffffffffffffff83169181831061247457505050915f8080612107565b507f162a9905000000000000000000000000000000000000000000000000000000005f5260045260245260445ffd5b90506040813d6040116124e2575b816124be60409383611d03565b81010312611a2f576020816124d56124dc93611fa4565b5001611fb9565b5f612437565b3d91506124b1565b50505050505f90565b919082610100910312611a2f5760405161250c81611c81565b60e0611def81839561251d81611ac6565b855261252b60208201611ac6565b602086015261253c60408201611afe565b604086015261254d60608201611b49565b606086015261255e60808201611ac6565b608086015260a081013560a086015261257960c08201611c74565b60c086015201611afe565b5f906125996125943660046124f3565b613c66565b91825f52600460205260405f20548015612b56576004359173ffffffffffffffffffffffffffffffffffffffff831691828403611a2f57836125da91613b4c565b156124ea57845f5260046020525f604081205563ffffffff60025460601c16916024359273ffffffffffffffffffffffffffffffffffffffff841691828503611a2f5773ffffffffffffffffffffffffffffffffffffffff7f0000000000000000000000000000000000000000000000000000000000000000169173ffffffffffffffffffffffffffffffffffffffff61267484886131d4565b166044359067ffffffffffffffff8216808303611a2f578584926126989450613b9c565b73ffffffffffffffffffffffffffffffffffffffff7f0000000000000000000000000000000000000000000000000000000000000000169384149081612b2c575b5f9660c43595861580158803611a2f578790612b25575b15612af85761275c936020305b6040517f29c04cee00000000000000000000000000000000000000000000000000000000815273ffffffffffffffffffffffffffffffffffffffff8087166004830152808f166024830152909116604482015295869081906064820190565b03815f8b89f1948515611a24575f95612abc575b5087156129a457505086946bffffffffffffffffffffffff841680612839575b50505050505060e4359067ffffffffffffffff8216908183036109445767ffffffffffffffff1691818310612809575050505b15612801576003915b61040357507f95bb8a3bc291e3c463912e0f71c31142c82a4ce42f823a91791800e4d77e9ea592916122479160a43590613c29565b6002916127cc565b507f162a990500000000000000000000000000000000000000000000000000000000845260045260245250604490fd5b6128a29599506128ce9192939496505f996040519161285783611ccb565b8252602082015260405195869160208301919091602073ffffffffffffffffffffffffffffffffffffffff8160408401956bffffffffffffffffffffffff8151168552015116910152565b037fffffffffffffffffffffffffffffffffffffffffffffffffffffffffffffffe08101865285611d03565b6084359473ffffffffffffffffffffffffffffffffffffffff861686036129a05760409493929188916129318751988997889687947f6c717edc000000000000000000000000000000000000000000000000000000008652309160048701611fd2565b0393f190811561299557839161294e575b505f8080808080612790565b90506040813d60401161298d575b8161296960409383611d03565b810103126105525760208161298061298793611fb9565b5001611fa4565b5f612942565b3d915061295c565b6040513d85823e3d90fd5b8780fd5b93955093505050606435926bffffffffffffffffffffffff841690818503611a2f576bffffffffffffffffffffffff1693818510612a8a57505080612a81575b6129f0575b50506127c3565b803b15611a2f575f80916024604051809481937f2e1a7d4d0000000000000000000000000000000000000000000000000000000083528760048401525af18015611a2457612a6c575b506084359073ffffffffffffffffffffffffffffffffffffffff821682036103945790612a6591613a34565b5f806129e9565b612a799193505f90611d03565b5f915f612a39565b508115156129e4565b849250507f162a9905000000000000000000000000000000000000000000000000000000005f5260045260245260445ffd5b9094506020813d602011612af0575b81612ad860209383611d03565b81010312611a2f57612ae990611fb9565b935f612770565b3d9150612acb565b6084359373ffffffffffffffffffffffffffffffffffffffff85168503611a2f5761275c946020906126fd565b50836126f0565b905060843573ffffffffffffffffffffffffffffffffffffffff81168103611a2f573b15906126d9565b50505050600190565b90816020910312611a2f57518015158103611a2f5790565b90929173ffffffffffffffffffffffffffffffffffffffff6101009167ffffffffffffffff612c2f60e061012087019885612bb182611ac6565b16885285612bc160208301611ac6565b16602089015283612bd460408301611afe565b1660408901526bffffffffffffffffffffffff612bf360608301611b49565b16606089015285612c0660808301611ac6565b16608089015260a081013560a0890152612c2260c08201611c74565b151560c089015201611afe565b1660e085015216910152565b3d15612c93573d9067ffffffffffffffff8211611c9e5760405191612c8860207fffffffffffffffffffffffffffffffffffffffffffffffffffffffffffffffe0601f8401160184611d03565b82523d5f602084013e565b606090565b6040517fad4a70ab00000000000000000000000000000000000000000000000000000000815260208180612cd0856004808401612b77565b03815f305af15f9181612e45575b50612e3c57506020612db791612cf2612c3b565b8281519101517fffffffff0000000000000000000000000000000000000000000000000000000081169160048110612e07575b505060017f30467beaabb8ef26014dc3e31dc09bf58060436193d2f111af53d708264ec40b84612d596125943660046124f3565b937fffffffff0000000000000000000000000000000000000000000000000000000060405191168152a3604051809381927fc34c9df10000000000000000000000000000000000000000000000000000000083526004808401612b77565b03815f305af15f9181612dd6575b50612dcd5750565b15612dd457565b565b612df991925060203d602011612e00575b612df18183611d03565b810190612b5f565b905f612dc5565b503d612de7565b7fffffffff000000000000000000000000000000000000000000000000000000009250829060040360031b1b16165f80612d25565b905015612dd457565b612e5f91925060203d602011612e0057612df18183611d03565b905f612cde565b612e746125943660046124f3565b90815f52600460205260405f2054908115611f9c576004359173ffffffffffffffffffffffffffffffffffffffff83168303611a2f5782612eb491613da0565b15612fa257825f5260046020525f604081205560243573ffffffffffffffffffffffffffffffffffffffff81168103611a2f5773ffffffffffffffffffffffffffffffffffffffff90612f2a907f00000000000000000000000000000000000000000000000000000000000000008316906131d4565b16916044359167ffffffffffffffff831692838103611a2f577f2477129b9d67a93862d4e8221ea52fdbfa3d00e655dab7ed021fc569b70e58d79460209473ffffffffffffffffffffffffffffffffffffffff94612f95935063ffffffff60025460601c1692613b9c565b16611f018160a435613a34565b5050505f90565b90929173ffffffffffffffffffffffffffffffffffffffff60e0916bffffffffffffffffffffffff61304560c061010087019885612fe682611ac6565b16885285612ff660208301611ac6565b1660208901528361300960408301611b49565b166040890152606081013560608901528561302660808301611ac6565b16608089015261303860a08201611c74565b151560a089015201611b49565b1660c085015216910152565b6040517fa41f17fe00000000000000000000000000000000000000000000000000000000815260208180613089856004808401612fa9565b03815f305af15f91816131a4575b50612e3c57506020612db7916130ab612c3b565b8281519101517fffffffff000000000000000000000000000000000000000000000000000000008116916004811061316f575b50505f7f30467beaabb8ef26014dc3e31dc09bf58060436193d2f111af53d708264ec40b84613111611e02366004611d70565b937fffffffff0000000000000000000000000000000000000000000000000000000060405191168152a3604051809381927f2a9de9fb0000000000000000000000000000000000000000000000000000000083526004808401612fa9565b7fffffffff000000000000000000000000000000000000000000000000000000009250829060040360031b1b16165f806130de565b6131be91925060203d602011612e0057612df18183611d03565b905f613097565b6131d16107d25f611c30565b90565b600b9060559273ffffffffffffffffffffffffffffffffffffffff604051927ff7ee18f8779e8a47b9fee2bf37816783fe8615833733cf03cc48cd8fc3e3128b604085015216602083015281520160ff81532090565b9083156135db575f938493604051928290816064146135245781604814613461578160e0146134275781610100146133eb57816060146132f05750610160146132a6578185926004927f9fd5a6cf0000000000000000000000000000000000000000000000000000000086528386013701925af15b15611a2457565b610164935061016091507f2b67b5700000000000000000000000000000000000000000000000000000000083526004830137826e22d473030f116ddee9f6b43ac78ba35af161329f565b602093506040929150610164957f2b67b570000000000000000000000000000000000000000000000000000000008652336004870152602486015260148260508701377fffffffffffffffffffffffffffffffffffffffffffffffffffffffffffffffff601483013560e01c0165ffffffffffff166064860152601882013560e01c608486015260a48501527fffffffffffffffffffffffffffffffffffffffffffffffffffffffffffffffff601c82013560e01c0165ffffffffffff1660c485015261010060e4850152816101048501528280820161012486013701610144830137826e22d473030f116ddee9f6b43ac78ba35af161329f565b505084915092610100610104947f8fcbaf0c00000000000000000000000000000000000000000000000000000000855260048501375af161329f565b50508491509260e060e4947fd505accf00000000000000000000000000000000000000000000000000000000855260048501375af161329f565b8693507f7fffffffffffffffffffffffffffffffffffffffffffffffffffffffffffffff91509161010495927f8fcbaf0c000000000000000000000000000000000000000000000000000000008652336004870152602486015260206008602883013592803560e01c60448901527fffffffffffffffffffffffffffffffffffffffffffffffffffffffffffffffff600482013560e01c016064890152600160848901528360ff1c601b0160a48901520160c48701371660e48401525af161329f565b8693507f7fffffffffffffffffffffffffffffffffffffffffffffffffffffffffffffff91509160e495927fd505accf000000000000000000000000000000000000000000000000000000008652336004870152602486015260206024604483013592828160448a01377fffffffffffffffffffffffffffffffffffffffffffffffffffffffffffffffff8382013560e01c0160648901528360ff1c601b0160848901520160a48701371660c48401525af161329f565b50505050565b906135eb82613c66565b916135f583613d61565b825f5260046020524360405f205573ffffffffffffffffffffffffffffffffffffffff8151167f7cfc77df9024de43278b902b6501a8e9b21a89996358c36c0a400facc24018ac60e073ffffffffffffffffffffffffffffffffffffffff6020850151169367ffffffffffffffff604082015116906bffffffffffffffffffffffff6060820151169073ffffffffffffffffffffffffffffffffffffffff60808201511660a08201519067ffffffffffffffff8660c085015115159401511693604051958652602086015260408501526060840152608083015260a08201528660c0820152a3565b6004602073ffffffffffffffffffffffffffffffffffffffff5f5416604051928380927f12d43a510000000000000000000000000000000000000000000000000000000082525afa8015611a245773ffffffffffffffffffffffffffffffffffffffff915f9161377a575b5016330361375257565b7fee90c468000000000000000000000000000000000000000000000000000000005f5260045ffd5b613793915060203d602011611781576117738183611d03565b5f613748565b6040516bffffffffffffffffffffffff60c0602083019373ffffffffffffffffffffffffffffffffffffffff815116855273ffffffffffffffffffffffffffffffffffffffff60208201511660408501528260408201511660608501526060810151608085015273ffffffffffffffffffffffffffffffffffffffff60808201511660a085015260a081015115158285015201511660e082015260e0815261384361010082611d03565b51902090565b73ffffffffffffffffffffffffffffffffffffffff7f0000000000000000000000000000000000000000000000000000000000000000169073ffffffffffffffffffffffffffffffffffffffff811682148061396d575b156139415750803b15611a2f575f6fffffffffffffffffffffffffffffffff6024829560405196879384927f2e1a7d4d00000000000000000000000000000000000000000000000000000000845216958660048401525af1928315611a2457612dd493613931575b5073ffffffffffffffffffffffffffffffffffffffff63ffffffff60025460b01c169216613e37565b5f61393b91611d03565b5f613908565b9050612dd492916fffffffffffffffffffffffffffffffff63ffffffff60025460601c16931691613b9c565b50823b156138a0565b905f80916139de613a0a612dd49660405192839160208301957fa9059cbb000000000000000000000000000000000000000000000000000000008752602484016020909392919373ffffffffffffffffffffffffffffffffffffffff60408201951681520152565b037fffffffffffffffffffffffffffffffffffffffffffffffffffffffffffffffe08101835282611d03565b51908273ffffffffffffffffffffffffffffffffffffffff86165af1613a2e612c3b565b91613ed3565b90612dd49173ffffffffffffffffffffffffffffffffffffffff63ffffffff60025460b01c169216613e37565b90613a6b82613799565b91613a7583613d61565b825f5260046020524360405f205573ffffffffffffffffffffffffffffffffffffffff8151167fbe051e2fc2e9cc86eec70e56e15771f572911f18ab163a6955adede08a9a9dd360c073ffffffffffffffffffffffffffffffffffffffff602085015116936bffffffffffffffffffffffff6040820151169060608101519073ffffffffffffffffffffffffffffffffffffffff6080820151166bffffffffffffffffffffffff8560a08401511515930151169260405194855260208501526040840152606083015260808201528660a0820152a3565b919063ffffffff60025460401c1683019243841115613b70576131d1929350613da0565b837ff80dbaea000000000000000000000000000000000000000000000000000000005f5260045260245ffd5b91612dd4935f92836139de613c06829560405192839160208301967fa9059cbb000000000000000000000000000000000000000000000000000000008852602484016020909392919373ffffffffffffffffffffffffffffffffffffffff60408201951681520152565b519273ffffffffffffffffffffffffffffffffffffffff871690f1613a2e612c3b565b613c38613c4c91939293611c30565b543a0262ffffff60025460981c1602613d26565b90818311613c5957505090565b81612dd492949303613a34565b60405167ffffffffffffffff60e0602083019373ffffffffffffffffffffffffffffffffffffffff815116855273ffffffffffffffffffffffffffffffffffffffff60208201511660408501528260408201511660608501526bffffffffffffffffffffffff606082015116608085015273ffffffffffffffffffffffffffffffffffffffff60808201511660a085015260a081015160c085015260c0810151151582850152015116610100820152610100815261384361012082611d03565b5f9080613d31575090565b600191507fffffffffffffffffffffffffffffffffffffffffffffffffffffffffffffffff629896809101040190565b805f52600460205260405f2054613d755750565b7f43731142000000000000000000000000000000000000000000000000000000005f5260045260245ffd5b903033148015613e21575b613e105773ffffffffffffffffffffffffffffffffffffffff1633036137525763ffffffff60025460201c1601438111613de55750600190565b7f2a35a324000000000000000000000000000000000000000000000000000000005f5260045260245ffd5b5063ffffffff600254160143101590565b50335f52600360205260ff60405f205416613dab565b9190918215613ece57824710613e9e575f8093819373ffffffffffffffffffffffffffffffffffffffff83941690f1613e6e612c3b565b5015613e7657565b7fe293b56b000000000000000000000000000000000000000000000000000000005f5260045ffd5b82477fcf479181000000000000000000000000000000000000000000000000000000005f5260045260245260445ffd5b505050565b73ffffffffffffffffffffffffffffffffffffffff1691613ef49183613f50565b8051908115159182613f35575b5050613f0a5750565b7f39f1c8d9000000000000000000000000000000000000000000000000000000005f5260045260245ffd5b613f489250602080918301019101612b5f565b155f80613f01565b90613f8d5750805115613f6557805190602001fd5b7f1425ea42000000000000000000000000000000000000000000000000000000005f5260045ffd5b81511580613fe0575b613f9e575090565b73ffffffffffffffffffffffffffffffffffffffff907f9996b315000000000000000000000000000000000000000000000000000000005f521660045260245ffd5b50803b15613f9656fea164736f6c634300081a000a",
  "linkReferences": {},
  "deployedLinkReferences": {}
}