{
  "_format": "hh-sol-artifact-1",
  "contractName": "MarketManagerUpgradeable",
  "sourceName": "contracts/core/MarketManagerUpgradeable.sol",
  "abi": [
    {
      "inputs": [],
      "stateMutability": "nonpayable",
      "type": "constructor"
    },
    {
      "inputs": [
        {
          "internalType": "address",
          "name": "target",
          "type": "address"
        }
      ],
      "name": "AddressEmptyCode",
      "type": "error"
    },
    {
      "inputs": [
        {
          "internalType": "address",
          "name": "account",
          "type": "address"
        }
      ],
      "name": "AddressInsufficientBalance",
      "type": "error"
    },
    {
      "inputs": [],
      "name": "BalanceRateCapExceeded",
      "type": "error"
    },
    {
      "inputs": [
        {
          "internalType": "address",
          "name": "implementation",
          "type": "address"
        }
      ],
      "name": "ERC1967InvalidImplementation",
      "type": "error"
    },
    {
      "inputs": [],
      "name": "ERC1967NonPayable",
      "type": "error"
    },
    {
      "inputs": [],
      "name": "FailedInnerCall",
      "type": "error"
    },
    {
      "inputs": [],
      "name": "FailedTransferETH",
      "type": "error"
    },
    {
      "inputs": [],
      "name": "Forbidden",
      "type": "error"
    },
    {
      "inputs": [
        {
          "internalType": "uint256",
          "name": "balance",
          "type": "uint256"
        },
        {
          "internalType": "uint256",
          "name": "requiredAmount",
          "type": "uint256"
        }
      ],
      "name": "InsufficientBalance",
      "type": "error"
    },
    {
      "inputs": [
        {
          "internalType": "uint256",
          "name": "liquidity",
          "type": "uint256"
        },
        {
          "internalType": "uint128",
          "name": "requiredLiquidity",
          "type": "uint128"
        }
      ],
      "name": "InsufficientLiquidityToDecrease",
      "type": "error"
    },
    {
      "inputs": [],
      "name": "InsufficientMargin",
      "type": "error"
    },
    {
      "inputs": [
        {
          "internalType": "uint96",
          "name": "receiveAmount",
          "type": "uint96"
        },
        {
          "internalType": "uint128",
          "name": "balance",
          "type": "uint128"
        }
      ],
      "name": "InsufficientPSMBalance",
      "type": "error"
    },
    {
      "inputs": [
        {
          "internalType": "uint128",
          "name": "requiredSize",
          "type": "uint128"
        },
        {
          "internalType": "uint128",
          "name": "size",
          "type": "uint128"
        }
      ],
      "name": "InsufficientSizeToDecrease",
      "type": "error"
    },
    {
      "inputs": [
        {
          "internalType": "uint128",
          "name": "requiredAmount",
          "type": "uint128"
        },
        {
          "internalType": "uint128",
          "name": "pusdBalance",
          "type": "uint128"
        }
      ],
      "name": "InvalidAmount",
      "type": "error"
    },
    {
      "inputs": [
        {
          "internalType": "address",
          "name": "requiredCaller",
          "type": "address"
        }
      ],
      "name": "InvalidCaller",
      "type": "error"
    },
    {
      "inputs": [],
      "name": "InvalidCollateral",
      "type": "error"
    },
    {
      "inputs": [
        {
          "internalType": "uint8",
          "name": "decimals",
          "type": "uint8"
        }
      ],
      "name": "InvalidCollateralDecimals",
      "type": "error"
    },
    {
      "inputs": [
        {
          "internalType": "uint8",
          "name": "decimals",
          "type": "uint8"
        }
      ],
      "name": "InvalidDecimals",
      "type": "error"
    },
    {
      "inputs": [],
      "name": "InvalidInitialization",
      "type": "error"
    },
    {
      "inputs": [
        {
          "internalType": "uint24",
          "name": "liquidationFeeRatePerPosition",
          "type": "uint24"
        }
      ],
      "name": "InvalidLiquidationFeeRatePerPosition",
      "type": "error"
    },
    {
      "inputs": [
        {
          "internalType": "uint120",
          "name": "liquidityCap",
          "type": "uint120"
        }
      ],
      "name": "InvalidLiquidityCap",
      "type": "error"
    },
    {
      "inputs": [
        {
          "internalType": "uint24",
          "name": "maxBurnningRate",
          "type": "uint24"
        }
      ],
      "name": "InvalidMaxBurningRate",
      "type": "error"
    },
    {
      "inputs": [
        {
          "internalType": "uint24",
          "name": "maxFeeRate",
          "type": "uint24"
        }
      ],
      "name": "InvalidMaxFeeRate",
      "type": "error"
    },
    {
      "inputs": [
        {
          "internalType": "uint8",
          "name": "maxLeveragePerPosition",
          "type": "uint8"
        }
      ],
      "name": "InvalidMaxLeveragePerPosition",
      "type": "error"
    },
    {
      "inputs": [
        {
          "internalType": "uint24",
          "name": "maxSizeRatePerPosition",
          "type": "uint24"
        }
      ],
      "name": "InvalidMaxSizeRatePerPosition",
      "type": "error"
    },
    {
      "inputs": [
        {
          "internalType": "uint24",
          "name": "minMintingRate",
          "type": "uint24"
        }
      ],
      "name": "InvalidMinMintingRate",
      "type": "error"
    },
    {
      "inputs": [
        {
          "internalType": "uint24",
          "name": "openPositionThreshold",
          "type": "uint24"
        }
      ],
      "name": "InvalidOpenPositionThreshold",
      "type": "error"
    },
    {
      "inputs": [
        {
          "internalType": "uint24",
          "name": "protocolFeeRate",
          "type": "uint24"
        }
      ],
      "name": "InvalidProtocolFeeRate",
      "type": "error"
    },
    {
      "inputs": [
        {
          "internalType": "int256",
          "name": "referencePrice",
          "type": "int256"
        }
      ],
      "name": "InvalidReferencePrice",
      "type": "error"
    },
    {
      "inputs": [],
      "name": "InvalidSize",
      "type": "error"
    },
    {
      "inputs": [
        {
          "internalType": "uint256",
          "name": "stablecoinSupplyCap",
          "type": "uint256"
        }
      ],
      "name": "InvalidStableCoinSupplyCap",
      "type": "error"
    },
    {
      "inputs": [
        {
          "internalType": "uint24",
          "name": "tradingFeeRate",
          "type": "uint24"
        }
      ],
      "name": "InvalidTradingFeeRate",
      "type": "error"
    },
    {
      "inputs": [
        {
          "internalType": "uint32",
          "name": "timestamp",
          "type": "uint32"
        }
      ],
      "name": "InvalidUpdateTimestamp",
      "type": "error"
    },
    {
      "inputs": [
        {
          "internalType": "uint256",
          "name": "margin",
          "type": "uint256"
        },
        {
          "internalType": "uint128",
          "name": "size",
          "type": "uint128"
        },
        {
          "internalType": "uint8",
          "name": "maxLeverage",
          "type": "uint8"
        }
      ],
      "name": "LeverageTooHigh",
      "type": "error"
    },
    {
      "inputs": [
        {
          "internalType": "uint128",
          "name": "liquidityBefore",
          "type": "uint128"
        },
        {
          "internalType": "uint96",
          "name": "liquidityDelta",
          "type": "uint96"
        },
        {
          "internalType": "uint120",
          "name": "liquidityCap",
          "type": "uint120"
        }
      ],
      "name": "LiquidityCapExceeded",
      "type": "error"
    },
    {
      "inputs": [
        {
          "internalType": "int256",
          "name": "margin",
          "type": "int256"
        },
        {
          "internalType": "uint256",
          "name": "maintenanceMargin",
          "type": "uint256"
        }
      ],
      "name": "MarginRateTooHigh",
      "type": "error"
    },
    {
      "inputs": [
        {
          "internalType": "int256",
          "name": "margin",
          "type": "int256"
        },
        {
          "internalType": "uint256",
          "name": "maintenanceMargin",
          "type": "uint256"
        }
      ],
      "name": "MarginRateTooLow",
      "type": "error"
    },
    {
      "inputs": [
        {
          "internalType": "contract IERC20",
          "name": "market",
          "type": "address"
        }
      ],
      "name": "MarketAlreadyEnabled",
      "type": "error"
    },
    {
      "inputs": [
        {
          "internalType": "contract IERC20",
          "name": "market",
          "type": "address"
        }
      ],
      "name": "MarketNotEnabled",
      "type": "error"
    },
    {
      "inputs": [],
      "name": "MathOverflowedMulDiv",
      "type": "error"
    },
    {
      "inputs": [
        {
          "internalType": "uint128",
          "name": "netSize",
          "type": "uint128"
        },
        {
          "internalType": "uint128",
          "name": "sizeDelta",
          "type": "uint128"
        },
        {
          "internalType": "uint256",
          "name": "maxBurningSizeCap",
          "type": "uint256"
        }
      ],
      "name": "MaxBurningSizeCapExceeded",
      "type": "error"
    },
    {
      "inputs": [
        {
          "internalType": "uint128",
          "name": "netSize",
          "type": "uint128"
        },
        {
          "internalType": "uint128",
          "name": "sizeDelta",
          "type": "uint128"
        },
        {
          "internalType": "uint128",
          "name": "minMintingSizeCap",
          "type": "uint128"
        }
      ],
      "name": "MinMintingSizeCapNotMet",
      "type": "error"
    },
    {
      "inputs": [
        {
          "internalType": "int256",
          "name": "receiveAmount",
          "type": "int256"
        }
      ],
      "name": "NegativeReceiveAmount",
      "type": "error"
    },
    {
      "inputs": [],
      "name": "NotInitialized",
      "type": "error"
    },
    {
      "inputs": [],
      "name": "NotInitializing",
      "type": "error"
    },
    {
      "inputs": [
        {
          "internalType": "address",
          "name": "plugin",
          "type": "address"
        }
      ],
      "name": "PluginInactive",
      "type": "error"
    },
    {
      "inputs": [
        {
          "internalType": "address",
          "name": "requiredAccount",
          "type": "address"
        }
      ],
      "name": "PositionNotFound",
      "type": "error"
    },
    {
      "inputs": [],
      "name": "ReentrancyGuardReentrantCall",
      "type": "error"
    },
    {
      "inputs": [],
      "name": "ReferencePriceFeedNotSet",
      "type": "error"
    },
    {
      "inputs": [
        {
          "internalType": "uint256",
          "name": "elapsed",
          "type": "uint256"
        }
      ],
      "name": "ReferencePriceTimeout",
      "type": "error"
    },
    {
      "inputs": [
        {
          "internalType": "int256",
          "name": "value",
          "type": "int256"
        }
      ],
      "name": "SafeCastOverflowedIntToUint",
      "type": "error"
    },
    {
      "inputs": [
        {
          "internalType": "uint8",
          "name": "bits",
          "type": "uint8"
        },
        {
          "internalType": "uint256",
          "name": "value",
          "type": "uint256"
        }
      ],
      "name": "SafeCastOverflowedUintDowncast",
      "type": "error"
    },
    {
      "inputs": [
        {
          "internalType": "address",
          "name": "token",
          "type": "address"
        }
      ],
      "name": "SafeERC20FailedOperation",
      "type": "error"
    },
    {
      "inputs": [
        {
          "internalType": "uint256",
          "name": "requiredSize",
          "type": "uint256"
        },
        {
          "internalType": "uint256",
          "name": "maxSize",
          "type": "uint256"
        }
      ],
      "name": "SizeExceedsMaxSize",
      "type": "error"
    },
    {
      "inputs": [
        {
          "internalType": "uint256",
          "name": "requiredSize",
          "type": "uint256"
        },
        {
          "internalType": "uint256",
          "name": "maxSizePerPosition",
          "type": "uint256"
        }
      ],
      "name": "SizeExceedsMaxSizePerPosition",
      "type": "error"
    },
    {
      "inputs": [
        {
          "internalType": "uint256",
          "name": "supplyCap",
          "type": "uint256"
        },
        {
          "internalType": "uint256",
          "name": "totalSupply",
          "type": "uint256"
        },
        {
          "internalType": "uint256",
          "name": "amountDelta",
          "type": "uint256"
        }
      ],
      "name": "StableCoinSupplyCapExceeded",
      "type": "error"
    },
    {
      "inputs": [
        {
          "internalType": "uint128",
          "name": "requiredAmount",
          "type": "uint128"
        },
        {
          "internalType": "uint128",
          "name": "payAmount",
          "type": "uint128"
        }
      ],
      "name": "TooLittlePayAmount",
      "type": "error"
    },
    {
      "inputs": [],
      "name": "UUPSUnauthorizedCallContext",
      "type": "error"
    },
    {
      "inputs": [
        {
          "internalType": "bytes32",
          "name": "slot",
          "type": "bytes32"
        }
      ],
      "name": "UUPSUnsupportedProxiableUUID",
      "type": "error"
    },
    {
      "inputs": [
        {
          "internalType": "uint128",
          "name": "requiredAmount",
          "type": "uint128"
        },
        {
          "internalType": "uint128",
          "name": "payAmount",
          "type": "uint128"
        }
      ],
      "name": "UnexpectedPayAmount",
      "type": "error"
    },
    {
      "inputs": [],
      "name": "ZeroLiquidityScale",
      "type": "error"
    },
    {
      "inputs": [],
      "name": "ZeroRiskFreeTime",
      "type": "error"
    },
    {
      "anonymous": false,
      "inputs": [
        {
          "indexed": true,
          "internalType": "address",
          "name": "previousGov",
          "type": "address"
        },
        {
          "indexed": true,
          "internalType": "address",
          "name": "newGov",
          "type": "address"
        }
      ],
      "name": "ChangeGovStarted",
      "type": "event"
    },
    {
      "anonymous": false,
      "inputs": [
        {
          "indexed": true,
          "internalType": "contract IERC20",
          "name": "market",
          "type": "address"
        },
        {
          "indexed": false,
          "internalType": "uint96",
          "name": "liquidityFee",
          "type": "uint96"
        }
      ],
      "name": "GlobalLiquidityIncreasedByTradingFee",
      "type": "event"
    },
    {
      "anonymous": false,
      "inputs": [
        {
          "indexed": true,
          "internalType": "contract IERC20",
          "name": "market",
          "type": "address"
        },
        {
          "indexed": false,
          "internalType": "int256",
          "name": "sizeDelta",
          "type": "int256"
        },
        {
          "indexed": false,
          "internalType": "int256",
          "name": "realizedPnL",
          "type": "int256"
        },
        {
          "indexed": false,
          "internalType": "uint64",
          "name": "entryPriceAfter",
          "type": "uint64"
        }
      ],
      "name": "GlobalLiquiditySettled",
      "type": "event"
    },
    {
      "anonymous": false,
      "inputs": [
        {
          "indexed": true,
          "internalType": "contract IERC20",
          "name": "market",
          "type": "address"
        },
        {
          "indexed": true,
          "internalType": "address",
          "name": "receiver",
          "type": "address"
        },
        {
          "indexed": false,
          "internalType": "uint128",
          "name": "stabilityFundDelta",
          "type": "uint128"
        }
      ],
      "name": "GlobalStabilityFundGovUsed",
      "type": "event"
    },
    {
      "anonymous": false,
      "inputs": [
        {
          "indexed": true,
          "internalType": "contract IERC20",
          "name": "market",
          "type": "address"
        },
        {
          "indexed": false,
          "internalType": "uint96",
          "name": "liquidationFee",
          "type": "uint96"
        }
      ],
      "name": "GlobalStabilityFundIncreasedByLiquidation",
      "type": "event"
    },
    {
      "anonymous": false,
      "inputs": [
        {
          "indexed": true,
          "internalType": "contract IERC20",
          "name": "market",
          "type": "address"
        },
        {
          "indexed": false,
          "internalType": "uint96",
          "name": "spread",
          "type": "uint96"
        }
      ],
      "name": "GlobalStabilityFundIncreasedBySpread",
      "type": "event"
    },
    {
      "anonymous": false,
      "inputs": [
        {
          "indexed": true,
          "internalType": "address",
          "name": "previousGov",
          "type": "address"
        },
        {
          "indexed": true,
          "internalType": "address",
          "name": "newGov",
          "type": "address"
        }
      ],
      "name": "GovChanged",
      "type": "event"
    },
    {
      "anonymous": false,
      "inputs": [
        {
          "indexed": false,
          "internalType": "uint64",
          "name": "version",
          "type": "uint64"
        }
      ],
      "name": "Initialized",
      "type": "event"
    },
    {
      "anonymous": false,
      "inputs": [
        {
          "indexed": true,
          "internalType": "contract IERC20",
          "name": "market",
          "type": "address"
        },
        {
          "indexed": true,
          "internalType": "address",
          "name": "account",
          "type": "address"
        },
        {
          "indexed": true,
          "internalType": "address",
          "name": "receiver",
          "type": "address"
        },
        {
          "indexed": false,
          "internalType": "uint96",
          "name": "liquidity",
          "type": "uint96"
        },
        {
          "indexed": false,
          "internalType": "uint64",
          "name": "tokenValue",
          "type": "uint64"
        }
      ],
      "name": "LPTBurned",
      "type": "event"
    },
    {
      "anonymous": false,
      "inputs": [
        {
          "indexed": true,
          "internalType": "contract IERC20",
          "name": "market",
          "type": "address"
        },
        {
          "indexed": true,
          "internalType": "address",
          "name": "account",
          "type": "address"
        },
        {
          "indexed": true,
          "internalType": "address",
          "name": "receiver",
          "type": "address"
        },
        {
          "indexed": false,
          "internalType": "uint96",
          "name": "liquidity",
          "type": "uint96"
        },
        {
          "indexed": false,
          "internalType": "uint64",
          "name": "tokenValue",
          "type": "uint64"
        }
      ],
      "name": "LPTMinted",
      "type": "event"
    },
    {
      "anonymous": false,
      "inputs": [
        {
          "indexed": true,
          "internalType": "contract IERC20",
          "name": "market",
          "type": "address"
        },
        {
          "indexed": true,
          "internalType": "contract ILPToken",
          "name": "token",
          "type": "address"
        }
      ],
      "name": "LPTokenDeployed",
      "type": "event"
    },
    {
      "anonymous": false,
      "inputs": [
        {
          "indexed": false,
          "internalType": "contract IERC20",
          "name": "market",
          "type": "address"
        },
        {
          "indexed": false,
          "internalType": "address",
          "name": "account",
          "type": "address"
        },
        {
          "indexed": false,
          "internalType": "uint128",
          "name": "pusdDebtDelta",
          "type": "uint128"
        },
        {
          "indexed": false,
          "internalType": "uint128",
          "name": "tokenPaybackDelta",
          "type": "uint128"
        }
      ],
      "name": "LiquidityBufferModuleDebtIncreased",
      "type": "event"
    },
    {
      "anonymous": false,
      "inputs": [
        {
          "indexed": false,
          "internalType": "contract IERC20",
          "name": "market",
          "type": "address"
        },
        {
          "indexed": false,
          "internalType": "address",
          "name": "account",
          "type": "address"
        },
        {
          "indexed": false,
          "internalType": "uint128",
          "name": "pusdDebtDelta",
          "type": "uint128"
        },
        {
          "indexed": false,
          "internalType": "uint128",
          "name": "tokenPaybackDelta",
          "type": "uint128"
        }
      ],
      "name": "LiquidityBufferModuleDebtRepaid",
      "type": "event"
    },
    {
      "anonymous": false,
      "inputs": [
        {
          "indexed": true,
          "internalType": "contract IERC20",
          "name": "market",
          "type": "address"
        },
        {
          "components": [
            {
              "internalType": "uint24",
              "name": "liquidationFeeRatePerPosition",
              "type": "uint24"
            },
            {
              "internalType": "uint24",
              "name": "maxSizeRatePerPosition",
              "type": "uint24"
            },
            {
              "internalType": "uint24",
              "name": "openPositionThreshold",
              "type": "uint24"
            },
            {
              "internalType": "uint24",
              "name": "tradingFeeRate",
              "type": "uint24"
            },
            {
              "internalType": "uint8",
              "name": "maxLeveragePerPosition",
              "type": "uint8"
            },
            {
              "internalType": "uint8",
              "name": "decimals",
              "type": "uint8"
            },
            {
              "internalType": "uint120",
              "name": "liquidityScale",
              "type": "uint120"
            },
            {
              "internalType": "uint24",
              "name": "protocolFeeRate",
              "type": "uint24"
            },
            {
              "internalType": "uint24",
              "name": "maxFeeRate",
              "type": "uint24"
            },
            {
              "internalType": "uint24",
              "name": "riskFreeTime",
              "type": "uint24"
            },
            {
              "internalType": "uint64",
              "name": "minMarginPerPosition",
              "type": "uint64"
            },
            {
              "internalType": "uint24",
              "name": "minMintingRate",
              "type": "uint24"
            },
            {
              "internalType": "uint24",
              "name": "maxBurningRate",
              "type": "uint24"
            },
            {
              "internalType": "uint64",
              "name": "liquidationExecutionFee",
              "type": "uint64"
            },
            {
              "internalType": "bool",
              "name": "liquidityBufferModuleEnabled",
              "type": "bool"
            },
            {
              "internalType": "uint64",
              "name": "stableCoinSupplyCap",
              "type": "uint64"
            },
            {
              "internalType": "uint120",
              "name": "liquidityCap",
              "type": "uint120"
            }
          ],
          "indexed": false,
          "internalType": "struct IConfigurable.MarketConfig",
          "name": "cfg",
          "type": "tuple"
        }
      ],
      "name": "MarketConfigChanged",
      "type": "event"
    },
    {
      "anonymous": false,
      "inputs": [
        {
          "indexed": true,
          "internalType": "contract IERC20",
          "name": "market",
          "type": "address"
        },
        {
          "components": [
            {
              "internalType": "uint24",
              "name": "liquidationFeeRatePerPosition",
              "type": "uint24"
            },
            {
              "internalType": "uint24",
              "name": "maxSizeRatePerPosition",
              "type": "uint24"
            },
            {
              "internalType": "uint24",
              "name": "openPositionThreshold",
              "type": "uint24"
            },
            {
              "internalType": "uint24",
              "name": "tradingFeeRate",
              "type": "uint24"
            },
            {
              "internalType": "uint8",
              "name": "maxLeveragePerPosition",
              "type": "uint8"
            },
            {
              "internalType": "uint8",
              "name": "decimals",
              "type": "uint8"
            },
            {
              "internalType": "uint120",
              "name": "liquidityScale",
              "type": "uint120"
            },
            {
              "internalType": "uint24",
              "name": "protocolFeeRate",
              "type": "uint24"
            },
            {
              "internalType": "uint24",
              "name": "maxFeeRate",
              "type": "uint24"
            },
            {
              "internalType": "uint24",
              "name": "riskFreeTime",
              "type": "uint24"
            },
            {
              "internalType": "uint64",
              "name": "minMarginPerPosition",
              "type": "uint64"
            },
            {
              "internalType": "uint24",
              "name": "minMintingRate",
              "type": "uint24"
            },
            {
              "internalType": "uint24",
              "name": "maxBurningRate",
              "type": "uint24"
            },
            {
              "internalType": "uint64",
              "name": "liquidationExecutionFee",
              "type": "uint64"
            },
            {
              "internalType": "bool",
              "name": "liquidityBufferModuleEnabled",
              "type": "bool"
            },
            {
              "internalType": "uint64",
              "name": "stableCoinSupplyCap",
              "type": "uint64"
            },
            {
              "internalType": "uint120",
              "name": "liquidityCap",
              "type": "uint120"
            }
          ],
          "indexed": false,
          "internalType": "struct IConfigurable.MarketConfig",
          "name": "cfg",
          "type": "tuple"
        }
      ],
      "name": "MarketConfigEnabled",
      "type": "event"
    },
    {
      "anonymous": false,
      "inputs": [
        {
          "indexed": true,
          "internalType": "contract IERC20",
          "name": "market",
          "type": "address"
        },
        {
          "indexed": false,
          "internalType": "uint64",
          "name": "price",
          "type": "uint64"
        },
        {
          "indexed": false,
          "internalType": "uint64",
          "name": "refPrice",
          "type": "uint64"
        },
        {
          "indexed": false,
          "internalType": "uint64",
          "name": "cumulativeDelta",
          "type": "uint64"
        },
        {
          "indexed": false,
          "internalType": "uint64",
          "name": "cumulativeRefDelta",
          "type": "uint64"
        }
      ],
      "name": "MaxCumulativeDeltaDiffExceeded",
      "type": "event"
    },
    {
      "anonymous": false,
      "inputs": [
        {
          "indexed": true,
          "internalType": "contract IERC20",
          "name": "collateral",
          "type": "address"
        },
        {
          "indexed": true,
          "internalType": "address",
          "name": "receiver",
          "type": "address"
        },
        {
          "indexed": false,
          "internalType": "uint64",
          "name": "payAmount",
          "type": "uint64"
        },
        {
          "indexed": false,
          "internalType": "uint96",
          "name": "receiveAmount",
          "type": "uint96"
        }
      ],
      "name": "PSMBurned",
      "type": "event"
    },
    {
      "anonymous": false,
      "inputs": [
        {
          "indexed": false,
          "internalType": "contract IERC20",
          "name": "collateral",
          "type": "address"
        },
        {
          "indexed": false,
          "internalType": "uint120",
          "name": "cap",
          "type": "uint120"
        }
      ],
      "name": "PSMCollateralUpdated",
      "type": "event"
    },
    {
      "anonymous": false,
      "inputs": [
        {
          "indexed": true,
          "internalType": "contract IERC20",
          "name": "collateral",
          "type": "address"
        },
        {
          "indexed": true,
          "internalType": "address",
          "name": "receiver",
          "type": "address"
        },
        {
          "indexed": false,
          "internalType": "uint96",
          "name": "payAmount",
          "type": "uint96"
        },
        {
          "indexed": false,
          "internalType": "uint64",
          "name": "receiveAmount",
          "type": "uint64"
        }
      ],
      "name": "PSMMinted",
      "type": "event"
    },
    {
      "anonymous": false,
      "inputs": [
        {
          "indexed": true,
          "internalType": "contract IERC20",
          "name": "market",
          "type": "address"
        },
        {
          "indexed": true,
          "internalType": "address",
          "name": "receiver",
          "type": "address"
        },
        {
          "indexed": false,
          "internalType": "uint96",
          "name": "sizeDelta",
          "type": "uint96"
        },
        {
          "indexed": false,
          "internalType": "uint64",
          "name": "indexPrice",
          "type": "uint64"
        },
        {
          "indexed": false,
          "internalType": "uint64",
          "name": "payAmount",
          "type": "uint64"
        },
        {
          "indexed": false,
          "internalType": "uint96",
          "name": "receiveAmount",
          "type": "uint96"
        },
        {
          "indexed": false,
          "internalType": "int256",
          "name": "realizedPnL",
          "type": "int256"
        },
        {
          "indexed": false,
          "internalType": "uint96",
          "name": "tradingFee",
          "type": "uint96"
        },
        {
          "indexed": false,
          "internalType": "uint96",
          "name": "spread",
          "type": "uint96"
        }
      ],
      "name": "PUSDPositionDecreased",
      "type": "event"
    },
    {
      "anonymous": false,
      "inputs": [
        {
          "indexed": true,
          "internalType": "contract IERC20",
          "name": "market",
          "type": "address"
        },
        {
          "indexed": true,
          "internalType": "address",
          "name": "receiver",
          "type": "address"
        },
        {
          "indexed": false,
          "internalType": "uint96",
          "name": "sizeDelta",
          "type": "uint96"
        },
        {
          "indexed": false,
          "internalType": "uint64",
          "name": "indexPrice",
          "type": "uint64"
        },
        {
          "indexed": false,
          "internalType": "uint64",
          "name": "entryPriceAfter",
          "type": "uint64"
        },
        {
          "indexed": false,
          "internalType": "uint96",
          "name": "payAmount",
          "type": "uint96"
        },
        {
          "indexed": false,
          "internalType": "uint64",
          "name": "receiveAmount",
          "type": "uint64"
        },
        {
          "indexed": false,
          "internalType": "uint96",
          "name": "tradingFee",
          "type": "uint96"
        },
        {
          "indexed": false,
          "internalType": "uint96",
          "name": "spread",
          "type": "uint96"
        }
      ],
      "name": "PUSDPositionIncreased",
      "type": "event"
    },
    {
      "anonymous": false,
      "inputs": [
        {
          "indexed": true,
          "internalType": "address",
          "name": "plugin",
          "type": "address"
        },
        {
          "indexed": false,
          "internalType": "bool",
          "name": "active",
          "type": "bool"
        }
      ],
      "name": "PluginUpdated",
      "type": "event"
    },
    {
      "anonymous": false,
      "inputs": [
        {
          "indexed": true,
          "internalType": "contract IERC20",
          "name": "market",
          "type": "address"
        },
        {
          "indexed": true,
          "internalType": "address",
          "name": "account",
          "type": "address"
        },
        {
          "indexed": false,
          "internalType": "uint96",
          "name": "marginDelta",
          "type": "uint96"
        },
        {
          "indexed": false,
          "internalType": "uint96",
          "name": "marginAfter",
          "type": "uint96"
        },
        {
          "indexed": false,
          "internalType": "uint96",
          "name": "sizeDelta",
          "type": "uint96"
        },
        {
          "indexed": false,
          "internalType": "uint64",
          "name": "indexPrice",
          "type": "uint64"
        },
        {
          "indexed": false,
          "internalType": "int256",
          "name": "realizedPnL",
          "type": "int256"
        },
        {
          "indexed": false,
          "internalType": "uint96",
          "name": "tradingFee",
          "type": "uint96"
        },
        {
          "indexed": false,
          "internalType": "uint96",
          "name": "spread",
          "type": "uint96"
        },
        {
          "indexed": false,
          "internalType": "address",
          "name": "receiver",
          "type": "address"
        }
      ],
      "name": "PositionDecreased",
      "type": "event"
    },
    {
      "anonymous": false,
      "inputs": [
        {
          "indexed": true,
          "internalType": "contract IERC20",
          "name": "market",
          "type": "address"
        },
        {
          "indexed": true,
          "internalType": "address",
          "name": "account",
          "type": "address"
        },
        {
          "indexed": false,
          "internalType": "uint96",
          "name": "marginDelta",
          "type": "uint96"
        },
        {
          "indexed": false,
          "internalType": "uint96",
          "name": "marginAfter",
          "type": "uint96"
        },
        {
          "indexed": false,
          "internalType": "uint96",
          "name": "sizeDelta",
          "type": "uint96"
        },
        {
          "indexed": false,
          "internalType": "uint64",
          "name": "indexPrice",
          "type": "uint64"
        },
        {
          "indexed": false,
          "internalType": "uint64",
          "name": "entryPriceAfter",
          "type": "uint64"
        },
        {
          "indexed": false,
          "internalType": "uint96",
          "name": "tradingFee",
          "type": "uint96"
        },
        {
          "indexed": false,
          "internalType": "uint96",
          "name": "spread",
          "type": "uint96"
        }
      ],
      "name": "PositionIncreased",
      "type": "event"
    },
    {
      "anonymous": false,
      "inputs": [
        {
          "indexed": true,
          "internalType": "contract IERC20",
          "name": "market",
          "type": "address"
        },
        {
          "indexed": true,
          "internalType": "address",
          "name": "liquidator",
          "type": "address"
        },
        {
          "indexed": true,
          "internalType": "address",
          "name": "account",
          "type": "address"
        },
        {
          "indexed": false,
          "internalType": "uint96",
          "name": "sizeDelta",
          "type": "uint96"
        },
        {
          "indexed": false,
          "internalType": "uint64",
          "name": "indexPrice",
          "type": "uint64"
        },
        {
          "indexed": false,
          "internalType": "uint64",
          "name": "liquidationPrice",
          "type": "uint64"
        },
        {
          "indexed": false,
          "internalType": "uint96",
          "name": "tradingFee",
          "type": "uint96"
        },
        {
          "indexed": false,
          "internalType": "uint96",
          "name": "liquidationFee",
          "type": "uint96"
        },
        {
          "indexed": false,
          "internalType": "uint64",
          "name": "liquidationExecutionFee",
          "type": "uint64"
        },
        {
          "indexed": false,
          "internalType": "address",
          "name": "feeReceiver",
          "type": "address"
        }
      ],
      "name": "PositionLiquidated",
      "type": "event"
    },
    {
      "anonymous": false,
      "inputs": [
        {
          "indexed": true,
          "internalType": "contract IERC20",
          "name": "market",
          "type": "address"
        },
        {
          "indexed": false,
          "internalType": "uint64",
          "name": "price",
          "type": "uint64"
        },
        {
          "indexed": false,
          "internalType": "uint64",
          "name": "minPrice",
          "type": "uint64"
        },
        {
          "indexed": false,
          "internalType": "uint64",
          "name": "maxPrice",
          "type": "uint64"
        }
      ],
      "name": "PriceUpdated",
      "type": "event"
    },
    {
      "anonymous": false,
      "inputs": [
        {
          "indexed": true,
          "internalType": "contract IERC20",
          "name": "market",
          "type": "address"
        },
        {
          "indexed": false,
          "internalType": "uint128",
          "name": "amount",
          "type": "uint128"
        }
      ],
      "name": "ProtocolFeeCollected",
      "type": "event"
    },
    {
      "anonymous": false,
      "inputs": [
        {
          "indexed": true,
          "internalType": "contract IERC20",
          "name": "market",
          "type": "address"
        },
        {
          "indexed": false,
          "internalType": "uint96",
          "name": "amount",
          "type": "uint96"
        }
      ],
      "name": "ProtocolFeeIncreased",
      "type": "event"
    },
    {
      "anonymous": false,
      "inputs": [
        {
          "indexed": false,
          "internalType": "contract IERC20",
          "name": "market",
          "type": "address"
        },
        {
          "indexed": false,
          "internalType": "int256",
          "name": "spreadFactorAfterX96",
          "type": "int256"
        }
      ],
      "name": "SpreadFactorChanged",
      "type": "event"
    },
    {
      "anonymous": false,
      "inputs": [
        {
          "indexed": true,
          "internalType": "address",
          "name": "implementation",
          "type": "address"
        }
      ],
      "name": "Upgraded",
      "type": "event"
    },
    {
      "inputs": [],
      "name": "UPGRADE_INTERFACE_VERSION",
      "outputs": [
        {
          "internalType": "string",
          "name": "",
          "type": "string"
        }
      ],
      "stateMutability": "view",
      "type": "function"
    },
    {
      "inputs": [],
      "name": "acceptGov",
      "outputs": [],
      "stateMutability": "nonpayable",
      "type": "function"
    },
    {
      "inputs": [
        {
          "internalType": "address",
          "name": "_plugin",
          "type": "address"
        }
      ],
      "name": "activePlugins",
      "outputs": [
        {
          "internalType": "bool",
          "name": "active",
          "type": "bool"
        }
      ],
      "stateMutability": "view",
      "type": "function"
    },
    {
      "inputs": [
        {
          "internalType": "contract IERC20",
          "name": "_market",
          "type": "address"
        },
        {
          "internalType": "address",
          "name": "_account",
          "type": "address"
        },
        {
          "internalType": "address",
          "name": "_receiver",
          "type": "address"
        }
      ],
      "name": "burnLPT",
      "outputs": [
        {
          "internalType": "uint96",
          "name": "liquidity",
          "type": "uint96"
        }
      ],
      "stateMutability": "nonpayable",
      "type": "function"
    },
    {
      "inputs": [
        {
          "internalType": "contract IERC20",
          "name": "_market",
          "type": "address"
        },
        {
          "internalType": "bool",
          "name": "_exactIn",
          "type": "bool"
        },
        {
          "internalType": "uint96",
          "name": "_amount",
          "type": "uint96"
        },
        {
          "internalType": "contract IPUSDManagerCallback",
          "name": "_callback",
          "type": "address"
        },
        {
          "internalType": "bytes",
          "name": "_data",
          "type": "bytes"
        },
        {
          "internalType": "address",
          "name": "_receiver",
          "type": "address"
        }
      ],
      "name": "burnPUSD",
      "outputs": [
        {
          "internalType": "uint64",
          "name": "payAmount",
          "type": "uint64"
        },
        {
          "internalType": "uint96",
          "name": "receiveAmount",
          "type": "uint96"
        }
      ],
      "stateMutability": "nonpayable",
      "type": "function"
    },
    {
      "inputs": [
        {
          "internalType": "address",
          "name": "_newGov",
          "type": "address"
        }
      ],
      "name": "changeGov",
      "outputs": [],
      "stateMutability": "nonpayable",
      "type": "function"
    },
    {
      "inputs": [
        {
          "internalType": "contract IERC20",
          "name": "_market",
          "type": "address"
        }
      ],
      "name": "collectProtocolFee",
      "outputs": [],
      "stateMutability": "nonpayable",
      "type": "function"
    },
    {
      "inputs": [
        {
          "internalType": "contract IERC20",
          "name": "_market",
          "type": "address"
        },
        {
          "internalType": "address",
          "name": "_account",
          "type": "address"
        },
        {
          "internalType": "uint96",
          "name": "_marginDelta",
          "type": "uint96"
        },
        {
          "internalType": "uint96",
          "name": "_sizeDelta",
          "type": "uint96"
        },
        {
          "internalType": "address",
          "name": "_receiver",
          "type": "address"
        }
      ],
      "name": "decreasePosition",
      "outputs": [
        {
          "internalType": "uint96",
          "name": "spread",
          "type": "uint96"
        },
        {
          "internalType": "uint96",
          "name": "actualMarginDelta",
          "type": "uint96"
        }
      ],
      "stateMutability": "nonpayable",
      "type": "function"
    },
    {
      "inputs": [
        {
          "internalType": "contract IERC20",
          "name": "_market",
          "type": "address"
        },
        {
          "internalType": "string",
          "name": "_tokenSymbol",
          "type": "string"
        },
        {
          "components": [
            {
              "internalType": "uint24",
              "name": "liquidationFeeRatePerPosition",
              "type": "uint24"
            },
            {
              "internalType": "uint24",
              "name": "maxSizeRatePerPosition",
              "type": "uint24"
            },
            {
              "internalType": "uint24",
              "name": "openPositionThreshold",
              "type": "uint24"
            },
            {
              "internalType": "uint24",
              "name": "tradingFeeRate",
              "type": "uint24"
            },
            {
              "internalType": "uint8",
              "name": "maxLeveragePerPosition",
              "type": "uint8"
            },
            {
              "internalType": "uint8",
              "name": "decimals",
              "type": "uint8"
            },
            {
              "internalType": "uint120",
              "name": "liquidityScale",
              "type": "uint120"
            },
            {
              "internalType": "uint24",
              "name": "protocolFeeRate",
              "type": "uint24"
            },
            {
              "internalType": "uint24",
              "name": "maxFeeRate",
              "type": "uint24"
            },
            {
              "internalType": "uint24",
              "name": "riskFreeTime",
              "type": "uint24"
            },
            {
              "internalType": "uint64",
              "name": "minMarginPerPosition",
              "type": "uint64"
            },
            {
              "internalType": "uint24",
              "name": "minMintingRate",
              "type": "uint24"
            },
            {
              "internalType": "uint24",
              "name": "maxBurningRate",
              "type": "uint24"
            },
            {
              "internalType": "uint64",
              "name": "liquidationExecutionFee",
              "type": "uint64"
            },
            {
              "internalType": "bool",
              "name": "liquidityBufferModuleEnabled",
              "type": "bool"
            },
            {
              "internalType": "uint64",
              "name": "stableCoinSupplyCap",
              "type": "uint64"
            },
            {
              "internalType": "uint120",
              "name": "liquidityCap",
              "type": "uint120"
            }
          ],
          "internalType": "struct IConfigurable.MarketConfig",
          "name": "_cfg",
          "type": "tuple"
        }
      ],
      "name": "enableMarket",
      "outputs": [],
      "stateMutability": "nonpayable",
      "type": "function"
    },
    {
      "inputs": [
        {
          "internalType": "contract IERC20",
          "name": "_market",
          "type": "address"
        }
      ],
      "name": "getPrice",
      "outputs": [
        {
          "internalType": "uint64",
          "name": "minPrice",
          "type": "uint64"
        },
        {
          "internalType": "uint64",
          "name": "maxPrice",
          "type": "uint64"
        }
      ],
      "stateMutability": "view",
      "type": "function"
    },
    {
      "inputs": [
        {
          "internalType": "contract IERC20",
          "name": "_market",
          "type": "address"
        }
      ],
      "name": "globalPUSDPositions",
      "outputs": [
        {
          "components": [
            {
              "internalType": "uint64",
              "name": "totalSupply",
              "type": "uint64"
            },
            {
              "internalType": "uint128",
              "name": "size",
              "type": "uint128"
            },
            {
              "internalType": "uint64",
              "name": "entryPrice",
              "type": "uint64"
            }
          ],
          "internalType": "struct IPUSDManager.GlobalPUSDPosition",
          "name": "",
          "type": "tuple"
        }
      ],
      "stateMutability": "view",
      "type": "function"
    },
    {
      "inputs": [],
      "name": "globalPriceFeedConfig",
      "outputs": [
        {
          "internalType": "uint24",
          "name": "maxDeviationRatio",
          "type": "uint24"
        },
        {
          "internalType": "uint32",
          "name": "cumulativeRoundDuration",
          "type": "uint32"
        },
        {
          "internalType": "uint32",
          "name": "updateTxTimeout",
          "type": "uint32"
        },
        {
          "internalType": "bool",
          "name": "ignoreReferencePriceFeedError",
          "type": "bool"
        }
      ],
      "stateMutability": "view",
      "type": "function"
    },
    {
      "inputs": [
        {
          "internalType": "contract IERC20",
          "name": "_market",
          "type": "address"
        }
      ],
      "name": "globalStabilityFunds",
      "outputs": [
        {
          "internalType": "uint256",
          "name": "",
          "type": "uint256"
        }
      ],
      "stateMutability": "view",
      "type": "function"
    },
    {
      "inputs": [],
      "name": "gov",
      "outputs": [
        {
          "internalType": "address",
          "name": "",
          "type": "address"
        }
      ],
      "stateMutability": "view",
      "type": "function"
    },
    {
      "inputs": [
        {
          "internalType": "contract IERC20",
          "name": "_market",
          "type": "address"
        },
        {
          "internalType": "address",
          "name": "_receiver",
          "type": "address"
        },
        {
          "internalType": "uint128",
          "name": "_stabilityFundDelta",
          "type": "uint128"
        }
      ],
      "name": "govUseStabilityFund",
      "outputs": [],
      "stateMutability": "nonpayable",
      "type": "function"
    },
    {
      "inputs": [
        {
          "internalType": "contract IERC20",
          "name": "_market",
          "type": "address"
        },
        {
          "internalType": "address",
          "name": "_account",
          "type": "address"
        },
        {
          "internalType": "uint96",
          "name": "_sizeDelta",
          "type": "uint96"
        }
      ],
      "name": "increasePosition",
      "outputs": [
        {
          "internalType": "uint96",
          "name": "spread",
          "type": "uint96"
        }
      ],
      "stateMutability": "nonpayable",
      "type": "function"
    },
    {
      "inputs": [
        {
          "internalType": "address",
          "name": "_initialGov",
          "type": "address"
        },
        {
          "internalType": "contract FeeDistributorUpgradeable",
          "name": "_feeDistributor",
          "type": "address"
        },
        {
          "internalType": "contract IPUSD",
          "name": "_usd",
          "type": "address"
        },
        {
          "internalType": "bool",
          "name": "_ignoreReferencePriceFeedError",
          "type": "bool"
        }
      ],
      "name": "initialize",
      "outputs": [],
      "stateMutability": "nonpayable",
      "type": "function"
    },
    {
      "inputs": [
        {
          "internalType": "contract IERC20",
          "name": "_market",
          "type": "address"
        }
      ],
      "name": "isEnabledMarket",
      "outputs": [
        {
          "internalType": "bool",
          "name": "",
          "type": "bool"
        }
      ],
      "stateMutability": "view",
      "type": "function"
    },
    {
      "inputs": [
        {
          "internalType": "address",
          "name": "_account",
          "type": "address"
        }
      ],
      "name": "isUpdater",
      "outputs": [
        {
          "internalType": "bool",
          "name": "active",
          "type": "bool"
        }
      ],
      "stateMutability": "view",
      "type": "function"
    },
    {
      "inputs": [
        {
          "internalType": "contract IERC20",
          "name": "_market",
          "type": "address"
        },
        {
          "internalType": "address",
          "name": "_account",
          "type": "address"
        },
        {
          "internalType": "address",
          "name": "_feeReceiver",
          "type": "address"
        }
      ],
      "name": "liquidatePosition",
      "outputs": [],
      "stateMutability": "nonpayable",
      "type": "function"
    },
    {
      "inputs": [
        {
          "internalType": "contract IERC20",
          "name": "_market",
          "type": "address"
        }
      ],
      "name": "liquidityBufferModules",
      "outputs": [
        {
          "components": [
            {
              "internalType": "uint128",
              "name": "pusdDebt",
              "type": "uint128"
            },
            {
              "internalType": "uint128",
              "name": "tokenPayback",
              "type": "uint128"
            }
          ],
          "internalType": "struct IMarketManager.LiquidityBufferModule",
          "name": "",
          "type": "tuple"
        }
      ],
      "stateMutability": "view",
      "type": "function"
    },
    {
      "inputs": [
        {
          "internalType": "contract IERC20",
          "name": "_market",
          "type": "address"
        },
        {
          "internalType": "address",
          "name": "_account",
          "type": "address"
        }
      ],
      "name": "longPositions",
      "outputs": [
        {
          "components": [
            {
              "internalType": "uint96",
              "name": "margin",
              "type": "uint96"
            },
            {
              "internalType": "uint96",
              "name": "size",
              "type": "uint96"
            },
            {
              "internalType": "uint64",
              "name": "entryPrice",
              "type": "uint64"
            }
          ],
          "internalType": "struct IMarketPosition.Position",
          "name": "",
          "type": "tuple"
        }
      ],
      "stateMutability": "view",
      "type": "function"
    },
    {
      "inputs": [
        {
          "internalType": "contract IERC20",
          "name": "_market",
          "type": "address"
        }
      ],
      "name": "marketConfigs",
      "outputs": [
        {
          "components": [
            {
              "internalType": "uint24",
              "name": "liquidationFeeRatePerPosition",
              "type": "uint24"
            },
            {
              "internalType": "uint24",
              "name": "maxSizeRatePerPosition",
              "type": "uint24"
            },
            {
              "internalType": "uint24",
              "name": "openPositionThreshold",
              "type": "uint24"
            },
            {
              "internalType": "uint24",
              "name": "tradingFeeRate",
              "type": "uint24"
            },
            {
              "internalType": "uint8",
              "name": "maxLeveragePerPosition",
              "type": "uint8"
            },
            {
              "internalType": "uint8",
              "name": "decimals",
              "type": "uint8"
            },
            {
              "internalType": "uint120",
              "name": "liquidityScale",
              "type": "uint120"
            },
            {
              "internalType": "uint24",
              "name": "protocolFeeRate",
              "type": "uint24"
            },
            {
              "internalType": "uint24",
              "name": "maxFeeRate",
              "type": "uint24"
            },
            {
              "internalType": "uint24",
              "name": "riskFreeTime",
              "type": "uint24"
            },
            {
              "internalType": "uint64",
              "name": "minMarginPerPosition",
              "type": "uint64"
            },
            {
              "internalType": "uint24",
              "name": "minMintingRate",
              "type": "uint24"
            },
            {
              "internalType": "uint24",
              "name": "maxBurningRate",
              "type": "uint24"
            },
            {
              "internalType": "uint64",
              "name": "liquidationExecutionFee",
              "type": "uint64"
            },
            {
              "internalType": "bool",
              "name": "liquidityBufferModuleEnabled",
              "type": "bool"
            },
            {
              "internalType": "uint64",
              "name": "stableCoinSupplyCap",
              "type": "uint64"
            },
            {
              "internalType": "uint120",
              "name": "liquidityCap",
              "type": "uint120"
            }
          ],
          "internalType": "struct IConfigurable.MarketConfig",
          "name": "",
          "type": "tuple"
        }
      ],
      "stateMutability": "view",
      "type": "function"
    },
    {
      "inputs": [
        {
          "internalType": "contract IERC20",
          "name": "_market",
          "type": "address"
        }
      ],
      "name": "marketPriceFeedConfigs",
      "outputs": [
        {
          "components": [
            {
              "internalType": "contract IChainLinkAggregator",
              "name": "refPriceFeed",
              "type": "address"
            },
            {
              "internalType": "uint32",
              "name": "refHeartbeatDuration",
              "type": "uint32"
            },
            {
              "internalType": "uint48",
              "name": "maxCumulativeDeltaDiff",
              "type": "uint48"
            },
            {
              "internalType": "uint8",
              "name": "refPriceDecimals",
              "type": "uint8"
            }
          ],
          "internalType": "struct IPriceFeed.PriceFeedConfig",
          "name": "config",
          "type": "tuple"
        }
      ],
      "stateMutability": "view",
      "type": "function"
    },
    {
      "inputs": [
        {
          "internalType": "contract IERC20",
          "name": "_market",
          "type": "address"
        }
      ],
      "name": "marketPricePacks",
      "outputs": [
        {
          "components": [
            {
              "internalType": "uint32",
              "name": "updateTimestamp",
              "type": "uint32"
            },
            {
              "internalType": "uint64",
              "name": "maxPrice",
              "type": "uint64"
            },
            {
              "internalType": "uint64",
              "name": "minPrice",
              "type": "uint64"
            },
            {
              "internalType": "uint32",
              "name": "prevRound",
              "type": "uint32"
            },
            {
              "internalType": "uint64",
              "name": "prevRefPrice",
              "type": "uint64"
            },
            {
              "internalType": "uint64",
              "name": "cumulativeRefPriceDelta",
              "type": "uint64"
            },
            {
              "internalType": "uint64",
              "name": "prevPrice",
              "type": "uint64"
            },
            {
              "internalType": "uint64",
              "name": "cumulativePriceDelta",
              "type": "uint64"
            }
          ],
          "internalType": "struct IPriceFeed.PricePack",
          "name": "pack",
          "type": "tuple"
        }
      ],
      "stateMutability": "view",
      "type": "function"
    },
    {
      "inputs": [
        {
          "internalType": "contract IERC20",
          "name": "_market",
          "type": "address"
        },
        {
          "internalType": "address",
          "name": "_account",
          "type": "address"
        },
        {
          "internalType": "address",
          "name": "_receiver",
          "type": "address"
        }
      ],
      "name": "mintLPT",
      "outputs": [
        {
          "internalType": "uint64",
          "name": "tokenValue",
          "type": "uint64"
        }
      ],
      "stateMutability": "nonpayable",
      "type": "function"
    },
    {
      "inputs": [
        {
          "internalType": "contract IERC20",
          "name": "_market",
          "type": "address"
        },
        {
          "internalType": "bool",
          "name": "_exactIn",
          "type": "bool"
        },
        {
          "internalType": "uint96",
          "name": "_amount",
          "type": "uint96"
        },
        {
          "internalType": "contract IPUSDManagerCallback",
          "name": "_callback",
          "type": "address"
        },
        {
          "internalType": "bytes",
          "name": "_data",
          "type": "bytes"
        },
        {
          "internalType": "address",
          "name": "_receiver",
          "type": "address"
        }
      ],
      "name": "mintPUSD",
      "outputs": [
        {
          "internalType": "uint96",
          "name": "payAmount",
          "type": "uint96"
        },
        {
          "internalType": "uint64",
          "name": "receiveAmount",
          "type": "uint64"
        }
      ],
      "stateMutability": "nonpayable",
      "type": "function"
    },
    {
      "inputs": [
        {
          "internalType": "contract IERC20",
          "name": "_market",
          "type": "address"
        }
      ],
      "name": "packedStates",
      "outputs": [
        {
          "components": [
            {
              "internalType": "int256",
              "name": "spreadFactorX96",
              "type": "int256"
            },
            {
              "internalType": "uint64",
              "name": "lastTradingTimestamp",
              "type": "uint64"
            },
            {
              "internalType": "uint128",
              "name": "longSize",
              "type": "uint128"
            },
            {
              "internalType": "uint64",
              "name": "lpEntryPrice",
              "type": "uint64"
            },
            {
              "internalType": "uint128",
              "name": "lpLiquidity",
              "type": "uint128"
            },
            {
              "internalType": "uint128",
              "name": "lpNetSize",
              "type": "uint128"
            }
          ],
          "internalType": "struct IMarketManager.PackedState",
          "name": "",
          "type": "tuple"
        }
      ],
      "stateMutability": "view",
      "type": "function"
    },
    {
      "inputs": [],
      "name": "pendingGov",
      "outputs": [
        {
          "internalType": "address",
          "name": "",
          "type": "address"
        }
      ],
      "stateMutability": "view",
      "type": "function"
    },
    {
      "inputs": [
        {
          "internalType": "contract IERC20",
          "name": "_token",
          "type": "address"
        },
        {
          "internalType": "address",
          "name": "_from",
          "type": "address"
        },
        {
          "internalType": "address",
          "name": "_to",
          "type": "address"
        },
        {
          "internalType": "uint256",
          "name": "_amount",
          "type": "uint256"
        }
      ],
      "name": "pluginTransfer",
      "outputs": [],
      "stateMutability": "nonpayable",
      "type": "function"
    },
    {
      "inputs": [
        {
          "internalType": "contract IERC20",
          "name": "_market",
          "type": "address"
        }
      ],
      "name": "protocolFees",
      "outputs": [
        {
          "internalType": "uint128",
          "name": "",
          "type": "uint128"
        }
      ],
      "stateMutability": "view",
      "type": "function"
    },
    {
      "inputs": [],
      "name": "proxiableUUID",
      "outputs": [
        {
          "internalType": "bytes32",
          "name": "",
          "type": "bytes32"
        }
      ],
      "stateMutability": "view",
      "type": "function"
    },
    {
      "inputs": [
        {
          "internalType": "contract IERC20",
          "name": "_collateral",
          "type": "address"
        },
        {
          "internalType": "address",
          "name": "_receiver",
          "type": "address"
        }
      ],
      "name": "psmBurnPUSD",
      "outputs": [
        {
          "internalType": "uint96",
          "name": "receiveAmount",
          "type": "uint96"
        }
      ],
      "stateMutability": "nonpayable",
      "type": "function"
    },
    {
      "inputs": [
        {
          "internalType": "contract IERC20",
          "name": "_collateral",
          "type": "address"
        }
      ],
      "name": "psmCollateralStates",
      "outputs": [
        {
          "components": [
            {
              "internalType": "uint120",
              "name": "cap",
              "type": "uint120"
            },
            {
              "internalType": "uint8",
              "name": "decimals",
              "type": "uint8"
            },
            {
              "internalType": "uint128",
              "name": "balance",
              "type": "uint128"
            }
          ],
          "internalType": "struct IPSM.CollateralState",
          "name": "state",
          "type": "tuple"
        }
      ],
      "stateMutability": "view",
      "type": "function"
    },
    {
      "inputs": [
        {
          "internalType": "contract IERC20",
          "name": "_collateral",
          "type": "address"
        },
        {
          "internalType": "address",
          "name": "_receiver",
          "type": "address"
        }
      ],
      "name": "psmMintPUSD",
      "outputs": [
        {
          "internalType": "uint64",
          "name": "receiveAmount",
          "type": "uint64"
        }
      ],
      "stateMutability": "nonpayable",
      "type": "function"
    },
    {
      "inputs": [
        {
          "internalType": "contract IERC20",
          "name": "_market",
          "type": "address"
        },
        {
          "internalType": "address",
          "name": "_account",
          "type": "address"
        },
        {
          "internalType": "address",
          "name": "_receiver",
          "type": "address"
        }
      ],
      "name": "repayLiquidityBufferDebt",
      "outputs": [
        {
          "internalType": "uint128",
          "name": "receiveAmount",
          "type": "uint128"
        }
      ],
      "stateMutability": "nonpayable",
      "type": "function"
    },
    {
      "inputs": [
        {
          "internalType": "contract IERC20",
          "name": "_market",
          "type": "address"
        }
      ],
      "name": "tokenBalances",
      "outputs": [
        {
          "internalType": "uint128",
          "name": "",
          "type": "uint128"
        }
      ],
      "stateMutability": "view",
      "type": "function"
    },
    {
      "inputs": [
        {
          "internalType": "uint24",
          "name": "_maxDeviationRatio",
          "type": "uint24"
        },
        {
          "internalType": "uint32",
          "name": "_cumulativeRoundDuration",
          "type": "uint32"
        },
        {
          "internalType": "uint32",
          "name": "_updateTxTimeout",
          "type": "uint32"
        },
        {
          "internalType": "bool",
          "name": "_ignoreReferencePriceFeedError",
          "type": "bool"
        }
      ],
      "name": "updateGlobalPriceFeedConfig",
      "outputs": [],
      "stateMutability": "nonpayable",
      "type": "function"
    },
    {
      "inputs": [
        {
          "internalType": "contract IERC20",
          "name": "_market",
          "type": "address"
        },
        {
          "components": [
            {
              "internalType": "uint24",
              "name": "liquidationFeeRatePerPosition",
              "type": "uint24"
            },
            {
              "internalType": "uint24",
              "name": "maxSizeRatePerPosition",
              "type": "uint24"
            },
            {
              "internalType": "uint24",
              "name": "openPositionThreshold",
              "type": "uint24"
            },
            {
              "internalType": "uint24",
              "name": "tradingFeeRate",
              "type": "uint24"
            },
            {
              "internalType": "uint8",
              "name": "maxLeveragePerPosition",
              "type": "uint8"
            },
            {
              "internalType": "uint8",
              "name": "decimals",
              "type": "uint8"
            },
            {
              "internalType": "uint120",
              "name": "liquidityScale",
              "type": "uint120"
            },
            {
              "internalType": "uint24",
              "name": "protocolFeeRate",
              "type": "uint24"
            },
            {
              "internalType": "uint24",
              "name": "maxFeeRate",
              "type": "uint24"
            },
            {
              "internalType": "uint24",
              "name": "riskFreeTime",
              "type": "uint24"
            },
            {
              "internalType": "uint64",
              "name": "minMarginPerPosition",
              "type": "uint64"
            },
            {
              "internalType": "uint24",
              "name": "minMintingRate",
              "type": "uint24"
            },
            {
              "internalType": "uint24",
              "name": "maxBurningRate",
              "type": "uint24"
            },
            {
              "internalType": "uint64",
              "name": "liquidationExecutionFee",
              "type": "uint64"
            },
            {
              "internalType": "bool",
              "name": "liquidityBufferModuleEnabled",
              "type": "bool"
            },
            {
              "internalType": "uint64",
              "name": "stableCoinSupplyCap",
              "type": "uint64"
            },
            {
              "internalType": "uint120",
              "name": "liquidityCap",
              "type": "uint120"
            }
          ],
          "internalType": "struct IConfigurable.MarketConfig",
          "name": "_newCfg",
          "type": "tuple"
        }
      ],
      "name": "updateMarketConfig",
      "outputs": [],
      "stateMutability": "nonpayable",
      "type": "function"
    },
    {
      "inputs": [
        {
          "internalType": "contract IERC20",
          "name": "_market",
          "type": "address"
        },
        {
          "internalType": "contract IChainLinkAggregator",
          "name": "_priceFeed",
          "type": "address"
        },
        {
          "internalType": "uint32",
          "name": "_refHeartBeatDuration",
          "type": "uint32"
        },
        {
          "internalType": "uint48",
          "name": "_maxCumulativeDeltaDiff",
          "type": "uint48"
        }
      ],
      "name": "updateMarketPriceFeedConfig",
      "outputs": [],
      "stateMutability": "nonpayable",
      "type": "function"
    },
    {
      "inputs": [
        {
          "internalType": "contract IERC20",
          "name": "_collateral",
          "type": "address"
        },
        {
          "internalType": "uint120",
          "name": "_cap",
          "type": "uint120"
        }
      ],
      "name": "updatePSMCollateralCap",
      "outputs": [],
      "stateMutability": "nonpayable",
      "type": "function"
    },
    {
      "inputs": [
        {
          "internalType": "address",
          "name": "_plugin",
          "type": "address"
        },
        {
          "internalType": "bool",
          "name": "_active",
          "type": "bool"
        }
      ],
      "name": "updatePlugin",
      "outputs": [],
      "stateMutability": "nonpayable",
      "type": "function"
    },
    {
      "inputs": [
        {
          "internalType": "PackedValue",
          "name": "_packedValue",
          "type": "uint256"
        }
      ],
      "name": "updatePrice",
      "outputs": [],
      "stateMutability": "nonpayable",
      "type": "function"
    },
    {
      "inputs": [
        {
          "internalType": "address",
          "name": "_account",
          "type": "address"
        }
      ],
      "name": "updateUpdater",
      "outputs": [],
      "stateMutability": "nonpayable",
      "type": "function"
    },
    {
      "inputs": [
        {
          "internalType": "address",
          "name": "newImplementation",
          "type": "address"
        },
        {
          "internalType": "bytes",
          "name": "data",
          "type": "bytes"
        }
      ],
      "name": "upgradeToAndCall",
      "outputs": [],
      "stateMutability": "payable",
      "type": "function"
    }
  ],
  "bytecode": "0x60a080604052346100e857306080527ff0c57e16840df040f15088dc2f81fe391c3923bec73e23a9662efc9c229c6a005460ff8160401c166100d9576002600160401b03196001600160401b03821601610073575b604051615ff690816100ed8239608051818181612d010152612e650152f35b6001600160401b0319166001600160401b039081177ff0c57e16840df040f15088dc2f81fe391c3923bec73e23a9662efc9c229c6a005581527fc7f505b2f371ae2175ee4913f4499e1f2633a7b5936321eed1cdaeb6115181d290602090a15f80610054565b63f92ee8a960e01b5f5260045ffd5b5f80fdfe60806040526004361015610011575f80fd5b5f803560e01c80630207b44e1461493457806304c088e11461479657806312d43a5114614751578063149941c9146146cd5780631b8278781461463b5780631b9d032e1461459e5780631c985568146144465780631cbf099f146143515780632008ad3d14613fdf5780632070f37214613efe5780632524081014613eb857806329c04cee14613c245780633058f2f014613ae457806341976e0914613aac578063444bc80b146130ad5780634f1ef28614612dea5780634fdfb08614612daa578063523fba7f14612d6057806352d1902d14612ce65780636056527f14612a245780636095c514146128c1578063637af51c1461286b5780636c717edc14611c685780636db31ff114611a2d5780637bc6729b146119a6578063836bb4bd1461190e5780638cd5b6ea146118585780638d6cc56d1461183857806393f46873146117e3578063a440fef91461166f578063a5054986146113ea578063a962ef1e1461131d578063ad3cb1cc146112a9578063bc07066c1461118a578063c1785c8614610eec578063c1c7a4a614610e42578063c3bdace814610b87578063c640081414610923578063c867934a146108c7578063cc38e97814610880578063cf12068514610825578063d19c26de14610789578063dcf844a714610739578063ec75e081146105265763fecf973414610209575f80fd5b3461052357608036600319011261052357610222614ab6565b906024356001600160a01b03811680910361051f576044356001600160a01b03811680910361051b57610253614af8565b907ff0c57e16840df040f15088dc2f81fe391c3923bec73e23a9662efc9c229c6a00549260ff8460401c1615936001600160401b03811680159081610513575b6001149081610509575b159081610500575b506104d85784959661032291630186a0009660016001600160401b03198316177ff0c57e16840df040f15088dc2f81fe391c3923bec73e23a9662efc9c229c6a0055610499575b506102f5615d4a565b6102fd615d4a565b610305615d4a565b61030d615d4a565b610315615d4a565b61031d615d4a565b615709565b61032a615d4a565b610332615d4a565b6001600160a01b03197f251c369f4ebdedc72c1498dbeb9b538f609b170856998c6e34e4ab95eaf533015416177f251c369f4ebdedc72c1498dbeb9b538f609b170856998c6e34e4ab95eaf53301556001600160a01b03197f251c369f4ebdedc72c1498dbeb9b538f609b170856998c6e34e4ab95eaf533025416177f251c369f4ebdedc72c1498dbeb9b538f609b170856998c6e34e4ab95eaf53302556103d8615d4a565b683c0000003c0000000060ff5f80516020615fca8339815191525492151516916001600160601b0319161717175f80516020615fca8339815191525561041b5780f35b68ff0000000000000000197ff0c57e16840df040f15088dc2f81fe391c3923bec73e23a9662efc9c229c6a0054167ff0c57e16840df040f15088dc2f81fe391c3923bec73e23a9662efc9c229c6a00557fc7f505b2f371ae2175ee4913f4499e1f2633a7b5936321eed1cdaeb6115181d2602060405160018152a180f35b68ffffffffffffffffff191668010000000000000001177ff0c57e16840df040f15088dc2f81fe391c3923bec73e23a9662efc9c229c6a00555f6102ec565b6004867ff92ee8a9000000000000000000000000000000000000000000000000000000008152fd5b9050155f6102a5565b303b15915061029d565b869150610293565b8280fd5b5080fd5b80fd5b503461052357608036600319011261052357610540614ab6565b602435906001600160a01b03821680920361051b5761055d614cff565b6064359065ffffffffffff8216809203610735576105796154da565b8492846106a2575b61062a916001600160a01b036105f563ffffffff93604051986105a38a614bb0565b89528460208a01941684526040890196875260ff60608a01981688526001600160a01b03165f527f58a0c8f0f88cec20fbd92b7b52b0d2d1fcf9b126fb78d3cc170d4a02c5be090160205260405f2090565b9651166001600160a01b03198754161786555116849063ffffffff60a01b1963ffffffff60a01b83549260a01b169116179055565b51907fff00000000000000ffffffffffffffffffffffffffffffffffffffffffffffff7dffffffffffff0000000000000000000000000000000000000000000000007eff0000000000000000000000000000000000000000000000000000000000008554935160f01b169360c01b1691161717905580f35b92506040517f313ce567000000000000000000000000000000000000000000000000000000008152602081600481885afa90811561072a5786916106e8575b5092610581565b90506020813d602011610722575b8161070360209383614c38565b8101031261071e575160ff8116810361071e5761062a6106e1565b8580fd5b3d91506106f6565b6040513d88823e3d90fd5b8480fd5b5034610523576020366003190112610523576001600160801b03600660406020936001600160a01b0361076a614ab6565b1681525f80516020615faa833981519152855220015416604051908152f35b5034610523576040366003190112610523576001600160a01b03600460406107af614ab6565b93836107b9614acc565b956107c2614d6e565b501681525f80516020615faa833981519152602052200191165f5260205260606107ee60405f20615434565b6001600160401b0360408051926001600160601b0381511684526001600160601b0360208201511660208501520151166040820152f35b503461052357806003193601126105235760805f80516020615fca8339815191525460ff6040519162ffffff8160081c16835263ffffffff8160201c16602084015263ffffffff8160401c1660408401521615156060820152f35b503461052357602036600319011261052357600760406020926001600160a01b036108a9614ab6565b1681525f80516020615faa8339815191528452200154604051908152f35b50346105235760203660031901126105235760ff60406020926001600160a01b036108f0614ab6565b1681527fbb40e86f68fafb11efed99ac959fcf9a51deeafbf5b56a45f87ae418cc6eb30084522054166040519015158152f35b50346105235760603660031901126105235761093d614ab6565b610945614acc565b9061094e614ae2565b5f80516020615f6a8339815191525c610b785760015f80516020615f6a8339815191525d61097a615478565b6001600160a01b038216918285525f80516020615faa83398151915260205260408520926109a7826155ef565b908288525f80516020615f8a8339815191526020526040882096604051936109ce85614bcb565b845260208401906001600160a01b0316815260408401916001600160401b0316825260608401926001600160401b0316835260808401936001600160a01b0387168552604051987f1b0ea4ca000000000000000000000000000000000000000000000000000000008a528860048b015260248a0152516001600160a01b03166044890152516001600160a01b03166064880152516001600160401b03166084870152516001600160401b031660a4860152516001600160a01b031660c4850152838073__$29ff11a0abbb7351a00da9a0441525d706$__5a9260e491602094f4938415610b6d578594610b20575b50610b0860066001600160401b03610b0d96169401610adf85825460801c614d26565b81546001600160801b031660809190911b6fffffffffffffffffffffffffffffffff1916179055565b61559d565b805f80516020615f6a8339815191525d80f35b93506020843d602011610b65575b81610b3b60209383614c38565b8101031261073557610b0860066001600160401b03610b5c610b0d97614d5a565b96505050610abc565b3d9150610b2e565b6040513d87823e3d90fd5b600484633ee5aeb560e01b8152fd5b50346105235760a036600319011261052357610ba1614ab6565b610ba9614acc565b90610bb2614b34565b606435916001600160601b03831680930361073557608435916001600160a01b03831690818403610e3e575f80516020615f6a8339815191525c610e2f5760015f80516020615f6a8339815191525d610c09615478565b6001600160a01b038316958688525f80516020615faa8339815191526020526040882095610c36856155ef565b939092898b525f80516020615f8a83398151915260205260408b209960405190610c5f82614be6565b815260208101916001600160a01b0316825260408101926001600160601b031683526060810193845260808101946001600160401b0316855260a08101956001600160401b0316865260c081019687526040519a7fd139fcd8000000000000000000000000000000000000000000000000000000008c528a60048d015260248c0152516001600160a01b031660448b0152516001600160a01b031660648a0152516001600160601b03166084890152516001600160601b031660a4880152516001600160401b031660c4870152516001600160401b031660e4860152516001600160a01b0316610104850152838073__$29ff11a0abbb7351a00da9a0441525d706$__5a9261012491604094f48015610b6d5785948691610dca575b509260409592610da692610b086001600160601b036006971696879401610adf85825460801c614d26565b5f80516020615f6a8339815191525d6001600160601b038351921682526020820152f35b9450506040843d604011610e27575b81610de660409383614c38565b810103126107355760069260409592610da692610b086001600160601b03610e196020610e128b614d12565b9a01614d12565b949750505092509295610d7b565b3d9150610dd9565b600487633ee5aeb560e01b8152fd5b8680fd5b50346105235760203660031901126105235760406060916001600160a01b03610e69614ab6565b610e71614d6e565b501681527f9f37cc75d7cdaa7a198c13b92cf96b51104a2ab8d71dd4736b100ec4a2373c00602052206001600160801b0360405191610eaf83614c1d565b5460ff6001600160781b0382169384815260406020820191838560781c168352019260801c83526040519485525116602084015251166040820152f35b503461052357606036600319011261052357610f06614ab6565b610f0e614acc565b90610f17614ae2565b905f80516020615f6a8339815191525c610b785760015f80516020615f6a8339815191525d610f44615478565b6001600160a01b0381168085525f80516020615faa83398151915260205260408520936040516370a0823160e01b8152306004820152602081602481865afa90811561117f57879161113c575b506001600160401b03946001600160a01b036001600160601b03949381610fb88195615649565b95610ffb60068c0197610fe06001600160801b03610fda8b5460801c84614d26565b1661567a565b98906001600160801b0382549181199060801b169116179055565b808c525f80516020615f8a83398151915260205261101c60408d209961553e565b986040519161102a83614bcb565b82528260208301941684528260408301961686528860608301981688528a608083019a168a526040519b7f2ead04d5000000000000000000000000000000000000000000000000000000008d5260048d015260248c0152511660448a01525116606488015251166084860152511660a4840152511660c482015260208160e48173__$0a26411359100f1c3d514fb8ef6c275fcd$__5af49081156111315782916110f3575b506020915f80516020615f6a8339815191525d6001600160401b0360405191168152f35b90506020813d602011611129575b8161110e60209383614c38565b8101031261051f5790611122602092614d5a565b90916110cf565b3d9150611101565b6040513d84823e3d90fd5b929190506020833d602011611177575b8161115960209383614c38565b810103126111735791519091906001600160401b03610f91565b5f80fd5b3d915061114c565b6040513d89823e3d90fd5b503461052357604036600319011261052357806111a5614ab6565b602435906001600160781b0382168092036112a5576001600160a01b03906111cb6154da565b168083527f9f37cc75d7cdaa7a198c13b92cf96b51104a2ab8d71dd4736b100ec4a2373c00602052604083209073__$ca13419e464d83291cf63d5a219ad1f9e5$__916001600160a01b037f251c369f4ebdedc72c1498dbeb9b538f609b170856998c6e34e4ab95eaf53302541690833b1561071e57859360849260405196879586947f4565223c00000000000000000000000000000000000000000000000000000000865260048601526024850152604484015260648301525af48015611131576112945750f35b8161129e91614c38565b6105235780f35b5050fd5b5034610523578060031936011261052357604080516112c88282614c38565b60058152602081017f352e302e3000000000000000000000000000000000000000000000000000000081528251938492602084525180928160208601528585015e828201840152601f01601f19168101030190f35b5034610523576020366003190112610523576001600160a01b0361133f614ab6565b6113476154da565b16806001600160a01b03197f71907d27e7f56436d282b33232af729b796faa4dde12f80868ee08b9116c52015416177f71907d27e7f56436d282b33232af729b796faa4dde12f80868ee08b9116c5201556001600160a01b037f71907d27e7f56436d282b33232af729b796faa4dde12f80868ee08b9116c520054167fb9911e2099e372c216862258dc462bb65da46a2c854536c8b1acae619d0d62ed8380a380f35b5034610523576113f936614c74565b9193945f80516020615f6a8339815191529391935c6116605760015f80516020615f6a8339815191525d61142b615478565b6001600160a01b038716918289525f80516020615faa8339815191526020526040892096838a525f80516020615f8a83398151915260205260408a20986114719061553e565b927f251c369f4ebdedc72c1498dbeb9b538f609b170856998c6e34e4ab95eaf53302546001600160a01b031694604051906114ab82614be6565b815260208101911515825260408101926001600160601b0316835260608101936001600160a01b0316845260808101946001600160401b0316855260a0810195865260c08101966001600160a01b031687526040519a8b9a7f7db569e8000000000000000000000000000000000000000000000000000000008c5260048c015260248b0152516001600160a01b031660448a01525115156064890152516001600160601b03166084880152516001600160a01b031660a4870152516001600160401b031660c4860152516001600160a01b031660e4850152516001600160a01b0316610104840152610124830161014090526101448301906115ac92615414565b038173__$ca13419e464d83291cf63d5a219ad1f9e5$__91815a93604094f48015611131578291839161160c575b506001600160601b03906040935f80516020615f6a8339815191525d6001600160401b03845193168352166020820152f35b9150506040813d604011611658575b8161162860409383614c38565b8101031261051f576001600160601b03604092611650602061164985614d5a565b9401614d12565b9150926115da565b3d915061161b565b600488633ee5aeb560e01b8152fd5b503461052357602036600319011261052357611689614ab6565b5f80516020615f6a8339815191525c6117d45760015f80516020615f6a8339815191525d6001600160a01b038116908183525f80516020615faa8339815191526020528260066040822001916117006001600160801b03845416936001600160801b03198154168155610adf85825460801c614d26565b611736836001600160a01b037f251c369f4ebdedc72c1498dbeb9b538f609b170856998c6e34e4ab95eaf533015416809361559d565b803b1561051f578180916024604051809481937ff340fa010000000000000000000000000000000000000000000000000000000083528960048401525af18015611131576117bf575b505060207f468e518bab7f6a5d2a4d71ee8fdaa4850abd9c2ece940d0423f37121bf246b7791604051908152a2805f80516020615f6a8339815191525d80f35b816117c991614c38565b61051b57825f61177f565b600482633ee5aeb560e01b8152fd5b5034610523576020366003190112610523576001600160781b03600260406020936001600160a01b03611814614ab6565b1681525f80516020615f8a833981519152855220015460401c161515604051908152f35b503461052357602036600319011261052357611855600435614d8c565b80f35b50346105235760803660031901126105235760043562ffffff8116810361051f5760243563ffffffff8116810361051b5767ffffffff0000000061189a614cff565b6bffffffff00000000000000006118af614af8565b6118b76154da565b63ffffff005f80516020615fca833981519152549660081b169560ff63ffffff001992151516906bffffffffffffffff000000ff191617169160401b16179160201b1617175f80516020615fca8339815191525580f35b503461052357602036600319011261052357600360406060926001600160a01b03611937614ab6565b61193f614d6e565b501681525f80516020615faa83398151915260205220016001600160401b036040519161196b83614c1d565b546001600160801b0382821693848152604060208201918385831c168352019260c01c83526040519485525116602084015251166040820152f35b50346105235780600319360112610523577f71907d27e7f56436d282b33232af729b796faa4dde12f80868ee08b9116c5201546001600160a01b0381163303611a1e576001600160a01b0319167f71907d27e7f56436d282b33232af729b796faa4dde12f80868ee08b9116c52015561185533615709565b600482631dd2188d60e31b8152fd5b5034610523576102403660031901126105235780611a49614ab6565b610220366023190112611c6557611a5e6154da565b73__$a1f2ab01d928b132890dcf6bf514391fc1$__803b156112a5576001600160a01b03604051927fc87a24890000000000000000000000000000000000000000000000000000000084525f80516020615f8a833981519152600485015216602483015260243562ffffff8116809103611c6057604483015260443562ffffff8116809103611c6057606483015260643562ffffff8116809103611c6057608483015260843562ffffff8116809103611c605760a483015260a43560ff8116809103611c605760c483015260c43560ff8116809103611c605760e483015260e4356001600160781b038116809103611c60576101048301526101043562ffffff8116809103611c60576101248301526101243562ffffff8116809103611c60576101448301526101443562ffffff8116809103611c6057610164830152610164356001600160401b038116809103611c60576101848301526101843562ffffff8116809103611c60576101a48301526101a43562ffffff8116809103611c60576101c48301526101c4356001600160401b038116809103611c60576101e48301526101e435801515809103611c6057610204830152610204356001600160401b038116809103611c6057610224830152610224356001600160781b038116809103611c605761026483859381936102448301525af48015611131576112945750f35b505050fd5b50fd5b503461052357611c7736614c74565b90969295945f80516020615f6a8339815191529492945c610b785760015f80516020615f6a8339815191525d611cab615478565b6001600160a01b038616928385525f80516020615faa83398151915260205260408520978486525f80516020615f8a8339815191526020526001600160401b03611d2960408820996001600160a01b03165f527f58a0c8f0f88cec20fbd92b7b52b0d2d1fcf9b126fb78d3cc170d4a02c5be090260205260405f2090565b5460601c1691821561285c576001600160a01b03949392916001600160601b038692837f251c369f4ebdedc72c1498dbeb9b538f609b170856998c6e34e4ab95eaf5330254169560405199611d7d8b614be6565b8a52151560208a0152166040880152166060860152608085015260a08401521660c08201528194611dde81546001600160401b0360018401541660405191611dc483614bb0565b600283528660208401526040830152606082015286615c41565b60208401519098919790156128025750629896806bffffffffffffffffffffffff60601b604085015160601b160296611e39611e34885499629896808c0262ffffff8c60481c16629896800160601b01906156cb565b61567a565b91611e82611e7d6001600160601b036040880151169a60ff806001600160401b0360808b0151169260681c1660040116600a0a906001600160601b038716026156cb565b61550d565b965b6001600160601b038416156127da576001600160401b0360028a015416986001600160401b0360038701541699806001600160401b038b168c011161279d575060028601548060801c6001600160601b03871611612762576001600160801b036298968081831662ffffff600186015460701c1602041690816001600160801b036001600160601b0389168360801c0316106127245750506001600160a01b038751168886886001600160401b0360808c015116600282015490600183015460c01c855f146125cc57611ff4856001606096611fd36001600160801b0361207a9d9c9b98611fab6001600160401b03996001600160601b03998a7f0812f6a295cc8a7a815c1d8ed846754c88804a4813bf46ef1291617660decfac9f16908460801c615beb565b978896169060801c011660028301906001600160801b0382549181199060801b169116179055565b01906001600160c01b036001600160c01b031983549260c01b169116179055565b604051926001600160601b038d1684526020840152166040820152a25b6001600160a01b03885116906001600160401b0360808a0151169054906040519261203b84614be6565b83526001600160601b038816602084015280604084015260608301526001608083015262ffffff8160481c1660a083015260e81c60c082015286615a90565b6020870151909b90156125af57506001600160601b038b81868160408b01511603160316915b6120b5836001600160a01b03895116886159d6565b602087015115612594575b6001600160a01b0360a0880151166001600160a01b0360c08901511690803b15612590578a60446001600160401b03938c809460405196879586947f40c10f1900000000000000000000000000000000000000000000000000000000865260048601521660248401525af1801561256c57908991612577575b50509060249160206001600160a01b03895116604051948580926370a0823160e01b82523060048301525afa92831561256c578993612538575b506001600160a01b03606089015116916001600160a01b0389511691833b1561253457928d8b80946122018f97956001600160601b03966001600160401b036040519a8b998a9889977f622d15170000000000000000000000000000000000000000000000000000000089526004890152166024870152166044850152608060648501526084840191615414565b03925af180156125145790889161251f575b505060249060206001600160a01b03885116604051938480926370a0823160e01b82523060048301525afa9182156125145788926124e0575b5081039081116124cc576122676001600160601b039161567a565b16986001600160601b0381168a10612493575091839185949360068695018b815460801c90612295916156ab565b81546001600160801b031660809190911b6fffffffffffffffffffffffffffffffff1916179055600384015460808601516122f5906001600160401b03166001600160601b03861660c084901c6001600160801b03604086901c16615beb565b6003860180546001600160c01b0319166001600160401b038d8116909e01909d169c909c176001600160801b03604093841c166001600160601b0387160190921b77ffffffffffffffffffffffffffffffff00000000000000001691909117909a556003840180546001600160c01b031660c08c901b6001600160c01b0319161790558260601b6bffffffffffffffffffffffff60601b1691885f149c6001600160401b03809c60409f60806001600160a01b0360c0817f5d02f71d9af1dbdc969ef1e9c4e4d8d9346e8ed161f03f0b144f2996b85ca7779d7fa83f0e4ee4d8344c58131823c4129b19e2008563444fb262bd847b215e09ed9560e09e6001600160601b039d8e9c8b9961248c5701905b835182825560019091018054428b168b19909116179055604080519186166001600160a01b031682526020820192909252a151169d0151169c0151166040859051981688526020880152168e8601528c60608601528b8b1660808601521660a08401521660c0820152a35f80516020615f6a8339815191525d8351928352166020820152f35b0390612406565b866001600160601b036044928c7f9c01a0d800000000000000000000000000000000000000000000000000000000845260045216602452fd5b602487634e487b7160e01b81526011600452fd5b9091506020813d60201161250c575b816124fc60209383614c38565b810103126111735751905f61224c565b3d91506124ef565b6040513d8a823e3d90fd5b8161252991614c38565b610e3e57865f612213565b8a80fd5b9092506020813d602011612564575b8161255460209383614c38565b810103126111735751915f612173565b3d9150612547565b6040513d8b823e3d90fd5b8161258191614c38565b61258c57875f612139565b8780fd5b8980fd5b99506125a9826125a48d876156e9565b6156e9565b996120c0565b611e346125c6916001600160601b03871690615dfe565b916120a0565b9350915092506001600160401b03811682816001600160401b038216105f146126ff5761260f926001600160601b038c169190036001600160401b031602615da1565b5f03915b5f836001600160801b03831601126126c857827f0812f6a295cc8a7a815c1d8ed846754c88804a4813bf46ef1291617660decfac926126a68c60026001600160801b03868f6001600160601b03908361267661207a9f9e9d8260609d1601615649565b16841986880154161785870155169060801c03169101906001600160801b0382549181199060801b169116179055565b604051916001600160601b038c165f03835260208301526040820152a2612011565b6001600160801b0391507fa8ce4432000000000000000000000000000000000000000000000000000000005f52160160045260245ffd5b61271e926001600160601b038c1691036001600160401b0316026156cb565b91612613565b7f60c83b31000000000000000000000000000000000000000000000000000000008a5260801c6004526001600160601b038616602452604452606488fd5b7ff2c5e6430000000000000000000000000000000000000000000000000000000089526001600160601b03861660045260801c602452604488fd5b886001600160401b038b8d6064947fb365b1ad00000000000000000000000000000000000000000000000000000000855260045260245216604452fd5b6004877f0ffd11ad000000000000000000000000000000000000000000000000000000008152fd5b9661281c6001600160601b0360408698949801511661550d565b95612856611e346001600160601b036040880151166001600160401b036080890151169060ff808d5460681c1660040116600a0a026156cb565b92611e84565b6004876321c4e35760e21b8152fd5b503461052357602036600319011261052357612885614ab6565b61288d6154da565b6001600160601b035f80516020615fca833981519152549181199060601b169116175f80516020615fca8339815191525580f35b5034610523576040366003190112610523576128db614ab6565b6128e3614acc565b9160206001600160a01b038316926128fa8461546c565b612902615478565b8383527f9f37cc75d7cdaa7a198c13b92cf96b51104a2ab8d71dd4736b100ec4a2373c00825260408084207f251c369f4ebdedc72c1498dbeb9b538f609b170856998c6e34e4ab95eaf533025491517f50a98bbf00000000000000000000000000000000000000000000000000000000815260048101919091526001600160a01b03928316602482015295821660448701521660648501528360848173__$ca13419e464d83291cf63d5a219ad1f9e5$__5af4918215612a175781926129d9575b602093505d6001600160401b0360405191168152f35b9150916020813d602011612a0f575b816129f560209383614c38565b8101031261051b5791612a09602093614d5a565b916129c3565b3d91506129e8565b50604051903d90823e3d90fd5b5034610523576020366003190112610523576040610220916001600160a01b03612a4c614ab6565b826102008551612a5b81614c01565b82815282602082015282878201528260608201528260808201528260a08201528260c08201528260e08201528261010082015282610120820152826101408201528261016082015282610180820152826101a0820152826101c0820152826101e082015201521681525f80516020615f8a833981519152602052206001600160781b03610200604051612aed81614c01565b82600285549562ffffff8716845262ffffff8760181c16602085015262ffffff8760301c16604085015262ffffff8760481c16606085015260ff8760601c16608085015260ff8760681c1660a0850152828760701c1660c08501528660e81c60e085015260ff600182015462ffffff811661010087015262ffffff8160181c166101208701526001600160401b038160301c1661014087015262ffffff8160701c1661016087015262ffffff8160881c166101808701526001600160401b038160a01c166101a087015260e01c1615156101c085015201546001600160401b0381166101e084015260401c168282015262ffffff6040519416845262ffffff602082015116602085015262ffffff604082015116604085015262ffffff606082015116606085015260ff608082015116608085015260ff60a08201511660a08501528260c08201511660c085015262ffffff60e08201511660e085015262ffffff6101008201511661010085015262ffffff610120820151166101208501526001600160401b036101408201511661014085015262ffffff6101608201511661016085015262ffffff610180820151166101808501526001600160401b036101a0820151166101a08501526101c081015115156101c08501526001600160401b036101e0820151166101e0850152015116610200820152f35b50346105235780600319360112610523576001600160a01b037f0000000000000000000000000000000000000000000000000000000000000000163003612d515760206040517f360894a13ba1a3210667c828492db98dca3e2076cc3735a920a3ca505d382bbc8152f35b8063703e46dd60e11b60049252fd5b503461052357602036600319011261052357600660406020926001600160a01b03612d89614ab6565b1681525f80516020615faa833981519152845220015460801c604051908152f35b5034610523576020366003190112610523576020612dc6614ab6565b5f80516020615fca8339815191525460601c6001600160a01b036040519216148152f35b50604036600319011261052357612dff614ab6565b602435906001600160401b03821161051b573660238301121561051b5781600401359083612e2c83614c59565b93612e3a6040519586614c38565b8385526020850193366024828401011161051b57806024602093018637850101526001600160a01b037f000000000000000000000000000000000000000000000000000000000000000016803014908115613078575b5061306957612e9d6154da565b6001600160a01b038116926040517f52d1902d000000000000000000000000000000000000000000000000000000008152602081600481885afa869181613035575b50612ef75760248686634c9c8ce360e01b8252600452fd5b93847f360894a13ba1a3210667c828492db98dca3e2076cc3735a920a3ca505d382bbc87960361300a5750823b15612ff857908185926001600160a01b03197f360894a13ba1a3210667c828492db98dca3e2076cc3735a920a3ca505d382bbc5416177f360894a13ba1a3210667c828492db98dca3e2076cc3735a920a3ca505d382bbc557fbc7cd75a20ee27fd9adebab32041f755214dbc6bffa90cc0225b39da2e5c2d3b8380a2805115612fc457612fc09382915190845af4612fba615dcf565b91615e30565b5080f35b5050505034612fd05780f35b807fb398979f0000000000000000000000000000000000000000000000000000000060049252fd5b634c9c8ce360e01b8552600452602484fd5b7faa1d49a4000000000000000000000000000000000000000000000000000000008652600452602485fd5b9091506020813d602011613061575b8161305160209383614c38565b81010312610e3e5751905f612edf565b3d9150613044565b60048463703e46dd60e11b8152fd5b90506001600160a01b037f360894a13ba1a3210667c828492db98dca3e2076cc3735a920a3ca505d382bbc541614155f612e90565b5034610523576060366003190112610523576130c7614ab6565b906130d0614acc565b906130d9614b34565b925f80516020615f6a8339815191525c6117d45760015f80516020615f6a8339815191525d613106615478565b6001600160a01b038116928383525f80516020615faa83398151915260205260408320916040516370a0823160e01b8152306004820152602081602481895afa908115610b6d578591613a73575b506001600160a01b036001600160601b036131e698816131c061317e6001600160401b0396615649565b966131bb60068b01986131a06001600160801b03610fda8c5460801c84614d26565b99906001600160801b0382549181199060801b169116179055565b6155ef565b9490978b8b525f80516020615f8a83398151915260205260408b209b6040519d8e614b95565b8d5216958660208d01521660408b01521660608901528160808901941684521660a08701526001600160a01b038491165f526004830160205260405f209261322d84615434565b9060208201966001600160601b03885116156139da575b8692896001600160601b038a5116936001600160601b03606083015116908161361a575b5050906001600160401b0360406001600160601b03808084968185818951169201511601991699169c5116920151168b8360a06001600160601b03606084015116920151169280155f146135f157505050955b5116604051936132ca85614bcb565b898601810385526001600160601b038416918260208701526001600160401b03881695866040820152606081019180835260808201908c8252613341629896806001600160401b0360018a549a015460a01c1692026001600160401b0362ffffff8a60481c1662ffffff8b1601168b890202615da1565b01928c6001600160601b036020850151166001600160401b038060408701511693511691508183115f146135d7576001600160401b038261338494031602615da1565b8c035b8c81126135cb575b505161357b57518a8113801590613571575b6135435750506133b6905b8a8701900361567a565b916001600160601b0360608c0151166134f1575b50509260e092602099926001600160601b037f69a76d4ceb4ba52dcf5c9718b2b8338026e1454f52793559604d20e8f6109085961696885498886001600160601b03198b161781556001600160601b0360608701511699898b6134a0575b50505050506001600160a01b03835116956001600160a01b038b85015116976001600160401b0360a06001600160601b0360408801511696015116916040519586528c86015260408501526060840152608083015260a08201528660c0820152a35f80516020615f6a8339815191525d604051908152f35b6001600160c01b03196bffffffffffffffffffffffff60601b6134e79660601b16921617178155906001600160c01b036001600160c01b031983549260c01b169116179055565b5f80808089613428565b60ff9060601c16906001600160601b038316818382021061351257506133ca565b7f60eef1bd000000000000000000000000000000000000000000000000000000008a52600452602452604452606487fd5b7fc37a506f000000000000000000000000000000000000000000000000000000008b52600452602452604489fd5b50808210156133a1565b518a8113806135c2575b6135945750506133b6906133ac565b7fc03f6b78000000000000000000000000000000000000000000000000000000008b52600452602452604489fd5b50808210613585565b8c03909201915f61338f565b6001600160401b036135ec93830316026156cb565b613387565b816136005750509050956132bb565b6136139285948383019302910201615da1565b16956132bb565b9550955090919250516001600160a01b03169383549460018501546001600160401b03166040519661364b88614bb0565b60018852602088019384526040880152606087015261366a8685615c41565b839193516001600160601b031661368091615dfe565b6136899061567a565b965160ff16905160601b6bffffffffffffffffffffffff60601b166bffffffffffffffffffffffff60601b16906001145f14927fa83f0e4ee4d8344c58131823c4129b19e2008563444fb262bd847b215e09ed95936139d35701905b81865560018601805467ffffffffffffffff1916426001600160401b0316179055604080516001600160a01b039290921682526020820192909252a1613736846001600160a01b038b5116856159d6565b6001600160601b03885116926001600160601b0360608b015116906002810154946001600160801b038616838760801c01116139955782613777910161567a565b6298968062ffffff865460181c166001600160801b03881602046001600160601b03821681811161396757505060406001600160601b0380808f999897956001600160401b03978f918c62ffffff8c61395b958d9b9f6138366137f08a6060880151166001600160801b0360018a015460401c166156ab565b600188019077ffffffffffffffffffffffffffffffff00000000000000001977ffffffffffffffffffffffffffffffff000000000000000083549260401b169116179055565b857f0812f6a295cc8a7a815c1d8ed846754c88804a4813bf46ef1291617660decfac60608f6138ae90896138d18860016001600160a01b03845116986001600160601b036001600160801b03611fd3918a8960a08a0151169801511698899788600286015460801c978787015460c01c905088615beb565b968795011660028301906001600160801b0382549181199060801b169116179055565b604051928352876020840152166040820152a26139236001600160801b036001600160a01b03875116988f60a08d60608b015116990151169360801c01166001600160801b0360028901541685615a2d565b925460e81c948c519761393589614be6565b88526020880152808c880152606087015260808601521660a084015260c0830152615a90565b99959650505050613268565b7f66705ff7000000000000000000000000000000000000000000000000000000008c5260045260245260448afd5b60448a6001600160801b0388867f4ef1e4d80000000000000000000000000000000000000000000000000000000084528160801c0160045216602452fd5b03906136e5565b6001600160601b0360608a01511615613a3a576001600160601b0360408a0151166001600160401b03600183015460301c161115613244576004877f41c092a9000000000000000000000000000000000000000000000000000000008152fd5b6024876001600160a01b0360208c0151167f1866aff2000000000000000000000000000000000000000000000000000000008252600452fd5b90506020813d602011613aa4575b81613a8e60209383614c38565b8101031261117357516001600160a01b03613154565b3d9150613a81565b50346105235760203660031901126105235760406001600160401b03613ad36131bb614ab6565b835191831682529091166020820152f35b503461052357606036600319011261052357613afe614ab6565b613b06614acc565b90604435916001600160801b03831691828403610735575f80516020615f6a8339815191525c613c155760015f80516020615f6a8339815191525d613b496154da565b6001600160a01b0381168086525f80516020615faa83398151915260205285604081209173__$6633ebe8291297d9afa6dd52cba1e90df9$__90813b1561051b5782906084604051809481937f9fd4a2c900000000000000000000000000000000000000000000000000000000835288600484015260248301528a60448301526001600160a01b038a1660648301525af4801561113157613c00575b5050610b0d94610adf6006610b08930191825460801c614d26565b81613c0a91614c38565b61071e57855f613be5565b600485633ee5aeb560e01b8152fd5b503461052357606036600319011261052357613c3e614ab6565b613c46614acc565b90613c4f614ae2565b905f80516020615f6a8339815191525c610b785760015f80516020615f6a8339815191525d613c7c615478565b6001600160a01b0381168085525f80516020615faa8339815191526020526024604086209460206001600160a01b036055600b6040517ff7ee18f8779e8a47b9fee2bf37816783fe8615833733cf03cc48cd8fc3e3128b604082015287858201523081520160ff81532016604051938480926370a0823160e01b82523060048301525afa91821561117f578792613e7d575b506001600160401b03613d21819361550d565b6001600160a01b03613d328761553e565b9360405196613d4088614bcb565b8752816020880191168152816040880191818b1683528560608a01951685528560808a019716875281604051997f8a73c277000000000000000000000000000000000000000000000000000000008b528d60048c0152511660248a0152511660448801525116606486015251166084840152511660a482015260208160c48173__$0a26411359100f1c3d514fb8ef6c275fcd$__5af4908115610b6d578591613e25575b6020600687613e0e888888610b086001600160601b038a1696879401610adf85825460801c614d26565b5f80516020615f6a8339815191525d604051908152f35b90506020813d602011613e75575b81613e4060209383614c38565b81010312610735579260209492613e0e92610b086001600160601b03613e67600698614d12565b949750505092509294613de4565b3d9150613e33565b91506020823d602011613eb0575b81613e9860209383614c38565b81010312611173579051906001600160401b03613d0e565b3d9150613e8b565b503461052357806003193601126105235760206001600160a01b037f71907d27e7f56436d282b33232af729b796faa4dde12f80868ee08b9116c52015416604051908152f35b503461052357602036600319011261052357613f74608091613f1e614ab6565b906060604051613f2d81614bb0565b82815282602082015282604082015201526001600160a01b03165f527f58a0c8f0f88cec20fbd92b7b52b0d2d1fcf9b126fb78d3cc170d4a02c5be090160205260405f2090565b60ff60405191613f8383614bb0565b5465ffffffffffff6001600160a01b0382169384815263ffffffff60208201818560a01c1681528560606040850194868860c01c168652019560f01c168552604051968752511660208601525116604084015251166060820152f35b50346111735761026036600319011261117357613ffa614ab6565b6024356001600160401b03811161117357614019903690600401614b07565b6102203660431901126111735761402e6154da565b73__$a1f2ab01d928b132890dcf6bf514391fc1$__92833b15611173576001600160a01b03604051917faf34626a0000000000000000000000000000000000000000000000000000000083525f80516020615f8a8339815191526004840152169384602483015260443562ffffff811680910361117357604483015260643562ffffff811680910361117357606483015260843562ffffff811680910361117357608483015260a43562ffffff81168091036111735760a483015260c43560ff81168091036111735760c483015260e43560ff81168091036111735760e4830152610104356001600160781b038116809103611173576101048301526101243562ffffff8116809103611173576101248301526101443562ffffff8116809103611173576101448301526101643562ffffff811680910361117357610164830152610184356001600160401b038116809103611173576101848301526101a43562ffffff8116809103611173576101a48301526101c43562ffffff8116809103611173576101c48301526101e4356001600160401b038116809103611173576101e48301526102043580151580910361117357610204830152610224356001600160401b03811680910361117357610224830152610244356001600160781b03811680910361117357610264835f9381936102448301525af4801561434657614329575b5061427c9160209160405193849283927f4d24510b000000000000000000000000000000000000000000000000000000008452876004850152604060248501526044840191615414565b038173__$0a26411359100f1c3d514fb8ef6c275fcd$__5af4801561431e5783906142d5575b6001600160a01b03915016907f568e18da806eb397f2d086fde9b2755e7281e9b6e258af09494db3fea007e3678380a380f35b506020813d602011614316575b816142ef60209383614c38565b8101031261051b57516001600160a01b038116810361051b576001600160a01b03906142a2565b3d91506142e2565b6040513d85823e3d90fd5b60209194509161433c5f61427c94614c38565b5f94915091614232565b6040513d5f823e3d90fd5b34611173576020366003190112611173576001600160a01b03614372614ab6565b5f60a060405161438181614b95565b8281528260208201528260408201528260608201528260808201520152165f525f80516020615faa83398151915260205260c060405f206001600160801b03604051916143cd83614b95565b818154938481526001600160401b03600184015483602084019583831687528360026040870192848660401c16845260608801958d1c865201549760a06080880197858b168952019860801c89526040519a8b52511660208a0152511660408801525116606086015251166080840152511660a0820152f35b346111735760403660031901126111735761445f614ab6565b614467614acc565b9060206001600160a01b0382169161447e8361546c565b614486615478565b5f8381527f9f37cc75d7cdaa7a198c13b92cf96b51104a2ab8d71dd4736b100ec4a2373c0083526040908190207f251c369f4ebdedc72c1498dbeb9b538f609b170856998c6e34e4ab95eaf533025491517f8bb0066100000000000000000000000000000000000000000000000000000000815260048101919091526001600160a01b03928316602482015294821660448601521660648401528260848173__$ca13419e464d83291cf63d5a219ad1f9e5$__5af4918215614346575f92614560575b6020835f845d6001600160601b0360405191168152f35b91506020823d602011614596575b8161457b60209383614c38565b81010312611173575f61458f602093614d12565b9250614549565b3d915061456e565b34611173576040366003190112611173576145b7614ab6565b602435908115158092036111735760206001600160a01b037fbfebfd5a55fc68dcbd39a328466866d2b3ef72f193acc678ff4463762c5323d0926145f96154da565b1692835f527fbb40e86f68fafb11efed99ac959fcf9a51deeafbf5b56a45f87ae418cc6eb300825260405f2060ff1981541660ff8316179055604051908152a2005b34611173576080366003190112611173576146cb614657614ab6565b61465f614acc565b906001600160a01b03614670614ae2565b614678615478565b81604051947f23b872dd0000000000000000000000000000000000000000000000000000000060208701521660248501521660448301526064356064830152606482526146c6608483614c38565b615948565b005b34611173576020366003190112611173576001600160a01b036146ee614ab6565b5f60206040516146fd81614b7a565b8281520152165f525f80516020615faa83398151915260205260406005815f20016001600160801b0382519161473283614b7a565b54602082821693848152019060801c8152835192835251166020820152f35b34611173575f3660031901126111735760206001600160a01b037f71907d27e7f56436d282b33232af729b796faa4dde12f80868ee08b9116c52005416604051908152f35b34611173576020366003190112611173576147af614ab6565b6040516147bb81614b4a565b5f8152602081015f9052604081015f9052606081015f9052608081015f905260a081015f905260c081015f905260e0015f9052614828906001600160a01b03165f527f58a0c8f0f88cec20fbd92b7b52b0d2d1fcf9b126fb78d3cc170d4a02c5be090260205260405f2090565b6040519061483582614b4a565b80549163ffffffff83169283825260208201908060201c6001600160401b0316825260408301938160601c6001600160401b0316855260608401908260a01c63ffffffff168252608085019260c01c8352600101549460a08501936001600160401b038716855260c08601958760401c6001600160401b0316875260e0019660801c6001600160401b03168752604051978852516001600160401b03166020880152516001600160401b031660408701525163ffffffff166060860152516001600160401b03166080850152516001600160401b031660a0840152516001600160401b031660c0830152516001600160401b031660e082015261010090f35b346111735760603660031901126111735761494d614ab6565b614955614acc565b9061495e614ae2565b5f80516020615f6a8339815191525c614aa7576001600160a01b0380809360015f80516020615f6a8339815191525d614995615478565b1693845f525f80516020615faa83398151915260205260405f2094827f251c369f4ebdedc72c1498dbeb9b538f609b170856998c6e34e4ab95eaf533025416604051967f4a1ea5ef00000000000000000000000000000000000000000000000000000000885260048801526024870152604486015216606484015216608482015260208160a48173__$ca13419e464d83291cf63d5a219ad1f9e5$__5af48015614346575f90614a64575b6020905f5f80516020615f6a8339815191525d6001600160801b0360405191168152f35b506020813d602011614a9f575b81614a7e60209383614c38565b8101031261117357516001600160801b038116810361117357602090614a40565b3d9150614a71565b633ee5aeb560e01b5f5260045ffd5b600435906001600160a01b038216820361117357565b602435906001600160a01b038216820361117357565b604435906001600160a01b038216820361117357565b60643590811515820361117357565b9181601f84011215611173578235916001600160401b038311611173576020838186019501011161117357565b604435906001600160601b038216820361117357565b61010081019081106001600160401b03821117614b6657604052565b634e487b7160e01b5f52604160045260245ffd5b604081019081106001600160401b03821117614b6657604052565b60c081019081106001600160401b03821117614b6657604052565b608081019081106001600160401b03821117614b6657604052565b60a081019081106001600160401b03821117614b6657604052565b60e081019081106001600160401b03821117614b6657604052565b61022081019081106001600160401b03821117614b6657604052565b606081019081106001600160401b03821117614b6657604052565b90601f801991011681019081106001600160401b03821117614b6657604052565b6001600160401b038111614b6657601f01601f191660200190565b60c0600319820112611173576004356001600160a01b03811681036111735791602435801515810361117357916044356001600160601b038116810361117357916064356001600160a01b03811681036111735791608435906001600160401b03821161117357614ce791600401614b07565b909160a4356001600160a01b03811681036111735790565b6044359063ffffffff8216820361117357565b51906001600160601b038216820361117357565b906001600160801b03809116911603906001600160801b038211614d4657565b634e487b7160e01b5f52601160045260245ffd5b51906001600160401b038216820361117357565b60405190614d7b82614c1d565b5f6040838281528260208201520152565b5f80516020615fca833981519152548060601c3303615405576001600160a01b03821691614e0f6001600160401b038260a01c169163ffffffff614e00866001600160a01b03165f527f58a0c8f0f88cec20fbd92b7b52b0d2d1fcf9b126fb78d3cc170d4a02c5be090260205260405f2090565b9460401c169060e01c8461578d565b1561540057614e4e836001600160a01b03165f527f58a0c8f0f88cec20fbd92b7b52b0d2d1fcf9b126fb78d3cc170d4a02c5be090160205260405f2090565b9060405191614e5c83614bb0565b546001600160a01b03811692838152602081019063ffffffff8360a01c168252604081019465ffffffffffff8460c01c16865260ff606083019460f01c1684521561532c579060a06001600160a01b03600494935116604051948580927ffeaf968c0000000000000000000000000000000000000000000000000000000082525afa908115614346575f935f926152d6575b505f8413156152aa575163ffffffff169081615264575b5050805160ff16600a811061522e5750614f4191614f3b60ff611e7d93511680600a0390600a8111906009190182180218615817565b906156cb565b9183549385600182019283549060405194614f5b86614bcb565b8860a01c63ffffffff168652602086019860c01c8952604086016001600160401b038416815260608701928460401c6001600160401b03168452608088019460801c6001600160401b031685525165ffffffffffff165f80516020615fca8339815191525460201c63ffffffff16614fd5918b8b8b615845565b9651865463ffffffff60a01b191660a09190911b63ffffffff60a01b1617865595988996905186546001600160c01b031660c09190911b6001600160c01b031916178655516001600160401b0316916001600160401b0383166001600160401b03198354161782555181549351938460801b77ffffffffffffffff00000000000000000000000000000000169160401b6fffffffffffffffff0000000000000000169077ffffffffffffffffffffffffffffffff00000000000000001916171790557f885a0818141ce0dc05b68893bef27a6a46437e39a53f794610509d262556872f976151de575b50505062ffffff5f80516020615fca8339815191525460081c16938392849581156151c2575b50615189575b50805473ffffffffffffffff0000000000000000000000001916606085901b73ffffffffffffffff0000000000000000000000001617815561518491906151589082905b906bffffffffffffffff0000000082549160201b16906bffffffffffffffff000000001916179055565b604051938493849160409194936001600160401b03809281606087019816865216602085015216910152565b0390a2565b90936001600160401b0382168411156151b15750906151588161518493955b925092506150ea565b9361518492506151589082906151a8565b90506001600160401b036151d68387615d1f565b16115f6150e4565b7f3ea4c6a143038c806f36788fc874be45b4565473dfafe3a7970459c36a9eee5f916080916001600160401b0360405192898452818b1660208501521660408301526060820152a2855f806150be565b61524a915080600a0390600a8111906009190182180218615817565b90818102918183041490151715614d4657614f419061550d565b428103908042119042038218021890811161527f5780614f05565b7fb30a685a000000000000000000000000000000000000000000000000000000005f5260045260245ffd5b837f85a20608000000000000000000000000000000000000000000000000000000005f5260045260245ffd5b9350905060a0833d60a011615324575b816152f360a09383614c38565b810103126111735761530483615800565b50602083015161531b608060608601519501615800565b5092905f614eee565b3d91506152e6565b50505091905060ff5f80516020615fca8339815191525416156153d857805473ffffffffffffffff0000000000000000000000001916606083901b73ffffffffffffffff000000000000000000000000161781557f885a0818141ce0dc05b68893bef27a6a46437e39a53f794610509d262556872f91615184916153b190829061512e565b604080516001600160401b0390921680835260208301819052908201529081906060820190565b7f42adce3f000000000000000000000000000000000000000000000000000000005f5260045ffd5b505050565b631dd2188d60e31b5f5260045ffd5b908060209392818452848401375f828201840152601f01601f1916010190565b9060405161544181614c1d565b60408193546001600160601b03811683526001600160601b038160601c16602084015260c01c910152565b805c614aa7576001905d565b335f527fbb40e86f68fafb11efed99ac959fcf9a51deeafbf5b56a45f87ae418cc6eb30060205260ff60405f205416156154ae57565b7fa02ef12a000000000000000000000000000000000000000000000000000000005f523360045260245ffd5b6001600160a01b037f71907d27e7f56436d282b33232af729b796faa4dde12f80868ee08b9116c52005416330361540557565b6001600160401b038111615527576001600160401b031690565b6306dfcc6560e41b5f52604060045260245260445ffd5b6155806001600160401b03916001600160a01b03165f527f58a0c8f0f88cec20fbd92b7b52b0d2d1fcf9b126fb78d3cc170d4a02c5be090260205260405f2090565b5460201c1690811561558e57565b6321c4e35760e21b5f5260045ffd5b6155ed926001600160a01b03604051937fa9059cbb0000000000000000000000000000000000000000000000000000000060208601521660248401526044830152604482526146c6606483614c38565b565b615629906001600160a01b03165f527f58a0c8f0f88cec20fbd92b7b52b0d2d1fcf9b126fb78d3cc170d4a02c5be090260205260405f2090565b54906001600160401b03808360601c169260201c16908183171561558e57565b6001600160801b038111615663576001600160801b031690565b6306dfcc6560e41b5f52608060045260245260445ffd5b6001600160601b038111615694576001600160601b031690565b6306dfcc6560e41b5f52606060045260245260445ffd5b906001600160801b03809116911601906001600160801b038211614d4657565b81156156d5570490565b634e487b7160e01b5f52601260045260245ffd5b906001600160601b03809116911601906001600160601b038211614d4657565b6001600160a01b03807f71907d27e7f56436d282b33232af729b796faa4dde12f80868ee08b9116c520054921691826001600160a01b03198216177f71907d27e7f56436d282b33232af729b796faa4dde12f80868ee08b9116c520055167f3d1e4c3a68fed9f4f8315582b7297cf8fa264bc8e6704287603ba8c72bf05ac25f80a3565b919063ffffffff835491169163ffffffff82168311156157f85763ffffffff164201804211614d46578210156157cc5763ffffffff1916179055600190565b507fcfb02981000000000000000000000000000000000000000000000000000000005f5260045260245ffd5b505050505f90565b519069ffffffffffffffffffff8216820361117357565b604d8111614d4657600a0a90565b906001600160401b03809116911601906001600160401b038211614d4657565b91929063ffffffff61585a815f9716426156cb565b169363ffffffff845116850361591a5760208401906158836001600160401b0383511682615d1f565b9360608601946001600160401b0361589e8188511687615d1f565b91816158b160408b019282845116615825565b168152816158c660808b019482865116615825565b16809352511680821192836158fc575b5050506158f3575b6001600160401b039081169091521690525290565b600196506158de565b65ffffffffffff1691036001600160401b03161190505f80806158d6565b839495506001600160401b03938492935060805f9101525f6040860152166020840152166060820152525f90565b5f806001600160a01b0361597193169360208151910182865af161596a615dcf565b9083615e30565b80519081151591826159b2575b50506159875750565b7f5274afe7000000000000000000000000000000000000000000000000000000005f5260045260245ffd5b81925090602091810103126111735760200151801590811503611173575f8061597e565b90916001600160601b031691826159ec57505050565b6001600160a01b0360209160077fb34ff6ddd5dee9bf782869b9e926e675f574f9fe1710f1cecb30a69f7c94e54c94018581540190556040519485521692a2565b90916001600160801b0362ffffff9316908254926001600160801b0362989680868660301c1685020492168281115f14615a85578593838594856001615a7a9601541692039203026156cb565b169160481c16011690565b5050505060481c1690565b919091629896806001600160401b03606085015116026001600160601b0360208501511662ffffff60a086015116026001600160401b036040860151160260808501516002811015615bd7577fb2f6a4f7e42ba5ef7df3d0585d1a3378ea8c9af725cbe3d0e19592cfc6bf593c926020926001600160a01b0392615bc457615b1b91611e3491615da1565b955b60026001600160601b0388816298968062ffffff60c08701511682841602041690600689016001600160801b038084818454160116166001600160801b0319825416179055858551167f3728333a5018ab9fba2d4b5e866f0d4fc4266f7d12f1bd146ec9daca281022a988604051858152a2031695016001600160801b03615ba887828454166156ab565b166001600160801b0319825416179055511692604051908152a2565b615bd191611e34916156cb565b95615b1d565b634e487b7160e01b5f52602160045260245ffd5b6001600160801b039093929193169081155f14615c09575050905090565b6001600160801b031680615c1d5750505090565b92615c3d92916001600160401b03809581818401951602921602016156cb565b1690565b91909162ffffff600182015460181c166001600160401b03606085015116420390808210801590615d13575b615d0857615c8f5f9160408701938451908160ff1d9083039181011802615da1565b91511315615d0057805b60ff8195511690600182149182615cf6575b8215615cd9575b505015615cbf5750505f90565b6001600160781b03615cd6925460701c1690615da1565b90565b600214915081615cec575b505f80615cb2565b5f9150125f615ce4565b5f82139250615cab565b805f03615c99565b50505090505f905f90565b50604085015115615c6d565b6001600160401b0391620f42408380615c3d94169216918083039083808211910382180218026156cb565b60ff7ff0c57e16840df040f15088dc2f81fe391c3923bec73e23a9662efc9c229c6a005460401c1615615d7957565b7fd7e6bcf8000000000000000000000000000000000000000000000000000000005f5260045ffd5b8115615dc55780615db25750505f90565b600191615dc1915f19016156cb565b0190565b90615cd6916156cb565b3d15615df9573d90615de082614c59565b91615dee6040519384614c38565b82523d5f602084013e565b606090565b906c0100000000000000000000000090615e19828285615ebc565b9209615e225790565b60018101809111614d465790565b90615e6d5750805115615e4557805190602001fd5b7f1425ea42000000000000000000000000000000000000000000000000000000005f5260045ffd5b81511580615eb3575b615e7e575090565b6001600160a01b03907f9996b315000000000000000000000000000000000000000000000000000000005f521660045260245ffd5b50803b15615e76565b9091828202915f1984820993838086109503948086039514615f5c5784831115615f3457829109815f0382168092046002816003021880820260020302808202600203028082026002030280820260020302808202600203028091026002030293600183805f03040190848311900302920304170290565b7f227bc153000000000000000000000000000000000000000000000000000000005f5260045ffd5b505090615cd692506156cb56fe4beb0cc1ce3d1e2cf0d9a6b229c64b6d03eacccdcfc3e09da21139b35373ffd02e53c93cfb85b377c33c5881ea2e8ae1c7fa4b789e2a859438dc71474e045100251c369f4ebdedc72c1498dbeb9b538f609b170856998c6e34e4ab95eaf5330058a0c8f0f88cec20fbd92b7b52b0d2d1fcf9b126fb78d3cc170d4a02c5be0900a164736f6c634300081a000a",
  "linkReferences": {
    "contracts/libraries/ConfigurableUtil.sol": {
      "ConfigurableUtil": [
        {
          "length": 20,
          "start": 6989
        },
        {
          "length": 20,
          "start": 16669
        }
      ]
    },
    "contracts/libraries/LiquidityUtil.sol": {
      "LiquidityUtil": [
        {
          "length": 20,
          "start": 4505
        },
        {
          "length": 20,
          "start": 16046
        },
        {
          "length": 20,
          "start": 17261
        }
      ]
    },
    "contracts/libraries/MarketUtil.sol": {
      "MarketUtil": [
        {
          "length": 20,
          "start": 15452
        }
      ]
    },
    "contracts/libraries/PUSDManagerUtil.sol": {
      "PUSDManagerUtil": [
        {
          "length": 20,
          "start": 4839
        },
        {
          "length": 20,
          "start": 5789
        },
        {
          "length": 20,
          "start": 10893
        },
        {
          "length": 20,
          "start": 17939
        },
        {
          "length": 20,
          "start": 19211
        }
      ]
    },
    "contracts/libraries/PositionUtil.sol": {
      "PositionUtil": [
        {
          "length": 20,
          "start": 2943
        },
        {
          "length": 20,
          "start": 3644
        }
      ]
    }
  },
  "deployedLinkReferences": {
    "contracts/libraries/ConfigurableUtil.sol": {
      "ConfigurableUtil": [
        {
          "length": 20,
          "start": 6752
        },
        {
          "length": 20,
          "start": 16432
        }
      ]
    },
    "contracts/libraries/LiquidityUtil.sol": {
      "LiquidityUtil": [
        {
          "length": 20,
          "start": 4268
        },
        {
          "length": 20,
          "start": 15809
        },
        {
          "length": 20,
          "start": 17024
        }
      ]
    },
    "contracts/libraries/MarketUtil.sol": {
      "MarketUtil": [
        {
          "length": 20,
          "start": 15215
        }
      ]
    },
    "contracts/libraries/PUSDManagerUtil.sol": {
      "PUSDManagerUtil": [
        {
          "length": 20,
          "start": 4602
        },
        {
          "length": 20,
          "start": 5552
        },
        {
          "length": 20,
          "start": 10656
        },
        {
          "length": 20,
          "start": 17702
        },
        {
          "length": 20,
          "start": 18974
        }
      ]
    },
    "contracts/libraries/PositionUtil.sol": {
      "PositionUtil": [
        {
          "length": 20,
          "start": 2706
        },
        {
          "length": 20,
          "start": 3407
        }
      ]
    }
  }
}