{
  "_format": "hh-sol-artifact-1",
  "contractName": "PUSDUpgradeable",
  "sourceName": "contracts/core/PUSDUpgradeable.sol",
  "abi": [
    {
      "inputs": [],
      "stateMutability": "nonpayable",
      "type": "constructor"
    },
    {
      "inputs": [
        {
          "internalType": "address",
          "name": "target",
          "type": "address"
        }
      ],
      "name": "AddressEmptyCode",
      "type": "error"
    },
    {
      "inputs": [],
      "name": "ECDSAInvalidSignature",
      "type": "error"
    },
    {
      "inputs": [
        {
          "internalType": "uint256",
          "name": "length",
          "type": "uint256"
        }
      ],
      "name": "ECDSAInvalidSignatureLength",
      "type": "error"
    },
    {
      "inputs": [
        {
          "internalType": "bytes32",
          "name": "s",
          "type": "bytes32"
        }
      ],
      "name": "ECDSAInvalidSignatureS",
      "type": "error"
    },
    {
      "inputs": [
        {
          "internalType": "address",
          "name": "implementation",
          "type": "address"
        }
      ],
      "name": "ERC1967InvalidImplementation",
      "type": "error"
    },
    {
      "inputs": [],
      "name": "ERC1967NonPayable",
      "type": "error"
    },
    {
      "inputs": [
        {
          "internalType": "address",
          "name": "spender",
          "type": "address"
        },
        {
          "internalType": "uint256",
          "name": "allowance",
          "type": "uint256"
        },
        {
          "internalType": "uint256",
          "name": "needed",
          "type": "uint256"
        }
      ],
      "name": "ERC20InsufficientAllowance",
      "type": "error"
    },
    {
      "inputs": [
        {
          "internalType": "address",
          "name": "sender",
          "type": "address"
        },
        {
          "internalType": "uint256",
          "name": "balance",
          "type": "uint256"
        },
        {
          "internalType": "uint256",
          "name": "needed",
          "type": "uint256"
        }
      ],
      "name": "ERC20InsufficientBalance",
      "type": "error"
    },
    {
      "inputs": [
        {
          "internalType": "address",
          "name": "approver",
          "type": "address"
        }
      ],
      "name": "ERC20InvalidApprover",
      "type": "error"
    },
    {
      "inputs": [
        {
          "internalType": "address",
          "name": "receiver",
          "type": "address"
        }
      ],
      "name": "ERC20InvalidReceiver",
      "type": "error"
    },
    {
      "inputs": [
        {
          "internalType": "address",
          "name": "sender",
          "type": "address"
        }
      ],
      "name": "ERC20InvalidSender",
      "type": "error"
    },
    {
      "inputs": [
        {
          "internalType": "address",
          "name": "spender",
          "type": "address"
        }
      ],
      "name": "ERC20InvalidSpender",
      "type": "error"
    },
    {
      "inputs": [
        {
          "internalType": "uint256",
          "name": "deadline",
          "type": "uint256"
        }
      ],
      "name": "ERC2612ExpiredSignature",
      "type": "error"
    },
    {
      "inputs": [
        {
          "internalType": "address",
          "name": "signer",
          "type": "address"
        },
        {
          "internalType": "address",
          "name": "owner",
          "type": "address"
        }
      ],
      "name": "ERC2612InvalidSigner",
      "type": "error"
    },
    {
      "inputs": [],
      "name": "FailedInnerCall",
      "type": "error"
    },
    {
      "inputs": [],
      "name": "Forbidden",
      "type": "error"
    },
    {
      "inputs": [
        {
          "internalType": "address",
          "name": "account",
          "type": "address"
        },
        {
          "internalType": "uint256",
          "name": "currentNonce",
          "type": "uint256"
        }
      ],
      "name": "InvalidAccountNonce",
      "type": "error"
    },
    {
      "inputs": [],
      "name": "InvalidInitialization",
      "type": "error"
    },
    {
      "inputs": [],
      "name": "InvalidMinter",
      "type": "error"
    },
    {
      "inputs": [],
      "name": "NotInitializing",
      "type": "error"
    },
    {
      "inputs": [],
      "name": "UUPSUnauthorizedCallContext",
      "type": "error"
    },
    {
      "inputs": [
        {
          "internalType": "bytes32",
          "name": "slot",
          "type": "bytes32"
        }
      ],
      "name": "UUPSUnsupportedProxiableUUID",
      "type": "error"
    },
    {
      "anonymous": false,
      "inputs": [
        {
          "indexed": true,
          "internalType": "address",
          "name": "owner",
          "type": "address"
        },
        {
          "indexed": true,
          "internalType": "address",
          "name": "spender",
          "type": "address"
        },
        {
          "indexed": false,
          "internalType": "uint256",
          "name": "value",
          "type": "uint256"
        }
      ],
      "name": "Approval",
      "type": "event"
    },
    {
      "anonymous": false,
      "inputs": [
        {
          "indexed": true,
          "internalType": "address",
          "name": "previousGov",
          "type": "address"
        },
        {
          "indexed": true,
          "internalType": "address",
          "name": "newGov",
          "type": "address"
        }
      ],
      "name": "ChangeGovStarted",
      "type": "event"
    },
    {
      "anonymous": false,
      "inputs": [],
      "name": "EIP712DomainChanged",
      "type": "event"
    },
    {
      "anonymous": false,
      "inputs": [
        {
          "indexed": true,
          "internalType": "address",
          "name": "previousGov",
          "type": "address"
        },
        {
          "indexed": true,
          "internalType": "address",
          "name": "newGov",
          "type": "address"
        }
      ],
      "name": "GovChanged",
      "type": "event"
    },
    {
      "anonymous": false,
      "inputs": [
        {
          "indexed": false,
          "internalType": "uint64",
          "name": "version",
          "type": "uint64"
        }
      ],
      "name": "Initialized",
      "type": "event"
    },
    {
      "anonymous": false,
      "inputs": [
        {
          "indexed": false,
          "internalType": "address",
          "name": "minter",
          "type": "address"
        },
        {
          "indexed": false,
          "internalType": "bool",
          "name": "enabled",
          "type": "bool"
        }
      ],
      "name": "MinterUpdate",
      "type": "event"
    },
    {
      "anonymous": false,
      "inputs": [
        {
          "indexed": true,
          "internalType": "address",
          "name": "from",
          "type": "address"
        },
        {
          "indexed": true,
          "internalType": "address",
          "name": "to",
          "type": "address"
        },
        {
          "indexed": false,
          "internalType": "uint256",
          "name": "value",
          "type": "uint256"
        }
      ],
      "name": "Transfer",
      "type": "event"
    },
    {
      "anonymous": false,
      "inputs": [
        {
          "indexed": true,
          "internalType": "address",
          "name": "implementation",
          "type": "address"
        }
      ],
      "name": "Upgraded",
      "type": "event"
    },
    {
      "inputs": [],
      "name": "DOMAIN_SEPARATOR",
      "outputs": [
        {
          "internalType": "bytes32",
          "name": "",
          "type": "bytes32"
        }
      ],
      "stateMutability": "view",
      "type": "function"
    },
    {
      "inputs": [],
      "name": "UPGRADE_INTERFACE_VERSION",
      "outputs": [
        {
          "internalType": "string",
          "name": "",
          "type": "string"
        }
      ],
      "stateMutability": "view",
      "type": "function"
    },
    {
      "inputs": [],
      "name": "acceptGov",
      "outputs": [],
      "stateMutability": "nonpayable",
      "type": "function"
    },
    {
      "inputs": [
        {
          "internalType": "address",
          "name": "owner",
          "type": "address"
        },
        {
          "internalType": "address",
          "name": "spender",
          "type": "address"
        }
      ],
      "name": "allowance",
      "outputs": [
        {
          "internalType": "uint256",
          "name": "",
          "type": "uint256"
        }
      ],
      "stateMutability": "view",
      "type": "function"
    },
    {
      "inputs": [
        {
          "internalType": "address",
          "name": "spender",
          "type": "address"
        },
        {
          "internalType": "uint256",
          "name": "value",
          "type": "uint256"
        }
      ],
      "name": "approve",
      "outputs": [
        {
          "internalType": "bool",
          "name": "",
          "type": "bool"
        }
      ],
      "stateMutability": "nonpayable",
      "type": "function"
    },
    {
      "inputs": [
        {
          "internalType": "address",
          "name": "account",
          "type": "address"
        }
      ],
      "name": "balanceOf",
      "outputs": [
        {
          "internalType": "uint256",
          "name": "",
          "type": "uint256"
        }
      ],
      "stateMutability": "view",
      "type": "function"
    },
    {
      "inputs": [
        {
          "internalType": "uint256",
          "name": "_value",
          "type": "uint256"
        }
      ],
      "name": "burn",
      "outputs": [],
      "stateMutability": "nonpayable",
      "type": "function"
    },
    {
      "inputs": [
        {
          "internalType": "address",
          "name": "_newGov",
          "type": "address"
        }
      ],
      "name": "changeGov",
      "outputs": [],
      "stateMutability": "nonpayable",
      "type": "function"
    },
    {
      "inputs": [],
      "name": "decimals",
      "outputs": [
        {
          "internalType": "uint8",
          "name": "",
          "type": "uint8"
        }
      ],
      "stateMutability": "view",
      "type": "function"
    },
    {
      "inputs": [],
      "name": "eip712Domain",
      "outputs": [
        {
          "internalType": "bytes1",
          "name": "fields",
          "type": "bytes1"
        },
        {
          "internalType": "string",
          "name": "name",
          "type": "string"
        },
        {
          "internalType": "string",
          "name": "version",
          "type": "string"
        },
        {
          "internalType": "uint256",
          "name": "chainId",
          "type": "uint256"
        },
        {
          "internalType": "address",
          "name": "verifyingContract",
          "type": "address"
        },
        {
          "internalType": "bytes32",
          "name": "salt",
          "type": "bytes32"
        },
        {
          "internalType": "uint256[]",
          "name": "extensions",
          "type": "uint256[]"
        }
      ],
      "stateMutability": "view",
      "type": "function"
    },
    {
      "inputs": [],
      "name": "gov",
      "outputs": [
        {
          "internalType": "address",
          "name": "",
          "type": "address"
        }
      ],
      "stateMutability": "view",
      "type": "function"
    },
    {
      "inputs": [
        {
          "internalType": "address",
          "name": "_initialGov",
          "type": "address"
        }
      ],
      "name": "initialize",
      "outputs": [],
      "stateMutability": "nonpayable",
      "type": "function"
    },
    {
      "inputs": [
        {
          "internalType": "address",
          "name": "_to",
          "type": "address"
        },
        {
          "internalType": "uint256",
          "name": "_value",
          "type": "uint256"
        }
      ],
      "name": "mint",
      "outputs": [],
      "stateMutability": "nonpayable",
      "type": "function"
    },
    {
      "inputs": [
        {
          "internalType": "address",
          "name": "minter",
          "type": "address"
        }
      ],
      "name": "minters",
      "outputs": [
        {
          "internalType": "bool",
          "name": "",
          "type": "bool"
        }
      ],
      "stateMutability": "view",
      "type": "function"
    },
    {
      "inputs": [],
      "name": "name",
      "outputs": [
        {
          "internalType": "string",
          "name": "",
          "type": "string"
        }
      ],
      "stateMutability": "view",
      "type": "function"
    },
    {
      "inputs": [
        {
          "internalType": "address",
          "name": "owner",
          "type": "address"
        }
      ],
      "name": "nonces",
      "outputs": [
        {
          "internalType": "uint256",
          "name": "",
          "type": "uint256"
        }
      ],
      "stateMutability": "view",
      "type": "function"
    },
    {
      "inputs": [],
      "name": "pendingGov",
      "outputs": [
        {
          "internalType": "address",
          "name": "",
          "type": "address"
        }
      ],
      "stateMutability": "view",
      "type": "function"
    },
    {
      "inputs": [
        {
          "internalType": "address",
          "name": "owner",
          "type": "address"
        },
        {
          "internalType": "address",
          "name": "spender",
          "type": "address"
        },
        {
          "internalType": "uint256",
          "name": "value",
          "type": "uint256"
        },
        {
          "internalType": "uint256",
          "name": "deadline",
          "type": "uint256"
        },
        {
          "internalType": "uint8",
          "name": "v",
          "type": "uint8"
        },
        {
          "internalType": "bytes32",
          "name": "r",
          "type": "bytes32"
        },
        {
          "internalType": "bytes32",
          "name": "s",
          "type": "bytes32"
        }
      ],
      "name": "permit",
      "outputs": [],
      "stateMutability": "nonpayable",
      "type": "function"
    },
    {
      "inputs": [],
      "name": "proxiableUUID",
      "outputs": [
        {
          "internalType": "bytes32",
          "name": "",
          "type": "bytes32"
        }
      ],
      "stateMutability": "view",
      "type": "function"
    },
    {
      "inputs": [
        {
          "internalType": "address",
          "name": "_minter",
          "type": "address"
        },
        {
          "internalType": "bool",
          "name": "_enabled",
          "type": "bool"
        }
      ],
      "name": "setMinter",
      "outputs": [],
      "stateMutability": "nonpayable",
      "type": "function"
    },
    {
      "inputs": [],
      "name": "symbol",
      "outputs": [
        {
          "internalType": "string",
          "name": "",
          "type": "string"
        }
      ],
      "stateMutability": "view",
      "type": "function"
    },
    {
      "inputs": [],
      "name": "totalSupply",
      "outputs": [
        {
          "internalType": "uint256",
          "name": "",
          "type": "uint256"
        }
      ],
      "stateMutability": "view",
      "type": "function"
    },
    {
      "inputs": [
        {
          "internalType": "address",
          "name": "to",
          "type": "address"
        },
        {
          "internalType": "uint256",
          "name": "value",
          "type": "uint256"
        }
      ],
      "name": "transfer",
      "outputs": [
        {
          "internalType": "bool",
          "name": "",
          "type": "bool"
        }
      ],
      "stateMutability": "nonpayable",
      "type": "function"
    },
    {
      "inputs": [
        {
          "internalType": "address",
          "name": "from",
          "type": "address"
        },
        {
          "internalType": "address",
          "name": "to",
          "type": "address"
        },
        {
          "internalType": "uint256",
          "name": "value",
          "type": "uint256"
        }
      ],
      "name": "transferFrom",
      "outputs": [
        {
          "internalType": "bool",
          "name": "",
          "type": "bool"
        }
      ],
      "stateMutability": "nonpayable",
      "type": "function"
    },
    {
      "inputs": [
        {
          "internalType": "address",
          "name": "newImplementation",
          "type": "address"
        },
        {
          "internalType": "bytes",
          "name": "data",
          "type": "bytes"
        }
      ],
      "name": "upgradeToAndCall",
      "outputs": [],
      "stateMutability": "payable",
      "type": "function"
    }
  ],
  "bytecode": "0x60a080604052346100e857306080527ff0c57e16840df040f15088dc2f81fe391c3923bec73e23a9662efc9c229c6a005460ff8160401c166100d9576002600160401b03196001600160401b03821601610073575b604051612ec190816100ed82396080518181816118cd01526119ec0152f35b6001600160401b0319166001600160401b039081177ff0c57e16840df040f15088dc2f81fe391c3923bec73e23a9662efc9c229c6a005581527fc7f505b2f371ae2175ee4913f4499e1f2633a7b5936321eed1cdaeb6115181d290602090a15f80610054565b63f92ee8a960e01b5f5260045ffd5b5f80fdfe60806040526004361015610011575f80fd5b5f3560e01c806306fdde03146123c3578063095ea7b31461237f57806312d43a511461230f57806318160ddd146122b557806323b872dd146120ad578063252408101461203d578063313ce567146120045780633644e51514611fc457806340c10f1914611e5157806342966c6814611ca75780634f1ef2861461194557806352d1902d1461188857806370a08231146118065780637bc6729b146117245780637ecebe00146116a257806384b0196e146113f357806395d89b411461129b578063a9059cbb1461124c578063a962ef1e14611131578063ad3cb1cc146110b0578063c4d66de8146104e3578063cf456ae714610418578063d505accf14610248578063dd62ed3e146101975763f46eccc41461012c575f80fd5b346101935760207ffffffffffffffffffffffffffffffffffffffffffffffffffffffffffffffffc3601126101935773ffffffffffffffffffffffffffffffffffffffff610178612507565b165f525f602052602060ff60405f2054166040519015158152f35b5f80fd5b346101935760407ffffffffffffffffffffffffffffffffffffffffffffffffffffffffffffffffc360112610193576101ce612507565b73ffffffffffffffffffffffffffffffffffffffff6102326101ee61252a565b9273ffffffffffffffffffffffffffffffffffffffff165f527f52c63247e1f47db19d5ce0460030c497f067ca4cebf71ba98eeadabe20bace0160205260405f2090565b91165f52602052602060405f2054604051908152f35b346101935760e07ffffffffffffffffffffffffffffffffffffffffffffffffffffffffffffffffc3601126101935761027f612507565b61028761252a565b604435906064359260843560ff81168103610193578442116103ec576103a761039e73ffffffffffffffffffffffffffffffffffffffff9283851697885f527f5ab42ced628888259c08ac98db1eb0cf702fc1501344311d8b100cd1bfe4bb0060205260405f20908154916001830190556040519060208201927f6e71edae12b1b97f4d1f60370fef10105fa2faae0126114a169c64845d6126c984528b6040840152878a1660608401528a608084015260a083015260c082015260c0815261035160e08261254d565b51902061035c612a35565b90604051917f190100000000000000000000000000000000000000000000000000000000000083526002830152602282015260c43591604260a4359220612af3565b90929192612b8d565b168481036103bc57506103ba935061297a565b005b84907f4b800e46000000000000000000000000000000000000000000000000000000005f5260045260245260445ffd5b847f62791302000000000000000000000000000000000000000000000000000000005f5260045260245ffd5b346101935760407ffffffffffffffffffffffffffffffffffffffffffffffffffffffffffffffffc3601126101935761044f612507565b60243590811515809203610193577f279360e293bcf8120adefa5fb6f669c774022ed25c09e099edd1818d155c57b69173ffffffffffffffffffffffffffffffffffffffff60409261049f61293a565b1690815f525f602052825f207fffffffffffffffffffffffffffffffffffffffffffffffffffffffffffffff0081541660ff831617905582519182526020820152a1005b346101935760207ffffffffffffffffffffffffffffffffffffffffffffffffffffffffffffffffc3601126101935761051a612507565b7ff0c57e16840df040f15088dc2f81fe391c3923bec73e23a9662efc9c229c6a00549060ff8260401c16159167ffffffffffffffff8116801590816110a8575b600114908161109e575b159081611095575b5061106d578260017fffffffffffffffffffffffffffffffffffffffffffffffff00000000000000008316177ff0c57e16840df040f15088dc2f81fe391c3923bec73e23a9662efc9c229c6a0055611018575b506105c861272c565b916040908151936105d9838661254d565b600485527f5055534400000000000000000000000000000000000000000000000000000000602086015261060b612a9c565b610613612a9c565b80519067ffffffffffffffff8211610b925781906106517f52c63247e1f47db19d5ce0460030c497f067ca4cebf71ba98eeadabe20bace03546125c8565b601f8111610f8b575b50602090601f8311600114610eac575f92610ea1575b50507fffffffffffffffffffffffffffffffffffffffffffffffffffffffffffffffff8260011b9260031b1c1916177f52c63247e1f47db19d5ce0460030c497f067ca4cebf71ba98eeadabe20bace03555b835167ffffffffffffffff8111610b92576106fd7f52c63247e1f47db19d5ce0460030c497f067ca4cebf71ba98eeadabe20bace04546125c8565b601f8111610e1f575b50602094601f8211600114610d41579481929394955f92610d36575b50507fffffffffffffffffffffffffffffffffffffffffffffffffffffffffffffffff8260011b9260031b1c1916177f52c63247e1f47db19d5ce0460030c497f067ca4cebf71ba98eeadabe20bace04555b61077c61272c565b92610785612a9c565b825193610792848661254d565b600185527f310000000000000000000000000000000000000000000000000000000000000060208601526107c4612a9c565b80519067ffffffffffffffff8211610b925781906108027fa16a46d94261c7517cc8ff89f61c0ce93598e3c849801011dee649a6a557d102546125c8565b601f8111610ca9575b50602090601f8311600114610bca575f92610bbf575b50507fffffffffffffffffffffffffffffffffffffffffffffffffffffffffffffffff8260011b9260031b1c1916177fa16a46d94261c7517cc8ff89f61c0ce93598e3c849801011dee649a6a557d102555b835167ffffffffffffffff8111610b92576108ae7fa16a46d94261c7517cc8ff89f61c0ce93598e3c849801011dee649a6a557d103546125c8565b601f8111610b10575b506020601f8211600114610a2c5781906109899495965f92610a21575b50507fffffffffffffffffffffffffffffffffffffffffffffffffffffffffffffffff8260011b9260031b1c1916177fa16a46d94261c7517cc8ff89f61c0ce93598e3c849801011dee649a6a557d103555b5f7fa16a46d94261c7517cc8ff89f61c0ce93598e3c849801011dee649a6a557d100555f7fa16a46d94261c7517cc8ff89f61c0ce93598e3c849801011dee649a6a557d10155610974612a9c565b61097c612a9c565b610984612a9c565b612891565b61098f57005b60207fc7f505b2f371ae2175ee4913f4499e1f2633a7b5936321eed1cdaeb6115181d2917fffffffffffffffffffffffffffffffffffffffffffffff00ffffffffffffffff7ff0c57e16840df040f15088dc2f81fe391c3923bec73e23a9662efc9c229c6a0054167ff0c57e16840df040f15088dc2f81fe391c3923bec73e23a9662efc9c229c6a00555160018152a1005b0151905086806108d4565b7fffffffffffffffffffffffffffffffffffffffffffffffffffffffffffffffe08216957fa16a46d94261c7517cc8ff89f61c0ce93598e3c849801011dee649a6a557d1035f52815f20965f5b818110610af857509161098995969791846001959410610ac1575b505050811b017fa16a46d94261c7517cc8ff89f61c0ce93598e3c849801011dee649a6a557d10355610926565b01517fffffffffffffffffffffffffffffffffffffffffffffffffffffffffffffffff60f88460031b161c19169055868080610a94565b83830151895560019098019760209384019301610a79565b7fa16a46d94261c7517cc8ff89f61c0ce93598e3c849801011dee649a6a557d1035f527f5f9ce34815f8e11431c7bb75a8e6886a91478f7ffc1dbb0a98dc240fddd76b75601f830160051c81019160208410610b88575b601f0160051c01905b818110610b7d57506108b7565b5f8155600101610b70565b9091508190610b67565b7f4e487b71000000000000000000000000000000000000000000000000000000005f52604160045260245ffd5b015190508680610821565b917fffffffffffffffffffffffffffffffffffffffffffffffffffffffffffffffe016917fa16a46d94261c7517cc8ff89f61c0ce93598e3c849801011dee649a6a557d1025f52815f20925f5b818110610c915750908460019594939210610c5a575b505050811b017fa16a46d94261c7517cc8ff89f61c0ce93598e3c849801011dee649a6a557d10255610873565b01517fffffffffffffffffffffffffffffffffffffffffffffffffffffffffffffffff60f88460031b161c19169055868080610c2d565b92936020600181928786015181550195019301610c17565b7fa16a46d94261c7517cc8ff89f61c0ce93598e3c849801011dee649a6a557d1025f529091507f42ad5d3e1f2e6e70edcf6d991b8a3023d3fca8047a131592f9edb9fd9b89d57d601f840160051c81019160208510610d2c575b90601f859493920160051c01905b818110610d1e575061080b565b5f8155849350600101610d11565b9091508190610d03565b015190508580610722565b7fffffffffffffffffffffffffffffffffffffffffffffffffffffffffffffffe08216957f52c63247e1f47db19d5ce0460030c497f067ca4cebf71ba98eeadabe20bace045f52805f20915f5b888110610e0757508360019596979810610dd0575b505050811b017f52c63247e1f47db19d5ce0460030c497f067ca4cebf71ba98eeadabe20bace0455610774565b01517fffffffffffffffffffffffffffffffffffffffffffffffffffffffffffffffff60f88460031b161c19169055858080610da3565b91926020600181928685015181550194019201610d8e565b7f52c63247e1f47db19d5ce0460030c497f067ca4cebf71ba98eeadabe20bace045f527f46a2803e59a4de4e7a4c574b1243f25977ac4c77d5a1a4a609b5394cebb4a2aa601f830160051c81019160208410610e97575b601f0160051c01905b818110610e8c5750610706565b5f8155600101610e7f565b9091508190610e76565b015190508680610670565b917fffffffffffffffffffffffffffffffffffffffffffffffffffffffffffffffe016917f52c63247e1f47db19d5ce0460030c497f067ca4cebf71ba98eeadabe20bace035f52815f20925f5b818110610f735750908460019594939210610f3c575b505050811b017f52c63247e1f47db19d5ce0460030c497f067ca4cebf71ba98eeadabe20bace03556106c2565b01517fffffffffffffffffffffffffffffffffffffffffffffffffffffffffffffffff60f88460031b161c19169055868080610f0f565b92936020600181928786015181550195019301610ef9565b7f52c63247e1f47db19d5ce0460030c497f067ca4cebf71ba98eeadabe20bace035f529091507f2ae08a8e29253f69ac5d979a101956ab8f8d9d7ded63fa7a83b16fc47648eab0601f840160051c8101916020851061100e575b90601f859493920160051c01905b818110611000575061065a565b5f8155849350600101610ff3565b9091508190610fe5565b7fffffffffffffffffffffffffffffffffffffffffffffff0000000000000000001668010000000000000001177ff0c57e16840df040f15088dc2f81fe391c3923bec73e23a9662efc9c229c6a0055826105bf565b7ff92ee8a9000000000000000000000000000000000000000000000000000000005f5260045ffd5b9050158461056c565b303b159150610564565b84915061055a565b34610193575f7ffffffffffffffffffffffffffffffffffffffffffffffffffffffffffffffffc3601126101935761112d6040516110ef60408261254d565b600581527f352e302e3000000000000000000000000000000000000000000000000000000060208201526040519182916020835260208301906124c4565b0390f35b346101935760207ffffffffffffffffffffffffffffffffffffffffffffffffffffffffffffffffc3601126101935773ffffffffffffffffffffffffffffffffffffffff61117d612507565b61118561293a565b16807fffffffffffffffffffffffff00000000000000000000000000000000000000007f71907d27e7f56436d282b33232af729b796faa4dde12f80868ee08b9116c52015416177f71907d27e7f56436d282b33232af729b796faa4dde12f80868ee08b9116c52015573ffffffffffffffffffffffffffffffffffffffff7f71907d27e7f56436d282b33232af729b796faa4dde12f80868ee08b9116c520054167fb9911e2099e372c216862258dc462bb65da46a2c854536c8b1acae619d0d62ed5f80a3005b346101935760407ffffffffffffffffffffffffffffffffffffffffffffffffffffffffffffffffc36011261019357611290611286612507565b6024359033612767565b602060405160018152f35b34610193575f7ffffffffffffffffffffffffffffffffffffffffffffffffffffffffffffffffc360112610193576040515f7f52c63247e1f47db19d5ce0460030c497f067ca4cebf71ba98eeadabe20bace04546112f8816125c8565b80845290600181169081156113b15750600114611334575b61112d836113208185038261254d565b6040519182916020835260208301906124c4565b7f52c63247e1f47db19d5ce0460030c497f067ca4cebf71ba98eeadabe20bace045f9081527f46a2803e59a4de4e7a4c574b1243f25977ac4c77d5a1a4a609b5394cebb4a2aa939250905b80821061139757509091508101602001611320611310565b91926001816020925483858801015201910190929161137f565b7fffffffffffffffffffffffffffffffffffffffffffffffffffffffffffffff001660208086019190915291151560051b840190910191506113209050611310565b34610193575f7ffffffffffffffffffffffffffffffffffffffffffffffffffffffffffffffffc360112610193577fa16a46d94261c7517cc8ff89f61c0ce93598e3c849801011dee649a6a557d100541580611679575b1561161b576040517fa16a46d94261c7517cc8ff89f61c0ce93598e3c849801011dee649a6a557d10254815f61147f836125c8565b80835292600181169081156115de5750600114611560575b611504939250906114a991038261254d565b6114b1612619565b6020611512604051926114c4838561254d565b5f84525f3681376040519586957f0f00000000000000000000000000000000000000000000000000000000000000875260e08588015260e08701906124c4565b9085820360408701526124c4565b4660608501523060808501525f60a085015283810360c08501528180845192838152019301915f5b82811061154957505050500390f35b83518552869550938101939281019260010161153a565b507fa16a46d94261c7517cc8ff89f61c0ce93598e3c849801011dee649a6a557d1025f90815290917f42ad5d3e1f2e6e70edcf6d991b8a3023d3fca8047a131592f9edb9fd9b89d57d5b8183106115c25750509060206114a992820101611497565b60209193508060019154838588010152019101909183926115aa565b602092506114a99491507fffffffffffffffffffffffffffffffffffffffffffffffffffffffffffffff001682840152151560051b820101611497565b60646040517f08c379a000000000000000000000000000000000000000000000000000000000815260206004820152601560248201527f4549503731323a20556e696e697469616c697a656400000000000000000000006044820152fd5b507fa16a46d94261c7517cc8ff89f61c0ce93598e3c849801011dee649a6a557d101541561144a565b346101935760207ffffffffffffffffffffffffffffffffffffffffffffffffffffffffffffffffc3601126101935773ffffffffffffffffffffffffffffffffffffffff6116ee612507565b165f527f5ab42ced628888259c08ac98db1eb0cf702fc1501344311d8b100cd1bfe4bb00602052602060405f2054604051908152f35b34610193575f7ffffffffffffffffffffffffffffffffffffffffffffffffffffffffffffffffc360112610193577f71907d27e7f56436d282b33232af729b796faa4dde12f80868ee08b9116c52015473ffffffffffffffffffffffffffffffffffffffff811633036117de577fffffffffffffffffffffffff0000000000000000000000000000000000000000167f71907d27e7f56436d282b33232af729b796faa4dde12f80868ee08b9116c5201556103ba33612891565b7fee90c468000000000000000000000000000000000000000000000000000000005f5260045ffd5b346101935760207ffffffffffffffffffffffffffffffffffffffffffffffffffffffffffffffffc3601126101935773ffffffffffffffffffffffffffffffffffffffff611852612507565b165f527f52c63247e1f47db19d5ce0460030c497f067ca4cebf71ba98eeadabe20bace00602052602060405f2054604051908152f35b34610193575f7ffffffffffffffffffffffffffffffffffffffffffffffffffffffffffffffffc3601126101935773ffffffffffffffffffffffffffffffffffffffff7f000000000000000000000000000000000000000000000000000000000000000016300361191d5760206040517f360894a13ba1a3210667c828492db98dca3e2076cc3735a920a3ca505d382bbc8152f35b7fe07c8dba000000000000000000000000000000000000000000000000000000005f5260045ffd5b60407ffffffffffffffffffffffffffffffffffffffffffffffffffffffffffffffffc36011261019357611977612507565b6024359067ffffffffffffffff82116101935736602383011215610193578160040135906119a48261258e565b916119b2604051938461254d565b8083526020830193366024838301011161019357815f9260246020930187378401015273ffffffffffffffffffffffffffffffffffffffff7f000000000000000000000000000000000000000000000000000000000000000016803014908115611c65575b5061191d57611a2461293a565b73ffffffffffffffffffffffffffffffffffffffff8116926040517f52d1902d000000000000000000000000000000000000000000000000000000008152602081600481885afa5f9181611c31575b50611aa457847f4c9c8ce3000000000000000000000000000000000000000000000000000000005f5260045260245ffd5b807f360894a13ba1a3210667c828492db98dca3e2076cc3735a920a3ca505d382bbc869203611c065750823b15611bdb57807fffffffffffffffffffffffff00000000000000000000000000000000000000007f360894a13ba1a3210667c828492db98dca3e2076cc3735a920a3ca505d382bbc5416177f360894a13ba1a3210667c828492db98dca3e2076cc3735a920a3ca505d382bbc557fbc7cd75a20ee27fd9adebab32041f755214dbc6bffa90cc0225b39da2e5c2d3b5f80a2825115611ba9575f80916103ba945190845af43d15611ba1573d91611b858361258e565b92611b93604051948561254d565b83523d5f602085013e612e1b565b606091612e1b565b50505034611bb357005b7fb398979f000000000000000000000000000000000000000000000000000000005f5260045ffd5b7f4c9c8ce3000000000000000000000000000000000000000000000000000000005f5260045260245ffd5b7faa1d49a4000000000000000000000000000000000000000000000000000000005f5260045260245ffd5b9091506020813d602011611c5d575b81611c4d6020938361254d565b8101031261019357519086611a73565b3d9150611c40565b905073ffffffffffffffffffffffffffffffffffffffff7f360894a13ba1a3210667c828492db98dca3e2076cc3735a920a3ca505d382bbc5416141584611a17565b346101935760207ffffffffffffffffffffffffffffffffffffffffffffffffffffffffffffffffc36011261019357600435335f525f60205260ff60405f20541615611e29573315611dfd57335f527f52c63247e1f47db19d5ce0460030c497f067ca4cebf71ba98eeadabe20bace0060205260405f2054818110611dcb5790805f923384527f52c63247e1f47db19d5ce0460030c497f067ca4cebf71ba98eeadabe20bace00602052036040832055807f52c63247e1f47db19d5ce0460030c497f067ca4cebf71ba98eeadabe20bace0254037f52c63247e1f47db19d5ce0460030c497f067ca4cebf71ba98eeadabe20bace02556040519081527fddf252ad1be2c89b69c2b068fc378daa952ba7f163c4a11628f55a4df523b3ef60203392a3005b7fe450d38c000000000000000000000000000000000000000000000000000000005f523360045260245260445260645ffd5b7f96c6fd1e000000000000000000000000000000000000000000000000000000005f525f60045260245ffd5b7fd8d5894f000000000000000000000000000000000000000000000000000000005f5260045ffd5b346101935760407ffffffffffffffffffffffffffffffffffffffffffffffffffffffffffffffffc36011261019357611e88612507565b60243590335f525f60205260ff60405f20541615611e295773ffffffffffffffffffffffffffffffffffffffff16908115611f98577f52c63247e1f47db19d5ce0460030c497f067ca4cebf71ba98eeadabe20bace025490808201809211611f6b5760207fddf252ad1be2c89b69c2b068fc378daa952ba7f163c4a11628f55a4df523b3ef915f937f52c63247e1f47db19d5ce0460030c497f067ca4cebf71ba98eeadabe20bace02558484527f52c63247e1f47db19d5ce0460030c497f067ca4cebf71ba98eeadabe20bace00825260408420818154019055604051908152a3005b7f4e487b71000000000000000000000000000000000000000000000000000000005f52601160045260245ffd5b7fec442f05000000000000000000000000000000000000000000000000000000005f525f60045260245ffd5b34610193575f7ffffffffffffffffffffffffffffffffffffffffffffffffffffffffffffffffc360112610193576020611ffc612a35565b604051908152f35b34610193575f7ffffffffffffffffffffffffffffffffffffffffffffffffffffffffffffffffc36011261019357602060405160068152f35b34610193575f7ffffffffffffffffffffffffffffffffffffffffffffffffffffffffffffffffc36011261019357602073ffffffffffffffffffffffffffffffffffffffff7f71907d27e7f56436d282b33232af729b796faa4dde12f80868ee08b9116c52015416604051908152f35b346101935760607ffffffffffffffffffffffffffffffffffffffffffffffffffffffffffffffffc360112610193576120e4612507565b6120ec61252a565b604435906121378373ffffffffffffffffffffffffffffffffffffffff165f527f52c63247e1f47db19d5ce0460030c497f067ca4cebf71ba98eeadabe20bace0160205260405f2090565b73ffffffffffffffffffffffffffffffffffffffff33165f5260205260405f2054927fffffffffffffffffffffffffffffffffffffffffffffffffffffffffffffffff840361218b575b6112909350612767565b8284106122815773ffffffffffffffffffffffffffffffffffffffff81161561225557331561222957611290936121ff8273ffffffffffffffffffffffffffffffffffffffff165f527f52c63247e1f47db19d5ce0460030c497f067ca4cebf71ba98eeadabe20bace0160205260405f2090565b73ffffffffffffffffffffffffffffffffffffffff33165f526020528360405f2091039055612181565b7f94280d62000000000000000000000000000000000000000000000000000000005f525f60045260245ffd5b7fe602df05000000000000000000000000000000000000000000000000000000005f525f60045260245ffd5b82847ffb8f41b2000000000000000000000000000000000000000000000000000000005f523360045260245260445260645ffd5b34610193575f7ffffffffffffffffffffffffffffffffffffffffffffffffffffffffffffffffc3601126101935760207f52c63247e1f47db19d5ce0460030c497f067ca4cebf71ba98eeadabe20bace0254604051908152f35b34610193575f7ffffffffffffffffffffffffffffffffffffffffffffffffffffffffffffffffc36011261019357602073ffffffffffffffffffffffffffffffffffffffff7f71907d27e7f56436d282b33232af729b796faa4dde12f80868ee08b9116c52005416604051908152f35b346101935760407ffffffffffffffffffffffffffffffffffffffffffffffffffffffffffffffffc360112610193576112906123b9612507565b602435903361297a565b34610193575f7ffffffffffffffffffffffffffffffffffffffffffffffffffffffffffffffffc360112610193576040515f7f52c63247e1f47db19d5ce0460030c497f067ca4cebf71ba98eeadabe20bace0354612420816125c8565b80845290600181169081156113b157506001146124475761112d836113208185038261254d565b7f52c63247e1f47db19d5ce0460030c497f067ca4cebf71ba98eeadabe20bace035f9081527f2ae08a8e29253f69ac5d979a101956ab8f8d9d7ded63fa7a83b16fc47648eab0939250905b8082106124aa57509091508101602001611320611310565b919260018160209254838588010152019101909291612492565b907fffffffffffffffffffffffffffffffffffffffffffffffffffffffffffffffe0601f602080948051918291828752018686015e5f8582860101520116010190565b6004359073ffffffffffffffffffffffffffffffffffffffff8216820361019357565b6024359073ffffffffffffffffffffffffffffffffffffffff8216820361019357565b90601f7fffffffffffffffffffffffffffffffffffffffffffffffffffffffffffffffe0910116810190811067ffffffffffffffff821117610b9257604052565b67ffffffffffffffff8111610b9257601f017fffffffffffffffffffffffffffffffffffffffffffffffffffffffffffffffe01660200190565b90600182811c9216801561260f575b60208310146125e257565b7f4e487b71000000000000000000000000000000000000000000000000000000005f52602260045260245ffd5b91607f16916125d7565b604051905f827fa16a46d94261c7517cc8ff89f61c0ce93598e3c849801011dee649a6a557d103549161264b836125c8565b80835292600181169081156126ef5750600114612671575b61266f9250038361254d565b565b507fa16a46d94261c7517cc8ff89f61c0ce93598e3c849801011dee649a6a557d1035f90815290917f5f9ce34815f8e11431c7bb75a8e6886a91478f7ffc1dbb0a98dc240fddd76b755b8183106126d357505090602061266f92820101612663565b60209193508060019154838589010152019101909184926126bb565b6020925061266f9491507fffffffffffffffffffffffffffffffffffffffffffffffffffffffffffffff001682840152151560051b820101612663565b6040519061273b60408361254d565b600882527f50757265205553440000000000000000000000000000000000000000000000006020830152565b73ffffffffffffffffffffffffffffffffffffffff16908115611dfd5773ffffffffffffffffffffffffffffffffffffffff16918215611f9857815f527f52c63247e1f47db19d5ce0460030c497f067ca4cebf71ba98eeadabe20bace0060205260405f205481811061285f57817fddf252ad1be2c89b69c2b068fc378daa952ba7f163c4a11628f55a4df523b3ef92602092855f527f52c63247e1f47db19d5ce0460030c497f067ca4cebf71ba98eeadabe20bace0084520360405f2055845f527f52c63247e1f47db19d5ce0460030c497f067ca4cebf71ba98eeadabe20bace00825260405f20818154019055604051908152a3565b827fe450d38c000000000000000000000000000000000000000000000000000000005f5260045260245260445260645ffd5b73ffffffffffffffffffffffffffffffffffffffff807f71907d27e7f56436d282b33232af729b796faa4dde12f80868ee08b9116c520054921691827fffffffffffffffffffffffff00000000000000000000000000000000000000008216177f71907d27e7f56436d282b33232af729b796faa4dde12f80868ee08b9116c520055167f3d1e4c3a68fed9f4f8315582b7297cf8fa264bc8e6704287603ba8c72bf05ac25f80a3565b73ffffffffffffffffffffffffffffffffffffffff7f71907d27e7f56436d282b33232af729b796faa4dde12f80868ee08b9116c5200541633036117de57565b9173ffffffffffffffffffffffffffffffffffffffff83169182156122555773ffffffffffffffffffffffffffffffffffffffff16928315612229577f8c5be1e5ebec7d5bd14f71427d1e84f3dd0314c0f7b2291e5b200ac8c7c3b92591612a2160209273ffffffffffffffffffffffffffffffffffffffff165f527f52c63247e1f47db19d5ce0460030c497f067ca4cebf71ba98eeadabe20bace0160205260405f2090565b855f5282528060405f2055604051908152a3565b612a3d612c65565b612a45612dd6565b6040519060208201927f8b73c3c69bb8fe3d512ecc4cf759cc79239f7b179b0ffacaa9a75d522b39400f8452604083015260608201524660808201523060a082015260a08152612a9660c08261254d565b51902090565b60ff7ff0c57e16840df040f15088dc2f81fe391c3923bec73e23a9662efc9c229c6a005460401c1615612acb57565b7fd7e6bcf8000000000000000000000000000000000000000000000000000000005f5260045ffd5b91907f7fffffffffffffffffffffffffffffff5d576e7357a4501ddfe92f46681b20a08411612b82579160209360809260ff5f9560405194855216868401526040830152606082015282805260015afa15612b77575f5173ffffffffffffffffffffffffffffffffffffffff811615612b6d57905f905f90565b505f906001905f90565b6040513d5f823e3d90fd5b5050505f9160039190565b6004811015612c385780612b9f575050565b60018103612bcf577ff645eedf000000000000000000000000000000000000000000000000000000005f5260045ffd5b60028103612c0357507ffce698f7000000000000000000000000000000000000000000000000000000005f5260045260245ffd5b600314612c0d5750565b7fd78bce0c000000000000000000000000000000000000000000000000000000005f5260045260245ffd5b7f4e487b71000000000000000000000000000000000000000000000000000000005f52602160045260245ffd5b6040517fa16a46d94261c7517cc8ff89f61c0ce93598e3c849801011dee649a6a557d10254905f81612c96846125c8565b9182825260208201946001811690815f14612d9c5750600114612d1e575b612cc09250038261254d565b51908115612ccc572090565b50507fa16a46d94261c7517cc8ff89f61c0ce93598e3c849801011dee649a6a557d100548015612cf95790565b507fc5d2460186f7233c927e7db2dcc703c0e500b653ca82273b7bfad8045d85a47090565b507fa16a46d94261c7517cc8ff89f61c0ce93598e3c849801011dee649a6a557d1025f90815290917f42ad5d3e1f2e6e70edcf6d991b8a3023d3fca8047a131592f9edb9fd9b89d57d5b818310612d80575050906020612cc092820101612cb4565b6020919350806001915483858801015201910190918392612d68565b7fffffffffffffffffffffffffffffffffffffffffffffffffffffffffffffff0016865250612cc092151560051b82016020019050612cb4565b612dde612619565b8051908115612dee576020012090565b50507fa16a46d94261c7517cc8ff89f61c0ce93598e3c849801011dee649a6a557d101548015612cf95790565b90612e585750805115612e3057805190602001fd5b7f1425ea42000000000000000000000000000000000000000000000000000000005f5260045ffd5b81511580612eab575b612e69575090565b73ffffffffffffffffffffffffffffffffffffffff907f9996b315000000000000000000000000000000000000000000000000000000005f521660045260245ffd5b50803b15612e6156fea164736f6c634300081a000a",
  "linkReferences": {},
  "deployedLinkReferences": {}
}