{
  "_format": "hh-sol-artifact-1",
  "contractName": "PositionRouter",
  "sourceName": "contracts/plugins/PositionRouter.sol",
  "abi": [
    {
      "inputs": [
        {
          "internalType": "contract Governable",
          "name": "_govImpl",
          "type": "address"
        },
        {
          "internalType": "contract IMarketManager",
          "name": "_marketManager",
          "type": "address"
        },
        {
          "internalType": "contract IWETHMinimum",
          "name": "_weth",
          "type": "address"
        },
        {
          "internalType": "enum IPositionRouterCommon.EstimatedGasLimitType[]",
          "name": "_estimatedGasLimitTypes",
          "type": "uint8[]"
        },
        {
          "internalType": "uint256[]",
          "name": "_estimatedGasLimits",
          "type": "uint256[]"
        }
      ],
      "stateMutability": "nonpayable",
      "type": "constructor"
    },
    {
      "inputs": [
        {
          "internalType": "address",
          "name": "target",
          "type": "address"
        }
      ],
      "name": "AddressEmptyCode",
      "type": "error"
    },
    {
      "inputs": [
        {
          "internalType": "bytes32",
          "name": "id",
          "type": "bytes32"
        }
      ],
      "name": "ConflictRequests",
      "type": "error"
    },
    {
      "inputs": [
        {
          "internalType": "uint256",
          "name": "expiredAt",
          "type": "uint256"
        }
      ],
      "name": "Expired",
      "type": "error"
    },
    {
      "inputs": [],
      "name": "FailedInnerCall",
      "type": "error"
    },
    {
      "inputs": [],
      "name": "FailedTransferETH",
      "type": "error"
    },
    {
      "inputs": [],
      "name": "Forbidden",
      "type": "error"
    },
    {
      "inputs": [
        {
          "internalType": "uint256",
          "name": "balance",
          "type": "uint256"
        },
        {
          "internalType": "uint256",
          "name": "requiredAmount",
          "type": "uint256"
        }
      ],
      "name": "InsufficientBalance",
      "type": "error"
    },
    {
      "inputs": [
        {
          "internalType": "uint256",
          "name": "available",
          "type": "uint256"
        },
        {
          "internalType": "uint256",
          "name": "required",
          "type": "uint256"
        }
      ],
      "name": "InsufficientExecutionFee",
      "type": "error"
    },
    {
      "inputs": [
        {
          "internalType": "address",
          "name": "requiredCaller",
          "type": "address"
        }
      ],
      "name": "InvalidCaller",
      "type": "error"
    },
    {
      "inputs": [
        {
          "internalType": "uint64",
          "name": "indexPrice",
          "type": "uint64"
        },
        {
          "internalType": "uint64",
          "name": "acceptableIndexPrice",
          "type": "uint64"
        }
      ],
      "name": "InvalidIndexPrice",
      "type": "error"
    },
    {
      "inputs": [
        {
          "internalType": "uint8",
          "name": "bits",
          "type": "uint8"
        },
        {
          "internalType": "uint256",
          "name": "value",
          "type": "uint256"
        }
      ],
      "name": "SafeCastOverflowedUintDowncast",
      "type": "error"
    },
    {
      "inputs": [
        {
          "internalType": "uint256",
          "name": "earliest",
          "type": "uint256"
        }
      ],
      "name": "TooEarly",
      "type": "error"
    },
    {
      "inputs": [
        {
          "internalType": "uint96",
          "name": "acceptableMinAmount",
          "type": "uint96"
        },
        {
          "internalType": "uint96",
          "name": "receiveAmount",
          "type": "uint96"
        }
      ],
      "name": "TooLittleReceived",
      "type": "error"
    },
    {
      "inputs": [
        {
          "internalType": "uint96",
          "name": "payAmount",
          "type": "uint96"
        },
        {
          "internalType": "uint96",
          "name": "acceptableMaxAmount",
          "type": "uint96"
        }
      ],
      "name": "TooMuchPaid",
      "type": "error"
    },
    {
      "inputs": [
        {
          "internalType": "contract IERC20",
          "name": "token",
          "type": "address"
        }
      ],
      "name": "TransferFailed",
      "type": "error"
    },
    {
      "anonymous": false,
      "inputs": [
        {
          "indexed": true,
          "internalType": "bytes32",
          "name": "id",
          "type": "bytes32"
        },
        {
          "indexed": false,
          "internalType": "address payable",
          "name": "executionFeeReceiver",
          "type": "address"
        }
      ],
      "name": "BurnPUSDCancelled",
      "type": "event"
    },
    {
      "anonymous": false,
      "inputs": [
        {
          "indexed": true,
          "internalType": "address",
          "name": "account",
          "type": "address"
        },
        {
          "indexed": true,
          "internalType": "contract IERC20",
          "name": "market",
          "type": "address"
        },
        {
          "indexed": false,
          "internalType": "bool",
          "name": "exactIn",
          "type": "bool"
        },
        {
          "indexed": false,
          "internalType": "uint64",
          "name": "acceptableMaxPayAmount",
          "type": "uint64"
        },
        {
          "indexed": false,
          "internalType": "uint96",
          "name": "acceptableMinReceiveAmount",
          "type": "uint96"
        },
        {
          "indexed": false,
          "internalType": "address",
          "name": "receiver",
          "type": "address"
        },
        {
          "indexed": false,
          "internalType": "uint256",
          "name": "executionFee",
          "type": "uint256"
        },
        {
          "indexed": false,
          "internalType": "bytes32",
          "name": "id",
          "type": "bytes32"
        }
      ],
      "name": "BurnPUSDCreated",
      "type": "event"
    },
    {
      "anonymous": false,
      "inputs": [
        {
          "indexed": true,
          "internalType": "bytes32",
          "name": "id",
          "type": "bytes32"
        },
        {
          "indexed": false,
          "internalType": "address payable",
          "name": "executionFeeReceiver",
          "type": "address"
        },
        {
          "indexed": false,
          "internalType": "uint256",
          "name": "executionFee",
          "type": "uint256"
        }
      ],
      "name": "BurnPUSDExecuted",
      "type": "event"
    },
    {
      "anonymous": false,
      "inputs": [
        {
          "indexed": true,
          "internalType": "bytes32",
          "name": "id",
          "type": "bytes32"
        },
        {
          "indexed": false,
          "internalType": "address payable",
          "name": "executionFeeReceiver",
          "type": "address"
        }
      ],
      "name": "DecreasePositionCancelled",
      "type": "event"
    },
    {
      "anonymous": false,
      "inputs": [
        {
          "indexed": true,
          "internalType": "address",
          "name": "account",
          "type": "address"
        },
        {
          "indexed": true,
          "internalType": "contract IERC20",
          "name": "market",
          "type": "address"
        },
        {
          "indexed": false,
          "internalType": "uint96",
          "name": "marginDelta",
          "type": "uint96"
        },
        {
          "indexed": false,
          "internalType": "uint96",
          "name": "sizeDelta",
          "type": "uint96"
        },
        {
          "indexed": false,
          "internalType": "uint64",
          "name": "acceptableIndexPrice",
          "type": "uint64"
        },
        {
          "indexed": false,
          "internalType": "address",
          "name": "receiver",
          "type": "address"
        },
        {
          "indexed": false,
          "internalType": "uint256",
          "name": "executionFee",
          "type": "uint256"
        },
        {
          "indexed": false,
          "internalType": "bool",
          "name": "receivePUSD",
          "type": "bool"
        },
        {
          "indexed": false,
          "internalType": "bytes32",
          "name": "id",
          "type": "bytes32"
        }
      ],
      "name": "DecreasePositionCreated",
      "type": "event"
    },
    {
      "anonymous": false,
      "inputs": [
        {
          "indexed": true,
          "internalType": "bytes32",
          "name": "id",
          "type": "bytes32"
        },
        {
          "indexed": false,
          "internalType": "address payable",
          "name": "executionFeeReceiver",
          "type": "address"
        },
        {
          "indexed": false,
          "internalType": "uint256",
          "name": "executionFee",
          "type": "uint256"
        }
      ],
      "name": "DecreasePositionExecuted",
      "type": "event"
    },
    {
      "anonymous": false,
      "inputs": [
        {
          "indexed": false,
          "internalType": "uint32",
          "name": "minBlockDelayExecutor",
          "type": "uint32"
        },
        {
          "indexed": false,
          "internalType": "uint32",
          "name": "minBlockDelayPublic",
          "type": "uint32"
        },
        {
          "indexed": false,
          "internalType": "uint32",
          "name": "maxBlockDelay",
          "type": "uint32"
        }
      ],
      "name": "DelayValuesUpdated",
      "type": "event"
    },
    {
      "anonymous": false,
      "inputs": [
        {
          "indexed": false,
          "internalType": "uint24",
          "name": "estimatedGasMultiplier",
          "type": "uint24"
        }
      ],
      "name": "EstimatedGasFeeMultiplierUpdated",
      "type": "event"
    },
    {
      "anonymous": false,
      "inputs": [
        {
          "indexed": false,
          "internalType": "enum IPositionRouterCommon.EstimatedGasLimitType",
          "name": "estimatedGasLimitType",
          "type": "uint8"
        },
        {
          "indexed": false,
          "internalType": "uint256",
          "name": "estimatedGasLimit",
          "type": "uint256"
        }
      ],
      "name": "EstimatedGasLimitUpdated",
      "type": "event"
    },
    {
      "anonymous": false,
      "inputs": [
        {
          "indexed": true,
          "internalType": "enum IPositionRouterCommon.RequestType",
          "name": "reqType",
          "type": "uint8"
        },
        {
          "indexed": true,
          "internalType": "bytes32",
          "name": "id",
          "type": "bytes32"
        },
        {
          "indexed": false,
          "internalType": "bytes4",
          "name": "shortenedReason",
          "type": "bytes4"
        }
      ],
      "name": "ExecuteFailed",
      "type": "event"
    },
    {
      "anonymous": false,
      "inputs": [
        {
          "indexed": false,
          "internalType": "uint24",
          "name": "executionGasFeeMultiplier",
          "type": "uint24"
        }
      ],
      "name": "ExecutionGasFeeMultiplierUpdated",
      "type": "event"
    },
    {
      "anonymous": false,
      "inputs": [
        {
          "indexed": true,
          "internalType": "bytes32",
          "name": "id",
          "type": "bytes32"
        },
        {
          "indexed": false,
          "internalType": "address payable",
          "name": "executionFeeReceiver",
          "type": "address"
        }
      ],
      "name": "IncreasePositionCancelled",
      "type": "event"
    },
    {
      "anonymous": false,
      "inputs": [
        {
          "indexed": true,
          "internalType": "address",
          "name": "account",
          "type": "address"
        },
        {
          "indexed": true,
          "internalType": "contract IERC20",
          "name": "market",
          "type": "address"
        },
        {
          "indexed": false,
          "internalType": "uint96",
          "name": "marginDelta",
          "type": "uint96"
        },
        {
          "indexed": false,
          "internalType": "uint96",
          "name": "sizeDelta",
          "type": "uint96"
        },
        {
          "indexed": false,
          "internalType": "uint64",
          "name": "acceptableIndexPrice",
          "type": "uint64"
        },
        {
          "indexed": false,
          "internalType": "uint256",
          "name": "executionFee",
          "type": "uint256"
        },
        {
          "indexed": false,
          "internalType": "bool",
          "name": "payPUSD",
          "type": "bool"
        },
        {
          "indexed": false,
          "internalType": "bytes32",
          "name": "id",
          "type": "bytes32"
        }
      ],
      "name": "IncreasePositionCreated",
      "type": "event"
    },
    {
      "anonymous": false,
      "inputs": [
        {
          "indexed": true,
          "internalType": "bytes32",
          "name": "id",
          "type": "bytes32"
        },
        {
          "indexed": false,
          "internalType": "address payable",
          "name": "executionFeeReceiver",
          "type": "address"
        },
        {
          "indexed": false,
          "internalType": "uint256",
          "name": "executionFee",
          "type": "uint256"
        }
      ],
      "name": "IncreasePositionExecuted",
      "type": "event"
    },
    {
      "anonymous": false,
      "inputs": [
        {
          "indexed": true,
          "internalType": "bytes32",
          "name": "id",
          "type": "bytes32"
        },
        {
          "indexed": false,
          "internalType": "address payable",
          "name": "executionFeeReceiver",
          "type": "address"
        }
      ],
      "name": "MintPUSDCancelled",
      "type": "event"
    },
    {
      "anonymous": false,
      "inputs": [
        {
          "indexed": true,
          "internalType": "address",
          "name": "account",
          "type": "address"
        },
        {
          "indexed": true,
          "internalType": "contract IERC20",
          "name": "market",
          "type": "address"
        },
        {
          "indexed": false,
          "internalType": "bool",
          "name": "exactIn",
          "type": "bool"
        },
        {
          "indexed": false,
          "internalType": "uint96",
          "name": "acceptableMaxPayAmount",
          "type": "uint96"
        },
        {
          "indexed": false,
          "internalType": "uint64",
          "name": "acceptableMinReceiveAmount",
          "type": "uint64"
        },
        {
          "indexed": false,
          "internalType": "address",
          "name": "receiver",
          "type": "address"
        },
        {
          "indexed": false,
          "internalType": "uint256",
          "name": "executionFee",
          "type": "uint256"
        },
        {
          "indexed": false,
          "internalType": "bytes32",
          "name": "id",
          "type": "bytes32"
        }
      ],
      "name": "MintPUSDCreated",
      "type": "event"
    },
    {
      "anonymous": false,
      "inputs": [
        {
          "indexed": true,
          "internalType": "bytes32",
          "name": "id",
          "type": "bytes32"
        },
        {
          "indexed": false,
          "internalType": "address payable",
          "name": "executionFeeReceiver",
          "type": "address"
        },
        {
          "indexed": false,
          "internalType": "uint256",
          "name": "executionFee",
          "type": "uint256"
        }
      ],
      "name": "MintPUSDExecuted",
      "type": "event"
    },
    {
      "anonymous": false,
      "inputs": [
        {
          "indexed": true,
          "internalType": "address",
          "name": "account",
          "type": "address"
        },
        {
          "indexed": false,
          "internalType": "bool",
          "name": "active",
          "type": "bool"
        }
      ],
      "name": "PositionExecutorUpdated",
      "type": "event"
    },
    {
      "inputs": [
        {
          "internalType": "contract IERC20",
          "name": "_payToken",
          "type": "address"
        },
        {
          "internalType": "uint96",
          "name": "_payAmount",
          "type": "uint96"
        },
        {
          "internalType": "uint96",
          "name": "",
          "type": "uint96"
        },
        {
          "internalType": "bytes",
          "name": "_data",
          "type": "bytes"
        }
      ],
      "name": "PUSDManagerCallback",
      "outputs": [],
      "stateMutability": "nonpayable",
      "type": "function"
    },
    {
      "inputs": [
        {
          "internalType": "contract Governable",
          "name": "_newGov",
          "type": "address"
        }
      ],
      "name": "_changeImpl",
      "outputs": [],
      "stateMutability": "nonpayable",
      "type": "function"
    },
    {
      "inputs": [
        {
          "internalType": "bytes32",
          "name": "id",
          "type": "bytes32"
        }
      ],
      "name": "blockNumbers",
      "outputs": [
        {
          "internalType": "uint256",
          "name": "blockNumber",
          "type": "uint256"
        }
      ],
      "stateMutability": "view",
      "type": "function"
    },
    {
      "inputs": [
        {
          "components": [
            {
              "internalType": "contract IERC20",
              "name": "market",
              "type": "address"
            },
            {
              "internalType": "address",
              "name": "account",
              "type": "address"
            },
            {
              "internalType": "bool",
              "name": "exactIn",
              "type": "bool"
            },
            {
              "internalType": "uint64",
              "name": "acceptableMaxPayAmount",
              "type": "uint64"
            },
            {
              "internalType": "uint96",
              "name": "acceptableMinReceiveAmount",
              "type": "uint96"
            },
            {
              "internalType": "address",
              "name": "receiver",
              "type": "address"
            },
            {
              "internalType": "uint256",
              "name": "executionFee",
              "type": "uint256"
            }
          ],
          "internalType": "struct IPositionRouter.BurnPUSDRequestIdParam",
          "name": "_param",
          "type": "tuple"
        },
        {
          "internalType": "address payable",
          "name": "_executionFeeReceiver",
          "type": "address"
        }
      ],
      "name": "cancelBurnPUSD",
      "outputs": [
        {
          "internalType": "bool",
          "name": "cancelled",
          "type": "bool"
        }
      ],
      "stateMutability": "nonpayable",
      "type": "function"
    },
    {
      "inputs": [
        {
          "components": [
            {
              "internalType": "address",
              "name": "account",
              "type": "address"
            },
            {
              "internalType": "contract IERC20",
              "name": "market",
              "type": "address"
            },
            {
              "internalType": "uint96",
              "name": "marginDelta",
              "type": "uint96"
            },
            {
              "internalType": "uint96",
              "name": "sizeDelta",
              "type": "uint96"
            },
            {
              "internalType": "uint64",
              "name": "acceptableIndexPrice",
              "type": "uint64"
            },
            {
              "internalType": "address",
              "name": "receiver",
              "type": "address"
            },
            {
              "internalType": "uint256",
              "name": "executionFee",
              "type": "uint256"
            },
            {
              "internalType": "bool",
              "name": "receivePUSD",
              "type": "bool"
            }
          ],
          "internalType": "struct IPositionRouter.DecreasePositionRequestIdParam",
          "name": "_param",
          "type": "tuple"
        },
        {
          "internalType": "address payable",
          "name": "_executionFeeReceiver",
          "type": "address"
        }
      ],
      "name": "cancelDecreasePosition",
      "outputs": [
        {
          "internalType": "bool",
          "name": "",
          "type": "bool"
        }
      ],
      "stateMutability": "nonpayable",
      "type": "function"
    },
    {
      "inputs": [
        {
          "components": [
            {
              "internalType": "address",
              "name": "account",
              "type": "address"
            },
            {
              "internalType": "contract IERC20",
              "name": "market",
              "type": "address"
            },
            {
              "internalType": "uint96",
              "name": "marginDelta",
              "type": "uint96"
            },
            {
              "internalType": "uint96",
              "name": "sizeDelta",
              "type": "uint96"
            },
            {
              "internalType": "uint64",
              "name": "acceptableIndexPrice",
              "type": "uint64"
            },
            {
              "internalType": "uint256",
              "name": "executionFee",
              "type": "uint256"
            },
            {
              "internalType": "bool",
              "name": "payPUSD",
              "type": "bool"
            }
          ],
          "internalType": "struct IPositionRouter.IncreasePositionRequestIdParam",
          "name": "_param",
          "type": "tuple"
        },
        {
          "internalType": "address payable",
          "name": "_executionFeeReceiver",
          "type": "address"
        }
      ],
      "name": "cancelIncreasePosition",
      "outputs": [
        {
          "internalType": "bool",
          "name": "",
          "type": "bool"
        }
      ],
      "stateMutability": "nonpayable",
      "type": "function"
    },
    {
      "inputs": [
        {
          "components": [
            {
              "internalType": "address",
              "name": "account",
              "type": "address"
            },
            {
              "internalType": "contract IERC20",
              "name": "market",
              "type": "address"
            },
            {
              "internalType": "bool",
              "name": "exactIn",
              "type": "bool"
            },
            {
              "internalType": "uint96",
              "name": "acceptableMaxPayAmount",
              "type": "uint96"
            },
            {
              "internalType": "uint64",
              "name": "acceptableMinReceiveAmount",
              "type": "uint64"
            },
            {
              "internalType": "address",
              "name": "receiver",
              "type": "address"
            },
            {
              "internalType": "uint256",
              "name": "executionFee",
              "type": "uint256"
            }
          ],
          "internalType": "struct IPositionRouter.MintPUSDRequestIdParam",
          "name": "_param",
          "type": "tuple"
        },
        {
          "internalType": "address payable",
          "name": "_executionFeeReceiver",
          "type": "address"
        }
      ],
      "name": "cancelMintPUSD",
      "outputs": [
        {
          "internalType": "bool",
          "name": "cancelled",
          "type": "bool"
        }
      ],
      "stateMutability": "nonpayable",
      "type": "function"
    },
    {
      "inputs": [
        {
          "internalType": "contract IERC20",
          "name": "_market",
          "type": "address"
        },
        {
          "internalType": "bool",
          "name": "_exactIn",
          "type": "bool"
        },
        {
          "internalType": "uint64",
          "name": "_acceptableMaxPayAmount",
          "type": "uint64"
        },
        {
          "internalType": "uint96",
          "name": "_acceptableMinReceiveAmount",
          "type": "uint96"
        },
        {
          "internalType": "address",
          "name": "_receiver",
          "type": "address"
        },
        {
          "internalType": "bytes",
          "name": "_permitData",
          "type": "bytes"
        }
      ],
      "name": "createBurnPUSD",
      "outputs": [
        {
          "internalType": "bytes32",
          "name": "id",
          "type": "bytes32"
        }
      ],
      "stateMutability": "payable",
      "type": "function"
    },
    {
      "inputs": [
        {
          "internalType": "contract IERC20",
          "name": "_market",
          "type": "address"
        },
        {
          "internalType": "uint96",
          "name": "_marginDelta",
          "type": "uint96"
        },
        {
          "internalType": "uint96",
          "name": "_sizeDelta",
          "type": "uint96"
        },
        {
          "internalType": "uint64",
          "name": "_acceptableIndexPrice",
          "type": "uint64"
        },
        {
          "internalType": "address payable",
          "name": "_receiver",
          "type": "address"
        }
      ],
      "name": "createDecreasePosition",
      "outputs": [
        {
          "internalType": "bytes32",
          "name": "id",
          "type": "bytes32"
        }
      ],
      "stateMutability": "payable",
      "type": "function"
    },
    {
      "inputs": [
        {
          "internalType": "contract IERC20",
          "name": "_market",
          "type": "address"
        },
        {
          "internalType": "uint96",
          "name": "_marginDelta",
          "type": "uint96"
        },
        {
          "internalType": "uint96",
          "name": "_sizeDelta",
          "type": "uint96"
        },
        {
          "internalType": "uint64",
          "name": "_acceptableIndexPrice",
          "type": "uint64"
        },
        {
          "internalType": "address",
          "name": "_receiver",
          "type": "address"
        }
      ],
      "name": "createDecreasePositionReceivePUSD",
      "outputs": [
        {
          "internalType": "bytes32",
          "name": "id",
          "type": "bytes32"
        }
      ],
      "stateMutability": "payable",
      "type": "function"
    },
    {
      "inputs": [
        {
          "internalType": "contract IERC20",
          "name": "_market",
          "type": "address"
        },
        {
          "internalType": "uint96",
          "name": "_marginDelta",
          "type": "uint96"
        },
        {
          "internalType": "uint96",
          "name": "_sizeDelta",
          "type": "uint96"
        },
        {
          "internalType": "uint64",
          "name": "_acceptableIndexPrice",
          "type": "uint64"
        },
        {
          "internalType": "bytes",
          "name": "_permitData",
          "type": "bytes"
        }
      ],
      "name": "createIncreasePosition",
      "outputs": [
        {
          "internalType": "bytes32",
          "name": "id",
          "type": "bytes32"
        }
      ],
      "stateMutability": "payable",
      "type": "function"
    },
    {
      "inputs": [
        {
          "internalType": "uint96",
          "name": "_sizeDelta",
          "type": "uint96"
        },
        {
          "internalType": "uint64",
          "name": "_acceptableIndexPrice",
          "type": "uint64"
        },
        {
          "internalType": "uint256",
          "name": "_executionFee",
          "type": "uint256"
        }
      ],
      "name": "createIncreasePositionETH",
      "outputs": [
        {
          "internalType": "bytes32",
          "name": "id",
          "type": "bytes32"
        }
      ],
      "stateMutability": "payable",
      "type": "function"
    },
    {
      "inputs": [
        {
          "internalType": "contract IERC20",
          "name": "_market",
          "type": "address"
        },
        {
          "internalType": "uint64",
          "name": "_pusdAmount",
          "type": "uint64"
        },
        {
          "internalType": "uint96",
          "name": "_sizeDelta",
          "type": "uint96"
        },
        {
          "internalType": "uint64",
          "name": "_acceptableIndexPrice",
          "type": "uint64"
        },
        {
          "internalType": "bytes",
          "name": "_permitData",
          "type": "bytes"
        }
      ],
      "name": "createIncreasePositionPayPUSD",
      "outputs": [
        {
          "internalType": "bytes32",
          "name": "id",
          "type": "bytes32"
        }
      ],
      "stateMutability": "payable",
      "type": "function"
    },
    {
      "inputs": [
        {
          "internalType": "contract IERC20",
          "name": "_market",
          "type": "address"
        },
        {
          "internalType": "bool",
          "name": "_exactIn",
          "type": "bool"
        },
        {
          "internalType": "uint96",
          "name": "_acceptableMaxPayAmount",
          "type": "uint96"
        },
        {
          "internalType": "uint64",
          "name": "_acceptableMinReceiveAmount",
          "type": "uint64"
        },
        {
          "internalType": "address",
          "name": "_receiver",
          "type": "address"
        },
        {
          "internalType": "bytes",
          "name": "_permitData",
          "type": "bytes"
        }
      ],
      "name": "createMintPUSD",
      "outputs": [
        {
          "internalType": "bytes32",
          "name": "id",
          "type": "bytes32"
        }
      ],
      "stateMutability": "payable",
      "type": "function"
    },
    {
      "inputs": [
        {
          "internalType": "bool",
          "name": "_exactIn",
          "type": "bool"
        },
        {
          "internalType": "uint64",
          "name": "_acceptableMinReceiveAmount",
          "type": "uint64"
        },
        {
          "internalType": "address",
          "name": "_receiver",
          "type": "address"
        },
        {
          "internalType": "uint256",
          "name": "_executionFee",
          "type": "uint256"
        }
      ],
      "name": "createMintPUSDETH",
      "outputs": [
        {
          "internalType": "bytes32",
          "name": "id",
          "type": "bytes32"
        }
      ],
      "stateMutability": "payable",
      "type": "function"
    },
    {
      "inputs": [],
      "name": "estimatedGasFeeMultiplier",
      "outputs": [
        {
          "internalType": "uint24",
          "name": "",
          "type": "uint24"
        }
      ],
      "stateMutability": "view",
      "type": "function"
    },
    {
      "inputs": [
        {
          "internalType": "enum IPositionRouterCommon.EstimatedGasLimitType",
          "name": "",
          "type": "uint8"
        }
      ],
      "name": "estimatedGasLimits",
      "outputs": [
        {
          "internalType": "uint256",
          "name": "",
          "type": "uint256"
        }
      ],
      "stateMutability": "view",
      "type": "function"
    },
    {
      "inputs": [],
      "name": "etherTransferGasLimit",
      "outputs": [
        {
          "internalType": "uint32",
          "name": "",
          "type": "uint32"
        }
      ],
      "stateMutability": "view",
      "type": "function"
    },
    {
      "inputs": [
        {
          "components": [
            {
              "internalType": "contract IERC20",
              "name": "market",
              "type": "address"
            },
            {
              "internalType": "address",
              "name": "account",
              "type": "address"
            },
            {
              "internalType": "bool",
              "name": "exactIn",
              "type": "bool"
            },
            {
              "internalType": "uint64",
              "name": "acceptableMaxPayAmount",
              "type": "uint64"
            },
            {
              "internalType": "uint96",
              "name": "acceptableMinReceiveAmount",
              "type": "uint96"
            },
            {
              "internalType": "address",
              "name": "receiver",
              "type": "address"
            },
            {
              "internalType": "uint256",
              "name": "executionFee",
              "type": "uint256"
            }
          ],
          "internalType": "struct IPositionRouter.BurnPUSDRequestIdParam",
          "name": "_param",
          "type": "tuple"
        },
        {
          "internalType": "address payable",
          "name": "_executionFeeReceiver",
          "type": "address"
        }
      ],
      "name": "executeBurnPUSD",
      "outputs": [
        {
          "internalType": "bool",
          "name": "executed",
          "type": "bool"
        }
      ],
      "stateMutability": "nonpayable",
      "type": "function"
    },
    {
      "inputs": [
        {
          "components": [
            {
              "internalType": "address",
              "name": "account",
              "type": "address"
            },
            {
              "internalType": "contract IERC20",
              "name": "market",
              "type": "address"
            },
            {
              "internalType": "uint96",
              "name": "marginDelta",
              "type": "uint96"
            },
            {
              "internalType": "uint96",
              "name": "sizeDelta",
              "type": "uint96"
            },
            {
              "internalType": "uint64",
              "name": "acceptableIndexPrice",
              "type": "uint64"
            },
            {
              "internalType": "address",
              "name": "receiver",
              "type": "address"
            },
            {
              "internalType": "uint256",
              "name": "executionFee",
              "type": "uint256"
            },
            {
              "internalType": "bool",
              "name": "receivePUSD",
              "type": "bool"
            }
          ],
          "internalType": "struct IPositionRouter.DecreasePositionRequestIdParam",
          "name": "_param",
          "type": "tuple"
        },
        {
          "internalType": "address payable",
          "name": "_executionFeeReceiver",
          "type": "address"
        }
      ],
      "name": "executeDecreasePosition",
      "outputs": [
        {
          "internalType": "bool",
          "name": "",
          "type": "bool"
        }
      ],
      "stateMutability": "nonpayable",
      "type": "function"
    },
    {
      "inputs": [
        {
          "components": [
            {
              "internalType": "address",
              "name": "account",
              "type": "address"
            },
            {
              "internalType": "contract IERC20",
              "name": "market",
              "type": "address"
            },
            {
              "internalType": "uint96",
              "name": "marginDelta",
              "type": "uint96"
            },
            {
              "internalType": "uint96",
              "name": "sizeDelta",
              "type": "uint96"
            },
            {
              "internalType": "uint64",
              "name": "acceptableIndexPrice",
              "type": "uint64"
            },
            {
              "internalType": "uint256",
              "name": "executionFee",
              "type": "uint256"
            },
            {
              "internalType": "bool",
              "name": "payPUSD",
              "type": "bool"
            }
          ],
          "internalType": "struct IPositionRouter.IncreasePositionRequestIdParam",
          "name": "_param",
          "type": "tuple"
        },
        {
          "internalType": "address payable",
          "name": "_executionFeeReceiver",
          "type": "address"
        }
      ],
      "name": "executeIncreasePosition",
      "outputs": [
        {
          "internalType": "bool",
          "name": "",
          "type": "bool"
        }
      ],
      "stateMutability": "nonpayable",
      "type": "function"
    },
    {
      "inputs": [
        {
          "components": [
            {
              "internalType": "address",
              "name": "account",
              "type": "address"
            },
            {
              "internalType": "contract IERC20",
              "name": "market",
              "type": "address"
            },
            {
              "internalType": "bool",
              "name": "exactIn",
              "type": "bool"
            },
            {
              "internalType": "uint96",
              "name": "acceptableMaxPayAmount",
              "type": "uint96"
            },
            {
              "internalType": "uint64",
              "name": "acceptableMinReceiveAmount",
              "type": "uint64"
            },
            {
              "internalType": "address",
              "name": "receiver",
              "type": "address"
            },
            {
              "internalType": "uint256",
              "name": "executionFee",
              "type": "uint256"
            }
          ],
          "internalType": "struct IPositionRouter.MintPUSDRequestIdParam",
          "name": "_param",
          "type": "tuple"
        },
        {
          "internalType": "address payable",
          "name": "_executionFeeReceiver",
          "type": "address"
        }
      ],
      "name": "executeMintPUSD",
      "outputs": [
        {
          "internalType": "bool",
          "name": "executed",
          "type": "bool"
        }
      ],
      "stateMutability": "nonpayable",
      "type": "function"
    },
    {
      "inputs": [
        {
          "components": [
            {
              "internalType": "contract IERC20",
              "name": "market",
              "type": "address"
            },
            {
              "internalType": "address",
              "name": "account",
              "type": "address"
            },
            {
              "internalType": "bool",
              "name": "exactIn",
              "type": "bool"
            },
            {
              "internalType": "uint64",
              "name": "acceptableMaxPayAmount",
              "type": "uint64"
            },
            {
              "internalType": "uint96",
              "name": "acceptableMinReceiveAmount",
              "type": "uint96"
            },
            {
              "internalType": "address",
              "name": "receiver",
              "type": "address"
            },
            {
              "internalType": "uint256",
              "name": "executionFee",
              "type": "uint256"
            }
          ],
          "internalType": "struct IPositionRouter.BurnPUSDRequestIdParam",
          "name": "_param",
          "type": "tuple"
        },
        {
          "internalType": "address payable",
          "name": "_executionFeeReceiver",
          "type": "address"
        }
      ],
      "name": "executeOrCancelBurnPUSD",
      "outputs": [],
      "stateMutability": "nonpayable",
      "type": "function"
    },
    {
      "inputs": [
        {
          "components": [
            {
              "internalType": "address",
              "name": "account",
              "type": "address"
            },
            {
              "internalType": "contract IERC20",
              "name": "market",
              "type": "address"
            },
            {
              "internalType": "uint96",
              "name": "marginDelta",
              "type": "uint96"
            },
            {
              "internalType": "uint96",
              "name": "sizeDelta",
              "type": "uint96"
            },
            {
              "internalType": "uint64",
              "name": "acceptableIndexPrice",
              "type": "uint64"
            },
            {
              "internalType": "address",
              "name": "receiver",
              "type": "address"
            },
            {
              "internalType": "uint256",
              "name": "executionFee",
              "type": "uint256"
            },
            {
              "internalType": "bool",
              "name": "receivePUSD",
              "type": "bool"
            }
          ],
          "internalType": "struct IPositionRouter.DecreasePositionRequestIdParam",
          "name": "_param",
          "type": "tuple"
        },
        {
          "internalType": "address payable",
          "name": "_executionFeeReceiver",
          "type": "address"
        }
      ],
      "name": "executeOrCancelDecreasePosition",
      "outputs": [],
      "stateMutability": "nonpayable",
      "type": "function"
    },
    {
      "inputs": [
        {
          "components": [
            {
              "internalType": "address",
              "name": "account",
              "type": "address"
            },
            {
              "internalType": "contract IERC20",
              "name": "market",
              "type": "address"
            },
            {
              "internalType": "uint96",
              "name": "marginDelta",
              "type": "uint96"
            },
            {
              "internalType": "uint96",
              "name": "sizeDelta",
              "type": "uint96"
            },
            {
              "internalType": "uint64",
              "name": "acceptableIndexPrice",
              "type": "uint64"
            },
            {
              "internalType": "uint256",
              "name": "executionFee",
              "type": "uint256"
            },
            {
              "internalType": "bool",
              "name": "payPUSD",
              "type": "bool"
            }
          ],
          "internalType": "struct IPositionRouter.IncreasePositionRequestIdParam",
          "name": "_param",
          "type": "tuple"
        },
        {
          "internalType": "address payable",
          "name": "_executionFeeReceiver",
          "type": "address"
        }
      ],
      "name": "executeOrCancelIncreasePosition",
      "outputs": [],
      "stateMutability": "nonpayable",
      "type": "function"
    },
    {
      "inputs": [
        {
          "components": [
            {
              "internalType": "address",
              "name": "account",
              "type": "address"
            },
            {
              "internalType": "contract IERC20",
              "name": "market",
              "type": "address"
            },
            {
              "internalType": "bool",
              "name": "exactIn",
              "type": "bool"
            },
            {
              "internalType": "uint96",
              "name": "acceptableMaxPayAmount",
              "type": "uint96"
            },
            {
              "internalType": "uint64",
              "name": "acceptableMinReceiveAmount",
              "type": "uint64"
            },
            {
              "internalType": "address",
              "name": "receiver",
              "type": "address"
            },
            {
              "internalType": "uint256",
              "name": "executionFee",
              "type": "uint256"
            }
          ],
          "internalType": "struct IPositionRouter.MintPUSDRequestIdParam",
          "name": "_param",
          "type": "tuple"
        },
        {
          "internalType": "address payable",
          "name": "_executionFeeReceiver",
          "type": "address"
        }
      ],
      "name": "executeOrCancelMintPUSD",
      "outputs": [],
      "stateMutability": "nonpayable",
      "type": "function"
    },
    {
      "inputs": [],
      "name": "executionGasFeeMultiplier",
      "outputs": [
        {
          "internalType": "uint24",
          "name": "",
          "type": "uint24"
        }
      ],
      "stateMutability": "view",
      "type": "function"
    },
    {
      "inputs": [],
      "name": "executionGasLimit",
      "outputs": [
        {
          "internalType": "uint32",
          "name": "",
          "type": "uint32"
        }
      ],
      "stateMutability": "view",
      "type": "function"
    },
    {
      "inputs": [],
      "name": "gov",
      "outputs": [
        {
          "internalType": "address",
          "name": "",
          "type": "address"
        }
      ],
      "stateMutability": "view",
      "type": "function"
    },
    {
      "inputs": [],
      "name": "marketManager",
      "outputs": [
        {
          "internalType": "contract IMarketManager",
          "name": "",
          "type": "address"
        }
      ],
      "stateMutability": "view",
      "type": "function"
    },
    {
      "inputs": [],
      "name": "maxBlockDelay",
      "outputs": [
        {
          "internalType": "uint32",
          "name": "",
          "type": "uint32"
        }
      ],
      "stateMutability": "view",
      "type": "function"
    },
    {
      "inputs": [],
      "name": "minBlockDelayExecutor",
      "outputs": [
        {
          "internalType": "uint32",
          "name": "",
          "type": "uint32"
        }
      ],
      "stateMutability": "view",
      "type": "function"
    },
    {
      "inputs": [],
      "name": "minBlockDelayPublic",
      "outputs": [
        {
          "internalType": "uint32",
          "name": "",
          "type": "uint32"
        }
      ],
      "stateMutability": "view",
      "type": "function"
    },
    {
      "inputs": [
        {
          "internalType": "address",
          "name": "",
          "type": "address"
        }
      ],
      "name": "positionExecutors",
      "outputs": [
        {
          "internalType": "bool",
          "name": "",
          "type": "bool"
        }
      ],
      "stateMutability": "view",
      "type": "function"
    },
    {
      "inputs": [
        {
          "internalType": "uint32",
          "name": "_minBlockDelayExecutor",
          "type": "uint32"
        },
        {
          "internalType": "uint32",
          "name": "_minBlockDelayPublic",
          "type": "uint32"
        },
        {
          "internalType": "uint32",
          "name": "_maxBlockDelay",
          "type": "uint32"
        }
      ],
      "name": "updateDelayValues",
      "outputs": [],
      "stateMutability": "nonpayable",
      "type": "function"
    },
    {
      "inputs": [
        {
          "internalType": "uint24",
          "name": "_multiplier",
          "type": "uint24"
        }
      ],
      "name": "updateEstimatedGasFeeMultiplier",
      "outputs": [],
      "stateMutability": "nonpayable",
      "type": "function"
    },
    {
      "inputs": [
        {
          "internalType": "enum IPositionRouterCommon.EstimatedGasLimitType",
          "name": "_estimatedGasLimitType",
          "type": "uint8"
        },
        {
          "internalType": "uint256",
          "name": "_estimatedGasLimit",
          "type": "uint256"
        }
      ],
      "name": "updateEstimatedGasLimit",
      "outputs": [],
      "stateMutability": "nonpayable",
      "type": "function"
    },
    {
      "inputs": [
        {
          "internalType": "uint32",
          "name": "_etherTransferGasLimit",
          "type": "uint32"
        }
      ],
      "name": "updateEtherTransferGasLimit",
      "outputs": [],
      "stateMutability": "nonpayable",
      "type": "function"
    },
    {
      "inputs": [
        {
          "internalType": "uint24",
          "name": "_multiplier",
          "type": "uint24"
        }
      ],
      "name": "updateExecutionGasFeeMultiplier",
      "outputs": [],
      "stateMutability": "nonpayable",
      "type": "function"
    },
    {
      "inputs": [
        {
          "internalType": "uint32",
          "name": "_executionGasLimit",
          "type": "uint32"
        }
      ],
      "name": "updateExecutionGasLimit",
      "outputs": [],
      "stateMutability": "nonpayable",
      "type": "function"
    },
    {
      "inputs": [
        {
          "internalType": "address",
          "name": "_account",
          "type": "address"
        },
        {
          "internalType": "bool",
          "name": "_active",
          "type": "bool"
        }
      ],
      "name": "updatePositionExecutor",
      "outputs": [],
      "stateMutability": "nonpayable",
      "type": "function"
    },
    {
      "inputs": [],
      "name": "weth",
      "outputs": [
        {
          "internalType": "contract IWETHMinimum",
          "name": "",
          "type": "address"
        }
      ],
      "stateMutability": "view",
      "type": "function"
    },
    {
      "stateMutability": "payable",
      "type": "receive"
    }
  ],
  "bytecode": "0x60c0604052346102c757615b7280380380610019816102e4565b92833981019060a0818303126102c75780516001600160a01b03811691908290036102c75760208101516001600160a01b03811681036102c75760408201516001600160a01b03811681036102c75760608301516001600160401b0381116102c75783019285601f850112156102c757835161009c6100978261031d565b6102e4565b9460208087848152019260051b820101908882116102c757602001915b8183106102cb575050506080810151906001600160401b0382116102c757019385601f860112156102c7578451956100f36100978861031d565b95602080888a8152019860051b8201019182116102c757602001965b8188106102b75750505f80546001600160a01b0319169190911781556002805460809490945260a092909252600160201b600160d01b0319909216772710989680989680000f42400000012c00000032000000001790555b81518110156102125761017a8184610334565b5161018d6101888385610334565b61035c565b600b8110156101fe575f52600160205260405f20556101af6101888284610334565b906101ba8185610334565b5160405192600b8110156101fe57837fc8d9f716ee6f7a1977483c05570fa0e1f0b522aa1b25219c7336b65368ad56a492604092600196526020820152a101610167565b634e487b7160e01b5f52602160045260245ffd5b604051615808908161036a823960805181818161030e01528181610c8f01528181610fa4015281816113cf015281816115cb01528181611910015281816129e20152818161308e0152818161351501528181613abd015281816143b8015281816145f4015261471f015260a05181818160310152818161163a015281816116fa01528181611e2801528181611e8501528181613a5a0152818161428a0152614bda0152f35b875181526020978801970161010f565b5f80fd5b8251600b8110156102c7578152602092830192016100b9565b6040519190601f01601f191682016001600160401b0381118382101761030957604052565b634e487b7160e01b5f52604160045260245ffd5b6001600160401b0381116103095760051b60200190565b80518210156103485760209160051b010190565b634e487b7160e01b5f52603260045260245ffd5b51600b8110156101fe579056fe6080806040526004361015610085575b50361561001a575f80fd5b73ffffffffffffffffffffffffffffffffffffffff7f00000000000000000000000000000000000000000000000000000000000000001680330361005a57005b7fcbd9d2e0000000000000000000000000000000000000000000000000000000005f5260045260245ffd5b5f905f3560e01c908163020def58146120eb5750806309e33d44146120a35780630b914f80146120585780630bce38e014611fd05780630dbc9a6a14611f8c5780631073d6b614611d6157806312d43a5114611c8e5780631e80544a14611c0b5780632d3b317b14611bc05780632e9022da14611b3357806334fde4ce14611ad4578063379b28a014611a8957806337ed38dd1461187457806339cb1f3e1461182f5780633e44bebb1461165e5780633fc8cef3146115ef57806341ed2c121461158057806349f6e1de146114fd5780634c9458e2146113295780634f4fe757146112d85780635567c2f7146111e1578063572b57d4146110d1578063622d151714610f1f5780636fb3688414610ebf578063721ff14114610e745780637f47499514610bcb5780638650e4f714610abd578063872c8a2f14610a7257806393c88dd014610a26578063975eb69d1461099c578063a482ea8514610918578063a804fdd9146108d4578063aadea98214610890578063b204d09414610845578063b5d6bca714610803578063b6ee0c3a1461079b578063c29ca86b14610746578063c7004d6314610702578063cfd8b2e11461063b578063d954b63714610580578063dcb76f56146104be5763f52d0be40361000f5760a07ffffffffffffffffffffffffffffffffffffffffffffffffffffffffffffffffc3601126104795761028d61223b565b906102966121e5565b61029e6121b1565b906102a76121fc565b9260843567ffffffffffffffff81116104ba576102c890369060040161227f565b9092906102ec6102d860056122c9565b543a0262ffffff60025460801c1602615727565b80341061048b575061035673ffffffffffffffffffffffffffffffffffffffff7f0000000000000000000000000000000000000000000000000000000000000000169173ffffffffffffffffffffffffffffffffffffffff61034d84614cf0565b16958387614e5b565b67ffffffffffffffff821693846103dc575b60206103d48967ffffffffffffffff8a6bffffffffffffffffffffffff8b8b73ffffffffffffffffffffffffffffffffffffffff604051966103a98861230d565b338852168887015260408601521660608401521660808201523460a0820152600160c08201526149a6565b604051908152f35b813b15610487576040517f1b82787800000000000000000000000000000000000000000000000000000000815273ffffffffffffffffffffffffffffffffffffffff909116600482015233602482015230604482015267ffffffffffffffff9092166064830152829082908183816084810103925af1801561047c57610464575b8080610368565b61046f82809261238f565b610479578061045d565b80fd5b6040513d84823e3d90fd5b8380fd5b7f5dac504d00000000000000000000000000000000000000000000000000000000845234600452602452604483fd5b5080fd5b50346104795760207ffffffffffffffffffffffffffffffffffffffffffffffffffffffffffffffffc3601126104795760043562ffffff81169081810361057c577f34c21c35651c2633b08ce9561654ef2f43ce0c152ee897c954bc6ac52a5360fb9160209161052c614a85565b7fffffffffffffffffffff000000ffffffffffffffffffffffffffffffffffffff75ffffff000000000000000000000000000000000000006002549260981b16911617600255604051908152a180f35b8280fd5b50346104795760207ffffffffffffffffffffffffffffffffffffffffffffffffffffffffffffffffc3601126104795760043562ffffff81169081810361057c577f80e45ab8c40ae9d24baa55f0199cd3565a59f756870f67fadfff9161e19e752b916020916105ee614a85565b7fffffffffffffffffffffffffff000000ffffffffffffffffffffffffffffffff72ffffff000000000000000000000000000000006002549260801b16911617600255604051908152a180f35b50346104795760407ffffffffffffffffffffffffffffffffffffffffffffffffffffffffffffffffc3601126104795761067361223b565b7f3707af22b3aeb6f4e368f52e62c4e9ab2addbadf6f9de7d9d1d24bc0b8456d82602073ffffffffffffffffffffffffffffffffffffffff6106b36122ad565b936106bc614a85565b16928385526003825260408520901515907fffffffffffffffffffffffffffffffffffffffffffffffffffffffffffffff0081541660ff8316179055604051908152a280f35b503461047957807ffffffffffffffffffffffffffffffffffffffffffffffffffffffffffffffffc36011261047957602063ffffffff600254821c16604051908152f35b5034610479577ffffffffffffffffffffffffffffffffffffffffffffffffffffffffffffffffc360161010081126104ba5760e01361047957602061079161078c612150565b6146a4565b6040519015158152f35b50346104795760207ffffffffffffffffffffffffffffffffffffffffffffffffffffffffffffffffc3601126104795760ff604060209273ffffffffffffffffffffffffffffffffffffffff6107ef61223b565b168152600384522054166040519015158152f35b503461047957807ffffffffffffffffffffffffffffffffffffffffffffffffffffffffffffffffc36011261047957602063ffffffff60025416604051908152f35b5034610479577ffffffffffffffffffffffffffffffffffffffffffffffffffffffffffffffffc360161010081126104ba5760e01361047957602061079161088b612150565b6141d2565b503461047957807ffffffffffffffffffffffffffffffffffffffffffffffffffffffffffffffffc36011261047957602062ffffff60025460981c16604051908152f35b503461047957807ffffffffffffffffffffffffffffffffffffffffffffffffffffffffffffffffc36011261047957602062ffffff60025460801c16604051908152f35b50346104795760407ffffffffffffffffffffffffffffffffffffffffffffffffffffffffffffffffc36011261047957600435600b8110156104ba5760407fc8d9f716ee6f7a1977483c05570fa0e1f0b522aa1b25219c7336b65368ad56a491602435610983614a85565b8061098d836122c9565b5582519182526020820152a180f35b5034610479577ffffffffffffffffffffffffffffffffffffffffffffffffffffffffffffffffc360161010081126104ba5760e013610479576109dd612150565b338252600360205260ff604083205416156109fe576109fb90614058565b80f35b6004827fee90c468000000000000000000000000000000000000000000000000000000008152fd5b5034610479577ffffffffffffffffffffffffffffffffffffffffffffffffffffffffffffffffc360161012081126104ba5761010013610479576020610791610a6d61212c565b6139df565b5034610479577ffffffffffffffffffffffffffffffffffffffffffffffffffffffffffffffffc360161010081126104ba5760e013610479576020610791610ab8612150565b6138eb565b5060a07ffffffffffffffffffffffffffffffffffffffffffffffffffffffffffffffffc36011261047957610af061223b565b90610af9612196565b610b016121b1565b610b096121fc565b90610b12612173565b92610b206102d860066122c9565b803410610b9c5760206103d4888873ffffffffffffffffffffffffffffffffffffffff8967ffffffffffffffff8a6bffffffffffffffffffffffff8b818c876040519a610b6c8c612356565b338c52168c8b01521660408901521660608701521660808501521660a08301523460c083015260e08201526152f9565b7f5dac504d00000000000000000000000000000000000000000000000000000000865234600452602452604485fd5b5060c07ffffffffffffffffffffffffffffffffffffffffffffffffffffffffffffffffc36011261047957610bfe61223b565b90610c076122ad565b60443567ffffffffffffffff811693848203610487576064356bffffffffffffffffffffffff8116809103610e2e57610c3e612173565b9260a43567ffffffffffffffff8111610e7057610c5f90369060040161227f565b90610c6d6102d860096122c9565b803410610e415750610cd773ffffffffffffffffffffffffffffffffffffffff7f0000000000000000000000000000000000000000000000000000000000000000169273ffffffffffffffffffffffffffffffffffffffff610cce85614cf0565b16928484614e5b565b813b15610e3d576040517f1b82787800000000000000000000000000000000000000000000000000000000815273ffffffffffffffffffffffffffffffffffffffff909116600482015233602482015230604482015267ffffffffffffffff9092166064830152869082908183816084810103925af18015610e3257610e19575b50602095610db473ffffffffffffffffffffffffffffffffffffffff8060405195610d828761230d565b1696878652338a87015215159586604087015283606087015284608087015216938460a08201523460c0820152615486565b95610dbe87615538565b8681526004885260404391205560405193845286840152604083015260608201523460808201528260a08201527f5f3138be2b6c6c696f6e5dde16ea6ee1c0f79ac1015fa93eed5b0db30733a93060c03392a3604051908152f35b610e2486809261238f565b610e2e575f610d58565b8480fd5b6040513d88823e3d90fd5b8780fd5b7f5dac504d00000000000000000000000000000000000000000000000000000000895234600452602452604488fd5b8680fd5b5034610479577ffffffffffffffffffffffffffffffffffffffffffffffffffffffffffffffffc360161010081126104ba5760e013610479576020610791610eba612150565b61349a565b5034610479577ffffffffffffffffffffffffffffffffffffffffffffffffffffffffffffffffc360161012081126104ba576101001361047957610f0161212c565b338252600360205260ff604083205416156109fe576109fb906132ea565b50346104795760807ffffffffffffffffffffffffffffffffffffffffffffffffffffffffffffffffc36011261047957610f5761223b565b90610f60612196565b91610f696121b1565b5060643567ffffffffffffffff811161057c57610f8a90369060040161227f565b73ffffffffffffffffffffffffffffffffffffffff9291927f00000000000000000000000000000000000000000000000000000000000000001633036110a957826040918101031261057c5760405191610fe383612373565b6bffffffffffffffffffffffff6110086020610ffe846121cc565b938487520161225e565b916020850192835216926bffffffffffffffffffffffff86169380851161107957506109fb94956bffffffffffffffffffffffff80925116031680611051575b50503390614d50565b73ffffffffffffffffffffffffffffffffffffffff61107292511683614bc3565b5f80611048565b85604491867f379d3018000000000000000000000000000000000000000000000000000000008352600452602452fd5b6004847fee90c468000000000000000000000000000000000000000000000000000000008152fd5b5060a07ffffffffffffffffffffffffffffffffffffffffffffffffffffffffffffffffc3601126104795761110461223b565b9061110d612196565b6111156121b1565b61111d6121fc565b91611126612173565b936111346102d860076122c9565b8034106111b15760206103d48873ffffffffffffffffffffffffffffffffffffffff8967ffffffffffffffff8a6bffffffffffffffffffffffff8b818c876040519961117f8b612356565b338b52168b8a01521660408801521660608601521660808401521660a08201523460c0820152600160e08201526152f9565b604492507f5dac504d00000000000000000000000000000000000000000000000000000000825234600452602452fd5b50346104795760607ffffffffffffffffffffffffffffffffffffffffffffffffffffffffffffffffc36011261047957611219612228565b6024359063ffffffff821691828103610487576044359263ffffffff8416908185036112d4577f5059425a16aa50b8d42ba1b984287f78e50743f3674c64736be81d875723294d9463ffffffff606095611271614a85565b169367ffffffff00000000857fffffffffffffffffffffffffffffffffffffffff0000000000000000000000006bffffffff00000000000000006002549560401b169416179160201b16171760025560405192835260208301526040820152a180f35b8580fd5b50346104795760207ffffffffffffffffffffffffffffffffffffffffffffffffffffffffffffffffc3601126104795760043590600b821015610479576020611320836122c9565b54604051908152f35b5060c07ffffffffffffffffffffffffffffffffffffffffffffffffffffffffffffffffc3601126104795761135c61223b565b906113656122ad565b61136d6121b1565b6113756121fc565b9161137e612173565b9360a43567ffffffffffffffff81116104ba5761139f90369060040161227f565b6113ac6102d860086122c9565b80341061048b57506113f79073ffffffffffffffffffffffffffffffffffffffff7f00000000000000000000000000000000000000000000000000000000000000001692838a614e5b565b803b156104ba576040517f1b82787800000000000000000000000000000000000000000000000000000000815273ffffffffffffffffffffffffffffffffffffffff881660048201523360248201523060448201526bffffffffffffffffffffffff851660648201529082908290608490829084905af1801561047c576114e8575b60206103d48873ffffffffffffffffffffffffffffffffffffffff8967ffffffffffffffff8a6bffffffffffffffffffffffff8b8b86604051986114bc8a61230d565b338a52168a890152151560408801521660608601521660808401521660a08201523460c0820152615212565b6114f382809261238f565b6104795780611479565b50346104795760207ffffffffffffffffffffffffffffffffffffffffffffffffffffffffffffffffc3601126104795760043573ffffffffffffffffffffffffffffffffffffffff81168091036104ba57611556614a85565b7fffffffffffffffffffffffff000000000000000000000000000000000000000082541617815580f35b503461047957807ffffffffffffffffffffffffffffffffffffffffffffffffffffffffffffffffc36011261047957602060405173ffffffffffffffffffffffffffffffffffffffff7f0000000000000000000000000000000000000000000000000000000000000000168152f35b503461047957807ffffffffffffffffffffffffffffffffffffffffffffffffffffffffffffffffc36011261047957602060405173ffffffffffffffffffffffffffffffffffffffff7f0000000000000000000000000000000000000000000000000000000000000000168152f35b5060807ffffffffffffffffffffffffffffffffffffffffffffffffffffffffffffffffc360112610479576004358015158091036104ba5761169e6121e5565b6044359073ffffffffffffffffffffffffffffffffffffffff821680920361048757606435928334106117ff576116d86102d860086122c9565b8085106117cf575083340373ffffffffffffffffffffffffffffffffffffffff7f00000000000000000000000000000000000000000000000000000000000000001695863b15610479576040517fd0e30db00000000000000000000000000000000000000000000000000000000081528181600481868c5af1801561047c576117ba575b60206103d489898967ffffffffffffffff8a6bffffffffffffffffffffffff8b6117858c614952565b90604051976117938961230d565b3389528a890152604088015216606086015216608084015260a083015260c0820152615212565b6117c582809261238f565b610479578061175c565b85604491867f5dac504d000000000000000000000000000000000000000000000000000000008352600452602452fd5b604485857f5dac504d00000000000000000000000000000000000000000000000000000000825234600452602452fd5b503461047957807ffffffffffffffffffffffffffffffffffffffffffffffffffffffffffffffffc36011261047957602063ffffffff60025460601c16604051908152f35b5060a07ffffffffffffffffffffffffffffffffffffffffffffffffffffffffffffffffc360112610479576118a761223b565b6118af612196565b6118b76121b1565b6118bf6121fc565b9160843567ffffffffffffffff81116112d4576118e090369060040161227f565b6118ed6102d860046122c9565b803410611a5a57506119389073ffffffffffffffffffffffffffffffffffffffff7f000000000000000000000000000000000000000000000000000000000000000016928388614e5b565b6bffffffffffffffffffffffff821691826119b9575b60206103d4878967ffffffffffffffff896bffffffffffffffffffffffff8a8a73ffffffffffffffffffffffffffffffffffffffff604051976119908961230d565b338952168988015260408701521660608501521660808301523460a083015260c08201526149a6565b908691813b1561057c576040517f1b82787800000000000000000000000000000000000000000000000000000000815273ffffffffffffffffffffffffffffffffffffffff881660048201523360248201523060448201526bffffffffffffffffffffffff91909116606482015291908290608490829084905af18015610e3257611a45575b8061194e565b611a5086809261238f565b610e2e575f611a3f565b7f5dac504d00000000000000000000000000000000000000000000000000000000885234600452602452604487fd5b5034610479577ffffffffffffffffffffffffffffffffffffffffffffffffffffffffffffffffc360161010081126104ba5760e013610479576020610791611acf612150565b612eb4565b5034610479577ffffffffffffffffffffffffffffffffffffffffffffffffffffffffffffffffc360161010081126104ba5760e01361047957611b15612150565b338252600360205260ff604083205416156109fe576109fb90612bc4565b50346104795760207ffffffffffffffffffffffffffffffffffffffffffffffffffffffffffffffffc36011261047957611b6b612228565b611b73614a85565b7fffffffffffff00000000ffffffffffffffffffffffffffffffffffffffffffff79ffffffff000000000000000000000000000000000000000000006002549260b01b1691161760025580f35b5034610479577ffffffffffffffffffffffffffffffffffffffffffffffffffffffffffffffffc360161010081126104ba5760e013610479576020610791611c06612150565b61294e565b50346104795760207ffffffffffffffffffffffffffffffffffffffffffffffffffffffffffffffffc36011261047957611c43612228565b611c4b614a85565b7fffffffffffffffffffffffffffffffff00000000ffffffffffffffffffffffff6fffffffff0000000000000000000000006002549260601b1691161760025580f35b503461047957807ffffffffffffffffffffffffffffffffffffffffffffffffffffffffffffffffc360112610479576004602073ffffffffffffffffffffffffffffffffffffffff835416604051928380927f12d43a510000000000000000000000000000000000000000000000000000000082525afa90811561047c5760209291611d34575b5073ffffffffffffffffffffffffffffffffffffffff60405191168152f35b611d549150823d8411611d5a575b611d4c818361238f565b8101906128a3565b5f611d15565b503d611d42565b5060607ffffffffffffffffffffffffffffffffffffffffffffffffffffffffffffffffc360112611f2957600435906bffffffffffffffffffffffff8216809203611f2957611dae6121e5565b60443590813410611f5c57611dc66102d860046122c9565b808310611f2d57506bffffffffffffffffffffffff611de6833403614952565b169384611e6b575b9167ffffffffffffffff6103d494926020969460405195611e0e8761230d565b33875273ffffffffffffffffffffffffffffffffffffffff7f000000000000000000000000000000000000000000000000000000000000000016898801526040870152606086015216608084015260a083015260c08201526149a6565b92909173ffffffffffffffffffffffffffffffffffffffff7f00000000000000000000000000000000000000000000000000000000000000001692833b15611f29575f86946004604051809981937fd0e30db00000000000000000000000000000000000000000000000000000000083525af1948515611f1e576020966103d496611efe575b5091939550919350611dee565b67ffffffffffffffff929194505f611f159161238f565b5f939091611ef1565b6040513d5f823e3d90fd5b5f80fd5b827f5dac504d000000000000000000000000000000000000000000000000000000005f5260045260245260445ffd5b507f5dac504d000000000000000000000000000000000000000000000000000000005f523460045260245260445ffd5b34611f29575f7ffffffffffffffffffffffffffffffffffffffffffffffffffffffffffffffffc360112611f2957602063ffffffff60025460b01c16604051908152f35b34611f29577ffffffffffffffffffffffffffffffffffffffffffffffffffffffffffffffffc36016101008112611f295760e013611f2957612010612150565b335f52600360205260ff60405f205416156120305761202e906126d1565b005b7fee90c468000000000000000000000000000000000000000000000000000000005f5260045ffd5b34611f29577ffffffffffffffffffffffffffffffffffffffffffffffffffffffffffffffffc36016101208112611f295761010013611f2957602061079161209e61212c565b612466565b34611f295760207ffffffffffffffffffffffffffffffffffffffffffffffffffffffffffffffffc360112611f29576004355f526004602052602060405f2054604051908152f35b34611f29575f7ffffffffffffffffffffffffffffffffffffffffffffffffffffffffffffffffc360112611f295760209063ffffffff60025460401c168152f35b610104359073ffffffffffffffffffffffffffffffffffffffff82168203611f2957565b60e4359073ffffffffffffffffffffffffffffffffffffffff82168203611f2957565b6084359073ffffffffffffffffffffffffffffffffffffffff82168203611f2957565b602435906bffffffffffffffffffffffff82168203611f2957565b604435906bffffffffffffffffffffffff82168203611f2957565b35906bffffffffffffffffffffffff82168203611f2957565b6024359067ffffffffffffffff82168203611f2957565b6064359067ffffffffffffffff82168203611f2957565b359067ffffffffffffffff82168203611f2957565b6004359063ffffffff82168203611f2957565b6004359073ffffffffffffffffffffffffffffffffffffffff82168203611f2957565b359073ffffffffffffffffffffffffffffffffffffffff82168203611f2957565b9181601f84011215611f295782359167ffffffffffffffff8311611f295760208381860195010111611f2957565b602435908115158203611f2957565b35908115158203611f2957565b600b8110156122e0575f52600160205260405f2090565b7f4e487b71000000000000000000000000000000000000000000000000000000005f52602160045260245ffd5b60e0810190811067ffffffffffffffff82111761232957604052565b7f4e487b71000000000000000000000000000000000000000000000000000000005f52604160045260245ffd5b610100810190811067ffffffffffffffff82111761232957604052565b6040810190811067ffffffffffffffff82111761232957604052565b90601f7fffffffffffffffffffffffffffffffffffffffffffffffffffffffffffffffe0910116810190811067ffffffffffffffff82111761232957604052565b919082610100910312611f29576040516123e981612356565b60e06124618183956123fa8161225e565b85526124086020820161225e565b6020860152612419604082016121cc565b604086015261242a606082016121cc565b606086015261243b60808201612213565b608086015261244c60a0820161225e565b60a086015260c081013560c0860152016122bc565b910152565b6124796124743660046123d0565b6147a1565b90815f52600460205260405f205480156125205760043573ffffffffffffffffffffffffffffffffffffffff81168103611f29576124b691615577565b1561251a57602073ffffffffffffffffffffffffffffffffffffffff7f683a6d89df69b8c7033f3fe1a470f68caaa688b9d605b913ede5e99e8b2702b992845f52600483525f60408120551661250e8160c435614873565b604051908152a2600190565b50505f90565b505050600190565b90816020910312611f2957518015158103611f295790565b90929173ffffffffffffffffffffffffffffffffffffffff60e09160c06101008501968361256d8261225e565b1686528361257d6020830161225e565b16602087015261258f604082016122bc565b151560408701526bffffffffffffffffffffffff6125af606083016121cc565b16606087015267ffffffffffffffff6125ca60808301612213565b166080870152836125dd60a0830161225e565b1660a0870152013560c085015216910152565b3d15612648573d9067ffffffffffffffff8211612329576040519161263d60207fffffffffffffffffffffffffffffffffffffffffffffffffffffffffffffffe0601f840116018461238f565b82523d5f602084013e565b606090565b91908260e0910312611f29576040516126658161230d565b60c08082946126738161225e565b84526126816020820161225e565b6020850152612692604082016122bc565b60408501526126a3606082016121cc565b60608501526126b460808201612213565b60808501526126c560a0820161225e565b60a08501520135910152565b6040517f379b28a000000000000000000000000000000000000000000000000000000000815260208180612709856004808401612540565b03815f305af15f9181612882575b50612879575060206127f49161272b6125f0565b8281519101517fffffffff0000000000000000000000000000000000000000000000000000000081169160048110612844575b505060047f30467beaabb8ef26014dc3e31dc09bf58060436193d2f111af53d708264ec40b84612796612791368561264d565b6148a0565b937fffffffff0000000000000000000000000000000000000000000000000000000060405191168152a3604051809381927f872c8a2f0000000000000000000000000000000000000000000000000000000083526004808401612540565b03815f305af15f9181612813575b5061280a5750565b1561281157565b565b61283691925060203d60201161283d575b61282e818361238f565b810190612528565b905f612802565b503d612824565b7fffffffff000000000000000000000000000000000000000000000000000000009250829060040360031b1b16165f8061275e565b90501561281157565b61289c91925060203d60201161283d5761282e818361238f565b905f612717565b90816020910312611f29575173ffffffffffffffffffffffffffffffffffffffff81168103611f295790565b91908260e0910312611f29576040516128e78161230d565b60c06124618183956128f88161225e565b85526129066020820161225e565b6020860152612917604082016121cc565b6040860152612928606082016121cc565b606086015261293960808201612213565b608086015260a081013560a0860152016122bc565b61296161295c3660046128cf565b614b19565b90815f52600460205260405f20548015612520576004359073ffffffffffffffffffffffffffffffffffffffff82168214159081611f2957826129a391615577565b15612b0057835f5260046020525f604081205560c4358015158103611f295715612a7a5773ffffffffffffffffffffffffffffffffffffffff612a07817f000000000000000000000000000000000000000000000000000000000000000016614cf0565b1690611f2957604435926bffffffffffffffffffffffff841693848103611f29577f5d739aba4aac9530ace4ba9e82a0ff3bb71bbdaed667b4aa7aa05f1821712e2d9460209473ffffffffffffffffffffffffffffffffffffffff94612a6d9350614d50565b1661250e8160a435614873565b5060243573ffffffffffffffffffffffffffffffffffffffff81168103611f2957604435926bffffffffffffffffffffffff841693848103611f29577f5d739aba4aac9530ace4ba9e82a0ff3bb71bbdaed667b4aa7aa05f1821712e2d9460209473ffffffffffffffffffffffffffffffffffffffff94612afb9350614bc3565b612a6d565b505050505f90565b90929173ffffffffffffffffffffffffffffffffffffffff60e091612bb760c061010086019784612b388261225e565b16875284612b486020830161225e565b1660208801526bffffffffffffffffffffffff612b67604083016121cc565b1660408801526bffffffffffffffffffffffff612b86606083016121cc565b16606088015267ffffffffffffffff612ba160808301612213565b16608088015260a081013560a0880152016122bc565b151560c085015216910152565b6040517f721ff14100000000000000000000000000000000000000000000000000000000815260208180612bfc856004808401612b08565b03815f305af15f9181612d18575b50612879575060206127f491612c1e6125f0565b8281519101517fffffffff0000000000000000000000000000000000000000000000000000000081169160048110612ce3575b505060027f30467beaabb8ef26014dc3e31dc09bf58060436193d2f111af53d708264ec40b84612c8561295c3660046128cf565b937fffffffff0000000000000000000000000000000000000000000000000000000060405191168152a3604051809381927f2d3b317b0000000000000000000000000000000000000000000000000000000083526004808401612b08565b7fffffffff000000000000000000000000000000000000000000000000000000009250829060040360031b1b16165f80612c51565b612d3291925060203d60201161283d5761282e818361238f565b905f612c0a565b51906bffffffffffffffffffffffff82168203611f2957565b519067ffffffffffffffff82168203611f2957565b9190826040910312611f2957612d886020612d8184612d39565b9301612d52565b90565b93601f60207fffffffffffffffffffffffffffffffffffffffffffffffffffffffffffffffe09273ffffffffffffffffffffffffffffffffffffffff60a0976bffffffffffffffffffffffff82988360e0999e9d9e168c526001868d01521660408b015216606089015260c0608089015280519182918260c08b0152018589015e5f84828901015201168401019416910152565b946020601f9173ffffffffffffffffffffffffffffffffffffffff60a0976bffffffffffffffffffffffff829860e098849d9e9d7fffffffffffffffffffffffffffffffffffffffffffffffffffffffffffffffe099168d521515868d01521660408b015216606089015260c0608089015280519182918260c08b0152018589015e5f84828901015201168401019416910152565b612ec261279136600461264d565b90815f52600460205260405f20548015612520576004359073ffffffffffffffffffffffffffffffffffffffff821690818303611f295782612f0391614de2565b15612b0057835f5260046020525f604081205563ffffffff60025460601c1660243573ffffffffffffffffffffffffffffffffffffffff81168103611f2957604435918215158303611f295782156131fe576064356bffffffffffffffffffffffff81168103611f29575b6064356bffffffffffffffffffffffff8116808203611f2957612fe896613014925060405191612f9d83612373565b8252602082015260405196879160208301919091602073ffffffffffffffffffffffffffffffffffffffff8160408401956bffffffffffffffffffffffff8151168552015116910152565b037fffffffffffffffffffffffffffffffffffffffffffffffffffffffffffffffe0810187528661238f565b60a43573ffffffffffffffffffffffffffffffffffffffff81168103611f2957604094613075825f93508751988997889687957f6c717edc000000000000000000000000000000000000000000000000000000008752309260048801612e1f565b039273ffffffffffffffffffffffffffffffffffffffff7f00000000000000000000000000000000000000000000000000000000000000001690f1908115611f1e575f916131cd575b506084359067ffffffffffffffff821690818303611f295767ffffffffffffffff169181831061319e57505050907f1e5b131f0a12d61f237ae7ac2433e5d4c62e2a46beac4ebaa5ab818f8a2ab1299160c4359061313361311f60086122c9565b543a0262ffffff60025460981c1602615727565b9081831161318c575050905b61315f73ffffffffffffffffffffffffffffffffffffffff821683614873565b6040805173ffffffffffffffffffffffffffffffffffffffff9290921682526020820192909252a2600190565b8161319992949303614873565b61313f565b507f162a9905000000000000000000000000000000000000000000000000000000005f5260045260245260445ffd5b6131ef915060403d6040116131f7575b6131e7818361238f565b810190612d67565b90505f6130be565b503d6131dd565b60843567ffffffffffffffff811690818103611f295750612f6e565b90929173ffffffffffffffffffffffffffffffffffffffff610100916132dd60e06101208601978461324b8261225e565b1687528461325b6020830161225e565b1660208801526bffffffffffffffffffffffff61327a604083016121cc565b1660408801526bffffffffffffffffffffffff613299606083016121cc565b16606088015267ffffffffffffffff6132b460808301612213565b166080880152846132c760a0830161225e565b1660a088015260c081013560c0880152016122bc565b151560e085015216910152565b6040517f93c88dd00000000000000000000000000000000000000000000000000000000081526020818061332285600480840161321a565b03815f305af15f918161343e575b50612879575060206127f4916133446125f0565b8281519101517fffffffff0000000000000000000000000000000000000000000000000000000081169160048110613409575b505060037f30467beaabb8ef26014dc3e31dc09bf58060436193d2f111af53d708264ec40b846133ab6124743660046123d0565b937fffffffff0000000000000000000000000000000000000000000000000000000060405191168152a3604051809381927f0b914f80000000000000000000000000000000000000000000000000000000008352600480840161321a565b7fffffffff000000000000000000000000000000000000000000000000000000009250829060040360031b1b16165f80613377565b61345891925060203d60201161283d5761282e818361238f565b905f613330565b9190826040910312611f2957612d886020612d8184612d52565b9190826040910312611f2957612d88602061349384612d52565b9301612d39565b6134a861295c3660046128cf565b90815f52600460205260405f20549081156125205760043573ffffffffffffffffffffffffffffffffffffffff8116808214159384611f2957826134eb91614de2565b156138e257845f5260046020525f604081205573ffffffffffffffffffffffffffffffffffffffff7f0000000000000000000000000000000000000000000000000000000000000000166024359173ffffffffffffffffffffffffffffffffffffffff831692838114159687611f29576040517f41976e09000000000000000000000000000000000000000000000000000000008152856004820152604081602481885afa908115611f1e575f916138b1575b5060843567ffffffffffffffff811691828203611f295767ffffffffffffffff91501681811180156138aa575b61387c57505063ffffffff60025460601c1691604435986bffffffffffffffffffffffff8a1690818b03611f29578a9160c4359b8c15158d03611f29578c61375f575b5050611f2957836bffffffffffffffffffffffff61362e921687846153f9565b50611f2957606435936bffffffffffffffffffffffff851694858103611f29576020946064935f925060405197889687957f444bc80b000000000000000000000000000000000000000000000000000000008752600487015260248601526044850152f18015611f1e576136fe575b506136d6907f62edafd2f83f91e1d876a040945a908920e4a222777b89e96647d433d0a7c5e5935f146136f75760055b60a43590614e32565b9061315f73ffffffffffffffffffffffffffffffffffffffff821683614873565b60046136cd565b906020823d602011613757575b816137186020938361238f565b81010312611f29577f62edafd2f83f91e1d876a040945a908920e4a222777b89e96647d433d0a7c5e59361374e6136d693612d39565b5093509061369d565b3d915061370b565b925093505061382e60405f926137ca6137f65f9784519061377f82612373565b81528a6020820152845192839160208301919091602073ffffffffffffffffffffffffffffffffffffffff8160408401956bffffffffffffffffffffffff8151168552015116910152565b037fffffffffffffffffffffffffffffffffffffffffffffffffffffffffffffffe0810183528261238f565b825193849283927fa5054986000000000000000000000000000000000000000000000000000000008452309130908a60048701612d8b565b03815f8b8af1908115611f1e575f9161384b575b50905f8061360e565b61386d915060403d604011613875575b613865818361238f565b810190613479565b90505f613842565b503d61385b565b7fd9afdd43000000000000000000000000000000000000000000000000000000005f5260045260245260445ffd5b505f6135cb565b6138d3915060403d6040116138db575b6138cb818361238f565b81019061345f565b90505f61359e565b503d6138c1565b50505050505f90565b6138f961279136600461264d565b90815f52600460205260405f20548015612520576004359073ffffffffffffffffffffffffffffffffffffffff82168203611f29578161393891615577565b156139d857825f5260046020525f604081205560243573ffffffffffffffffffffffffffffffffffffffff81168103611f2957606435926bffffffffffffffffffffffff841693848103611f29577f13f40752b03763fd5f3cede0990772c06ac47f90525fb872b275da9ab235a9489460209473ffffffffffffffffffffffffffffffffffffffff946139cb9350614bc3565b1661250e8160c435614873565b5050505f90565b5f906139ef6124743660046123d0565b91825f52600460205260405f20548015613f5e576004359173ffffffffffffffffffffffffffffffffffffffff831691828403611f295783613a3091614de2565b156138e257845f5260046020525f604081205573ffffffffffffffffffffffffffffffffffffffff7f0000000000000000000000000000000000000000000000000000000000000000166024359273ffffffffffffffffffffffffffffffffffffffff841690818503611f295781831480613f36575b73ffffffffffffffffffffffffffffffffffffffff7f000000000000000000000000000000000000000000000000000000000000000016926040517f41976e09000000000000000000000000000000000000000000000000000000008152816004820152604081602481885afa908115611f1e575f91613f16575b5060843567ffffffffffffffff811691828203611f295767ffffffffffffffff91501681811061387c57505063ffffffff60025460601c165f97604435956bffffffffffffffffffffffff871696878103611f295750606435976bffffffffffffffffffffffff891698898103611f29575060e4359889159889158b1415998a611f29578b90613f0f575b15613ed25773ffffffffffffffffffffffffffffffffffffffff9130915b604051987fc3bdace8000000000000000000000000000000000000000000000000000000008a5260048a01528a60248a01526044890152606488015216608486015260408560a4815f8689f1948515611f1e575f95613e89575b506bffffffffffffffffffffffff85169081613c8d575b50505050505050506104ba5715613c85576007915b61047957507f775d65006252fa2627ba0ef6ef5ef6d9ecf590c232ebd64eab048f65cd04a89092916136d69160c43590614e32565b600691613c50565b909294969a91939597505f97895f14613de05750505090613d33613d079493925f9a60405191613cbc83612373565b8252602082015260405195869160208301919091602073ffffffffffffffffffffffffffffffffffffffff8160408401956bffffffffffffffffffffffff8151168552015116910152565b037fffffffffffffffffffffffffffffffffffffffffffffffffffffffffffffffe0810186528561238f565b60a4359473ffffffffffffffffffffffffffffffffffffffff86168603613ddc576040949392918991613d968751988997889687947f6c717edc000000000000000000000000000000000000000000000000000000008652309160048701612d8b565b0393f18015613dd157613db3575b505b5f80808080808080613c3b565b613dcb9060403d6040116131f7576131e7818361238f565b50613da4565b6040513d86823e3d90fd5b8880fd5b945094509850935050613df5575b5050613da6565b803b15611f29575f80916024604051809481937f2e1a7d4d0000000000000000000000000000000000000000000000000000000083528760048401525af18015611f1e57613e74575b5060a4359073ffffffffffffffffffffffffffffffffffffffff8216918281036112d45750613e6d9190614873565b5f80613dee565b613e819194505f9061238f565b5f925f613e3e565b9094506040813d604011613eca575b81613ea56040938361238f565b81010312611f2957602081613ebc613ec393612d39565b5001612d39565b935f613c24565b3d9150613e98565b60a4359173ffffffffffffffffffffffffffffffffffffffff83168303611f295773ffffffffffffffffffffffffffffffffffffffff9291613bca565b5087613bac565b613f2f915060403d6040116138db576138cb818361238f565b505f613b21565b5060a43573ffffffffffffffffffffffffffffffffffffffff81168103611f29573b15613aa6565b50505050600190565b90929173ffffffffffffffffffffffffffffffffffffffff60e09160c061010085019683613f948261225e565b16865283613fa46020830161225e565b166020870152613fb6604082016122bc565b1515604087015267ffffffffffffffff613fd260608301612213565b1660608701526bffffffffffffffffffffffff6125ca608083016121cc565b91908260e0910312611f29576040516140098161230d565b60c08082946140178161225e565b84526140256020820161225e565b6020850152614036604082016122bc565b604085015261404760608201612213565b60608501526126b4608082016121cc565b6040517fb204d09400000000000000000000000000000000000000000000000000000000815260208180614090856004808401613f67565b03815f305af15f91816141b1575b50612879575060206127f4916140b26125f0565b8281519101517fffffffff000000000000000000000000000000000000000000000000000000008116916004811061417c575b505060057f30467beaabb8ef26014dc3e31dc09bf58060436193d2f111af53d708264ec40b8461411e614119366004613ff1565b615486565b937fffffffff0000000000000000000000000000000000000000000000000000000060405191168152a3604051809381927fc29ca86b0000000000000000000000000000000000000000000000000000000083526004808401613f67565b7fffffffff000000000000000000000000000000000000000000000000000000009250829060040360031b1b16165f806140e5565b6141cb91925060203d60201161283d5761282e818361238f565b905f61409e565b906141e1614119366004613ff1565b5f92815f52600460205260405f2054801561469b5760243573ffffffffffffffffffffffffffffffffffffffff8116808214159283611f29578261422491614de2565b1561469157845f5260046020525f604081205563ffffffff60025460601c1690604435918215158314159182611f295783156146735760643567ffffffffffffffff811690818103611f295750915b73ffffffffffffffffffffffffffffffffffffffff7f000000000000000000000000000000000000000000000000000000000000000016936004359073ffffffffffffffffffffffffffffffffffffffff8216808314159081611f295787148061464b575b1561454257611f2957611f295760643567ffffffffffffffff811690818103611f29575088611f29576040946143635f92612fe89688519161431983612373565b82526020820152875196879160208301919091602073ffffffffffffffffffffffffffffffffffffffff8160408401956bffffffffffffffffffffffff8151168552015116910152565b61439f8651988996879586947fa50549860000000000000000000000000000000000000000000000000000000086523093309260048801612e1f565b039273ffffffffffffffffffffffffffffffffffffffff7f00000000000000000000000000000000000000000000000000000000000000001690f1918215611f1e575f9261451f575b5081813b15611f29575f6bffffffffffffffffffffffff6024829360405194859384927f2e1a7d4d00000000000000000000000000000000000000000000000000000000845216968760048401525af18015611f1e5761450a575b5060a43573ffffffffffffffffffffffffffffffffffffffff81168103613ddc5761446d91614873565b608435906bffffffffffffffffffffffff821690818303613ddc576bffffffffffffffffffffffff16918183106144db5750505060c435916112d4577f7af8b07f998e5c320cbf31e3814ba3c4a7a951a05995f9e1d6287fbd4ad7f46c9394955061313361311f60096122c9565b507f162a9905000000000000000000000000000000000000000000000000000000008852600452602452604486fd5b6145179198505f9061238f565b5f965f614443565b61453991925060403d60401161387557613865818361238f565b9050905f6143e8565b5050929493509095506064359367ffffffffffffffff851694858103611f2957612fe89561457a91505f9860405191612f9d83612373565b60a43573ffffffffffffffffffffffffffffffffffffffff81168103611f29576040946145db825f93508751988997889687957fa5054986000000000000000000000000000000000000000000000000000000008752309260048801612e1f565b039273ffffffffffffffffffffffffffffffffffffffff7f00000000000000000000000000000000000000000000000000000000000000001690f1908115611f1e575f9161462a575b5061446d565b614643915060403d60401161387557613865818361238f565b90505f614624565b5060a43573ffffffffffffffffffffffffffffffffffffffff81168103611f29573b156142d8565b6084356bffffffffffffffffffffffff81168103611f295791614273565b505f955050505050565b50600193505050565b6146b2614119366004613ff1565b90815f52600460205260405f20548015612520576024359073ffffffffffffffffffffffffffffffffffffffff82168203611f2957816146f191615577565b156139d857825f5260046020525f604081205573ffffffffffffffffffffffffffffffffffffffff614744817f000000000000000000000000000000000000000000000000000000000000000016614cf0565b166064359267ffffffffffffffff841693848103611f29577f3a7252538b94b8f8452c3d0cd12d6e9c807e7cda8505e2063e6b52fdf1b2116e9460209473ffffffffffffffffffffffffffffffffffffffff946139cb9350614d50565b60405160e0602082019273ffffffffffffffffffffffffffffffffffffffff815116845273ffffffffffffffffffffffffffffffffffffffff60208201511660408401526bffffffffffffffffffffffff60408201511660608401526bffffffffffffffffffffffff606082015116608084015267ffffffffffffffff60808201511660a084015273ffffffffffffffffffffffffffffffffffffffff60a08201511660c084015260c08101518284015201511515610100820152610100815261486d6101208261238f565b51902090565b906128119173ffffffffffffffffffffffffffffffffffffffff63ffffffff60025460b01c16921661560e565b60405160c0602082019273ffffffffffffffffffffffffffffffffffffffff815116845273ffffffffffffffffffffffffffffffffffffffff60208201511660408401526040810151151560608401526bffffffffffffffffffffffff606082015116608084015267ffffffffffffffff60808201511660a084015273ffffffffffffffffffffffffffffffffffffffff60a08201511682840152015160e082015260e0815261486d6101008261238f565b6bffffffffffffffffffffffff8111614976576bffffffffffffffffffffffff1690565b7f6dfcc650000000000000000000000000000000000000000000000000000000005f52606060045260245260445ffd5b906149b082614b19565b916149ba83615538565b825f5260046020524360405f205573ffffffffffffffffffffffffffffffffffffffff8151167fa4c40779d06ceebd523c74f4a2e95b662190f13958ee03c0dc92cfff2df0d21760c073ffffffffffffffffffffffffffffffffffffffff602085015116936bffffffffffffffffffffffff604082015116906bffffffffffffffffffffffff6060820151169067ffffffffffffffff6080820151168460a083015192015115159260405194855260208501526040840152606083015260808201528660a0820152a3565b6004602073ffffffffffffffffffffffffffffffffffffffff5f5416604051928380927f12d43a510000000000000000000000000000000000000000000000000000000082525afa8015611f1e5773ffffffffffffffffffffffffffffffffffffffff915f91614afa575b5016330361203057565b614b13915060203d602011611d5a57611d4c818361238f565b5f614af0565b60405160c0602082019273ffffffffffffffffffffffffffffffffffffffff815116845273ffffffffffffffffffffffffffffffffffffffff60208201511660408401526bffffffffffffffffffffffff60408201511660608401526bffffffffffffffffffffffff606082015116608084015267ffffffffffffffff60808201511660a084015260a0810151828401520151151560e082015260e0815261486d6101008261238f565b73ffffffffffffffffffffffffffffffffffffffff7f0000000000000000000000000000000000000000000000000000000000000000169073ffffffffffffffffffffffffffffffffffffffff8116821480614ce7575b15614cbb5750803b15611f29575f6fffffffffffffffffffffffffffffffff6024829560405196879384927f2e1a7d4d00000000000000000000000000000000000000000000000000000000845216958660048401525af1928315611f1e5761281193614cab575b5073ffffffffffffffffffffffffffffffffffffffff63ffffffff60025460b01c16921661560e565b5f614cb59161238f565b5f614c82565b905061281192916fffffffffffffffffffffffffffffffff63ffffffff60025460601c169316916153f9565b50823b15614c1a565b600b605591604051907f833a3129a7c49096ba2bc346ab64e2bbec674f4181bf8e6dedfa83aea7fb0fec60408301527f19e0e5e01a085dfed6202468dbe0a147fedc8ede0e01cde25a7e0cb754329740602083015281520160ff81532090565b905f80916137ca614db86128119660405192839160208301957fa9059cbb000000000000000000000000000000000000000000000000000000008752602484016020909392919373ffffffffffffffffffffffffffffffffffffffff60408201951681520152565b51908273ffffffffffffffffffffffffffffffffffffffff86165af1614ddc6125f0565b916156aa565b919063ffffffff60025460401c1683019243841115614e0657612d88929350615577565b837ff80dbaea000000000000000000000000000000000000000000000000000000005f5260045260245ffd5b61311f614e41919392936122c9565b90818311614e4e57505090565b8161281192949303614873565b90831561520c575f938493604051928290816064146151555781604814615092578160e01461505857816101001461501c5781606014614f21575061016014614ed7578185926004927f9fd5a6cf0000000000000000000000000000000000000000000000000000000086528386013701925af15b15611f1e57565b610164935061016091507f2b67b5700000000000000000000000000000000000000000000000000000000083526004830137826e22d473030f116ddee9f6b43ac78ba35af1614ed0565b602093506040929150610164957f2b67b570000000000000000000000000000000000000000000000000000000008652336004870152602486015260148260508701377fffffffffffffffffffffffffffffffffffffffffffffffffffffffffffffffff601483013560e01c0165ffffffffffff166064860152601882013560e01c608486015260a48501527fffffffffffffffffffffffffffffffffffffffffffffffffffffffffffffffff601c82013560e01c0165ffffffffffff1660c485015261010060e4850152816101048501528280820161012486013701610144830137826e22d473030f116ddee9f6b43ac78ba35af1614ed0565b505084915092610100610104947f8fcbaf0c00000000000000000000000000000000000000000000000000000000855260048501375af1614ed0565b50508491509260e060e4947fd505accf00000000000000000000000000000000000000000000000000000000855260048501375af1614ed0565b8693507f7fffffffffffffffffffffffffffffffffffffffffffffffffffffffffffffff91509161010495927f8fcbaf0c000000000000000000000000000000000000000000000000000000008652336004870152602486015260206008602883013592803560e01c60448901527fffffffffffffffffffffffffffffffffffffffffffffffffffffffffffffffff600482013560e01c016064890152600160848901528360ff1c601b0160a48901520160c48701371660e48401525af1614ed0565b8693507f7fffffffffffffffffffffffffffffffffffffffffffffffffffffffffffffff91509160e495927fd505accf000000000000000000000000000000000000000000000000000000008652336004870152602486015260206024604483013592828160448a01377fffffffffffffffffffffffffffffffffffffffffffffffffffffffffffffffff8382013560e01c0160648901528360ff1c601b0160848901520160a48701371660c48401525af1614ed0565b50505050565b9061521c826148a0565b9161522683615538565b825f5260046020524360405f205573ffffffffffffffffffffffffffffffffffffffff8151167fff86d0cdd46d39a5893e51e6a8295cfc15baba1f3ccdc6463ba20a49ec3d80d560c073ffffffffffffffffffffffffffffffffffffffff6020850151169360408101511515906bffffffffffffffffffffffff6060820151169067ffffffffffffffff6080820151168473ffffffffffffffffffffffffffffffffffffffff60a0840151169201519260405194855260208501526040840152606083015260808201528660a0820152a3565b90615303826147a1565b9161530d83615538565b825f5260046020524360405f205573ffffffffffffffffffffffffffffffffffffffff8151167f39883da8f51b7a76e5088868ba42b3fa6ba1c23b3fc57238cf522f20dc86a03d60e073ffffffffffffffffffffffffffffffffffffffff602085015116936bffffffffffffffffffffffff604082015116906bffffffffffffffffffffffff6060820151169067ffffffffffffffff60808201511673ffffffffffffffffffffffffffffffffffffffff60a083015116908560c0840151930151151593604051958652602086015260408501526060840152608083015260a08201528660c0820152a3565b91612811935f92836137ca615463829560405192839160208301967fa9059cbb000000000000000000000000000000000000000000000000000000008852602484016020909392919373ffffffffffffffffffffffffffffffffffffffff60408201951681520152565b519273ffffffffffffffffffffffffffffffffffffffff871690f1614ddc6125f0565b60405160c0602082019273ffffffffffffffffffffffffffffffffffffffff815116845273ffffffffffffffffffffffffffffffffffffffff602082015116604084015260408101511515606084015267ffffffffffffffff60608201511660808401526bffffffffffffffffffffffff60808201511660a084015273ffffffffffffffffffffffffffffffffffffffff60a08201511682840152015160e082015260e0815261486d6101008261238f565b805f52600460205260405f205461554c5750565b7f43731142000000000000000000000000000000000000000000000000000000005f5260045260245ffd5b9030331480156155f8575b6155e75773ffffffffffffffffffffffffffffffffffffffff1633036120305763ffffffff60025460201c16014381116155bc5750600190565b7f2a35a324000000000000000000000000000000000000000000000000000000005f5260045260245ffd5b5063ffffffff600254160143101590565b50335f52600360205260ff60405f205416615582565b91909182156156a557824710615675575f8093819373ffffffffffffffffffffffffffffffffffffffff83941690f16156456125f0565b501561564d57565b7fe293b56b000000000000000000000000000000000000000000000000000000005f5260045ffd5b82477fcf479181000000000000000000000000000000000000000000000000000000005f5260045260245260445ffd5b505050565b73ffffffffffffffffffffffffffffffffffffffff16916156cb9183615762565b805190811515918261570c575b50506156e15750565b7f39f1c8d9000000000000000000000000000000000000000000000000000000005f5260045260245ffd5b61571f9250602080918301019101612528565b155f806156d8565b5f9080615732575090565b600191507fffffffffffffffffffffffffffffffffffffffffffffffffffffffffffffffff629896809101040190565b9061579f575080511561577757805190602001fd5b7f1425ea42000000000000000000000000000000000000000000000000000000005f5260045ffd5b815115806157f2575b6157b0575090565b73ffffffffffffffffffffffffffffffffffffffff907f9996b315000000000000000000000000000000000000000000000000000000005f521660045260245ffd5b50803b156157a856fea164736f6c634300081a000a",
  "linkReferences": {},
  "deployedLinkReferences": {}
}