{
  "_format": "hh-sol-artifact-1",
  "contractName": "BalanceRateBalancer",
  "sourceName": "contracts/plugins/BalanceRateBalancer.sol",
  "abi": [
    {
      "inputs": [
        {
          "internalType": "contract Governable",
          "name": "_govImpl",
          "type": "address"
        },
        {
          "internalType": "contract IMarketManager",
          "name": "_marketManager",
          "type": "address"
        },
        {
          "internalType": "contract IPUSD",
          "name": "_usd",
          "type": "address"
        },
        {
          "internalType": "contract IDirectExecutablePlugin",
          "name": "_plugin",
          "type": "address"
        },
        {
          "internalType": "enum IPositionRouterCommon.EstimatedGasLimitType[]",
          "name": "_estimatedGasLimitTypes",
          "type": "uint8[]"
        },
        {
          "internalType": "uint256[]",
          "name": "_estimatedGasLimits",
          "type": "uint256[]"
        }
      ],
      "stateMutability": "nonpayable",
      "type": "constructor"
    },
    {
      "inputs": [
        {
          "internalType": "address",
          "name": "target",
          "type": "address"
        }
      ],
      "name": "AddressEmptyCode",
      "type": "error"
    },
    {
      "inputs": [
        {
          "internalType": "address",
          "name": "account",
          "type": "address"
        }
      ],
      "name": "AddressInsufficientBalance",
      "type": "error"
    },
    {
      "inputs": [
        {
          "internalType": "bytes32",
          "name": "id",
          "type": "bytes32"
        }
      ],
      "name": "ConflictRequests",
      "type": "error"
    },
    {
      "inputs": [
        {
          "internalType": "uint256",
          "name": "expiredAt",
          "type": "uint256"
        }
      ],
      "name": "Expired",
      "type": "error"
    },
    {
      "inputs": [],
      "name": "FailedInnerCall",
      "type": "error"
    },
    {
      "inputs": [],
      "name": "FailedTransferETH",
      "type": "error"
    },
    {
      "inputs": [],
      "name": "Forbidden",
      "type": "error"
    },
    {
      "inputs": [
        {
          "internalType": "uint256",
          "name": "balance",
          "type": "uint256"
        },
        {
          "internalType": "uint256",
          "name": "requiredAmount",
          "type": "uint256"
        }
      ],
      "name": "InsufficientBalance",
      "type": "error"
    },
    {
      "inputs": [
        {
          "internalType": "uint256",
          "name": "available",
          "type": "uint256"
        },
        {
          "internalType": "uint256",
          "name": "required",
          "type": "uint256"
        }
      ],
      "name": "InsufficientExecutionFee",
      "type": "error"
    },
    {
      "inputs": [],
      "name": "InvalidCallbackData",
      "type": "error"
    },
    {
      "inputs": [
        {
          "internalType": "address",
          "name": "requiredCaller",
          "type": "address"
        }
      ],
      "name": "InvalidCaller",
      "type": "error"
    },
    {
      "inputs": [
        {
          "internalType": "address",
          "name": "caller",
          "type": "address"
        }
      ],
      "name": "InvalidCaller",
      "type": "error"
    },
    {
      "inputs": [
        {
          "internalType": "uint64",
          "name": "indexPrice",
          "type": "uint64"
        },
        {
          "internalType": "uint64",
          "name": "acceptableIndexPrice",
          "type": "uint64"
        }
      ],
      "name": "InvalidIndexPrice",
      "type": "error"
    },
    {
      "inputs": [
        {
          "internalType": "uint8",
          "name": "bits",
          "type": "uint8"
        },
        {
          "internalType": "uint256",
          "name": "value",
          "type": "uint256"
        }
      ],
      "name": "SafeCastOverflowedUintDowncast",
      "type": "error"
    },
    {
      "inputs": [
        {
          "internalType": "uint256",
          "name": "earliest",
          "type": "uint256"
        }
      ],
      "name": "TooEarly",
      "type": "error"
    },
    {
      "inputs": [
        {
          "internalType": "uint96",
          "name": "acceptableMinAmount",
          "type": "uint96"
        },
        {
          "internalType": "uint96",
          "name": "receiveAmount",
          "type": "uint96"
        }
      ],
      "name": "TooLittleReceived",
      "type": "error"
    },
    {
      "inputs": [
        {
          "internalType": "uint96",
          "name": "payAmount",
          "type": "uint96"
        },
        {
          "internalType": "uint96",
          "name": "acceptableMaxAmount",
          "type": "uint96"
        }
      ],
      "name": "TooMuchPaid",
      "type": "error"
    },
    {
      "anonymous": false,
      "inputs": [
        {
          "indexed": false,
          "internalType": "uint32",
          "name": "minBlockDelayExecutor",
          "type": "uint32"
        },
        {
          "indexed": false,
          "internalType": "uint32",
          "name": "minBlockDelayPublic",
          "type": "uint32"
        },
        {
          "indexed": false,
          "internalType": "uint32",
          "name": "maxBlockDelay",
          "type": "uint32"
        }
      ],
      "name": "DelayValuesUpdated",
      "type": "event"
    },
    {
      "anonymous": false,
      "inputs": [
        {
          "indexed": false,
          "internalType": "uint24",
          "name": "estimatedGasMultiplier",
          "type": "uint24"
        }
      ],
      "name": "EstimatedGasFeeMultiplierUpdated",
      "type": "event"
    },
    {
      "anonymous": false,
      "inputs": [
        {
          "indexed": false,
          "internalType": "enum IPositionRouterCommon.EstimatedGasLimitType",
          "name": "estimatedGasLimitType",
          "type": "uint8"
        },
        {
          "indexed": false,
          "internalType": "uint256",
          "name": "estimatedGasLimit",
          "type": "uint256"
        }
      ],
      "name": "EstimatedGasLimitUpdated",
      "type": "event"
    },
    {
      "anonymous": false,
      "inputs": [
        {
          "indexed": true,
          "internalType": "bytes32",
          "name": "id",
          "type": "bytes32"
        },
        {
          "indexed": false,
          "internalType": "bytes4",
          "name": "shortenedReason",
          "type": "bytes4"
        }
      ],
      "name": "ExecuteFailed",
      "type": "event"
    },
    {
      "anonymous": false,
      "inputs": [
        {
          "indexed": true,
          "internalType": "enum IPositionRouterCommon.RequestType",
          "name": "reqType",
          "type": "uint8"
        },
        {
          "indexed": true,
          "internalType": "bytes32",
          "name": "id",
          "type": "bytes32"
        },
        {
          "indexed": false,
          "internalType": "bytes4",
          "name": "shortenedReason",
          "type": "bytes4"
        }
      ],
      "name": "ExecuteFailed",
      "type": "event"
    },
    {
      "anonymous": false,
      "inputs": [
        {
          "indexed": false,
          "internalType": "uint24",
          "name": "executionGasFeeMultiplier",
          "type": "uint24"
        }
      ],
      "name": "ExecutionGasFeeMultiplierUpdated",
      "type": "event"
    },
    {
      "anonymous": false,
      "inputs": [
        {
          "indexed": true,
          "internalType": "bytes32",
          "name": "id",
          "type": "bytes32"
        },
        {
          "indexed": false,
          "internalType": "address payable",
          "name": "executionFeeReceiver",
          "type": "address"
        }
      ],
      "name": "IncreaseBalanceRateCancelled",
      "type": "event"
    },
    {
      "anonymous": false,
      "inputs": [
        {
          "indexed": true,
          "internalType": "contract IERC20",
          "name": "market",
          "type": "address"
        },
        {
          "indexed": true,
          "internalType": "contract IERC20",
          "name": "collateral",
          "type": "address"
        },
        {
          "indexed": false,
          "internalType": "uint128",
          "name": "amount",
          "type": "uint128"
        },
        {
          "indexed": false,
          "internalType": "uint256",
          "name": "executionFee",
          "type": "uint256"
        },
        {
          "indexed": false,
          "internalType": "address",
          "name": "account",
          "type": "address"
        },
        {
          "indexed": false,
          "internalType": "address[]",
          "name": "targets",
          "type": "address[]"
        },
        {
          "indexed": false,
          "internalType": "bytes[]",
          "name": "calldatas",
          "type": "bytes[]"
        },
        {
          "indexed": false,
          "internalType": "bytes32",
          "name": "id",
          "type": "bytes32"
        }
      ],
      "name": "IncreaseBalanceRateCreated",
      "type": "event"
    },
    {
      "anonymous": false,
      "inputs": [
        {
          "indexed": true,
          "internalType": "bytes32",
          "name": "id",
          "type": "bytes32"
        },
        {
          "indexed": false,
          "internalType": "address payable",
          "name": "executionFeeReceiver",
          "type": "address"
        },
        {
          "indexed": false,
          "internalType": "uint256",
          "name": "executionFee",
          "type": "uint256"
        }
      ],
      "name": "IncreaseBalanceRateExecuted",
      "type": "event"
    },
    {
      "anonymous": false,
      "inputs": [
        {
          "indexed": true,
          "internalType": "address",
          "name": "account",
          "type": "address"
        },
        {
          "indexed": false,
          "internalType": "bool",
          "name": "active",
          "type": "bool"
        }
      ],
      "name": "PositionExecutorUpdated",
      "type": "event"
    },
    {
      "inputs": [
        {
          "internalType": "contract IERC20",
          "name": "",
          "type": "address"
        },
        {
          "internalType": "uint96",
          "name": "_payAmount",
          "type": "uint96"
        },
        {
          "internalType": "uint96",
          "name": "",
          "type": "uint96"
        },
        {
          "internalType": "bytes",
          "name": "_data",
          "type": "bytes"
        }
      ],
      "name": "PUSDManagerCallback",
      "outputs": [],
      "stateMutability": "nonpayable",
      "type": "function"
    },
    {
      "inputs": [
        {
          "internalType": "contract Governable",
          "name": "_newGov",
          "type": "address"
        }
      ],
      "name": "_changeImpl",
      "outputs": [],
      "stateMutability": "nonpayable",
      "type": "function"
    },
    {
      "inputs": [
        {
          "internalType": "bytes32",
          "name": "id",
          "type": "bytes32"
        }
      ],
      "name": "blockNumbers",
      "outputs": [
        {
          "internalType": "uint256",
          "name": "blockNumber",
          "type": "uint256"
        }
      ],
      "stateMutability": "view",
      "type": "function"
    },
    {
      "inputs": [
        {
          "components": [
            {
              "internalType": "contract IERC20",
              "name": "market",
              "type": "address"
            },
            {
              "internalType": "contract IERC20",
              "name": "collateral",
              "type": "address"
            },
            {
              "internalType": "uint96",
              "name": "amount",
              "type": "uint96"
            },
            {
              "internalType": "uint256",
              "name": "executionFee",
              "type": "uint256"
            },
            {
              "internalType": "address",
              "name": "account",
              "type": "address"
            },
            {
              "internalType": "address[]",
              "name": "targets",
              "type": "address[]"
            },
            {
              "internalType": "bytes[]",
              "name": "calldatas",
              "type": "bytes[]"
            }
          ],
          "internalType": "struct IBalanceRateBalancer.IncreaseBalanceRateRequestIdParam",
          "name": "_param",
          "type": "tuple"
        },
        {
          "internalType": "address payable",
          "name": "_executionFeeReceiver",
          "type": "address"
        }
      ],
      "name": "cancelIncreaseBalanceRate",
      "outputs": [
        {
          "internalType": "bool",
          "name": "",
          "type": "bool"
        }
      ],
      "stateMutability": "nonpayable",
      "type": "function"
    },
    {
      "inputs": [
        {
          "internalType": "contract IERC20",
          "name": "_market",
          "type": "address"
        },
        {
          "internalType": "contract IERC20",
          "name": "_collateral",
          "type": "address"
        },
        {
          "internalType": "uint96",
          "name": "_amount",
          "type": "uint96"
        },
        {
          "internalType": "address[]",
          "name": "_targets",
          "type": "address[]"
        },
        {
          "internalType": "bytes[]",
          "name": "_calldatas",
          "type": "bytes[]"
        }
      ],
      "name": "createIncreaseBalanceRate",
      "outputs": [
        {
          "internalType": "bytes32",
          "name": "id",
          "type": "bytes32"
        }
      ],
      "stateMutability": "payable",
      "type": "function"
    },
    {
      "inputs": [],
      "name": "estimatedGasFeeMultiplier",
      "outputs": [
        {
          "internalType": "uint24",
          "name": "",
          "type": "uint24"
        }
      ],
      "stateMutability": "view",
      "type": "function"
    },
    {
      "inputs": [
        {
          "internalType": "enum IPositionRouterCommon.EstimatedGasLimitType",
          "name": "",
          "type": "uint8"
        }
      ],
      "name": "estimatedGasLimits",
      "outputs": [
        {
          "internalType": "uint256",
          "name": "",
          "type": "uint256"
        }
      ],
      "stateMutability": "view",
      "type": "function"
    },
    {
      "inputs": [],
      "name": "etherTransferGasLimit",
      "outputs": [
        {
          "internalType": "uint32",
          "name": "",
          "type": "uint32"
        }
      ],
      "stateMutability": "view",
      "type": "function"
    },
    {
      "inputs": [
        {
          "components": [
            {
              "internalType": "contract IERC20",
              "name": "market",
              "type": "address"
            },
            {
              "internalType": "contract IERC20",
              "name": "collateral",
              "type": "address"
            },
            {
              "internalType": "uint96",
              "name": "amount",
              "type": "uint96"
            },
            {
              "internalType": "uint256",
              "name": "executionFee",
              "type": "uint256"
            },
            {
              "internalType": "address",
              "name": "account",
              "type": "address"
            },
            {
              "internalType": "address[]",
              "name": "targets",
              "type": "address[]"
            },
            {
              "internalType": "bytes[]",
              "name": "calldatas",
              "type": "bytes[]"
            }
          ],
          "internalType": "struct IBalanceRateBalancer.IncreaseBalanceRateRequestIdParam",
          "name": "_param",
          "type": "tuple"
        },
        {
          "internalType": "address payable",
          "name": "_executionFeeReceiver",
          "type": "address"
        }
      ],
      "name": "executeIncreaseBalanceRate",
      "outputs": [
        {
          "internalType": "bool",
          "name": "",
          "type": "bool"
        }
      ],
      "stateMutability": "nonpayable",
      "type": "function"
    },
    {
      "inputs": [
        {
          "components": [
            {
              "internalType": "contract IERC20",
              "name": "market",
              "type": "address"
            },
            {
              "internalType": "contract IERC20",
              "name": "collateral",
              "type": "address"
            },
            {
              "internalType": "uint96",
              "name": "amount",
              "type": "uint96"
            },
            {
              "internalType": "uint256",
              "name": "executionFee",
              "type": "uint256"
            },
            {
              "internalType": "address",
              "name": "account",
              "type": "address"
            },
            {
              "internalType": "address[]",
              "name": "targets",
              "type": "address[]"
            },
            {
              "internalType": "bytes[]",
              "name": "calldatas",
              "type": "bytes[]"
            }
          ],
          "internalType": "struct IBalanceRateBalancer.IncreaseBalanceRateRequestIdParam",
          "name": "_param",
          "type": "tuple"
        },
        {
          "internalType": "bool",
          "name": "_shouldCancelOnFail",
          "type": "bool"
        },
        {
          "internalType": "address payable",
          "name": "_executionFeeReceiver",
          "type": "address"
        }
      ],
      "name": "executeOrCancelIncreaseBalanceRate",
      "outputs": [],
      "stateMutability": "nonpayable",
      "type": "function"
    },
    {
      "inputs": [],
      "name": "executionGasFeeMultiplier",
      "outputs": [
        {
          "internalType": "uint24",
          "name": "",
          "type": "uint24"
        }
      ],
      "stateMutability": "view",
      "type": "function"
    },
    {
      "inputs": [],
      "name": "executionGasLimit",
      "outputs": [
        {
          "internalType": "uint32",
          "name": "",
          "type": "uint32"
        }
      ],
      "stateMutability": "view",
      "type": "function"
    },
    {
      "inputs": [],
      "name": "gov",
      "outputs": [
        {
          "internalType": "address",
          "name": "",
          "type": "address"
        }
      ],
      "stateMutability": "view",
      "type": "function"
    },
    {
      "inputs": [],
      "name": "marketManager",
      "outputs": [
        {
          "internalType": "contract IMarketManager",
          "name": "",
          "type": "address"
        }
      ],
      "stateMutability": "view",
      "type": "function"
    },
    {
      "inputs": [],
      "name": "maxBlockDelay",
      "outputs": [
        {
          "internalType": "uint32",
          "name": "",
          "type": "uint32"
        }
      ],
      "stateMutability": "view",
      "type": "function"
    },
    {
      "inputs": [],
      "name": "minBlockDelayExecutor",
      "outputs": [
        {
          "internalType": "uint32",
          "name": "",
          "type": "uint32"
        }
      ],
      "stateMutability": "view",
      "type": "function"
    },
    {
      "inputs": [],
      "name": "minBlockDelayPublic",
      "outputs": [
        {
          "internalType": "uint32",
          "name": "",
          "type": "uint32"
        }
      ],
      "stateMutability": "view",
      "type": "function"
    },
    {
      "inputs": [],
      "name": "plugin",
      "outputs": [
        {
          "internalType": "contract IDirectExecutablePlugin",
          "name": "",
          "type": "address"
        }
      ],
      "stateMutability": "view",
      "type": "function"
    },
    {
      "inputs": [
        {
          "internalType": "address",
          "name": "",
          "type": "address"
        }
      ],
      "name": "positionExecutors",
      "outputs": [
        {
          "internalType": "bool",
          "name": "",
          "type": "bool"
        }
      ],
      "stateMutability": "view",
      "type": "function"
    },
    {
      "inputs": [
        {
          "internalType": "uint32",
          "name": "_minBlockDelayExecutor",
          "type": "uint32"
        },
        {
          "internalType": "uint32",
          "name": "_minBlockDelayPublic",
          "type": "uint32"
        },
        {
          "internalType": "uint32",
          "name": "_maxBlockDelay",
          "type": "uint32"
        }
      ],
      "name": "updateDelayValues",
      "outputs": [],
      "stateMutability": "nonpayable",
      "type": "function"
    },
    {
      "inputs": [
        {
          "internalType": "uint24",
          "name": "_multiplier",
          "type": "uint24"
        }
      ],
      "name": "updateEstimatedGasFeeMultiplier",
      "outputs": [],
      "stateMutability": "nonpayable",
      "type": "function"
    },
    {
      "inputs": [
        {
          "internalType": "enum IPositionRouterCommon.EstimatedGasLimitType",
          "name": "_estimatedGasLimitType",
          "type": "uint8"
        },
        {
          "internalType": "uint256",
          "name": "_estimatedGasLimit",
          "type": "uint256"
        }
      ],
      "name": "updateEstimatedGasLimit",
      "outputs": [],
      "stateMutability": "nonpayable",
      "type": "function"
    },
    {
      "inputs": [
        {
          "internalType": "uint32",
          "name": "_etherTransferGasLimit",
          "type": "uint32"
        }
      ],
      "name": "updateEtherTransferGasLimit",
      "outputs": [],
      "stateMutability": "nonpayable",
      "type": "function"
    },
    {
      "inputs": [
        {
          "internalType": "uint24",
          "name": "_multiplier",
          "type": "uint24"
        }
      ],
      "name": "updateExecutionGasFeeMultiplier",
      "outputs": [],
      "stateMutability": "nonpayable",
      "type": "function"
    },
    {
      "inputs": [
        {
          "internalType": "uint32",
          "name": "_executionGasLimit",
          "type": "uint32"
        }
      ],
      "name": "updateExecutionGasLimit",
      "outputs": [],
      "stateMutability": "nonpayable",
      "type": "function"
    },
    {
      "inputs": [
        {
          "internalType": "address",
          "name": "_account",
          "type": "address"
        },
        {
          "internalType": "bool",
          "name": "_active",
          "type": "bool"
        }
      ],
      "name": "updatePositionExecutor",
      "outputs": [],
      "stateMutability": "nonpayable",
      "type": "function"
    },
    {
      "inputs": [],
      "name": "usd",
      "outputs": [
        {
          "internalType": "contract IPUSD",
          "name": "",
          "type": "address"
        }
      ],
      "stateMutability": "view",
      "type": "function"
    },
    {
      "inputs": [],
      "name": "weth",
      "outputs": [
        {
          "internalType": "contract IWETHMinimum",
          "name": "",
          "type": "address"
        }
      ],
      "stateMutability": "view",
      "type": "function"
    },
    {
      "stateMutability": "payable",
      "type": "receive"
    }
  ],
  "bytecode": "0x6101006040523461029157612baa8038038061001a816102ae565b92833981019060c0818303126102915780516001600160a01b0381169190829003610291576020810151906001600160a01b03821682036102915760408101516001600160a01b0381168103610291576060820151926001600160a01b03841684036102915760808301516001600160401b0381116102915783019286601f850112156102915783516100b46100af826102e7565b6102ae565b9460208087848152019260051b8201019089821161029157602001915b8183106102955750505060a0810151906001600160401b03821161029157019486601f870112156102915785519661010b6100af896102e7565b96602080898b8152019960051b82010191821161029157602001975b8189106102815750505f80546001600160a01b0319169190911781556002805460809490945260a09290925260c0819052600160201b600160d01b0319909216772710989680989680000f42400000012c00000032000000001790555b815181101561022f5761019781856102fe565b516101aa6101a583856102fe565b610326565b600b81101561021b575f52600160205260405f20556101cc6101a582846102fe565b906101d781866102fe565b5160405192600b81101561021b57837fc8d9f716ee6f7a1977483c05570fa0e1f0b522aa1b25219c7336b65368ad56a492604092600196526020820152a101610184565b634e487b7160e01b5f52602160045260245ffd5b8260e05260405161287690816103348239608051816103f6015260a051818181610b5b015281816110e7015261226d015260c05181818160310152611155015260e05181818161020f0152610d7e0152f35b8851815260209889019801610127565b5f80fd5b8251600b811015610291578152602092830192016100d1565b6040519190601f01601f191682016001600160401b038111838210176102d357604052565b634e487b7160e01b5f52604160045260245ffd5b6001600160401b0381116102d35760051b60200190565b80518210156103125760209160051b010190565b634e487b7160e01b5f52603260045260245ffd5b51600b81101561021b579056fe6080806040526004361015610085575b50361561001a575f80fd5b73ffffffffffffffffffffffffffffffffffffffff7f00000000000000000000000000000000000000000000000000000000000000001680330361005a57005b7fcbd9d2e0000000000000000000000000000000000000000000000000000000005f5260045260245ffd5b5f3560e01c908163020def58146114e25750806309e33d441461149a5780630dbc9a6a1461145657806312d43a51146113845780631e80544a14611301578063263a02721461124a5780632e9022da146111bd57806339cb1f3e146111795780633fc8cef31461110b57806341ed2c121461109d57806349f6e1de1461101a5780634f4fe75714610fcb5780635567c2f714610eda578063622d151714610aa957806374dff16914610765578063a482ea85146106e3578063a804fdd9146106a0578063aadea9821461065d578063adda056b1461062d578063b29022a7146105cb578063b5d6bca71461058a578063b6ee0c3a14610522578063c7004d63146104df578063cfd8b2e11461041a578063d63a6ccd146103ac578063d954b637146102f3578063dcb76f56146102375763ef01df4f146101c5575f61000f565b34610233575f7ffffffffffffffffffffffffffffffffffffffffffffffffffffffffffffffffc36011261023357602060405173ffffffffffffffffffffffffffffffffffffffff7f0000000000000000000000000000000000000000000000000000000000000000168152f35b5f80fd5b346102335760207ffffffffffffffffffffffffffffffffffffffffffffffffffffffffffffffffc3601126102335760043562ffffff811690818103610233577f34c21c35651c2633b08ce9561654ef2f43ce0c152ee897c954bc6ac52a5360fb916020916102a461248f565b7fffffffffffffffffffff000000ffffffffffffffffffffffffffffffffffffff75ffffff000000000000000000000000000000000000006002549260981b16911617600255604051908152a1005b346102335760207ffffffffffffffffffffffffffffffffffffffffffffffffffffffffffffffffc3601126102335760043562ffffff811690818103610233577f80e45ab8c40ae9d24baa55f0199cd3565a59f756870f67fadfff9161e19e752b9160209161036061248f565b7fffffffffffffffffffffffffff000000ffffffffffffffffffffffffffffffff72ffffff000000000000000000000000000000006002549260801b16911617600255604051908152a1005b34610233575f7ffffffffffffffffffffffffffffffffffffffffffffffffffffffffffffffffc36011261023357602060405173ffffffffffffffffffffffffffffffffffffffff7f0000000000000000000000000000000000000000000000000000000000000000168152f35b346102335760407ffffffffffffffffffffffffffffffffffffffffffffffffffffffffffffffffc360112610233576104516115aa565b7f3707af22b3aeb6f4e368f52e62c4e9ab2addbadf6f9de7d9d1d24bc0b8456d82602073ffffffffffffffffffffffffffffffffffffffff610491611536565b9361049a61248f565b1692835f526003825260405f20901515907fffffffffffffffffffffffffffffffffffffffffffffffffffffffffffffff0081541660ff8316179055604051908152a2005b34610233575f7ffffffffffffffffffffffffffffffffffffffffffffffffffffffffffffffffc36011261023357602063ffffffff600254821c16604051908152f35b346102335760207ffffffffffffffffffffffffffffffffffffffffffffffffffffffffffffffffc3601126102335773ffffffffffffffffffffffffffffffffffffffff61056e6115aa565b165f526003602052602060ff60405f2054166040519015158152f35b34610233575f7ffffffffffffffffffffffffffffffffffffffffffffffffffffffffffffffffc36011261023357602063ffffffff60025416604051908152f35b34610233576105d936611632565b90335f52600360205260ff60405f20541615610605576020916105fb916123e9565b6040519015158152f35b7fee90c468000000000000000000000000000000000000000000000000000000005f5260045ffd5b346102335761063b36611632565b90335f52600360205260ff60405f20541615610605576020916105fb9161205d565b34610233575f7ffffffffffffffffffffffffffffffffffffffffffffffffffffffffffffffffc36011261023357602062ffffff60025460981c16604051908152f35b34610233575f7ffffffffffffffffffffffffffffffffffffffffffffffffffffffffffffffffc36011261023357602062ffffff60025460801c16604051908152f35b346102335760407ffffffffffffffffffffffffffffffffffffffffffffffffffffffffffffffffc36011261023357600435600b8110156102335760407fc8d9f716ee6f7a1977483c05570fa0e1f0b522aa1b25219c7336b65368ad56a49160243561074d61248f565b8061075783611566565b5582519182526020820152a1005b60a07ffffffffffffffffffffffffffffffffffffffffffffffffffffffffffffffffc360112610233576107976115aa565b6024359073ffffffffffffffffffffffffffffffffffffffff8216809203610233576107c16115cd565b60643567ffffffffffffffff8111610233576107e1903690600401611601565b939060843567ffffffffffffffff811161023357610803903690600401611601565b919061080d61248f565b600a5f52600160205261083160405f20543a0262ffffff60025460801c1602612662565b803410610a7a5750828703610a52576108ae9073ffffffffffffffffffffffffffffffffffffffff604051976108668961170b565b168752602087019485526bffffffffffffffffffffffff604088019616865261089f60608801933485526080890199338b523691611ad2565b9360a088019485523691611b44565b9060c086019182526108bf86612523565b95865f52600460205260405f2054610a26576bffffffffffffffffffffffff73ffffffffffffffffffffffffffffffffffffffff8080938a5f5260046020524360405f20555116965116965116915197511692519151926040519760c089019289526020890152604088015260c060608801528151809152602060e088019201905f5b8181106109fa575050508581036080870152815180825260208201916020808360051b8301019401925f915b8383106109af5760208989897f362d8b049bfa5d3346a205d5ef1211f54a07cf4854dffe0d8c66f2ba3b3023a48e808c8660a08301520390a3604051908152f35b90919293946020806109eb837fffffffffffffffffffffffffffffffffffffffffffffffffffffffffffffffe086600196030187528951611fa4565b9701930193019193929061096e565b825173ffffffffffffffffffffffffffffffffffffffff16845260209384019390920191600101610942565b867f43731142000000000000000000000000000000000000000000000000000000005f5260045260245ffd5b7fcdcf2483000000000000000000000000000000000000000000000000000000005f5260045ffd5b7f5dac504d000000000000000000000000000000000000000000000000000000005f523460045260245260445ffd5b346102335760807ffffffffffffffffffffffffffffffffffffffffffffffffffffffffffffffffc36011261023357610ae06115aa565b506024356bffffffffffffffffffffffff811680910361023357610b026115cd565b506064359067ffffffffffffffff8211610233573660238301121561023357816004013567ffffffffffffffff81116102335782019060248201913683116102335773ffffffffffffffffffffffffffffffffffffffff7f00000000000000000000000000000000000000000000000000000000000000001693843303610eae5760208183031261023357602481013567ffffffffffffffff8111610233570190606090829003126102335760405190610bbb826116c2565b610bc760248201611545565b8252604481013567ffffffffffffffff811161023357846024610bec92840101611b26565b936020830194855260648201359167ffffffffffffffff831161023357610c169201602401611be8565b93604082019485525f5b84518051821015610c7f5790610c7873ffffffffffffffffffffffffffffffffffffffff610c5083600195611e90565b51165f80610c5f858c51611e90565b5160208151910182855af1610c72611a8b565b916127d0565b5001610c20565b50508273ffffffffffffffffffffffffffffffffffffffff8084511693511690604051917fc1c7a4a60000000000000000000000000000000000000000000000000000000083526004830152606082602481865afa918215610de0575f92610e1b575b5060ff8060206402540be4009401511660040116600a0a02046bffffffffffffffffffffffff8111610deb576bffffffffffffffffffffffff90604051937f553619d100000000000000000000000000000000000000000000000000000000855260048501521660248301526044820152608060648201525f608482015260208160a4815f73ffffffffffffffffffffffffffffffffffffffff7f0000000000000000000000000000000000000000000000000000000000000000165af18015610de057610dac57005b6020813d602011610dd8575b81610dc560209383611727565b8101031261023357610dd690611ed1565b005b3d9150610db8565b6040513d5f823e3d90fd5b7f6dfcc650000000000000000000000000000000000000000000000000000000005f52606060045260245260445ffd5b91506060823d606011610ea6575b81610e3660609383611727565b810103126102335760405191610e4b836116c2565b80516effffffffffffffffffffffffffffff8116810361023357835260208101519060ff8216820361023357604091602085015201516fffffffffffffffffffffffffffffffff8116810361023357604083015260ff610ce2565b3d9150610e29565b7fcbd9d2e0000000000000000000000000000000000000000000000000000000005f523360045260245ffd5b346102335760607ffffffffffffffffffffffffffffffffffffffffffffffffffffffffffffffffc36011261023357610f11611523565b6024359063ffffffff821691828103610233576044359263ffffffff841690818503610233577f5059425a16aa50b8d42ba1b984287f78e50743f3674c64736be81d875723294d9463ffffffff606095610f6961248f565b169367ffffffff00000000857fffffffffffffffffffffffffffffffffffffffff0000000000000000000000006bffffffff00000000000000006002549560401b169416179160201b16171760025560405192835260208301526040820152a1005b346102335760207ffffffffffffffffffffffffffffffffffffffffffffffffffffffffffffffffc36011261023357600435600b81101561023357611011602091611566565b54604051908152f35b346102335760207ffffffffffffffffffffffffffffffffffffffffffffffffffffffffffffffffc3601126102335760043573ffffffffffffffffffffffffffffffffffffffff81168091036102335761107261248f565b7fffffffffffffffffffffffff00000000000000000000000000000000000000005f5416175f555f80f35b34610233575f7ffffffffffffffffffffffffffffffffffffffffffffffffffffffffffffffffc36011261023357602060405173ffffffffffffffffffffffffffffffffffffffff7f0000000000000000000000000000000000000000000000000000000000000000168152f35b34610233575f7ffffffffffffffffffffffffffffffffffffffffffffffffffffffffffffffffc36011261023357602060405173ffffffffffffffffffffffffffffffffffffffff7f0000000000000000000000000000000000000000000000000000000000000000168152f35b34610233575f7ffffffffffffffffffffffffffffffffffffffffffffffffffffffffffffffffc36011261023357602063ffffffff60025460601c16604051908152f35b346102335760207ffffffffffffffffffffffffffffffffffffffffffffffffffffffffffffffffc360112610233576111f4611523565b6111fc61248f565b7fffffffffffff00000000ffffffffffffffffffffffffffffffffffffffffffff79ffffffff000000000000000000000000000000000000000000006002549260b01b169116176002555f80f35b346102335760607ffffffffffffffffffffffffffffffffffffffffffffffffffffffffffffffffc3601126102335760043567ffffffffffffffff81116102335760e07ffffffffffffffffffffffffffffffffffffffffffffffffffffffffffffffffc8236030112610233576112bf611536565b6044359073ffffffffffffffffffffffffffffffffffffffff8216820361023357335f52600360205260ff60405f2054161561060557610dd692600401611cb2565b346102335760207ffffffffffffffffffffffffffffffffffffffffffffffffffffffffffffffffc36011261023357611338611523565b61134061248f565b7fffffffffffffffffffffffffffffffff00000000ffffffffffffffffffffffff6fffffffff0000000000000000000000006002549260601b169116176002555f80f35b34610233575f7ffffffffffffffffffffffffffffffffffffffffffffffffffffffffffffffffc360112610233576004602073ffffffffffffffffffffffffffffffffffffffff5f5416604051928380927f12d43a510000000000000000000000000000000000000000000000000000000082525afa8015610de0576020915f91611429575b5073ffffffffffffffffffffffffffffffffffffffff60405191168152f35b6114499150823d841161144f575b6114418183611727565b810190611768565b8261140a565b503d611437565b34610233575f7ffffffffffffffffffffffffffffffffffffffffffffffffffffffffffffffffc36011261023357602063ffffffff60025460b01c16604051908152f35b346102335760207ffffffffffffffffffffffffffffffffffffffffffffffffffffffffffffffffc360112610233576004355f526004602052602060405f2054604051908152f35b34610233575f7ffffffffffffffffffffffffffffffffffffffffffffffffffffffffffffffffc3601126102335760209063ffffffff60025460401c168152f35b6004359063ffffffff8216820361023357565b60243590811515820361023357565b359073ffffffffffffffffffffffffffffffffffffffff8216820361023357565b600b81101561157d575f52600160205260405f2090565b7f4e487b71000000000000000000000000000000000000000000000000000000005f52602160045260245ffd5b6004359073ffffffffffffffffffffffffffffffffffffffff8216820361023357565b604435906bffffffffffffffffffffffff8216820361023357565b35906bffffffffffffffffffffffff8216820361023357565b9181601f840112156102335782359167ffffffffffffffff8311610233576020808501948460051b01011161023357565b60407ffffffffffffffffffffffffffffffffffffffffffffffffffffffffffffffffc820112610233576004359067ffffffffffffffff8211610233577ffffffffffffffffffffffffffffffffffffffffffffffffffffffffffffffffc8260e092030112610233576004019060243573ffffffffffffffffffffffffffffffffffffffff811681036102335790565b6060810190811067ffffffffffffffff8211176116de57604052565b7f4e487b71000000000000000000000000000000000000000000000000000000005f52604160045260245ffd5b60e0810190811067ffffffffffffffff8211176116de57604052565b90601f7fffffffffffffffffffffffffffffffffffffffffffffffffffffffffffffffe0910116810190811067ffffffffffffffff8211176116de57604052565b90816020910312610233575173ffffffffffffffffffffffffffffffffffffffff811681036102335790565b90816020910312610233575180151581036102335790565b90357fffffffffffffffffffffffffffffffffffffffffffffffffffffffffffffffe18236030181121561023357016020813591019167ffffffffffffffff8211610233578160051b3603831361023357565b909291926040825261012082019073ffffffffffffffffffffffffffffffffffffffff61182b82611545565b16604084015273ffffffffffffffffffffffffffffffffffffffff61185260208301611545565b1660608401526bffffffffffffffffffffffff611871604083016115e8565b166080840152606081013560a084015273ffffffffffffffffffffffffffffffffffffffff6118a260808301611545565b1660c08401526118b560a08201826117ac565b60e085810152928390526101408401925f5b818110611a1c575050508060c06118df9201906117ac565b7fffffffffffffffffffffffffffffffffffffffffffffffffffffffffffffffc084840301610100850152808352602083019060208160051b85010193835f917fffffffffffffffffffffffffffffffffffffffffffffffffffffffffffffffe182360301905b848410611973575050505050505073ffffffffffffffffffffffffffffffffffffffff6020919416910152565b909192939495967fffffffffffffffffffffffffffffffffffffffffffffffffffffffffffffffe0828203018752873583811215610233578401906020823592019167ffffffffffffffff8111610233578036038313610233576020827fffffffffffffffffffffffffffffffffffffffffffffffffffffffffffffffe0601f8480600198869897879852868601375f8482018601520116010199019701959401929190611946565b90919360208060019273ffffffffffffffffffffffffffffffffffffffff611a4389611545565b1681520195019291016118c7565b67ffffffffffffffff81116116de57601f017fffffffffffffffffffffffffffffffffffffffffffffffffffffffffffffffe01660200190565b3d15611ab5573d90611a9c82611a51565b91611aaa6040519384611727565b82523d5f602084013e565b606090565b67ffffffffffffffff81116116de5760051b60200190565b929190611ade81611aba565b93611aec6040519586611727565b602085838152019160051b810192831161023357905b828210611b0e57505050565b60208091611b1b84611545565b815201910190611b02565b9080601f8301121561023357816020611b4193359101611ad2565b90565b92919092611b5184611aba565b93611b5f6040519586611727565b602085828152019060051b8201918383116102335780915b838310611b85575050505050565b823567ffffffffffffffff811161023357820185601f8201121561023357803591611baf83611a51565b611bbc6040519182611727565b8381528760208585010111610233575f6020858196828097018386013783010152815201920191611b77565b9080601f8301121561023357816020611b4193359101611b44565b919060e0838203126102335760405190611c1c8261170b565b8193611c2781611545565b8352611c3560208201611545565b6020840152611c46604082016115e8565b604084015260608101356060840152611c6160808201611545565b608084015260a081013567ffffffffffffffff81116102335782611c86918301611b26565b60a084015260c08101359167ffffffffffffffff83116102335760c092611cad9201611be8565b910152565b906040517fadda056b00000000000000000000000000000000000000000000000000000000815260208180611ceb8787600484016117ff565b03815f305af15f9181611e6f575b50611e645750611d07611a8b565b602081519101517fffffffff0000000000000000000000000000000000000000000000000000000081169160048110611e2f575b50507ffc44b2db2474749597ca8daf07ae8b29944a465a020e6381101164cf803b363f6020611d72611d6d3687611c03565b612523565b927fffffffff0000000000000000000000000000000000000000000000000000000060405191168152a2611da4575050565b611ddf9160209160405193849283927fb29022a7000000000000000000000000000000000000000000000000000000008452600484016117ff565b03815f305af15f9181611dfe575b50611df55750565b15611dfc57565b565b611e2191925060203d602011611e28575b611e198183611727565b810190611794565b905f611ded565b503d611e0f565b7fffffffff000000000000000000000000000000000000000000000000000000009250829060040360031b1b16165f80611d3b565b9250505015611dfc57565b611e8991925060203d602011611e2857611e198183611727565b905f611cf9565b8051821015611ea45760209160051b010190565b7f4e487b71000000000000000000000000000000000000000000000000000000005f52603260045260245ffd5b519067ffffffffffffffff8216820361023357565b3573ffffffffffffffffffffffffffffffffffffffff811681036102335790565b9035907fffffffffffffffffffffffffffffffffffffffffffffffffffffffffffffffe181360301821215610233570180359067ffffffffffffffff821161023357602001918160051b3603831361023357565b90602080835192838152019201905f5b818110611f785750505090565b825173ffffffffffffffffffffffffffffffffffffffff16845260209384019390920191600101611f6b565b907fffffffffffffffffffffffffffffffffffffffffffffffffffffffffffffffe0601f602080948051918291828752018686015e5f8582860101520116010190565b9080602083519182815201916020808360051b8301019401925f915b83831061201257505050505090565b909192939460208061204e837fffffffffffffffffffffffffffffffffffffffffffffffffffffffffffffffe086600196030187528951611fa4565b97019301930191939290612003565b9061206b611d6d3684611c03565b91825f52600460205260405f20549081156123e057608081019161208e83611ee6565b9063ffffffff60025460401c168101438111156123b55750906120b09161269d565b156123ad57835f5260046020525f604081205563ffffffff60025460601c166120d882611ee6565b60408301356bffffffffffffffffffffffff81168091036102335773ffffffffffffffffffffffffffffffffffffffff92835f6040946121f66121616121ca60206121996121708d61212d60a0820182611f07565b969061214861213f60c0850185611f07565b97909401611ee6565b978f8d9051996121578b6116c2565b1689523691611ad2565b93602087019485523691611b44565b918b85019283528b519c8d9560208088015251168c8601525160608086015260a0850190611f5b565b90517fffffffffffffffffffffffffffffffffffffffffffffffffffffffffffffffc0848303016080850152611fe7565b037fffffffffffffffffffffffffffffffffffffffffffffffffffffffffffffffe08101895288611727565b61224e8651978896879586947fa505498600000000000000000000000000000000000000000000000000000000865216600485015260016024850152604484015230606484015260c0608484015260c4830190611fa4565b3060a4830152039273ffffffffffffffffffffffffffffffffffffffff7f00000000000000000000000000000000000000000000000000000000000000001690f18015610de057612357575b50907ffbeedc61dc8a082697492e16f082b606938e5c1218378ddfcce4a9a6919a8eab926122ce6060604094013592611ee6565b91600a5f5260016020526122f2845f20543a0262ffffff60025460981c1602612662565b928382116123305750915073ffffffffffffffffffffffffffffffffffffffff905b16906123208282612635565b82519182526020820152a2600190565b612352908473ffffffffffffffffffffffffffffffffffffffff949303612635565b612314565b6040929192813d6040116123a5575b8161237360409383611727565b810103126102335780612387602092611ed1565b5001516bffffffffffffffffffffffff81160361023357905f61229a565b3d9150612366565b505050505f90565b7ff80dbaea000000000000000000000000000000000000000000000000000000005f5260045260245ffd5b50505050600190565b6123f6611d6d3683611c03565b91825f52600460205260405f205480156123e0576124209061241a60808501611ee6565b9061269d565b1561248857606061247c7f53a2aac879741c2cfff9934693789968b94f7fca7ac6e4f439fdd9e36309c31d9373ffffffffffffffffffffffffffffffffffffffff602094875f52600486525f6040812055169283910135612635565b604051908152a2600190565b5050505f90565b6004602073ffffffffffffffffffffffffffffffffffffffff5f5416604051928380927f12d43a510000000000000000000000000000000000000000000000000000000082525afa8015610de05773ffffffffffffffffffffffffffffffffffffffff915f91612504575b5016330361060557565b61251d915060203d60201161144f576114418183611727565b5f6124fa565b60405161262f8161260360208201946020865273ffffffffffffffffffffffffffffffffffffffff815116604084015273ffffffffffffffffffffffffffffffffffffffff60208201511660608401526bffffffffffffffffffffffff6040820151166080840152606081015160a084015273ffffffffffffffffffffffffffffffffffffffff60808201511660c084015260c06125d060a083015160e080870152610120860190611f5b565b9101517fffffffffffffffffffffffffffffffffffffffffffffffffffffffffffffffc084830301610100850152611fe7565b037fffffffffffffffffffffffffffffffffffffffffffffffffffffffffffffffe08101835282611727565b51902090565b90611dfc9173ffffffffffffffffffffffffffffffffffffffff63ffffffff60025460b01c169216612734565b5f908061266d575090565b600191507fffffffffffffffffffffffffffffffffffffffffffffffffffffffffffffffff629896809101040190565b90303314801561271e575b61270d5773ffffffffffffffffffffffffffffffffffffffff1633036106055763ffffffff60025460201c16014381116126e25750600190565b7f2a35a324000000000000000000000000000000000000000000000000000000005f5260045260245ffd5b5063ffffffff600254160143101590565b50335f52600360205260ff60405f2054166126a8565b91909182156127cb5782471061279b575f8093819373ffffffffffffffffffffffffffffffffffffffff83941690f161276b611a8b565b501561277357565b7fe293b56b000000000000000000000000000000000000000000000000000000005f5260045ffd5b82477fcf479181000000000000000000000000000000000000000000000000000000005f5260045260245260445ffd5b505050565b9061280d57508051156127e557805190602001fd5b7f1425ea42000000000000000000000000000000000000000000000000000000005f5260045ffd5b81511580612860575b61281e575090565b73ffffffffffffffffffffffffffffffffffffffff907f9996b315000000000000000000000000000000000000000000000000000000005f521660045260245ffd5b50803b1561281656fea164736f6c634300081a000a",
  "linkReferences": {},
  "deployedLinkReferences": {}
}