{
  "_format": "hh-sol-artifact-1",
  "contractName": "DirectExecutablePlugin",
  "sourceName": "contracts/plugins/DirectExecutablePlugin.sol",
  "abi": [
    {
      "inputs": [
        {
          "internalType": "contract Governable",
          "name": "_govImpl",
          "type": "address"
        },
        {
          "internalType": "contract IPUSD",
          "name": "_usd",
          "type": "address"
        },
        {
          "internalType": "contract IMarketManager",
          "name": "_marketManager",
          "type": "address"
        },
        {
          "internalType": "contract IWETHMinimum",
          "name": "_weth",
          "type": "address"
        }
      ],
      "stateMutability": "nonpayable",
      "type": "constructor"
    },
    {
      "inputs": [
        {
          "internalType": "address",
          "name": "account",
          "type": "address"
        }
      ],
      "name": "AddressInsufficientBalance",
      "type": "error"
    },
    {
      "inputs": [],
      "name": "FailedInnerCall",
      "type": "error"
    },
    {
      "inputs": [],
      "name": "Forbidden",
      "type": "error"
    },
    {
      "inputs": [
        {
          "internalType": "address",
          "name": "requiredCaller",
          "type": "address"
        }
      ],
      "name": "InvalidCaller",
      "type": "error"
    },
    {
      "inputs": [
        {
          "internalType": "uint256",
          "name": "balance",
          "type": "uint256"
        },
        {
          "internalType": "uint120",
          "name": "amount",
          "type": "uint120"
        },
        {
          "internalType": "uint120",
          "name": "cap",
          "type": "uint120"
        }
      ],
      "name": "PSMCapExceeded",
      "type": "error"
    },
    {
      "inputs": [
        {
          "internalType": "uint256",
          "name": "balance",
          "type": "uint256"
        },
        {
          "internalType": "uint128",
          "name": "amount",
          "type": "uint128"
        },
        {
          "internalType": "uint128",
          "name": "cap",
          "type": "uint128"
        }
      ],
      "name": "TooMuchRepaid",
      "type": "error"
    },
    {
      "anonymous": false,
      "inputs": [
        {
          "indexed": true,
          "internalType": "address",
          "name": "account",
          "type": "address"
        },
        {
          "indexed": false,
          "internalType": "bool",
          "name": "active",
          "type": "bool"
        }
      ],
      "name": "LiquidityBufferDebtPayerUpdated",
      "type": "event"
    },
    {
      "anonymous": false,
      "inputs": [
        {
          "indexed": true,
          "internalType": "address",
          "name": "account",
          "type": "address"
        },
        {
          "indexed": false,
          "internalType": "bool",
          "name": "active",
          "type": "bool"
        }
      ],
      "name": "PSMMinterUpdated",
      "type": "event"
    },
    {
      "inputs": [
        {
          "internalType": "contract Governable",
          "name": "_newGov",
          "type": "address"
        }
      ],
      "name": "_changeImpl",
      "outputs": [],
      "stateMutability": "nonpayable",
      "type": "function"
    },
    {
      "inputs": [],
      "name": "allowAnyoneRepayLiquidityBufferDebt",
      "outputs": [
        {
          "internalType": "bool",
          "name": "",
          "type": "bool"
        }
      ],
      "stateMutability": "view",
      "type": "function"
    },
    {
      "inputs": [],
      "name": "allowAnyoneUsePSM",
      "outputs": [
        {
          "internalType": "bool",
          "name": "",
          "type": "bool"
        }
      ],
      "stateMutability": "view",
      "type": "function"
    },
    {
      "inputs": [],
      "name": "gov",
      "outputs": [
        {
          "internalType": "address",
          "name": "",
          "type": "address"
        }
      ],
      "stateMutability": "view",
      "type": "function"
    },
    {
      "inputs": [
        {
          "internalType": "address",
          "name": "",
          "type": "address"
        }
      ],
      "name": "liquidityBufferDebtPayers",
      "outputs": [
        {
          "internalType": "bool",
          "name": "",
          "type": "bool"
        }
      ],
      "stateMutability": "view",
      "type": "function"
    },
    {
      "inputs": [],
      "name": "marketManager",
      "outputs": [
        {
          "internalType": "contract IMarketManager",
          "name": "",
          "type": "address"
        }
      ],
      "stateMutability": "view",
      "type": "function"
    },
    {
      "inputs": [
        {
          "internalType": "contract IERC20",
          "name": "_collateral",
          "type": "address"
        },
        {
          "internalType": "uint64",
          "name": "_amount",
          "type": "uint64"
        },
        {
          "internalType": "address",
          "name": "_receiver",
          "type": "address"
        },
        {
          "internalType": "bytes",
          "name": "_permitData",
          "type": "bytes"
        }
      ],
      "name": "psmBurnPUSD",
      "outputs": [
        {
          "internalType": "uint96",
          "name": "receiveAmount",
          "type": "uint96"
        }
      ],
      "stateMutability": "nonpayable",
      "type": "function"
    },
    {
      "inputs": [
        {
          "internalType": "contract IERC20",
          "name": "_collateral",
          "type": "address"
        },
        {
          "internalType": "uint120",
          "name": "_amount",
          "type": "uint120"
        },
        {
          "internalType": "address",
          "name": "_receiver",
          "type": "address"
        },
        {
          "internalType": "bytes",
          "name": "_permitData",
          "type": "bytes"
        }
      ],
      "name": "psmMintPUSD",
      "outputs": [
        {
          "internalType": "uint64",
          "name": "receiveAmount",
          "type": "uint64"
        }
      ],
      "stateMutability": "nonpayable",
      "type": "function"
    },
    {
      "inputs": [
        {
          "internalType": "address",
          "name": "",
          "type": "address"
        }
      ],
      "name": "psmMinters",
      "outputs": [
        {
          "internalType": "bool",
          "name": "",
          "type": "bool"
        }
      ],
      "stateMutability": "view",
      "type": "function"
    },
    {
      "inputs": [
        {
          "internalType": "contract IERC20",
          "name": "_market",
          "type": "address"
        },
        {
          "internalType": "uint128",
          "name": "_amount",
          "type": "uint128"
        },
        {
          "internalType": "address",
          "name": "_receiver",
          "type": "address"
        },
        {
          "internalType": "bytes",
          "name": "_permitData",
          "type": "bytes"
        }
      ],
      "name": "repayLiquidityBufferDebt",
      "outputs": [],
      "stateMutability": "nonpayable",
      "type": "function"
    },
    {
      "inputs": [
        {
          "internalType": "bool",
          "name": "_allowed",
          "type": "bool"
        }
      ],
      "name": "updateAllowAnyoneRepayLiquidityBufferDebt",
      "outputs": [],
      "stateMutability": "nonpayable",
      "type": "function"
    },
    {
      "inputs": [
        {
          "internalType": "bool",
          "name": "_allowed",
          "type": "bool"
        }
      ],
      "name": "updateAllowAnyoneUsePSM",
      "outputs": [],
      "stateMutability": "nonpayable",
      "type": "function"
    },
    {
      "inputs": [
        {
          "internalType": "address",
          "name": "_account",
          "type": "address"
        },
        {
          "internalType": "bool",
          "name": "_active",
          "type": "bool"
        }
      ],
      "name": "updateLiquidityBufferDebtPayer",
      "outputs": [],
      "stateMutability": "nonpayable",
      "type": "function"
    },
    {
      "inputs": [
        {
          "internalType": "address",
          "name": "_account",
          "type": "address"
        },
        {
          "internalType": "bool",
          "name": "_active",
          "type": "bool"
        }
      ],
      "name": "updatePSMMinters",
      "outputs": [],
      "stateMutability": "nonpayable",
      "type": "function"
    },
    {
      "inputs": [],
      "name": "usd",
      "outputs": [
        {
          "internalType": "contract IPUSD",
          "name": "",
          "type": "address"
        }
      ],
      "stateMutability": "view",
      "type": "function"
    },
    {
      "inputs": [],
      "name": "weth",
      "outputs": [
        {
          "internalType": "contract IWETHMinimum",
          "name": "",
          "type": "address"
        }
      ],
      "stateMutability": "view",
      "type": "function"
    },
    {
      "stateMutability": "payable",
      "type": "receive"
    }
  ],
  "bytecode": "0x60e03461010a57601f611c1b38819003918201601f19168301916001600160401b0383118484101761010e5780849260809460405283398101031261010a5780516001600160a01b038116919082900361010a576020810151916001600160a01b038316830361010a576040820151916001600160a01b038316830361010a5760600151906001600160a01b038216820361010a575f80546001600160a01b03191691909117905560c05260a052608052604051611af8908161012382396080518181816101d0015281816103d30152610710015260a0518181816102080152818161067b01528181610efe0152611383015260c05181818160310152818161080801526113f10152f35b5f80fd5b634e487b7160e01b5f52604160045260245ffdfe6080806040526004361015610085575b50361561001a575f80fd5b73ffffffffffffffffffffffffffffffffffffffff7f00000000000000000000000000000000000000000000000000000000000000001680330361005a57005b7fcbd9d2e0000000000000000000000000000000000000000000000000000000005f5260045260245ffd5b5f905f3560e01c90816312d43a511461147d5750806328d7b1ab146114155780633fc8cef3146113a757806341ed2c121461133957806349f6e1de146112b6578063553619d114610e4d5780635831dddf14610dd6578063586560e614610d645780635b0564ed14610cfc578063804ad86214610cb857806381f59629146105c857806397071f73146105875780639e7782f1146104c5578063a487c4bb146103f7578063d63a6ccd146103885763e6e530970361000f57346103855760807ffffffffffffffffffffffffffffffffffffffffffffffffffffffffffffffffc3601126103855761017461154a565b6024359067ffffffffffffffff82168092036103815761019261156d565b908360643567ffffffffffffffff811161034d576101b4903690600401611590565b909461023073ffffffffffffffffffffffffffffffffffffffff7f0000000000000000000000000000000000000000000000000000000000000000169273ffffffffffffffffffffffffffffffffffffffff7f000000000000000000000000000000000000000000000000000000000000000016978885611734565b853b1561038157604051917f1b82787800000000000000000000000000000000000000000000000000000000835260048301523360248301528560448301526064820152818160848183895af1801561035957610364575b506040517f1c98556800000000000000000000000000000000000000000000000000000000815273ffffffffffffffffffffffffffffffffffffffff92831660048201529290911660248301529091602091839160449183915af190811561035957829161030a575b6020826bffffffffffffffffffffffff60405191168152f35b90506020813d602011610351575b81610325602093836115dc565b8101031261034d57516bffffffffffffffffffffffff8116810361034d57602091505f6102f1565b5080fd5b3d9150610318565b6040513d84823e3d90fd5b81610371919493946115dc565b61037d5790835f610288565b8380fd5b8280fd5b80fd5b503461038557807ffffffffffffffffffffffffffffffffffffffffffffffffffffffffffffffffc36011261038557602060405173ffffffffffffffffffffffffffffffffffffffff7f0000000000000000000000000000000000000000000000000000000000000000168152f35b50346103855760407ffffffffffffffffffffffffffffffffffffffffffffffffffffffffffffffffc3601126103855761042f61154a565b7f22d98a3eb9bed1afdef2dfcf7f190328c8fbd4199c21faee4dafe31747ca4ba7602073ffffffffffffffffffffffffffffffffffffffff61046f6115cd565b936104786116a0565b1692838552600182526104b981604087209060ff7fffffffffffffffffffffffffffffffffffffffffffffffffffffffffffffff0083541691151516179055565b6040519015158152a280f35b50346103855760407ffffffffffffffffffffffffffffffffffffffffffffffffffffffffffffffffc360112610385576104fd61154a565b7f5d6d09f3315c58fb722763b0266f72b2523f74d19007105741a5bc3a90cca9e1602073ffffffffffffffffffffffffffffffffffffffff61053d6115cd565b936105466116a0565b1692838552600282526104b981604087209060ff7fffffffffffffffffffffffffffffffffffffffffffffffffffffffffffffff0083541691151516179055565b503461038557807ffffffffffffffffffffffffffffffffffffffffffffffffffffffffffffffffc36011261038557602060ff600354166040519015158152f35b50346103855760807ffffffffffffffffffffffffffffffffffffffffffffffffffffffffffffffffc3601126103855761060061154a565b90602435916fffffffffffffffffffffffffffffffff831680930361034d5761062761156d565b60643567ffffffffffffffff811161037d57610647903690600401611590565b92338552600260205260ff6040862054168015610cac575b15610c845773ffffffffffffffffffffffffffffffffffffffff7f00000000000000000000000000000000000000000000000000000000000000001691604051967f149941c900000000000000000000000000000000000000000000000000000000885273ffffffffffffffffffffffffffffffffffffffff8316958660048a0152604089602481885afa988915610c79578899610bda575b5073ffffffffffffffffffffffffffffffffffffffff7f000000000000000000000000000000000000000000000000000000000000000016926040517f70a08231000000000000000000000000000000000000000000000000000000008152866004820152602081602481885afa908115610bcf578a91610b99575b5083151580610b74575b610b2c575083929161079491878b989796611734565b833b15610b2857604051917f1b82787800000000000000000000000000000000000000000000000000000000835260048301523360248301528360448301526064820152838160848183875af1908115610b1d578491610b08575b505073ffffffffffffffffffffffffffffffffffffffff7f00000000000000000000000000000000000000000000000000000000000000001694851480610aff575b15610a5b576040517f0207b44e00000000000000000000000000000000000000000000000000000000815273ffffffffffffffffffffffffffffffffffffffff919091166004820152336024820152306044820152906020908290606490829086905af1908115610359578291610a21575b50833b1561034d57816fffffffffffffffffffffffffffffffff6024829360405194859384927f2e1a7d4d00000000000000000000000000000000000000000000000000000000845216988960048401525af1801561035957610a0c575b50508147106109e0578280809373ffffffffffffffffffffffffffffffffffffffff8294165af13d156109db573d67ffffffffffffffff81116109ae576040519061097460207fffffffffffffffffffffffffffffffffffffffffffffffffffffffffffffffe0601f84011601836115dc565b81528260203d92013e5b156109865780f35b807f1425ea420000000000000000000000000000000000000000000000000000000060049252fd5b6024837f4e487b710000000000000000000000000000000000000000000000000000000081526041600452fd5b61097e565b6024837fcd78605900000000000000000000000000000000000000000000000000000000815230600452fd5b81610a16916115dc565b610381578284610901565b90506020813d602011610a53575b81610a3c602093836115dc565b8101031261034d57610a4d90611649565b856108a3565b3d9150610a2f565b6040517f0207b44e00000000000000000000000000000000000000000000000000000000815273ffffffffffffffffffffffffffffffffffffffff91821660048201523360248201529316604484015291925060209183916064918391905af1801561035957610ac9575080f35b6020813d602011610af7575b81610ae2602093836115dc565b8101031261034d57610af390611649565b5080f35b3d9150610ad5565b50833b15610831565b81610b12916115dc565b6103815782876107ef565b6040513d86823e3d90fd5b8480fd5b89606491856fffffffffffffffffffffffffffffffff8e5116917fd6643587000000000000000000000000000000000000000000000000000000008452600452602452604452fd5b50610b7f8482611666565b6fffffffffffffffffffffffffffffffff8c51161061077e565b90506020813d602011610bc7575b81610bb4602093836115dc565b81010312610bc357515f610774565b5f80fd5b3d9150610ba7565b6040513d8c823e3d90fd5b9098506040813d604011610c71575b81610bf6604093836115dc565b81010312610c6d57604051906040820182811067ffffffffffffffff821117610c4057610c3491602091604052610c2c81611649565b845201611649565b6020820152975f6106f8565b60248a7f4e487b710000000000000000000000000000000000000000000000000000000081526041600452fd5b8780fd5b3d9150610be9565b6040513d8a823e3d90fd5b6004857fee90c468000000000000000000000000000000000000000000000000000000008152fd5b5060ff6003541661065f565b503461038557807ffffffffffffffffffffffffffffffffffffffffffffffffffffffffffffffffc36011261038557602060ff60035460081c166040519015158152f35b50346103855760207ffffffffffffffffffffffffffffffffffffffffffffffffffffffffffffffffc3601126103855760ff604060209273ffffffffffffffffffffffffffffffffffffffff610d5061154a565b168152600184522054166040519015158152f35b50346103855760207ffffffffffffffffffffffffffffffffffffffffffffffffffffffffffffffffc36011261038557610d9c6115be565b610da46116a0565b60ff7fffffffffffffffffffffffffffffffffffffffffffffffffffffffffffffff0060035416911515161760035580f35b50346103855760207ffffffffffffffffffffffffffffffffffffffffffffffffffffffffffffffffc36011261038557610e0e6115be565b610e166116a0565b7fffffffffffffffffffffffffffffffffffffffffffffffffffffffffffff00ff61ff0060035492151560081b1691161760035580f35b5034610bc35760807ffffffffffffffffffffffffffffffffffffffffffffffffffffffffffffffffc360112610bc357610e8561154a565b6024356effffffffffffffffffffffffffffff8116809103610bc357610ea961156d565b9160643567ffffffffffffffff8111610bc357610eca903690600401611590565b92335f52600160205260ff60405f20541680156112a7575b1561127f5773ffffffffffffffffffffffffffffffffffffffff7f00000000000000000000000000000000000000000000000000000000000000001693604051927fc1c7a4a600000000000000000000000000000000000000000000000000000000845273ffffffffffffffffffffffffffffffffffffffff8516938460048201526060816024818a5afa908115611119575f916111c2575b50604051907f70a08231000000000000000000000000000000000000000000000000000000008252876004830152602082602481895afa918215611119575f9261118e575b508415158061116a575b61112457505090610fdc918686611734565b833b15610bc357604051917f1b827878000000000000000000000000000000000000000000000000000000008352600483015233602483015283604483015260648201525f8160848183875af18015611119576110fa575b506040517f6095c51400000000000000000000000000000000000000000000000000000000815273ffffffffffffffffffffffffffffffffffffffff9182166004820152921660248301526020908290818581604481015b03925af19081156103595782916110b3575b60208267ffffffffffffffff60405191168152f35b90506020813d6020116110f2575b816110ce602093836115dc565b8101031261034d575167ffffffffffffffff8116810361034d57602091505f61109e565b3d91506110c1565b61108c939194509161110e5f6020946115dc565b5f9491935091611034565b6040513d5f823e3d90fd5b6effffffffffffffffffffffffffffff85915116917f02ec41ae000000000000000000000000000000000000000000000000000000005f5260045260245260445260645ffd5b506111758583611666565b6effffffffffffffffffffffffffffff82511610610fca565b9091506020813d6020116111ba575b816111aa602093836115dc565b81010312610bc35751905f610fc0565b3d915061119d565b90506060813d606011611277575b816111dd606093836115dc565b81010312610bc357604051906060820182811067ffffffffffffffff82111761124a5760405280516effffffffffffffffffffffffffffff81168103610bc3578252602081015160ff81168103610bc357602083015261123f90604001611649565b60408201525f610f7b565b7f4e487b71000000000000000000000000000000000000000000000000000000005f52604160045260245ffd5b3d91506111d0565b7fee90c468000000000000000000000000000000000000000000000000000000005f5260045ffd5b5060ff60035460081c16610ee2565b34610bc35760207ffffffffffffffffffffffffffffffffffffffffffffffffffffffffffffffffc360112610bc35760043573ffffffffffffffffffffffffffffffffffffffff8116809103610bc35761130e6116a0565b7fffffffffffffffffffffffff00000000000000000000000000000000000000005f5416175f555f80f35b34610bc3575f7ffffffffffffffffffffffffffffffffffffffffffffffffffffffffffffffffc360112610bc357602060405173ffffffffffffffffffffffffffffffffffffffff7f0000000000000000000000000000000000000000000000000000000000000000168152f35b34610bc3575f7ffffffffffffffffffffffffffffffffffffffffffffffffffffffffffffffffc360112610bc357602060405173ffffffffffffffffffffffffffffffffffffffff7f0000000000000000000000000000000000000000000000000000000000000000168152f35b34610bc35760207ffffffffffffffffffffffffffffffffffffffffffffffffffffffffffffffffc360112610bc35773ffffffffffffffffffffffffffffffffffffffff61146161154a565b165f526002602052602060ff60405f2054166040519015158152f35b34610bc3575f7ffffffffffffffffffffffffffffffffffffffffffffffffffffffffffffffffc360112610bc35760208160048173ffffffffffffffffffffffffffffffffffffffff5f54167f12d43a510000000000000000000000000000000000000000000000000000000082525afa8015611119576020915f9161151d575b5073ffffffffffffffffffffffffffffffffffffffff60405191168152f35b61153d9150823d8411611543575b61153581836115dc565b81019061161d565b826114fe565b503d61152b565b6004359073ffffffffffffffffffffffffffffffffffffffff82168203610bc357565b6044359073ffffffffffffffffffffffffffffffffffffffff82168203610bc357565b9181601f84011215610bc35782359167ffffffffffffffff8311610bc35760208381860195010111610bc357565b600435908115158203610bc357565b602435908115158203610bc357565b90601f7fffffffffffffffffffffffffffffffffffffffffffffffffffffffffffffffe0910116810190811067ffffffffffffffff82111761124a57604052565b90816020910312610bc3575173ffffffffffffffffffffffffffffffffffffffff81168103610bc35790565b51906fffffffffffffffffffffffffffffffff82168203610bc357565b9190820180921161167357565b7f4e487b71000000000000000000000000000000000000000000000000000000005f52601160045260245ffd5b6004602073ffffffffffffffffffffffffffffffffffffffff5f5416604051928380927f12d43a510000000000000000000000000000000000000000000000000000000082525afa80156111195773ffffffffffffffffffffffffffffffffffffffff915f91611715575b5016330361127f57565b61172e915060203d6020116115435761153581836115dc565b5f61170b565b908315611ae5575f93849360405192829081606414611a2e578160481461196b578160e0146119315781610100146118f557816060146117fa5750610160146117b0578185926004927f9fd5a6cf0000000000000000000000000000000000000000000000000000000086528386013701925af15b1561111957565b610164935061016091507f2b67b5700000000000000000000000000000000000000000000000000000000083526004830137826e22d473030f116ddee9f6b43ac78ba35af16117a9565b602093506040929150610164957f2b67b570000000000000000000000000000000000000000000000000000000008652336004870152602486015260148260508701377fffffffffffffffffffffffffffffffffffffffffffffffffffffffffffffffff601483013560e01c0165ffffffffffff166064860152601882013560e01c608486015260a48501527fffffffffffffffffffffffffffffffffffffffffffffffffffffffffffffffff601c82013560e01c0165ffffffffffff1660c485015261010060e4850152816101048501528280820161012486013701610144830137826e22d473030f116ddee9f6b43ac78ba35af16117a9565b505084915092610100610104947f8fcbaf0c00000000000000000000000000000000000000000000000000000000855260048501375af16117a9565b50508491509260e060e4947fd505accf00000000000000000000000000000000000000000000000000000000855260048501375af16117a9565b8693507f7fffffffffffffffffffffffffffffffffffffffffffffffffffffffffffffff91509161010495927f8fcbaf0c000000000000000000000000000000000000000000000000000000008652336004870152602486015260206008602883013592803560e01c60448901527fffffffffffffffffffffffffffffffffffffffffffffffffffffffffffffffff600482013560e01c016064890152600160848901528360ff1c601b0160a48901520160c48701371660e48401525af16117a9565b8693507f7fffffffffffffffffffffffffffffffffffffffffffffffffffffffffffffff91509160e495927fd505accf000000000000000000000000000000000000000000000000000000008652336004870152602486015260206024604483013592828160448a01377fffffffffffffffffffffffffffffffffffffffffffffffffffffffffffffffff8382013560e01c0160648901528360ff1c601b0160848901520160a48701371660c48401525af16117a9565b5050505056fea164736f6c634300081a000a",
  "linkReferences": {},
  "deployedLinkReferences": {}
}