{
  "_format": "hh-sol-artifact-1",
  "contractName": "DirectExecutablePlugin",
  "sourceName": "contracts/plugins/DirectExecutablePlugin.sol",
  "abi": [
    {
      "inputs": [
        {
          "internalType": "contract Governable",
          "name": "_govImpl",
          "type": "address"
        },
        {
          "internalType": "contract IMarketManager",
          "name": "_marketManager",
          "type": "address"
        },
        {
          "internalType": "contract IWETHMinimum",
          "name": "_weth",
          "type": "address"
        }
      ],
      "stateMutability": "nonpayable",
      "type": "constructor"
    },
    {
      "inputs": [
        {
          "internalType": "address",
          "name": "account",
          "type": "address"
        }
      ],
      "name": "AddressInsufficientBalance",
      "type": "error"
    },
    {
      "inputs": [],
      "name": "FailedInnerCall",
      "type": "error"
    },
    {
      "inputs": [],
      "name": "Forbidden",
      "type": "error"
    },
    {
      "inputs": [
        {
          "internalType": "address",
          "name": "requiredCaller",
          "type": "address"
        }
      ],
      "name": "InvalidCaller",
      "type": "error"
    },
    {
      "inputs": [
        {
          "internalType": "uint256",
          "name": "balance",
          "type": "uint256"
        },
        {
          "internalType": "uint120",
          "name": "amount",
          "type": "uint120"
        },
        {
          "internalType": "uint120",
          "name": "cap",
          "type": "uint120"
        }
      ],
      "name": "PSMCapExceeded",
      "type": "error"
    },
    {
      "inputs": [
        {
          "internalType": "uint256",
          "name": "balance",
          "type": "uint256"
        },
        {
          "internalType": "uint128",
          "name": "amount",
          "type": "uint128"
        },
        {
          "internalType": "uint128",
          "name": "cap",
          "type": "uint128"
        }
      ],
      "name": "TooMuchRepaid",
      "type": "error"
    },
    {
      "anonymous": false,
      "inputs": [
        {
          "indexed": true,
          "internalType": "address",
          "name": "account",
          "type": "address"
        },
        {
          "indexed": false,
          "internalType": "bool",
          "name": "active",
          "type": "bool"
        }
      ],
      "name": "LiquidityBufferDebtPayerUpdated",
      "type": "event"
    },
    {
      "anonymous": false,
      "inputs": [
        {
          "indexed": true,
          "internalType": "address",
          "name": "account",
          "type": "address"
        },
        {
          "indexed": false,
          "internalType": "bool",
          "name": "active",
          "type": "bool"
        }
      ],
      "name": "PSMMinterUpdated",
      "type": "event"
    },
    {
      "inputs": [
        {
          "internalType": "contract Governable",
          "name": "_newGov",
          "type": "address"
        }
      ],
      "name": "_changeImpl",
      "outputs": [],
      "stateMutability": "nonpayable",
      "type": "function"
    },
    {
      "inputs": [],
      "name": "allowAnyoneRepayLiquidityBufferDebt",
      "outputs": [
        {
          "internalType": "bool",
          "name": "",
          "type": "bool"
        }
      ],
      "stateMutability": "view",
      "type": "function"
    },
    {
      "inputs": [],
      "name": "allowAnyoneUsePSM",
      "outputs": [
        {
          "internalType": "bool",
          "name": "",
          "type": "bool"
        }
      ],
      "stateMutability": "view",
      "type": "function"
    },
    {
      "inputs": [],
      "name": "gov",
      "outputs": [
        {
          "internalType": "address",
          "name": "",
          "type": "address"
        }
      ],
      "stateMutability": "view",
      "type": "function"
    },
    {
      "inputs": [
        {
          "internalType": "address",
          "name": "",
          "type": "address"
        }
      ],
      "name": "liquidityBufferDebtPayers",
      "outputs": [
        {
          "internalType": "bool",
          "name": "",
          "type": "bool"
        }
      ],
      "stateMutability": "view",
      "type": "function"
    },
    {
      "inputs": [],
      "name": "marketManager",
      "outputs": [
        {
          "internalType": "contract IMarketManager",
          "name": "",
          "type": "address"
        }
      ],
      "stateMutability": "view",
      "type": "function"
    },
    {
      "inputs": [
        {
          "internalType": "contract IERC20",
          "name": "_collateral",
          "type": "address"
        },
        {
          "internalType": "uint64",
          "name": "_amount",
          "type": "uint64"
        },
        {
          "internalType": "address",
          "name": "_receiver",
          "type": "address"
        },
        {
          "internalType": "bytes",
          "name": "_permitData",
          "type": "bytes"
        }
      ],
      "name": "psmBurnPUSD",
      "outputs": [
        {
          "internalType": "uint96",
          "name": "receiveAmount",
          "type": "uint96"
        }
      ],
      "stateMutability": "nonpayable",
      "type": "function"
    },
    {
      "inputs": [
        {
          "internalType": "contract IERC20",
          "name": "_collateral",
          "type": "address"
        },
        {
          "internalType": "uint120",
          "name": "_amount",
          "type": "uint120"
        },
        {
          "internalType": "address",
          "name": "_receiver",
          "type": "address"
        },
        {
          "internalType": "bytes",
          "name": "_permitData",
          "type": "bytes"
        }
      ],
      "name": "psmMintPUSD",
      "outputs": [
        {
          "internalType": "uint64",
          "name": "receiveAmount",
          "type": "uint64"
        }
      ],
      "stateMutability": "nonpayable",
      "type": "function"
    },
    {
      "inputs": [
        {
          "internalType": "address",
          "name": "",
          "type": "address"
        }
      ],
      "name": "psmMinters",
      "outputs": [
        {
          "internalType": "bool",
          "name": "",
          "type": "bool"
        }
      ],
      "stateMutability": "view",
      "type": "function"
    },
    {
      "inputs": [
        {
          "internalType": "contract IERC20",
          "name": "_market",
          "type": "address"
        },
        {
          "internalType": "uint128",
          "name": "_amount",
          "type": "uint128"
        },
        {
          "internalType": "address",
          "name": "_receiver",
          "type": "address"
        },
        {
          "internalType": "bytes",
          "name": "_permitData",
          "type": "bytes"
        }
      ],
      "name": "repayLiquidityBufferDebt",
      "outputs": [],
      "stateMutability": "nonpayable",
      "type": "function"
    },
    {
      "inputs": [
        {
          "internalType": "bool",
          "name": "_allowed",
          "type": "bool"
        }
      ],
      "name": "updateAllowAnyoneRepayLiquidityBufferDebt",
      "outputs": [],
      "stateMutability": "nonpayable",
      "type": "function"
    },
    {
      "inputs": [
        {
          "internalType": "bool",
          "name": "_allowed",
          "type": "bool"
        }
      ],
      "name": "updateAllowAnyoneUsePSM",
      "outputs": [],
      "stateMutability": "nonpayable",
      "type": "function"
    },
    {
      "inputs": [
        {
          "internalType": "address",
          "name": "_account",
          "type": "address"
        },
        {
          "internalType": "bool",
          "name": "_active",
          "type": "bool"
        }
      ],
      "name": "updateLiquidityBufferDebtPayer",
      "outputs": [],
      "stateMutability": "nonpayable",
      "type": "function"
    },
    {
      "inputs": [
        {
          "internalType": "address",
          "name": "_account",
          "type": "address"
        },
        {
          "internalType": "bool",
          "name": "_active",
          "type": "bool"
        }
      ],
      "name": "updatePSMMinters",
      "outputs": [],
      "stateMutability": "nonpayable",
      "type": "function"
    },
    {
      "inputs": [],
      "name": "weth",
      "outputs": [
        {
          "internalType": "contract IWETHMinimum",
          "name": "",
          "type": "address"
        }
      ],
      "stateMutability": "view",
      "type": "function"
    },
    {
      "stateMutability": "payable",
      "type": "receive"
    }
  ],
  "bytecode": "0x60c0346100d957601f611ba138819003918201601f19168301916001600160401b038311848410176100dd578084926060946040528339810103126100d95780516001600160a01b038116908190036100d9576020820151916001600160a01b03831683036100d95760400151906001600160a01b03821682036100d9575f80546001600160a01b03191691909117905560a052608052604051611aaf90816100f282396080518181816101c4015281816105ea01528181610e5501526112da015260a05181818160310152818161075f01526113480152f35b5f80fd5b634e487b7160e01b5f52604160045260245ffdfe6080806040526004361015610085575b50361561001a575f80fd5b73ffffffffffffffffffffffffffffffffffffffff7f00000000000000000000000000000000000000000000000000000000000000001680330361005a57005b7fcbd9d2e0000000000000000000000000000000000000000000000000000000005f5260045260245ffd5b5f905f3560e01c90816312d43a51146113d45750806328d7b1ab1461136c5780633fc8cef3146112fe57806341ed2c121461129057806349f6e1de1461120d578063553619d114610da45780635831dddf14610d2d578063586560e614610cbb5780635b0564ed14610c53578063804ad86214610c0f57806381f596291461053557806397071f73146104f45780639e7782f114610432578063a487c4bb146103645763e6e530970361000f57346103615760807ffffffffffffffffffffffffffffffffffffffffffffffffffffffffffffffffc360112610361576101696114a1565b6024359067ffffffffffffffff821680920361035d576101876114c4565b908360643567ffffffffffffffff8111610329576101a99036906004016114e7565b9461020c73ffffffffffffffffffffffffffffffffffffffff7f0000000000000000000000000000000000000000000000000000000000000000169673ffffffffffffffffffffffffffffffffffffffff61020389611a42565b1693888561168b565b853b1561035d57604051917f1b82787800000000000000000000000000000000000000000000000000000000835260048301523360248301528560448301526064820152818160848183895af1801561033557610340575b506040517f1c98556800000000000000000000000000000000000000000000000000000000815273ffffffffffffffffffffffffffffffffffffffff92831660048201529290911660248301529091602091839160449183915af19081156103355782916102e6575b6020826bffffffffffffffffffffffff60405191168152f35b90506020813d60201161032d575b8161030160209383611533565b8101031261032957516bffffffffffffffffffffffff8116810361032957602091505f6102cd565b5080fd5b3d91506102f4565b6040513d84823e3d90fd5b8161034d91949394611533565b6103595790835f610264565b8380fd5b8280fd5b80fd5b50346103615760407ffffffffffffffffffffffffffffffffffffffffffffffffffffffffffffffffc3601126103615761039c6114a1565b7f22d98a3eb9bed1afdef2dfcf7f190328c8fbd4199c21faee4dafe31747ca4ba7602073ffffffffffffffffffffffffffffffffffffffff6103dc611524565b936103e56115f7565b16928385526001825261042681604087209060ff7fffffffffffffffffffffffffffffffffffffffffffffffffffffffffffffff0083541691151516179055565b6040519015158152a280f35b50346103615760407ffffffffffffffffffffffffffffffffffffffffffffffffffffffffffffffffc3601126103615761046a6114a1565b7f5d6d09f3315c58fb722763b0266f72b2523f74d19007105741a5bc3a90cca9e1602073ffffffffffffffffffffffffffffffffffffffff6104aa611524565b936104b36115f7565b16928385526002825261042681604087209060ff7fffffffffffffffffffffffffffffffffffffffffffffffffffffffffffffff0083541691151516179055565b503461036157807ffffffffffffffffffffffffffffffffffffffffffffffffffffffffffffffffc36011261036157602060ff600354166040519015158152f35b50346103615760807ffffffffffffffffffffffffffffffffffffffffffffffffffffffffffffffffc3601126103615761056d6114a1565b90602435916fffffffffffffffffffffffffffffffff8316809303610329576105946114c4565b60643567ffffffffffffffff8111610359576105b49036906004016114e7565b949092338552600260205260ff6040862054168015610c03575b15610bdb5773ffffffffffffffffffffffffffffffffffffffff7f0000000000000000000000000000000000000000000000000000000000000000169173ffffffffffffffffffffffffffffffffffffffff61062984611a42565b1690604051977f149941c900000000000000000000000000000000000000000000000000000000895273ffffffffffffffffffffffffffffffffffffffff8416968760048b015260408a602481895afa998a15610bd057899a610b31575b506040517f70a08231000000000000000000000000000000000000000000000000000000008152866004820152602081602481885afa908115610b26578a91610af0575b5083151580610acb575b610a8357508392916106eb91878b98979661168b565b833b15610a7f57604051917f1b82787800000000000000000000000000000000000000000000000000000000835260048301523360248301528360448301526064820152838160848183875af1908115610a74578491610a5f575b505073ffffffffffffffffffffffffffffffffffffffff7f00000000000000000000000000000000000000000000000000000000000000001694851480610a56575b156109b2576040517f0207b44e00000000000000000000000000000000000000000000000000000000815273ffffffffffffffffffffffffffffffffffffffff919091166004820152336024820152306044820152906020908290606490829086905af1908115610335578291610978575b50833b1561032957816fffffffffffffffffffffffffffffffff6024829360405194859384927f2e1a7d4d00000000000000000000000000000000000000000000000000000000845216988960048401525af1801561033557610963575b5050814710610937578280809373ffffffffffffffffffffffffffffffffffffffff8294165af13d15610932573d67ffffffffffffffff811161090557604051906108cb60207fffffffffffffffffffffffffffffffffffffffffffffffffffffffffffffffe0601f8401160183611533565b81528260203d92013e5b156108dd5780f35b807f1425ea420000000000000000000000000000000000000000000000000000000060049252fd5b6024837f4e487b710000000000000000000000000000000000000000000000000000000081526041600452fd5b6108d5565b6024837fcd78605900000000000000000000000000000000000000000000000000000000815230600452fd5b8161096d91611533565b61035d578284610858565b90506020813d6020116109aa575b8161099360209383611533565b81010312610329576109a4906115a0565b856107fa565b3d9150610986565b6040517f0207b44e00000000000000000000000000000000000000000000000000000000815273ffffffffffffffffffffffffffffffffffffffff91821660048201523360248201529316604484015291925060209183916064918391905af1801561033557610a20575080f35b6020813d602011610a4e575b81610a3960209383611533565b8101031261032957610a4a906115a0565b5080f35b3d9150610a2c565b50833b15610788565b81610a6991611533565b61035d578287610746565b6040513d86823e3d90fd5b8480fd5b89606491856fffffffffffffffffffffffffffffffff8e5116917fd6643587000000000000000000000000000000000000000000000000000000008452600452602452604452fd5b50610ad684826115bd565b6fffffffffffffffffffffffffffffffff8c5116106106d5565b90506020813d602011610b1e575b81610b0b60209383611533565b81010312610b1a57515f6106cb565b5f80fd5b3d9150610afe565b6040513d8c823e3d90fd5b9099506040813d604011610bc8575b81610b4d60409383611533565b81010312610bc457604051906040820182811067ffffffffffffffff821117610b9757610b8b91602091604052610b83816115a0565b8452016115a0565b6020820152985f610687565b60248b7f4e487b710000000000000000000000000000000000000000000000000000000081526041600452fd5b8880fd5b3d9150610b40565b6040513d8b823e3d90fd5b6004857fee90c468000000000000000000000000000000000000000000000000000000008152fd5b5060ff600354166105ce565b503461036157807ffffffffffffffffffffffffffffffffffffffffffffffffffffffffffffffffc36011261036157602060ff60035460081c166040519015158152f35b50346103615760207ffffffffffffffffffffffffffffffffffffffffffffffffffffffffffffffffc3601126103615760ff604060209273ffffffffffffffffffffffffffffffffffffffff610ca76114a1565b168152600184522054166040519015158152f35b50346103615760207ffffffffffffffffffffffffffffffffffffffffffffffffffffffffffffffffc36011261036157610cf3611515565b610cfb6115f7565b60ff7fffffffffffffffffffffffffffffffffffffffffffffffffffffffffffffff0060035416911515161760035580f35b50346103615760207ffffffffffffffffffffffffffffffffffffffffffffffffffffffffffffffffc36011261036157610d65611515565b610d6d6115f7565b7fffffffffffffffffffffffffffffffffffffffffffffffffffffffffffff00ff61ff0060035492151560081b1691161760035580f35b5034610b1a5760807ffffffffffffffffffffffffffffffffffffffffffffffffffffffffffffffffc360112610b1a57610ddc6114a1565b6024356effffffffffffffffffffffffffffff8116809103610b1a57610e006114c4565b9160643567ffffffffffffffff8111610b1a57610e219036906004016114e7565b92335f52600160205260ff60405f20541680156111fe575b156111d65773ffffffffffffffffffffffffffffffffffffffff7f00000000000000000000000000000000000000000000000000000000000000001693604051927fc1c7a4a600000000000000000000000000000000000000000000000000000000845273ffffffffffffffffffffffffffffffffffffffff8516938460048201526060816024818a5afa908115611070575f91611119575b50604051907f70a08231000000000000000000000000000000000000000000000000000000008252876004830152602082602481895afa918215611070575f926110e5575b50841515806110c1575b61107b57505090610f3391868661168b565b833b15610b1a57604051917f1b827878000000000000000000000000000000000000000000000000000000008352600483015233602483015283604483015260648201525f8160848183875af1801561107057611051575b506040517f6095c51400000000000000000000000000000000000000000000000000000000815273ffffffffffffffffffffffffffffffffffffffff9182166004820152921660248301526020908290818581604481015b03925af190811561033557829161100a575b60208267ffffffffffffffff60405191168152f35b90506020813d602011611049575b8161102560209383611533565b81010312610329575167ffffffffffffffff8116810361032957602091505f610ff5565b3d9150611018565b610fe393919450916110655f602094611533565b5f9491935091610f8b565b6040513d5f823e3d90fd5b6effffffffffffffffffffffffffffff85915116917f02ec41ae000000000000000000000000000000000000000000000000000000005f5260045260245260445260645ffd5b506110cc85836115bd565b6effffffffffffffffffffffffffffff82511610610f21565b9091506020813d602011611111575b8161110160209383611533565b81010312610b1a5751905f610f17565b3d91506110f4565b90506060813d6060116111ce575b8161113460609383611533565b81010312610b1a57604051906060820182811067ffffffffffffffff8211176111a15760405280516effffffffffffffffffffffffffffff81168103610b1a578252602081015160ff81168103610b1a576020830152611196906040016115a0565b60408201525f610ed2565b7f4e487b71000000000000000000000000000000000000000000000000000000005f52604160045260245ffd5b3d9150611127565b7fee90c468000000000000000000000000000000000000000000000000000000005f5260045ffd5b5060ff60035460081c16610e39565b34610b1a5760207ffffffffffffffffffffffffffffffffffffffffffffffffffffffffffffffffc360112610b1a5760043573ffffffffffffffffffffffffffffffffffffffff8116809103610b1a576112656115f7565b7fffffffffffffffffffffffff00000000000000000000000000000000000000005f5416175f555f80f35b34610b1a575f7ffffffffffffffffffffffffffffffffffffffffffffffffffffffffffffffffc360112610b1a57602060405173ffffffffffffffffffffffffffffffffffffffff7f0000000000000000000000000000000000000000000000000000000000000000168152f35b34610b1a575f7ffffffffffffffffffffffffffffffffffffffffffffffffffffffffffffffffc360112610b1a57602060405173ffffffffffffffffffffffffffffffffffffffff7f0000000000000000000000000000000000000000000000000000000000000000168152f35b34610b1a5760207ffffffffffffffffffffffffffffffffffffffffffffffffffffffffffffffffc360112610b1a5773ffffffffffffffffffffffffffffffffffffffff6113b86114a1565b165f526002602052602060ff60405f2054166040519015158152f35b34610b1a575f7ffffffffffffffffffffffffffffffffffffffffffffffffffffffffffffffffc360112610b1a5760208160048173ffffffffffffffffffffffffffffffffffffffff5f54167f12d43a510000000000000000000000000000000000000000000000000000000082525afa8015611070576020915f91611474575b5073ffffffffffffffffffffffffffffffffffffffff60405191168152f35b6114949150823d841161149a575b61148c8183611533565b810190611574565b82611455565b503d611482565b6004359073ffffffffffffffffffffffffffffffffffffffff82168203610b1a57565b6044359073ffffffffffffffffffffffffffffffffffffffff82168203610b1a57565b9181601f84011215610b1a5782359167ffffffffffffffff8311610b1a5760208381860195010111610b1a57565b600435908115158203610b1a57565b602435908115158203610b1a57565b90601f7fffffffffffffffffffffffffffffffffffffffffffffffffffffffffffffffe0910116810190811067ffffffffffffffff8211176111a157604052565b90816020910312610b1a575173ffffffffffffffffffffffffffffffffffffffff81168103610b1a5790565b51906fffffffffffffffffffffffffffffffff82168203610b1a57565b919082018092116115ca57565b7f4e487b71000000000000000000000000000000000000000000000000000000005f52601160045260245ffd5b6004602073ffffffffffffffffffffffffffffffffffffffff5f5416604051928380927f12d43a510000000000000000000000000000000000000000000000000000000082525afa80156110705773ffffffffffffffffffffffffffffffffffffffff915f9161166c575b501633036111d657565b611685915060203d60201161149a5761148c8183611533565b5f611662565b908315611a3c575f9384936040519282908160641461198557816048146118c2578160e01461188857816101001461184c5781606014611751575061016014611707578185926004927f9fd5a6cf0000000000000000000000000000000000000000000000000000000086528386013701925af15b1561107057565b610164935061016091507f2b67b5700000000000000000000000000000000000000000000000000000000083526004830137826e22d473030f116ddee9f6b43ac78ba35af1611700565b602093506040929150610164957f2b67b570000000000000000000000000000000000000000000000000000000008652336004870152602486015260148260508701377fffffffffffffffffffffffffffffffffffffffffffffffffffffffffffffffff601483013560e01c0165ffffffffffff166064860152601882013560e01c608486015260a48501527fffffffffffffffffffffffffffffffffffffffffffffffffffffffffffffffff601c82013560e01c0165ffffffffffff1660c485015261010060e4850152816101048501528280820161012486013701610144830137826e22d473030f116ddee9f6b43ac78ba35af1611700565b505084915092610100610104947f8fcbaf0c00000000000000000000000000000000000000000000000000000000855260048501375af1611700565b50508491509260e060e4947fd505accf00000000000000000000000000000000000000000000000000000000855260048501375af1611700565b8693507f7fffffffffffffffffffffffffffffffffffffffffffffffffffffffffffffff91509161010495927f8fcbaf0c000000000000000000000000000000000000000000000000000000008652336004870152602486015260206008602883013592803560e01c60448901527fffffffffffffffffffffffffffffffffffffffffffffffffffffffffffffffff600482013560e01c016064890152600160848901528360ff1c601b0160a48901520160c48701371660e48401525af1611700565b8693507f7fffffffffffffffffffffffffffffffffffffffffffffffffffffffffffffff91509160e495927fd505accf000000000000000000000000000000000000000000000000000000008652336004870152602486015260206024604483013592828160448a01377fffffffffffffffffffffffffffffffffffffffffffffffffffffffffffffffff8382013560e01c0160648901528360ff1c601b0160848901520160a48701371660c48401525af1611700565b50505050565b600b605591604051907f833a3129a7c49096ba2bc346ab64e2bbec674f4181bf8e6dedfa83aea7fb0fec60408301527f19e0e5e01a085dfed6202468dbe0a147fedc8ede0e01cde25a7e0cb754329740602083015281520160ff8153209056fea164736f6c634300081a000a",
  "linkReferences": {},
  "deployedLinkReferences": {}
}