{
  "_format": "hh-sol-artifact-1",
  "contractName": "PurecashTimelockController",
  "sourceName": "contracts/governance/PurecashTimelockController.sol",
  "abi": [
    {
      "inputs": [
        {
          "internalType": "uint256",
          "name": "minDelay",
          "type": "uint256"
        },
        {
          "internalType": "address[]",
          "name": "proposers",
          "type": "address[]"
        },
        {
          "internalType": "address[]",
          "name": "executors",
          "type": "address[]"
        },
        {
          "internalType": "address",
          "name": "admin",
          "type": "address"
        }
      ],
      "stateMutability": "nonpayable",
      "type": "constructor"
    },
    {
      "inputs": [],
      "name": "AccessControlBadConfirmation",
      "type": "error"
    },
    {
      "inputs": [
        {
          "internalType": "address",
          "name": "account",
          "type": "address"
        },
        {
          "internalType": "bytes32",
          "name": "neededRole",
          "type": "bytes32"
        }
      ],
      "name": "AccessControlUnauthorizedAccount",
      "type": "error"
    },
    {
      "inputs": [],
      "name": "FailedInnerCall",
      "type": "error"
    },
    {
      "inputs": [
        {
          "internalType": "uint256",
          "name": "delay",
          "type": "uint256"
        },
        {
          "internalType": "uint256",
          "name": "minDelay",
          "type": "uint256"
        }
      ],
      "name": "TimelockInsufficientDelay",
      "type": "error"
    },
    {
      "inputs": [
        {
          "internalType": "uint256",
          "name": "targets",
          "type": "uint256"
        },
        {
          "internalType": "uint256",
          "name": "payloads",
          "type": "uint256"
        },
        {
          "internalType": "uint256",
          "name": "values",
          "type": "uint256"
        }
      ],
      "name": "TimelockInvalidOperationLength",
      "type": "error"
    },
    {
      "inputs": [
        {
          "internalType": "address",
          "name": "caller",
          "type": "address"
        }
      ],
      "name": "TimelockUnauthorizedCaller",
      "type": "error"
    },
    {
      "inputs": [
        {
          "internalType": "bytes32",
          "name": "predecessorId",
          "type": "bytes32"
        }
      ],
      "name": "TimelockUnexecutedPredecessor",
      "type": "error"
    },
    {
      "inputs": [
        {
          "internalType": "bytes32",
          "name": "operationId",
          "type": "bytes32"
        },
        {
          "internalType": "bytes32",
          "name": "expectedStates",
          "type": "bytes32"
        }
      ],
      "name": "TimelockUnexpectedOperationState",
      "type": "error"
    },
    {
      "anonymous": false,
      "inputs": [
        {
          "indexed": true,
          "internalType": "bytes32",
          "name": "id",
          "type": "bytes32"
        },
        {
          "indexed": true,
          "internalType": "uint256",
          "name": "index",
          "type": "uint256"
        },
        {
          "indexed": false,
          "internalType": "address",
          "name": "target",
          "type": "address"
        },
        {
          "indexed": false,
          "internalType": "uint256",
          "name": "value",
          "type": "uint256"
        },
        {
          "indexed": false,
          "internalType": "bytes",
          "name": "data",
          "type": "bytes"
        }
      ],
      "name": "CallExecuted",
      "type": "event"
    },
    {
      "anonymous": false,
      "inputs": [
        {
          "indexed": true,
          "internalType": "bytes32",
          "name": "id",
          "type": "bytes32"
        },
        {
          "indexed": false,
          "internalType": "bytes32",
          "name": "salt",
          "type": "bytes32"
        }
      ],
      "name": "CallSalt",
      "type": "event"
    },
    {
      "anonymous": false,
      "inputs": [
        {
          "indexed": true,
          "internalType": "bytes32",
          "name": "id",
          "type": "bytes32"
        },
        {
          "indexed": true,
          "internalType": "uint256",
          "name": "index",
          "type": "uint256"
        },
        {
          "indexed": false,
          "internalType": "address",
          "name": "target",
          "type": "address"
        },
        {
          "indexed": false,
          "internalType": "uint256",
          "name": "value",
          "type": "uint256"
        },
        {
          "indexed": false,
          "internalType": "bytes",
          "name": "data",
          "type": "bytes"
        },
        {
          "indexed": false,
          "internalType": "bytes32",
          "name": "predecessor",
          "type": "bytes32"
        },
        {
          "indexed": false,
          "internalType": "uint256",
          "name": "delay",
          "type": "uint256"
        }
      ],
      "name": "CallScheduled",
      "type": "event"
    },
    {
      "anonymous": false,
      "inputs": [
        {
          "indexed": true,
          "internalType": "bytes32",
          "name": "id",
          "type": "bytes32"
        }
      ],
      "name": "Cancelled",
      "type": "event"
    },
    {
      "anonymous": false,
      "inputs": [
        {
          "indexed": false,
          "internalType": "uint256",
          "name": "oldDuration",
          "type": "uint256"
        },
        {
          "indexed": false,
          "internalType": "uint256",
          "name": "newDuration",
          "type": "uint256"
        }
      ],
      "name": "MinDelayChange",
      "type": "event"
    },
    {
      "anonymous": false,
      "inputs": [
        {
          "indexed": true,
          "internalType": "bytes32",
          "name": "role",
          "type": "bytes32"
        },
        {
          "indexed": true,
          "internalType": "bytes32",
          "name": "previousAdminRole",
          "type": "bytes32"
        },
        {
          "indexed": true,
          "internalType": "bytes32",
          "name": "newAdminRole",
          "type": "bytes32"
        }
      ],
      "name": "RoleAdminChanged",
      "type": "event"
    },
    {
      "anonymous": false,
      "inputs": [
        {
          "indexed": true,
          "internalType": "bytes32",
          "name": "role",
          "type": "bytes32"
        },
        {
          "indexed": true,
          "internalType": "address",
          "name": "account",
          "type": "address"
        },
        {
          "indexed": true,
          "internalType": "address",
          "name": "sender",
          "type": "address"
        }
      ],
      "name": "RoleGranted",
      "type": "event"
    },
    {
      "anonymous": false,
      "inputs": [
        {
          "indexed": true,
          "internalType": "bytes32",
          "name": "role",
          "type": "bytes32"
        },
        {
          "indexed": true,
          "internalType": "address",
          "name": "account",
          "type": "address"
        },
        {
          "indexed": true,
          "internalType": "address",
          "name": "sender",
          "type": "address"
        }
      ],
      "name": "RoleRevoked",
      "type": "event"
    },
    {
      "inputs": [],
      "name": "CANCELLER_ROLE",
      "outputs": [
        {
          "internalType": "bytes32",
          "name": "",
          "type": "bytes32"
        }
      ],
      "stateMutability": "view",
      "type": "function"
    },
    {
      "inputs": [],
      "name": "DEFAULT_ADMIN_ROLE",
      "outputs": [
        {
          "internalType": "bytes32",
          "name": "",
          "type": "bytes32"
        }
      ],
      "stateMutability": "view",
      "type": "function"
    },
    {
      "inputs": [],
      "name": "EXECUTOR_ROLE",
      "outputs": [
        {
          "internalType": "bytes32",
          "name": "",
          "type": "bytes32"
        }
      ],
      "stateMutability": "view",
      "type": "function"
    },
    {
      "inputs": [],
      "name": "PROPOSER_ROLE",
      "outputs": [
        {
          "internalType": "bytes32",
          "name": "",
          "type": "bytes32"
        }
      ],
      "stateMutability": "view",
      "type": "function"
    },
    {
      "inputs": [
        {
          "internalType": "contract Governable",
          "name": "target",
          "type": "address"
        }
      ],
      "name": "acceptGov",
      "outputs": [],
      "stateMutability": "nonpayable",
      "type": "function"
    },
    {
      "inputs": [
        {
          "internalType": "bytes32",
          "name": "id",
          "type": "bytes32"
        }
      ],
      "name": "cancel",
      "outputs": [],
      "stateMutability": "nonpayable",
      "type": "function"
    },
    {
      "inputs": [
        {
          "internalType": "address",
          "name": "target",
          "type": "address"
        },
        {
          "internalType": "uint256",
          "name": "value",
          "type": "uint256"
        },
        {
          "internalType": "bytes",
          "name": "payload",
          "type": "bytes"
        },
        {
          "internalType": "bytes32",
          "name": "predecessor",
          "type": "bytes32"
        },
        {
          "internalType": "bytes32",
          "name": "salt",
          "type": "bytes32"
        }
      ],
      "name": "execute",
      "outputs": [],
      "stateMutability": "payable",
      "type": "function"
    },
    {
      "inputs": [
        {
          "internalType": "address[]",
          "name": "targets",
          "type": "address[]"
        },
        {
          "internalType": "uint256[]",
          "name": "values",
          "type": "uint256[]"
        },
        {
          "internalType": "bytes[]",
          "name": "payloads",
          "type": "bytes[]"
        },
        {
          "internalType": "bytes32",
          "name": "predecessor",
          "type": "bytes32"
        },
        {
          "internalType": "bytes32",
          "name": "salt",
          "type": "bytes32"
        }
      ],
      "name": "executeBatch",
      "outputs": [],
      "stateMutability": "payable",
      "type": "function"
    },
    {
      "inputs": [],
      "name": "getMinDelay",
      "outputs": [
        {
          "internalType": "uint256",
          "name": "",
          "type": "uint256"
        }
      ],
      "stateMutability": "view",
      "type": "function"
    },
    {
      "inputs": [
        {
          "internalType": "bytes32",
          "name": "id",
          "type": "bytes32"
        }
      ],
      "name": "getOperationState",
      "outputs": [
        {
          "internalType": "enum TimelockController.OperationState",
          "name": "",
          "type": "uint8"
        }
      ],
      "stateMutability": "view",
      "type": "function"
    },
    {
      "inputs": [
        {
          "internalType": "bytes32",
          "name": "role",
          "type": "bytes32"
        }
      ],
      "name": "getRoleAdmin",
      "outputs": [
        {
          "internalType": "bytes32",
          "name": "",
          "type": "bytes32"
        }
      ],
      "stateMutability": "view",
      "type": "function"
    },
    {
      "inputs": [
        {
          "internalType": "bytes32",
          "name": "id",
          "type": "bytes32"
        }
      ],
      "name": "getTimestamp",
      "outputs": [
        {
          "internalType": "uint256",
          "name": "",
          "type": "uint256"
        }
      ],
      "stateMutability": "view",
      "type": "function"
    },
    {
      "inputs": [
        {
          "internalType": "bytes32",
          "name": "role",
          "type": "bytes32"
        },
        {
          "internalType": "address",
          "name": "account",
          "type": "address"
        }
      ],
      "name": "grantRole",
      "outputs": [],
      "stateMutability": "nonpayable",
      "type": "function"
    },
    {
      "inputs": [
        {
          "internalType": "bytes32",
          "name": "role",
          "type": "bytes32"
        },
        {
          "internalType": "address",
          "name": "account",
          "type": "address"
        }
      ],
      "name": "hasRole",
      "outputs": [
        {
          "internalType": "bool",
          "name": "",
          "type": "bool"
        }
      ],
      "stateMutability": "view",
      "type": "function"
    },
    {
      "inputs": [
        {
          "internalType": "address",
          "name": "target",
          "type": "address"
        },
        {
          "internalType": "uint256",
          "name": "value",
          "type": "uint256"
        },
        {
          "internalType": "bytes",
          "name": "data",
          "type": "bytes"
        },
        {
          "internalType": "bytes32",
          "name": "predecessor",
          "type": "bytes32"
        },
        {
          "internalType": "bytes32",
          "name": "salt",
          "type": "bytes32"
        }
      ],
      "name": "hashOperation",
      "outputs": [
        {
          "internalType": "bytes32",
          "name": "",
          "type": "bytes32"
        }
      ],
      "stateMutability": "pure",
      "type": "function"
    },
    {
      "inputs": [
        {
          "internalType": "address[]",
          "name": "targets",
          "type": "address[]"
        },
        {
          "internalType": "uint256[]",
          "name": "values",
          "type": "uint256[]"
        },
        {
          "internalType": "bytes[]",
          "name": "payloads",
          "type": "bytes[]"
        },
        {
          "internalType": "bytes32",
          "name": "predecessor",
          "type": "bytes32"
        },
        {
          "internalType": "bytes32",
          "name": "salt",
          "type": "bytes32"
        }
      ],
      "name": "hashOperationBatch",
      "outputs": [
        {
          "internalType": "bytes32",
          "name": "",
          "type": "bytes32"
        }
      ],
      "stateMutability": "pure",
      "type": "function"
    },
    {
      "inputs": [
        {
          "internalType": "bytes32",
          "name": "id",
          "type": "bytes32"
        }
      ],
      "name": "isOperation",
      "outputs": [
        {
          "internalType": "bool",
          "name": "",
          "type": "bool"
        }
      ],
      "stateMutability": "view",
      "type": "function"
    },
    {
      "inputs": [
        {
          "internalType": "bytes32",
          "name": "id",
          "type": "bytes32"
        }
      ],
      "name": "isOperationDone",
      "outputs": [
        {
          "internalType": "bool",
          "name": "",
          "type": "bool"
        }
      ],
      "stateMutability": "view",
      "type": "function"
    },
    {
      "inputs": [
        {
          "internalType": "bytes32",
          "name": "id",
          "type": "bytes32"
        }
      ],
      "name": "isOperationPending",
      "outputs": [
        {
          "internalType": "bool",
          "name": "",
          "type": "bool"
        }
      ],
      "stateMutability": "view",
      "type": "function"
    },
    {
      "inputs": [
        {
          "internalType": "bytes32",
          "name": "id",
          "type": "bytes32"
        }
      ],
      "name": "isOperationReady",
      "outputs": [
        {
          "internalType": "bool",
          "name": "",
          "type": "bool"
        }
      ],
      "stateMutability": "view",
      "type": "function"
    },
    {
      "inputs": [
        {
          "internalType": "address",
          "name": "",
          "type": "address"
        },
        {
          "internalType": "address",
          "name": "",
          "type": "address"
        },
        {
          "internalType": "uint256[]",
          "name": "",
          "type": "uint256[]"
        },
        {
          "internalType": "uint256[]",
          "name": "",
          "type": "uint256[]"
        },
        {
          "internalType": "bytes",
          "name": "",
          "type": "bytes"
        }
      ],
      "name": "onERC1155BatchReceived",
      "outputs": [
        {
          "internalType": "bytes4",
          "name": "",
          "type": "bytes4"
        }
      ],
      "stateMutability": "nonpayable",
      "type": "function"
    },
    {
      "inputs": [
        {
          "internalType": "address",
          "name": "",
          "type": "address"
        },
        {
          "internalType": "address",
          "name": "",
          "type": "address"
        },
        {
          "internalType": "uint256",
          "name": "",
          "type": "uint256"
        },
        {
          "internalType": "uint256",
          "name": "",
          "type": "uint256"
        },
        {
          "internalType": "bytes",
          "name": "",
          "type": "bytes"
        }
      ],
      "name": "onERC1155Received",
      "outputs": [
        {
          "internalType": "bytes4",
          "name": "",
          "type": "bytes4"
        }
      ],
      "stateMutability": "nonpayable",
      "type": "function"
    },
    {
      "inputs": [
        {
          "internalType": "address",
          "name": "",
          "type": "address"
        },
        {
          "internalType": "address",
          "name": "",
          "type": "address"
        },
        {
          "internalType": "uint256",
          "name": "",
          "type": "uint256"
        },
        {
          "internalType": "bytes",
          "name": "",
          "type": "bytes"
        }
      ],
      "name": "onERC721Received",
      "outputs": [
        {
          "internalType": "bytes4",
          "name": "",
          "type": "bytes4"
        }
      ],
      "stateMutability": "nonpayable",
      "type": "function"
    },
    {
      "inputs": [
        {
          "internalType": "bytes32",
          "name": "role",
          "type": "bytes32"
        },
        {
          "internalType": "address",
          "name": "callerConfirmation",
          "type": "address"
        }
      ],
      "name": "renounceRole",
      "outputs": [],
      "stateMutability": "nonpayable",
      "type": "function"
    },
    {
      "inputs": [
        {
          "internalType": "bytes32",
          "name": "role",
          "type": "bytes32"
        },
        {
          "internalType": "address",
          "name": "account",
          "type": "address"
        }
      ],
      "name": "revokeRole",
      "outputs": [],
      "stateMutability": "nonpayable",
      "type": "function"
    },
    {
      "inputs": [
        {
          "internalType": "address",
          "name": "target",
          "type": "address"
        },
        {
          "internalType": "uint256",
          "name": "value",
          "type": "uint256"
        },
        {
          "internalType": "bytes",
          "name": "data",
          "type": "bytes"
        },
        {
          "internalType": "bytes32",
          "name": "predecessor",
          "type": "bytes32"
        },
        {
          "internalType": "bytes32",
          "name": "salt",
          "type": "bytes32"
        },
        {
          "internalType": "uint256",
          "name": "delay",
          "type": "uint256"
        }
      ],
      "name": "schedule",
      "outputs": [],
      "stateMutability": "nonpayable",
      "type": "function"
    },
    {
      "inputs": [
        {
          "internalType": "address[]",
          "name": "targets",
          "type": "address[]"
        },
        {
          "internalType": "uint256[]",
          "name": "values",
          "type": "uint256[]"
        },
        {
          "internalType": "bytes[]",
          "name": "payloads",
          "type": "bytes[]"
        },
        {
          "internalType": "bytes32",
          "name": "predecessor",
          "type": "bytes32"
        },
        {
          "internalType": "bytes32",
          "name": "salt",
          "type": "bytes32"
        },
        {
          "internalType": "uint256",
          "name": "delay",
          "type": "uint256"
        }
      ],
      "name": "scheduleBatch",
      "outputs": [],
      "stateMutability": "nonpayable",
      "type": "function"
    },
    {
      "inputs": [
        {
          "internalType": "bytes4",
          "name": "interfaceId",
          "type": "bytes4"
        }
      ],
      "name": "supportsInterface",
      "outputs": [
        {
          "internalType": "bool",
          "name": "",
          "type": "bool"
        }
      ],
      "stateMutability": "view",
      "type": "function"
    },
    {
      "inputs": [
        {
          "internalType": "uint256",
          "name": "newDelay",
          "type": "uint256"
        }
      ],
      "name": "updateDelay",
      "outputs": [],
      "stateMutability": "nonpayable",
      "type": "function"
    },
    {
      "stateMutability": "payable",
      "type": "receive"
    }
  ],
  "bytecode": "0x608060405234610166576123b7803803806100198161016a565b92833981019060808183031261016657805160208201519091906001600160401b038111610166578361004d9183016101b7565b604082015190936001600160401b0382116101665761007360609161007a9385016101b7565b92016101a3565b61008330610249565b506001600160a01b038116610156575b505f5b83518110156100e0576001906100be6001600160a01b036100b78388610221565b51166102bf565b506100d9828060a01b036100d28388610221565b5116610352565b5001610096565b50905f5b82518110156101135760019061010c6001600160a01b036101058387610221565b51166103e5565b50016100e4565b7f11c24f4ead16507c69ac467fbd5e4eed5fb5c699626d2cc6d66421df253886d5604083806002558151905f82526020820152a1604051611e9e90816104798239f35b61015f90610249565b505f610093565b5f80fd5b6040519190601f01601f191682016001600160401b0381118382101761018f57604052565b634e487b7160e01b5f52604160045260245ffd5b51906001600160a01b038216820361016657565b9080601f83011215610166578151916001600160401b03831161018f578260051b906020806101e781850161016a565b80968152019282010192831161016657602001905b8282106102095750505090565b60208091610216846101a3565b8152019101906101fc565b80518210156102355760209160051b010190565b634e487b7160e01b5f52603260045260245ffd5b6001600160a01b0381165f9081525f80516020612397833981519152602052604090205460ff166102ba576001600160a01b03165f8181525f8051602061239783398151915260205260408120805460ff191660011790553391905f805160206123178339815191528180a4600190565b505f90565b6001600160a01b0381165f9081525f80516020612337833981519152602052604090205460ff166102ba576001600160a01b03165f8181525f8051602061233783398151915260205260408120805460ff191660011790553391907fb09aa5aeb3702cfd50b6b62bc4532604938f21248a27a1d5ca736082b6819cc1905f805160206123178339815191529080a4600190565b6001600160a01b0381165f9081525f80516020612377833981519152602052604090205460ff166102ba576001600160a01b03165f8181525f8051602061237783398151915260205260408120805460ff191660011790553391907ffd643c72710c63c0180259aba6b2d05451e3591a24e58b62239378085726f783905f805160206123178339815191529080a4600190565b6001600160a01b0381165f9081525f80516020612357833981519152602052604090205460ff166102ba576001600160a01b03165f8181525f8051602061235783398151915260205260408120805460ff191660011790553391907fd8aa0f3194971a2a116679f7c2090f6939c8d4e01a2a8d7e41d55e5351469e63905f805160206123178339815191529080a460019056fe6080604052600436101561001a575b3615610018575f80fd5b005b5f803560e01c806301d5062a1461105457806301ffc9a714610f6257806307bd026514610f0a578063134008d314610e5757806313bc9f2014610e1b578063150b7a0214610d8f578063248a9ca314610d475780632ab0f52914610d0b5780632f2ff15d14610cb057806331d5075014610c7457806336568abe14610bec578063524f100814610b31578063584b153e14610aea57806364d6235314610a4c5780637958004c146109cf5780638065657f146109af5780638f2a0bb0146107df5780638f61f4f51461078657806391d1485414610711578063a217fddf146106d7578063b08e51c01461067e578063b1c5f42714610653578063bc197c8114610584578063c4d252f51461043a578063d45c4435146103f2578063d547741f1461038b578063e38335e514610233578063f23a6e61146101a25763f27a0c9214610164575061000e565b3461019f57807ffffffffffffffffffffffffffffffffffffffffffffffffffffffffffffffffc36011261019f576020600254604051908152f35b80fd5b503461019f5760a07ffffffffffffffffffffffffffffffffffffffffffffffffffffffffffffffffc36011261019f576101da61114b565b506101e361116e565b5060843567ffffffffffffffff811161022f576102049036906004016112e1565b5060206040517ff23a6e61000000000000000000000000000000000000000000000000000000008152f35b5080fd5b5061023d36611358565b7fd8aa0f3194971a2a116679f7c2090f6939c8d4e01a2a8d7e41d55e5351469e63899897929896959394965288602052604089205f805260205260ff60405f2054161561037d575b828214801590610373575b61033f576102a76102ae91898689878a888e61171c565b9788611bbb565b875b8181106102c457886102c189611c98565b80f35b8080897fc2617efa69bab66782fa219543714338489c4e9e178271560a91b82c3f612b58898961033661031d868f610316828f928f908f60019f61030b916103109361165e565b61169b565b9761165e565b35956116bc565b9061032a82828787611c45565b604051948594856114d3565b0390a3016102b0565b6064898486857fffb03211000000000000000000000000000000000000000000000000000000008452600452602452604452fd5b5083821415610290565b61038633611a88565b610285565b503461019f5760407ffffffffffffffffffffffffffffffffffffffffffffffffffffffffffffffffc36011261019f576103ee6004356103c961116e565b906103e96103e2825f525f602052600160405f20015490565b3390611b3d565b611d88565b5080f35b503461019f5760207ffffffffffffffffffffffffffffffffffffffffffffffffffffffffffffffffc36011261019f5760406020916004358152600183522054604051908152f35b503461019f5760207ffffffffffffffffffffffffffffffffffffffffffffffffffffffffffffffffc36011261019f576004357ffd643c72710c63c0180259aba6b2d05451e3591a24e58b62239378085726f7838252816020526040822073ffffffffffffffffffffffffffffffffffffffff33165f5260205260ff60405f20541615610534576104ca8161157c565b156105045780825260016020528160408120557fbaa1eb22f2a492ba1a5fea61b8df4d27c6c8b5f3971e63bb58fa14ff72eedb708280a280f35b7f5ead8eb50000000000000000000000000000000000000000000000000000000082526004526006602452604490fd5b6044827fe2517d3f000000000000000000000000000000000000000000000000000000008152336004527ffd643c72710c63c0180259aba6b2d05451e3591a24e58b62239378085726f783602452fd5b503461019f5760a07ffffffffffffffffffffffffffffffffffffffffffffffffffffffffffffffffc36011261019f576105bc61114b565b506105c561116e565b5060443567ffffffffffffffff811161022f576105e69036906004016113e7565b5060643567ffffffffffffffff811161022f576106079036906004016113e7565b5060843567ffffffffffffffff811161022f576106289036906004016112e1565b5060206040517fbc197c81000000000000000000000000000000000000000000000000000000008152f35b503461019f57602061067661066736611358565b9695909594919493929361171c565b604051908152f35b503461019f57807ffffffffffffffffffffffffffffffffffffffffffffffffffffffffffffffffc36011261019f5760206040517ffd643c72710c63c0180259aba6b2d05451e3591a24e58b62239378085726f7838152f35b503461019f57807ffffffffffffffffffffffffffffffffffffffffffffffffffffffffffffffffc36011261019f57602090604051908152f35b503461019f5760407ffffffffffffffffffffffffffffffffffffffffffffffffffffffffffffffffc36011261019f5773ffffffffffffffffffffffffffffffffffffffff604061076061116e565b926004358152806020522091165f52602052602060ff60405f2054166040519015158152f35b503461019f57807ffffffffffffffffffffffffffffffffffffffffffffffffffffffffffffffffc36011261019f5760206040517fb09aa5aeb3702cfd50b6b62bc4532604938f21248a27a1d5ca736082b6819cc18152f35b503461019f5760c07ffffffffffffffffffffffffffffffffffffffffffffffffffffffffffffffffc36011261019f5760043567ffffffffffffffff811161022f5761082f903690600401611327565b9060243567ffffffffffffffff81116109ab57610850903690600401611327565b60449291923567ffffffffffffffff81116109a757610873903690600401611327565b9390916064356084359560a4359261088a336119d3565b80891480159061099d575b610969576108a988848489858a8f8e61171c565b986108b4858b611915565b898b5b8281106108fb578c828c806108ca578280f35b60207f20fda5fd27a1ea7bf5b9567f143ac5470bb059374a27e8f67cb44f946f6d038791604051908152a281808280f35b806001927f4cf4410cc57040e44862ef0f45f3dd5a5e02db8eb8add648d4b0e236f1d07dca8b8b61095e8f8c6109518f928e61094a8f8f9061094461030b8f809794819561165e565b9961165e565b35976116bc565b906040519687968761148d565b0390a3018a906108b7565b89906064928a7fffb03211000000000000000000000000000000000000000000000000000000008452600452602452604452fd5b5081891415610895565b8580fd5b8380fd5b503461019f5760206106766109c3366111bf565b949390939291926115dd565b503461019f5760207ffffffffffffffffffffffffffffffffffffffffffffffffffffffffffffffffc36011261019f57610a0a6004356115a5565b604051906004811015610a1f57602092508152f35b6024837f4e487b710000000000000000000000000000000000000000000000000000000081526021600452fd5b503461019f5760207ffffffffffffffffffffffffffffffffffffffffffffffffffffffffffffffffc36011261019f57600435303303610abe577f11c24f4ead16507c69ac467fbd5e4eed5fb5c699626d2cc6d66421df253886d560406002548151908152836020820152a160025580f35b6024827fe2850c5900000000000000000000000000000000000000000000000000000000815233600452fd5b503461019f5760207ffffffffffffffffffffffffffffffffffffffffffffffffffffffffffffffffc36011261019f576020610b2760043561157c565b6040519015158152f35b5034610be85760207ffffffffffffffffffffffffffffffffffffffffffffffffffffffffffffffffc360112610be85760043573ffffffffffffffffffffffffffffffffffffffff8116809103610be857610b8b33611a88565b803b15610be8575f80916004604051809481937f7bc6729b0000000000000000000000000000000000000000000000000000000083525af18015610bdd57610bd1575080f35b61001891505f90611239565b6040513d5f823e3d90fd5b5f80fd5b34610be85760407ffffffffffffffffffffffffffffffffffffffffffffffffffffffffffffffffc360112610be857610c2361116e565b3373ffffffffffffffffffffffffffffffffffffffff821603610c4c5761001890600435611d88565b7f6697b232000000000000000000000000000000000000000000000000000000005f5260045ffd5b34610be85760207ffffffffffffffffffffffffffffffffffffffffffffffffffffffffffffffffc360112610be8576020610b27600435611565565b34610be85760407ffffffffffffffffffffffffffffffffffffffffffffffffffffffffffffffffc360112610be857610018600435610ced61116e565b90610d066103e2825f525f602052600160405f20015490565b611cb6565b34610be85760207ffffffffffffffffffffffffffffffffffffffffffffffffffffffffffffffffc360112610be8576020610b2760043561154d565b34610be85760207ffffffffffffffffffffffffffffffffffffffffffffffffffffffffffffffffc360112610be85760206106766004355f525f602052600160405f20015490565b34610be85760807ffffffffffffffffffffffffffffffffffffffffffffffffffffffffffffffffc360112610be857610dc661114b565b50610dcf61116e565b5060643567ffffffffffffffff8111610be857610df09036906004016112e1565b5060206040517f150b7a02000000000000000000000000000000000000000000000000000000008152f35b34610be85760207ffffffffffffffffffffffffffffffffffffffffffffffffffffffffffffffffc360112610be8576020610b27600435611508565b610018610ee85f610ef47fc2617efa69bab66782fa219543714338489c4e9e178271560a91b82c3f612b58610edf610e8e366111bf565b7fd8aa0f3194971a2a116679f7c2090f6939c8d4e01a2a8d7e41d55e5351469e638a9995979299949394528960205260408a208a805260205260ff60408b20541615610efc575b88848489896115dd565b98899788611bbb565b61032a82828787611c45565b0390a3611c98565b610f0533611a88565b610ed5565b34610be8575f7ffffffffffffffffffffffffffffffffffffffffffffffffffffffffffffffffc360112610be85760206040517fd8aa0f3194971a2a116679f7c2090f6939c8d4e01a2a8d7e41d55e5351469e638152f35b34610be85760207ffffffffffffffffffffffffffffffffffffffffffffffffffffffffffffffffc360112610be8576004357fffffffff000000000000000000000000000000000000000000000000000000008116809103610be857807f4e2312e00000000000000000000000000000000000000000000000000000000060209214908115610ff7575b506040519015158152f35b7f7965db0b0000000000000000000000000000000000000000000000000000000081149150811561102a575b5082610fec565b7f01ffc9a70000000000000000000000000000000000000000000000000000000091501482611023565b34610be85760c07ffffffffffffffffffffffffffffffffffffffffffffffffffffffffffffffffc360112610be85761108b61114b565b6024359060443567ffffffffffffffff8111610be8577f4cf4410cc57040e44862ef0f45f3dd5a5e02db8eb8add648d4b0e236f1d07dca926110d25f923690600401611191565b949091606435946111146084359660a435906110ed336119d3565b6110fb89828c8a89896115dd565b998a97611108848a611915565b6040519687968761148d565b0390a38061111e57005b60207f20fda5fd27a1ea7bf5b9567f143ac5470bb059374a27e8f67cb44f946f6d038791604051908152a2005b6004359073ffffffffffffffffffffffffffffffffffffffff82168203610be857565b6024359073ffffffffffffffffffffffffffffffffffffffff82168203610be857565b9181601f84011215610be85782359167ffffffffffffffff8311610be85760208381860195010111610be857565b60a07ffffffffffffffffffffffffffffffffffffffffffffffffffffffffffffffffc820112610be85760043573ffffffffffffffffffffffffffffffffffffffff81168103610be85791602435916044359067ffffffffffffffff8211610be85761122d91600401611191565b90916064359060843590565b90601f7fffffffffffffffffffffffffffffffffffffffffffffffffffffffffffffffe0910116810190811067ffffffffffffffff82111761127a57604052565b7f4e487b71000000000000000000000000000000000000000000000000000000005f52604160045260245ffd5b67ffffffffffffffff811161127a57601f017fffffffffffffffffffffffffffffffffffffffffffffffffffffffffffffffe01660200190565b81601f82011215610be8578035906112f8826112a7565b926113066040519485611239565b82845260208383010111610be857815f926020809301838601378301015290565b9181601f84011215610be85782359167ffffffffffffffff8311610be8576020808501948460051b010111610be857565b60a07ffffffffffffffffffffffffffffffffffffffffffffffffffffffffffffffffc820112610be85760043567ffffffffffffffff8111610be857816113a191600401611327565b9290929160243567ffffffffffffffff8111610be857816113c491600401611327565b929092916044359067ffffffffffffffff8211610be85761122d91600401611327565b9080601f83011215610be85781359167ffffffffffffffff831161127a578260051b906040519361141b6020840186611239565b8452602080850192820101928311610be857602001905b82821061143f5750505090565b8135815260209182019101611432565b601f82602094937fffffffffffffffffffffffffffffffffffffffffffffffffffffffffffffffe093818652868601375f8582860101520116010190565b9290936114c99273ffffffffffffffffffffffffffffffffffffffff60809699989799168552602085015260a0604085015260a084019161144f565b9460608201520152565b611505949273ffffffffffffffffffffffffffffffffffffffff6060931682526020820152816040820152019161144f565b90565b611511906115a5565b60048110156115205760021490565b7f4e487b71000000000000000000000000000000000000000000000000000000005f52602160045260245ffd5b611556906115a5565b60048110156115205760031490565b61156e906115a5565b600481101561152057151590565b611585906115a5565b6004811015611520576001811490811561159d575090565b600291501490565b5f52600160205260405f205480155f146115be57505f90565b600181036115cc5750600390565b4210156115d857600190565b600290565b946116216116589495929360405196879573ffffffffffffffffffffffffffffffffffffffff602088019a168a52604087015260a0606087015260c086019161144f565b91608084015260a0830152037fffffffffffffffffffffffffffffffffffffffffffffffffffffffffffffffe08101835282611239565b51902090565b919081101561166e5760051b0190565b7f4e487b71000000000000000000000000000000000000000000000000000000005f52603260045260245ffd5b3573ffffffffffffffffffffffffffffffffffffffff81168103610be85790565b919081101561166e5760051b810135907fffffffffffffffffffffffffffffffffffffffffffffffffffffffffffffffe181360301821215610be857019081359167ffffffffffffffff8311610be8576020018236038113610be8579190565b9693949190969592956040519660208801988060c08a0160a08c525260e0890192905f905b8082106118c8575050507fffffffffffffffffffffffffffffffffffffffffffffffffffffffffffffffe08883030160408901528082527f07ffffffffffffffffffffffffffffffffffffffffffffffffffffffffffffff8111610be8579087959394929160051b8092602083013701848103606086015260208101849052600584901b8101604090810194908201915f908890368290037fffffffffffffffffffffffffffffffffffffffffffffffffffffffffffffffe101905b848410611845575050505050506116589450608084015260a0830152037fffffffffffffffffffffffffffffffffffffffffffffffffffffffffffffffe08101835282611239565b919395979092949698507fffffffffffffffffffffffffffffffffffffffffffffffffffffffffffffffe08083830301018752893583811215610be8578401906020823592019167ffffffffffffffff8111610be8578036038313610be8576118b4602092839260019561144f565b9b0197019401918a989699979593916117fd565b90919384359073ffffffffffffffffffffffffffffffffffffffff82168203610be8576020809173ffffffffffffffffffffffffffffffffffffffff600194168152019501920190611741565b9061191f82611565565b6119a2576002548082106119735750420190814211611946575f52600160205260405f2055565b7f4e487b71000000000000000000000000000000000000000000000000000000005f52601160045260245ffd5b907f54336609000000000000000000000000000000000000000000000000000000005f5260045260245260445ffd5b507f5ead8eb5000000000000000000000000000000000000000000000000000000005f52600452600160245260445ffd5b73ffffffffffffffffffffffffffffffffffffffff81165f9081527f3412d5605ac6cd444957cedb533e5dacad6378b4bc819ebe3652188a665066d5602052604090205460ff1615611a225750565b73ffffffffffffffffffffffffffffffffffffffff907fe2517d3f000000000000000000000000000000000000000000000000000000005f52166004527fb09aa5aeb3702cfd50b6b62bc4532604938f21248a27a1d5ca736082b6819cc160245260445ffd5b73ffffffffffffffffffffffffffffffffffffffff81165f9081527fdae2aa361dfd1ca020a396615627d436107c35eff9fe7738a3512819782d7069602052604090205460ff1615611ad75750565b73ffffffffffffffffffffffffffffffffffffffff907fe2517d3f000000000000000000000000000000000000000000000000000000005f52166004527fd8aa0f3194971a2a116679f7c2090f6939c8d4e01a2a8d7e41d55e5351469e6360245260445ffd5b90815f525f60205260405f2073ffffffffffffffffffffffffffffffffffffffff82165f5260205260ff60405f20541615611b76575050565b73ffffffffffffffffffffffffffffffffffffffff907fe2517d3f000000000000000000000000000000000000000000000000000000005f521660045260245260445ffd5b611bc481611508565b15611c15575080151580611c05575b611bda5750565b7f90a9a618000000000000000000000000000000000000000000000000000000005f5260045260245ffd5b50611c0f8161154d565b15611bd3565b7f5ead8eb5000000000000000000000000000000000000000000000000000000005f52600452600460245260445ffd5b611c8d935f93928493826040519384928337810185815203925af13d15611c90573d90611c71826112a7565b91611c7f6040519384611239565b82523d5f602084013e611e50565b50565b606090611e50565b611ca181611508565b15611c15575f526001602052600160405f2055565b805f525f60205260405f2073ffffffffffffffffffffffffffffffffffffffff83165f5260205260ff60405f205416155f14611d8257805f525f60205260405f2073ffffffffffffffffffffffffffffffffffffffff83165f5260205260405f2060017fffffffffffffffffffffffffffffffffffffffffffffffffffffffffffffff0082541617905573ffffffffffffffffffffffffffffffffffffffff339216907f2f8788117e7eff1d82e926ec794901d17c78024a50270940304540a733656f0d5f80a4600190565b50505f90565b805f525f60205260405f2073ffffffffffffffffffffffffffffffffffffffff83165f5260205260ff60405f2054165f14611d8257805f525f60205260405f2073ffffffffffffffffffffffffffffffffffffffff83165f5260205260405f207fffffffffffffffffffffffffffffffffffffffffffffffffffffffffffffff00815416905573ffffffffffffffffffffffffffffffffffffffff339216907ff6391f5c32d9c69d2a47ea670b442974b53935d1edc7fd64eb21e047a839171b5f80a4600190565b909190611e8f5750805115611e6757805190602001fd5b7f1425ea42000000000000000000000000000000000000000000000000000000005f5260045ffd5b56fea164736f6c634300081a000a2f8788117e7eff1d82e926ec794901d17c78024a50270940304540a733656f0d3412d5605ac6cd444957cedb533e5dacad6378b4bc819ebe3652188a665066d5dae2aa361dfd1ca020a396615627d436107c35eff9fe7738a3512819782d7069c3ad33e20b0c56a223ad5104fff154aa010f8715b9c981fd38fdc60a4d1a52fbad3228b676f7d3cd4284a5443f17f1962b36e491b30a40b2405849e597ba5fb5",
  "linkReferences": {},
  "deployedLinkReferences": {}
}