{
  "_format": "hh-sol-artifact-1",
  "contractName": "StakingUpgradeable",
  "sourceName": "contracts/staking/StakingUpgradeable.sol",
  "abi": [
    {
      "inputs": [],
      "stateMutability": "nonpayable",
      "type": "constructor"
    },
    {
      "inputs": [
        {
          "internalType": "address",
          "name": "target",
          "type": "address"
        }
      ],
      "name": "AddressEmptyCode",
      "type": "error"
    },
    {
      "inputs": [
        {
          "internalType": "address",
          "name": "account",
          "type": "address"
        }
      ],
      "name": "AddressInsufficientBalance",
      "type": "error"
    },
    {
      "inputs": [
        {
          "internalType": "address",
          "name": "implementation",
          "type": "address"
        }
      ],
      "name": "ERC1967InvalidImplementation",
      "type": "error"
    },
    {
      "inputs": [],
      "name": "ERC1967NonPayable",
      "type": "error"
    },
    {
      "inputs": [
        {
          "internalType": "uint256",
          "name": "amount",
          "type": "uint256"
        }
      ],
      "name": "ExceededMaxStakedLimit",
      "type": "error"
    },
    {
      "inputs": [],
      "name": "FailedInnerCall",
      "type": "error"
    },
    {
      "inputs": [],
      "name": "Forbidden",
      "type": "error"
    },
    {
      "inputs": [],
      "name": "InvalidInitialization",
      "type": "error"
    },
    {
      "inputs": [
        {
          "internalType": "uint128",
          "name": "amount",
          "type": "uint128"
        }
      ],
      "name": "InvalidInputAmount",
      "type": "error"
    },
    {
      "inputs": [
        {
          "internalType": "uint256",
          "name": "limit",
          "type": "uint256"
        }
      ],
      "name": "InvalidLimit",
      "type": "error"
    },
    {
      "inputs": [],
      "name": "NotInitializing",
      "type": "error"
    },
    {
      "inputs": [
        {
          "internalType": "address",
          "name": "token",
          "type": "address"
        }
      ],
      "name": "SafeERC20FailedOperation",
      "type": "error"
    },
    {
      "inputs": [],
      "name": "UUPSUnauthorizedCallContext",
      "type": "error"
    },
    {
      "inputs": [
        {
          "internalType": "bytes32",
          "name": "slot",
          "type": "bytes32"
        }
      ],
      "name": "UUPSUnsupportedProxiableUUID",
      "type": "error"
    },
    {
      "anonymous": false,
      "inputs": [
        {
          "indexed": true,
          "internalType": "address",
          "name": "previousGov",
          "type": "address"
        },
        {
          "indexed": true,
          "internalType": "address",
          "name": "newGov",
          "type": "address"
        }
      ],
      "name": "ChangeGovStarted",
      "type": "event"
    },
    {
      "anonymous": false,
      "inputs": [
        {
          "indexed": true,
          "internalType": "address",
          "name": "previousGov",
          "type": "address"
        },
        {
          "indexed": true,
          "internalType": "address",
          "name": "newGov",
          "type": "address"
        }
      ],
      "name": "GovChanged",
      "type": "event"
    },
    {
      "anonymous": false,
      "inputs": [
        {
          "indexed": false,
          "internalType": "uint64",
          "name": "version",
          "type": "uint64"
        }
      ],
      "name": "Initialized",
      "type": "event"
    },
    {
      "anonymous": false,
      "inputs": [
        {
          "indexed": true,
          "internalType": "contract IERC20",
          "name": "token",
          "type": "address"
        },
        {
          "indexed": false,
          "internalType": "uint256",
          "name": "limit",
          "type": "uint256"
        }
      ],
      "name": "MaxStakedLimitSet",
      "type": "event"
    },
    {
      "anonymous": false,
      "inputs": [
        {
          "indexed": true,
          "internalType": "contract IERC20",
          "name": "token",
          "type": "address"
        },
        {
          "indexed": false,
          "internalType": "address",
          "name": "sender",
          "type": "address"
        },
        {
          "indexed": false,
          "internalType": "address",
          "name": "receiver",
          "type": "address"
        },
        {
          "indexed": false,
          "internalType": "uint256",
          "name": "amount",
          "type": "uint256"
        }
      ],
      "name": "Staked",
      "type": "event"
    },
    {
      "anonymous": false,
      "inputs": [
        {
          "indexed": true,
          "internalType": "contract IERC20",
          "name": "token",
          "type": "address"
        },
        {
          "indexed": false,
          "internalType": "address",
          "name": "account",
          "type": "address"
        },
        {
          "indexed": false,
          "internalType": "address",
          "name": "receiver",
          "type": "address"
        },
        {
          "indexed": false,
          "internalType": "uint128",
          "name": "amount",
          "type": "uint128"
        }
      ],
      "name": "Unstaked",
      "type": "event"
    },
    {
      "anonymous": false,
      "inputs": [
        {
          "indexed": true,
          "internalType": "address",
          "name": "implementation",
          "type": "address"
        }
      ],
      "name": "Upgraded",
      "type": "event"
    },
    {
      "inputs": [],
      "name": "UPGRADE_INTERFACE_VERSION",
      "outputs": [
        {
          "internalType": "string",
          "name": "",
          "type": "string"
        }
      ],
      "stateMutability": "view",
      "type": "function"
    },
    {
      "inputs": [],
      "name": "acceptGov",
      "outputs": [],
      "stateMutability": "nonpayable",
      "type": "function"
    },
    {
      "inputs": [
        {
          "internalType": "contract IERC20",
          "name": "token",
          "type": "address"
        }
      ],
      "name": "balances",
      "outputs": [
        {
          "internalType": "uint256",
          "name": "",
          "type": "uint256"
        }
      ],
      "stateMutability": "view",
      "type": "function"
    },
    {
      "inputs": [
        {
          "internalType": "address",
          "name": "account",
          "type": "address"
        },
        {
          "internalType": "contract IERC20",
          "name": "token",
          "type": "address"
        }
      ],
      "name": "balancesPerAccount",
      "outputs": [
        {
          "internalType": "uint256",
          "name": "",
          "type": "uint256"
        }
      ],
      "stateMutability": "view",
      "type": "function"
    },
    {
      "inputs": [
        {
          "internalType": "address",
          "name": "_newGov",
          "type": "address"
        }
      ],
      "name": "changeGov",
      "outputs": [],
      "stateMutability": "nonpayable",
      "type": "function"
    },
    {
      "inputs": [],
      "name": "gov",
      "outputs": [
        {
          "internalType": "address",
          "name": "",
          "type": "address"
        }
      ],
      "stateMutability": "view",
      "type": "function"
    },
    {
      "inputs": [
        {
          "internalType": "address",
          "name": "_initialGov",
          "type": "address"
        }
      ],
      "name": "initialize",
      "outputs": [],
      "stateMutability": "nonpayable",
      "type": "function"
    },
    {
      "inputs": [
        {
          "internalType": "contract IERC20",
          "name": "token",
          "type": "address"
        }
      ],
      "name": "maxStakedLimit",
      "outputs": [
        {
          "internalType": "uint256",
          "name": "",
          "type": "uint256"
        }
      ],
      "stateMutability": "view",
      "type": "function"
    },
    {
      "inputs": [],
      "name": "pendingGov",
      "outputs": [
        {
          "internalType": "address",
          "name": "",
          "type": "address"
        }
      ],
      "stateMutability": "view",
      "type": "function"
    },
    {
      "inputs": [],
      "name": "proxiableUUID",
      "outputs": [
        {
          "internalType": "bytes32",
          "name": "",
          "type": "bytes32"
        }
      ],
      "stateMutability": "view",
      "type": "function"
    },
    {
      "inputs": [
        {
          "internalType": "contract IERC20",
          "name": "_token",
          "type": "address"
        },
        {
          "internalType": "uint256",
          "name": "_limit",
          "type": "uint256"
        }
      ],
      "name": "setMaxStakedLimit",
      "outputs": [],
      "stateMutability": "nonpayable",
      "type": "function"
    },
    {
      "inputs": [
        {
          "internalType": "contract IERC20",
          "name": "_token",
          "type": "address"
        },
        {
          "internalType": "address",
          "name": "_receiver",
          "type": "address"
        },
        {
          "internalType": "uint128",
          "name": "_amount",
          "type": "uint128"
        },
        {
          "internalType": "bytes",
          "name": "_permitData",
          "type": "bytes"
        }
      ],
      "name": "stake",
      "outputs": [],
      "stateMutability": "nonpayable",
      "type": "function"
    },
    {
      "inputs": [
        {
          "internalType": "contract IERC20",
          "name": "_token",
          "type": "address"
        },
        {
          "internalType": "address",
          "name": "_receiver",
          "type": "address"
        },
        {
          "internalType": "uint128",
          "name": "_amount",
          "type": "uint128"
        }
      ],
      "name": "unstake",
      "outputs": [],
      "stateMutability": "nonpayable",
      "type": "function"
    },
    {
      "inputs": [
        {
          "internalType": "address",
          "name": "newImplementation",
          "type": "address"
        },
        {
          "internalType": "bytes",
          "name": "data",
          "type": "bytes"
        }
      ],
      "name": "upgradeToAndCall",
      "outputs": [],
      "stateMutability": "payable",
      "type": "function"
    }
  ],
  "bytecode": "0x60a080604052346100e857306080527ff0c57e16840df040f15088dc2f81fe391c3923bec73e23a9662efc9c229c6a005460ff8160401c166100d9576002600160401b03196001600160401b03821601610073575b6040516117ba90816100ed823960805181818161093d0152610a5c0152f35b6001600160401b0319166001600160401b039081177ff0c57e16840df040f15088dc2f81fe391c3923bec73e23a9662efc9c229c6a005581527fc7f505b2f371ae2175ee4913f4499e1f2633a7b5936321eed1cdaeb6115181d290602090a15f80610054565b63f92ee8a960e01b5f5260045ffd5b5f80fdfe6080806040526004361015610012575f80fd5b5f3560e01c90816312d43a5114610fce575080632524081014610f5e57806327e235e314610efc5780633e8c6f4914610cf05780634f1ef286146109b557806352d1902d146108f85780637bc6729b146108145780638c3911bb14610743578063a962ef1e14610628578063ad3cb1cc14610576578063c2fca52514610513578063c4d66de8146102e5578063c8e2d22a146101465763e45d47bf146100b6575f80fd5b346101425760407ffffffffffffffffffffffffffffffffffffffffffffffffffffffffffffffffc360112610142576100ed61103b565b73ffffffffffffffffffffffffffffffffffffffff61010a61105e565b91165f52600260205273ffffffffffffffffffffffffffffffffffffffff60405f2091165f52602052602060405f2054604051908152f35b5f80fd5b346101425760607ffffffffffffffffffffffffffffffffffffffffffffffffffffffffffffffffc3601126101425761017d61103b565b61018561105e565b9061018e611081565b91335f52600260205260405f2073ffffffffffffffffffffffffffffffffffffffff83165f526020526fffffffffffffffffffffffffffffffff60405f20549316908184106102b957916060916102a57f38f45d6915c9be7dfbe3e950daf4af0b9be9b323482e91ee9f1c37f556143f4d9473ffffffffffffffffffffffffffffffffffffffff841696875f525f60205260405f20848154039055335f52600260205260405f20885f526020528360405f209103905573ffffffffffffffffffffffffffffffffffffffff604051917fa9059cbb0000000000000000000000000000000000000000000000000000000060208401521693846024830152836044830152604482526102a06064836110a0565b6115f3565b6040519133835260208301526040820152a2005b507f283fc3e1000000000000000000000000000000000000000000000000000000005f5260045260245ffd5b346101425760207ffffffffffffffffffffffffffffffffffffffffffffffffffffffffffffffffc3601126101425761031c61103b565b7ff0c57e16840df040f15088dc2f81fe391c3923bec73e23a9662efc9c229c6a005460ff8160401c16159167ffffffffffffffff82168015908161050b575b6001149081610501575b1590816104f8575b506104d057818360017fffffffffffffffffffffffffffffffffffffffffffffffff00000000000000006103e29516177ff0c57e16840df040f15088dc2f81fe391c3923bec73e23a9662efc9c229c6a005561047b575b506103cd61168e565b6103d561168e565b6103dd61168e565b61150a565b6103e857005b7fffffffffffffffffffffffffffffffffffffffffffffff00ffffffffffffffff7ff0c57e16840df040f15088dc2f81fe391c3923bec73e23a9662efc9c229c6a0054167ff0c57e16840df040f15088dc2f81fe391c3923bec73e23a9662efc9c229c6a00557fc7f505b2f371ae2175ee4913f4499e1f2633a7b5936321eed1cdaeb6115181d2602060405160018152a1005b7fffffffffffffffffffffffffffffffffffffffffffffff0000000000000000001668010000000000000001177ff0c57e16840df040f15088dc2f81fe391c3923bec73e23a9662efc9c229c6a0055836103c4565b7ff92ee8a9000000000000000000000000000000000000000000000000000000005f5260045ffd5b9050158461036d565b303b159150610365565b84915061035b565b346101425760207ffffffffffffffffffffffffffffffffffffffffffffffffffffffffffffffffc3601126101425773ffffffffffffffffffffffffffffffffffffffff61055f61103b565b165f526001602052602060405f2054604051908152f35b34610142575f7ffffffffffffffffffffffffffffffffffffffffffffffffffffffffffffffffc3601126101425760408051906105b381836110a0565b6005825260208201917f352e302e3000000000000000000000000000000000000000000000000000000083527fffffffffffffffffffffffffffffffffffffffffffffffffffffffffffffffe0601f8351948593602085525180918160208701528686015e5f85828601015201168101030190f35b346101425760207ffffffffffffffffffffffffffffffffffffffffffffffffffffffffffffffffc3601126101425773ffffffffffffffffffffffffffffffffffffffff61067461103b565b61067c6115b3565b16807fffffffffffffffffffffffff00000000000000000000000000000000000000007f71907d27e7f56436d282b33232af729b796faa4dde12f80868ee08b9116c52015416177f71907d27e7f56436d282b33232af729b796faa4dde12f80868ee08b9116c52015573ffffffffffffffffffffffffffffffffffffffff7f71907d27e7f56436d282b33232af729b796faa4dde12f80868ee08b9116c520054167fb9911e2099e372c216862258dc462bb65da46a2c854536c8b1acae619d0d62ed5f80a3005b346101425760407ffffffffffffffffffffffffffffffffffffffffffffffffffffffffffffffffc3601126101425761077a61103b565b73ffffffffffffffffffffffffffffffffffffffff6024359161079b6115b3565b1690815f525f60205260405f205481106107e95760207fbb2df74a35c9f152b82fa39852e7578289d6ab34159edac98d680a172b9ef9fe91835f52600182528060405f2055604051908152a2005b7fcdff33a4000000000000000000000000000000000000000000000000000000005f5260045260245ffd5b34610142575f7ffffffffffffffffffffffffffffffffffffffffffffffffffffffffffffffffc360112610142577f71907d27e7f56436d282b33232af729b796faa4dde12f80868ee08b9116c52015473ffffffffffffffffffffffffffffffffffffffff811633036108d0577fffffffffffffffffffffffff0000000000000000000000000000000000000000167f71907d27e7f56436d282b33232af729b796faa4dde12f80868ee08b9116c5201556108ce3361150a565b005b7fee90c468000000000000000000000000000000000000000000000000000000005f5260045ffd5b34610142575f7ffffffffffffffffffffffffffffffffffffffffffffffffffffffffffffffffc3601126101425773ffffffffffffffffffffffffffffffffffffffff7f000000000000000000000000000000000000000000000000000000000000000016300361098d5760206040517f360894a13ba1a3210667c828492db98dca3e2076cc3735a920a3ca505d382bbc8152f35b7fe07c8dba000000000000000000000000000000000000000000000000000000005f5260045ffd5b60407ffffffffffffffffffffffffffffffffffffffffffffffffffffffffffffffffc360112610142576109e761103b565b6024359067ffffffffffffffff8211610142573660238301121561014257816004013590610a148261110e565b91610a2260405193846110a0565b8083526020830193366024838301011161014257815f9260246020930187378401015273ffffffffffffffffffffffffffffffffffffffff7f000000000000000000000000000000000000000000000000000000000000000016803014908115610cae575b5061098d57610a946115b3565b73ffffffffffffffffffffffffffffffffffffffff8116926040517f52d1902d000000000000000000000000000000000000000000000000000000008152602081600481885afa5f9181610c7a575b50610b1457847f4c9c8ce3000000000000000000000000000000000000000000000000000000005f5260045260245ffd5b807f360894a13ba1a3210667c828492db98dca3e2076cc3735a920a3ca505d382bbc869203610c4f5750823b15610c2457807fffffffffffffffffffffffff00000000000000000000000000000000000000007f360894a13ba1a3210667c828492db98dca3e2076cc3735a920a3ca505d382bbc5416177f360894a13ba1a3210667c828492db98dca3e2076cc3735a920a3ca505d382bbc557fbc7cd75a20ee27fd9adebab32041f755214dbc6bffa90cc0225b39da2e5c2d3b5f80a2825115610bf2575f80916108ce945190845af4610bec6116e5565b91611714565b50505034610bfc57005b7fb398979f000000000000000000000000000000000000000000000000000000005f5260045ffd5b7f4c9c8ce3000000000000000000000000000000000000000000000000000000005f5260045260245ffd5b7faa1d49a4000000000000000000000000000000000000000000000000000000005f5260045260245ffd5b9091506020813d602011610ca6575b81610c96602093836110a0565b8101031261014257519086610ae3565b3d9150610c89565b905073ffffffffffffffffffffffffffffffffffffffff7f360894a13ba1a3210667c828492db98dca3e2076cc3735a920a3ca505d382bbc5416141584610a87565b346101425760807ffffffffffffffffffffffffffffffffffffffffffffffffffffffffffffffffc36011261014257610d2761103b565b610d2f61105e565b610d37611081565b906064359167ffffffffffffffff831161014257366023840112156101425782600401359367ffffffffffffffff85116101425736602486860101116101425773ffffffffffffffffffffffffffffffffffffffff811694855f525f6020526fffffffffffffffffffffffffffffffff60405f2054931694858401809411610ecf57865f52600160205260405f20548411610ea35792610e6573ffffffffffffffffffffffffffffffffffffffff93610e1a6060979460247f6e613e504dcbe267f60e295b08e0a211b63db8690d660e5ed4f864d409bb66209a98013084611148565b604051907f23b872dd000000000000000000000000000000000000000000000000000000006020830152336024830152306044830152866064830152606482526102a06084836110a0565b865f525f60205260405f20551690815f52600260205260405f20855f5260205260405f208181540190556040519133835260208301526040820152a2005b857f5e98dce2000000000000000000000000000000000000000000000000000000005f5260045260245ffd5b7f4e487b71000000000000000000000000000000000000000000000000000000005f52601160045260245ffd5b346101425760207ffffffffffffffffffffffffffffffffffffffffffffffffffffffffffffffffc3601126101425773ffffffffffffffffffffffffffffffffffffffff610f4861103b565b165f525f602052602060405f2054604051908152f35b34610142575f7ffffffffffffffffffffffffffffffffffffffffffffffffffffffffffffffffc36011261014257602073ffffffffffffffffffffffffffffffffffffffff7f71907d27e7f56436d282b33232af729b796faa4dde12f80868ee08b9116c52015416604051908152f35b34610142575f7ffffffffffffffffffffffffffffffffffffffffffffffffffffffffffffffffc3601126101425760209073ffffffffffffffffffffffffffffffffffffffff7f71907d27e7f56436d282b33232af729b796faa4dde12f80868ee08b9116c520054168152f35b6004359073ffffffffffffffffffffffffffffffffffffffff8216820361014257565b6024359073ffffffffffffffffffffffffffffffffffffffff8216820361014257565b604435906fffffffffffffffffffffffffffffffff8216820361014257565b90601f7fffffffffffffffffffffffffffffffffffffffffffffffffffffffffffffffe0910116810190811067ffffffffffffffff8211176110e157604052565b7f4e487b71000000000000000000000000000000000000000000000000000000005f52604160045260245ffd5b67ffffffffffffffff81116110e157601f017fffffffffffffffffffffffffffffffffffffffffffffffffffffffffffffffe01660200190565b908315611504575f9384936040519282908160641461144d578160481461138a578160e01461135057816101001461131457816060146112195750610160146111cf578185926004927f9fd5a6cf0000000000000000000000000000000000000000000000000000000086528386013701925af15b156111c457565b6040513d5f823e3d90fd5b610164935061016091507f2b67b5700000000000000000000000000000000000000000000000000000000083526004830137826e22d473030f116ddee9f6b43ac78ba35af16111bd565b602093506040929150610164957f2b67b570000000000000000000000000000000000000000000000000000000008652336004870152602486015260148260508701377fffffffffffffffffffffffffffffffffffffffffffffffffffffffffffffffff601483013560e01c0165ffffffffffff166064860152601882013560e01c608486015260a48501527fffffffffffffffffffffffffffffffffffffffffffffffffffffffffffffffff601c82013560e01c0165ffffffffffff1660c485015261010060e4850152816101048501528280820161012486013701610144830137826e22d473030f116ddee9f6b43ac78ba35af16111bd565b505084915092610100610104947f8fcbaf0c00000000000000000000000000000000000000000000000000000000855260048501375af16111bd565b50508491509260e060e4947fd505accf00000000000000000000000000000000000000000000000000000000855260048501375af16111bd565b8693507f7fffffffffffffffffffffffffffffffffffffffffffffffffffffffffffffff91509161010495927f8fcbaf0c000000000000000000000000000000000000000000000000000000008652336004870152602486015260206008602883013592803560e01c60448901527fffffffffffffffffffffffffffffffffffffffffffffffffffffffffffffffff600482013560e01c016064890152600160848901528360ff1c601b0160a48901520160c48701371660e48401525af16111bd565b8693507f7fffffffffffffffffffffffffffffffffffffffffffffffffffffffffffffff91509160e495927fd505accf000000000000000000000000000000000000000000000000000000008652336004870152602486015260206024604483013592828160448a01377fffffffffffffffffffffffffffffffffffffffffffffffffffffffffffffffff8382013560e01c0160648901528360ff1c601b0160848901520160a48701371660c48401525af16111bd565b50505050565b73ffffffffffffffffffffffffffffffffffffffff807f71907d27e7f56436d282b33232af729b796faa4dde12f80868ee08b9116c520054921691827fffffffffffffffffffffffff00000000000000000000000000000000000000008216177f71907d27e7f56436d282b33232af729b796faa4dde12f80868ee08b9116c520055167f3d1e4c3a68fed9f4f8315582b7297cf8fa264bc8e6704287603ba8c72bf05ac25f80a3565b73ffffffffffffffffffffffffffffffffffffffff7f71907d27e7f56436d282b33232af729b796faa4dde12f80868ee08b9116c5200541633036108d057565b5f8073ffffffffffffffffffffffffffffffffffffffff61162993169360208151910182865af16116226116e5565b9083611714565b805190811515918261166a575b505061163f5750565b7f5274afe7000000000000000000000000000000000000000000000000000000005f5260045260245ffd5b81925090602091810103126101425760200151801590811503610142575f80611636565b60ff7ff0c57e16840df040f15088dc2f81fe391c3923bec73e23a9662efc9c229c6a005460401c16156116bd57565b7fd7e6bcf8000000000000000000000000000000000000000000000000000000005f5260045ffd5b3d1561170f573d906116f68261110e565b9161170460405193846110a0565b82523d5f602084013e565b606090565b90611751575080511561172957805190602001fd5b7f1425ea42000000000000000000000000000000000000000000000000000000005f5260045ffd5b815115806117a4575b611762575090565b73ffffffffffffffffffffffffffffffffffffffff907f9996b315000000000000000000000000000000000000000000000000000000005f521660045260245ffd5b50803b1561175a56fea164736f6c634300081a000a",
  "linkReferences": {},
  "deployedLinkReferences": {}
}